{
  "contractName": "DeliveryContract",
  "abi": [
    {
      "constant": true,
      "inputs": [],
      "name": "name",
      "outputs": [
        {
          "name": "",
          "type": "bytes32"
        }
      ],
      "payable": false,
      "stateMutability": "view",
      "type": "function"
    },
    {
      "constant": true,
      "inputs": [],
      "name": "code",
      "outputs": [
        {
          "name": "",
          "type": "bytes32"
        }
      ],
      "payable": false,
      "stateMutability": "view",
      "type": "function"
    },
    {
      "constant": true,
      "inputs": [],
      "name": "ppcoin",
      "outputs": [
        {
          "name": "",
          "type": "address"
        }
      ],
      "payable": false,
      "stateMutability": "view",
      "type": "function"
    },
    {
      "constant": true,
      "inputs": [],
      "name": "stage",
      "outputs": [
        {
          "name": "",
          "type": "uint8"
        }
      ],
      "payable": false,
      "stateMutability": "view",
      "type": "function"
    },
    {
      "inputs": [
        {
          "name": "_name",
          "type": "bytes32"
        },
        {
          "name": "_code",
          "type": "bytes32"
        },
        {
          "name": "_ppcoinAddress",
          "type": "address"
        }
      ],
      "payable": false,
      "stateMutability": "nonpayable",
      "type": "constructor"
    },
    {
      "constant": false,
      "inputs": [
        {
          "name": "_parties",
          "type": "address[]"
        },
        {
          "name": "_amounts",
          "type": "uint256[]"
        }
      ],
      "name": "inviteParticipants",
      "outputs": [],
      "payable": false,
      "stateMutability": "nonpayable",
      "type": "function"
    },
    {
      "constant": false,
      "inputs": [
        {
          "name": "_party",
          "type": "address"
        },
        {
          "name": "response",
          "type": "bool"
        }
      ],
      "name": "processInvite",
      "outputs": [
        {
          "name": "",
          "type": "uint256"
        }
      ],
      "payable": false,
      "stateMutability": "nonpayable",
      "type": "function"
    },
    {
      "constant": false,
      "inputs": [],
      "name": "approve",
      "outputs": [],
      "payable": false,
      "stateMutability": "nonpayable",
      "type": "function"
    },
    {
      "constant": false,
      "inputs": [],
      "name": "reimburse",
      "outputs": [],
      "payable": false,
      "stateMutability": "nonpayable",
      "type": "function"
    },
    {
      "constant": true,
      "inputs": [],
      "name": "getParticipants",
      "outputs": [
        {
          "name": "",
          "type": "address[]"
        },
        {
          "name": "",
          "type": "uint256[]"
        }
      ],
      "payable": false,
      "stateMutability": "view",
      "type": "function"
    }
  ],
  "bytecode": "0x60806040526000600560006101000a81548160ff0219169083600681111561002357fe5b021790555034801561003457600080fd5b5060405160608061107e833981018060405281019080805190602001909291908051906020019092919080519060200190929190505050336000806101000a81548173ffffffffffffffffffffffffffffffffffffffff021916908373ffffffffffffffffffffffffffffffffffffffff1602179055508260018160001916905550816002816000191690555080600960006101000a81548173ffffffffffffffffffffffffffffffffffffffff021916908373ffffffffffffffffffffffffffffffffffffffff160217905550505050610f6a806101146000396000f300608060405260043610610099576000357c0100000000000000000000000000000000000000000000000000000000900463ffffffff16806306fdde031461009e57806312424e3f146100d157806322fb947d146100e857806324c12bf61461014b5780635aa68ac01461017e57806365377297146102325780636f12aa1814610289578063c040e6b814610332578063d3927c151461036b575b600080fd5b3480156100aa57600080fd5b506100b3610382565b60405180826000191660001916815260200191505060405180910390f35b3480156100dd57600080fd5b506100e6610388565b005b3480156100f457600080fd5b50610135600480360381019080803573ffffffffffffffffffffffffffffffffffffffff1690602001909291908035151590602001909291905050506105c6565b6040518082815260200191505060405180910390f35b34801561015757600080fd5b506101606107b3565b60405180826000191660001916815260200191505060405180910390f35b34801561018a57600080fd5b506101936107b9565b604051808060200180602001838103835285818151815260200191508051906020019060200280838360005b838110156101da5780820151818401526020810190506101bf565b50505050905001838103825284818151815260200191508051906020019060200280838360005b8381101561021c578082015181840152602081019050610201565b5050505090500194505050505060405180910390f35b34801561023e57600080fd5b50610247610923565b604051808273ffffffffffffffffffffffffffffffffffffffff1673ffffffffffffffffffffffffffffffffffffffff16815260200191505060405180910390f35b34801561029557600080fd5b506103306004803603810190808035906020019082018035906020019080806020026020016040519081016040528093929190818152602001838360200280828437820191505050505050919291929080359060200190820180359060200190808060200260200160405190810160405280939291908181526020018383602002808284378201915050505050509192919290505050610949565b005b34801561033e57600080fd5b50610347610cea565b6040518082600681111561035757fe5b60ff16815260200191505060405180910390f35b34801561037757600080fd5b50610380610cfd565b005b60015481565b60008060009054906101000a900473ffffffffffffffffffffffffffffffffffffffff1673ffffffffffffffffffffffffffffffffffffffff163373ffffffffffffffffffffffffffffffffffffffff161415156103e257fe5b60038060068111156103f057fe5b600560009054906101000a900460ff16600681111561040b57fe5b14151561041757600080fd5b6004600560006101000a81548160ff0219169083600681111561043657fe5b0217905550600091505b6007805490508210156105c257600960009054906101000a900473ffffffffffffffffffffffffffffffffffffffff1673ffffffffffffffffffffffffffffffffffffffff1663a9059cbb60078481548110151561049a57fe5b906000526020600020906003020160000160009054906101000a900473ffffffffffffffffffffffffffffffffffffffff166007858154811015156104db57fe5b9060005260206000209060030201600101546040518363ffffffff167c0100000000000000000000000000000000000000000000000000000000028152600401808373ffffffffffffffffffffffffffffffffffffffff1673ffffffffffffffffffffffffffffffffffffffff16815260200182815260200192505050602060405180830381600087803b15801561057257600080fd5b505af1158015610586573d6000803e3d6000fd5b505050506040513d602081101561059c57600080fd5b810190808051906020019092919050505015156105b557fe5b8180600101925050610440565b5050565b60008060028060068111156105d757fe5b600560009054906101000a900460ff1660068111156105f257fe5b1415156105fe57600080fd5b600860008673ffffffffffffffffffffffffffffffffffffffff1673ffffffffffffffffffffffffffffffffffffffff1681526020019081526020016000205491506007805490508210151561065057fe5b60078281548110151561065f57fe5b906000526020600020906003020160000160009054906101000a900473ffffffffffffffffffffffffffffffffffffffff1673ffffffffffffffffffffffffffffffffffffffff163373ffffffffffffffffffffffffffffffffffffffff161415156106c757fe5b6007828154811015156106d657fe5b906000526020600020906003020160020160009054906101000a900460ff161515156106fe57fe5b831561078757600160078381548110151561071557fe5b906000526020600020906003020160020160006101000a81548160ff02191690831515021790555060016004600082825401925050819055506007805490506004541415610782576003600560006101000a81548160ff0219169083600681111561077c57fe5b02179055505b6107ab565b60058060006101000a81548160ff021916908360068111156107a557fe5b02179055505b505092915050565b60025481565b60608060608060006007805490506040519080825280602002602001820160405280156107f55781602001602082028038833980820191505090505b50925060078054905060405190808252806020026020018201604052801561082c5781602001602082028038833980820191505090505b509150600090505b6007805490508110156109165760078181548110151561085057fe5b906000526020600020906003020160000160009054906101000a900473ffffffffffffffffffffffffffffffffffffffff16838281518110151561089057fe5b9060200190602002019073ffffffffffffffffffffffffffffffffffffffff16908173ffffffffffffffffffffffffffffffffffffffff16815250506007818154811015156108db57fe5b90600052602060002090600302016001015482828151811015156108fb57fe5b90602001906020020181815250508080600101915050610834565b8282945094505050509091565b600960009054906101000a900473ffffffffffffffffffffffffffffffffffffffff1681565b60008060009054906101000a900473ffffffffffffffffffffffffffffffffffffffff1673ffffffffffffffffffffffffffffffffffffffff163373ffffffffffffffffffffffffffffffffffffffff161415156109a357fe5b60018060068111156109b157fe5b600560009054906101000a900460ff1660068111156109cc57fe5b1415156109d857600080fd5b6002600560006101000a81548160ff021916908360068111156109f757fe5b0217905550610a0583610ee3565b600381905550600091505b8351821015610b855760076060604051908101604052808685815181101515610a3557fe5b9060200190602002015173ffffffffffffffffffffffffffffffffffffffff1681526020018585815181101515610a6857fe5b906020019060200201518152602001600015158152509080600181540180825580915050906001820390600052602060002090600302016000909192909190915060008201518160000160006101000a81548173ffffffffffffffffffffffffffffffffffffffff021916908373ffffffffffffffffffffffffffffffffffffffff1602179055506020820151816001015560408201518160020160006101000a81548160ff02191690831515021790555050505081600860008685815181101515610b3057fe5b9060200190602002015173ffffffffffffffffffffffffffffffffffffffff1673ffffffffffffffffffffffffffffffffffffffff168152602001908152602001600020819055508180600101925050610a10565b600960009054906101000a900473ffffffffffffffffffffffffffffffffffffffff1673ffffffffffffffffffffffffffffffffffffffff166323b872dd6000809054906101000a900473ffffffffffffffffffffffffffffffffffffffff16306003546040518463ffffffff167c0100000000000000000000000000000000000000000000000000000000028152600401808473ffffffffffffffffffffffffffffffffffffffff1673ffffffffffffffffffffffffffffffffffffffff1681526020018373ffffffffffffffffffffffffffffffffffffffff1673ffffffffffffffffffffffffffffffffffffffff1681526020018281526020019350505050602060405180830381600087803b158015610ca157600080fd5b505af1158015610cb5573d6000803e3d6000fd5b505050506040513d6020811015610ccb57600080fd5b81019080805190602001909291905050501515610ce457fe5b50505050565b600560009054906101000a900460ff1681565b60008060009054906101000a900473ffffffffffffffffffffffffffffffffffffffff1673ffffffffffffffffffffffffffffffffffffffff163373ffffffffffffffffffffffffffffffffffffffff16141515610d5757fe5b6003806006811115610d6557fe5b600560009054906101000a900460ff166006811115610d8057fe5b141515610d8c57600080fd5b6006600560006101000a81548160ff02191690836006811115610dab57fe5b021790555060035491506000600381905550600960009054906101000a900473ffffffffffffffffffffffffffffffffffffffff1673ffffffffffffffffffffffffffffffffffffffff1663a9059cbb6000809054906101000a900473ffffffffffffffffffffffffffffffffffffffff16846040518363ffffffff167c0100000000000000000000000000000000000000000000000000000000028152600401808373ffffffffffffffffffffffffffffffffffffffff1673ffffffffffffffffffffffffffffffffffffffff16815260200182815260200192505050602060405180830381600087803b158015610ea357600080fd5b505af1158015610eb7573d6000803e3d6000fd5b505050506040513d6020811015610ecd57600080fd5b8101908080519060200190929190505050505050565b600080826000815181101515610ef557fe5b906020019060200201519150600190505b8251811015610f38578281815181101515610f1d57fe5b90602001906020020151820191508080600101915050610f06565b509190505600a165627a7a723058203251276420cfae1f884791c8a9a6b124301ea9d058b9a53ca607c9129de2f05b0029",
  "source": "pragma solidity ^0.4.16;\nimport \"./Token/PPcoin.sol\";\nimport \"./Measurements.sol\";\n\n\ncontract DeliveryContract {\n\n    address owner;\n\n    bytes32 public name;\n    bytes32 public code;\n    uint escrowed_amount;\n\n    enum Stages {\n        New,\n        hasAttributes,\n        WaitingForParties,\n        InProgress,\n        Complete,\n        Canceled,\n        reimburse\n    }\n\n    struct Party {\n        address wallet;\n        uint amount;\n        bool has_accepted;\n    }\n\n    uint accepted_no;\n\n    Stages public stage = Stages.New;\n\n    Measurements [] measurements;\n\n    Party [] parties;\n\n    mapping(address => uint) party_from_address;\n\n    PPcoin public ppcoin;\n\n    modifier onlyOwner {\n        assert(msg.sender == owner);\n        _;\n    }\n\n    modifier onlyStage(Stages desired_stage) {\n        if (stage != desired_stage) throw;\n        _;\n    }\n\n    function DeliveryContract(bytes32 _name, bytes32 _code, address _ppcoinAddress) {\n        owner = msg.sender;\n        name = _name;\n        code = _code;\n        ppcoin = PPcoin(_ppcoinAddress);\n    }\n\n    function inviteParticipants(address [] _parties, uint [] _amounts)\n    onlyOwner\n    onlyStage(Stages.hasAttributes)\n    {\n        stage = Stages.WaitingForParties;\n        escrowed_amount = sum(_amounts);\n        for (uint i = 0; i < _parties.length; i++) {\n            parties.push(Party(_parties[i], _amounts[i], false));\n            party_from_address[_parties[i]] = i;\n        }\n        assert(ppcoin.transferFrom(owner, this, escrowed_amount));\n    }\n\n    function processInvite(address _party, bool response) onlyStage(Stages.WaitingForParties) returns (uint)\n    {\n        // Party doesn't exist -- overflow.\n        uint party_index = party_from_address[_party];\n        assert(party_index < parties.length);\n        assert(msg.sender == parties[party_index].wallet);\n        assert(!parties[party_index].has_accepted);\n\n        // User has accepted.\n        if(response)\n        {\n            parties[party_index].has_accepted = true;\n            accepted_no += 1;\n\n            // All accepted.\n            if(accepted_no == parties.length)\n            {\n                stage = Stages.InProgress;\n            }\n        }\n        else\n        {\n            stage = Stages.Canceled;\n        }\n    }\n\n    function approve() onlyOwner onlyStage(Stages.InProgress)  {\n        stage = Stages.Complete;\n        for (uint i = 0; i < parties.length; i++) {\n            assert(ppcoin.transfer(parties[i].wallet, parties[i].amount));\n        }\n    }\n\n    function reimburse() onlyOwner onlyStage(Stages.InProgress) {\n        stage = Stages.reimburse;\n        uint amount = escrowed_amount;\n        escrowed_amount = 0;\n        ppcoin.transfer(owner, amount);\n    }\n\n    function getParticipants() constant returns (address [], uint []) {\n        address [] memory wallets = new address[](parties.length);\n        uint [] memory amounts = new uint[](parties.length);\n        for (uint i = 0; i < parties.length; i++) {\n            wallets[i] = parties[i].wallet;\n            amounts[i] = parties[i].amount;\n        }\n        return (wallets, amounts);\n    }\n\n    function sum(uint[] memory self) internal constant returns (uint r) {\n        r = self[0];\n        for (uint i = 1; i < self.length; i++) {\n            r += self[i];\n        }\n    }\n\n}\n",
  "sourcePath": "/Users/hao/onedrive/OneDrive - The University of Melbourne/project/Product_passport/contracts/DeliveryContract.sol",
  "compiler": {
    "name": "solc",
    "version": "0.4.23+commit.124ca40d.Emscripten.clang"
  },
  "schemaVersion": "2.0.0",
  "updatedAt": "2018-05-28T22:44:17.720Z"
}