{
  "contractName": "DeliveryContract",
  "abi": [
    {
      "constant": true,
      "inputs": [],
      "name": "name",
      "outputs": [
        {
          "name": "",
          "type": "bytes32"
        }
      ],
      "payable": false,
      "stateMutability": "view",
      "type": "function"
    },
    {
      "constant": true,
      "inputs": [],
      "name": "code",
      "outputs": [
        {
          "name": "",
          "type": "bytes32"
        }
      ],
      "payable": false,
      "stateMutability": "view",
      "type": "function"
    },
    {
      "constant": true,
      "inputs": [],
      "name": "ppcoin",
      "outputs": [
        {
          "name": "",
          "type": "address"
        }
      ],
      "payable": false,
      "stateMutability": "view",
      "type": "function"
    },
    {
      "constant": true,
      "inputs": [],
      "name": "stage",
      "outputs": [
        {
          "name": "",
          "type": "uint8"
        }
      ],
      "payable": false,
      "stateMutability": "view",
      "type": "function"
    },
    {
      "inputs": [
        {
          "name": "_name",
          "type": "bytes32"
        },
        {
          "name": "_code",
          "type": "bytes32"
        },
        {
          "name": "_ppcoinAddress",
          "type": "address"
        }
      ],
      "payable": false,
      "stateMutability": "nonpayable",
      "type": "constructor"
    },
    {
      "constant": false,
      "inputs": [
        {
          "name": "_parties",
          "type": "address[]"
        },
        {
          "name": "_amounts",
          "type": "uint256[]"
        }
      ],
      "name": "inviteParticipants",
      "outputs": [],
      "payable": false,
      "stateMutability": "nonpayable",
      "type": "function"
    },
    {
      "constant": false,
      "inputs": [
        {
          "name": "_party",
          "type": "address"
        },
        {
          "name": "response",
          "type": "bool"
        }
      ],
      "name": "processInvite",
      "outputs": [
        {
          "name": "",
          "type": "uint256"
        }
      ],
      "payable": false,
      "stateMutability": "nonpayable",
      "type": "function"
    },
    {
      "constant": false,
      "inputs": [],
      "name": "approve",
      "outputs": [],
      "payable": false,
      "stateMutability": "nonpayable",
      "type": "function"
    },
    {
      "constant": false,
      "inputs": [],
      "name": "reimburse",
      "outputs": [],
      "payable": false,
      "stateMutability": "nonpayable",
      "type": "function"
    },
    {
      "constant": true,
      "inputs": [],
      "name": "getParticipants",
      "outputs": [
        {
          "name": "",
          "type": "address[]"
        },
        {
          "name": "",
          "type": "uint256[]"
        }
      ],
      "payable": false,
      "stateMutability": "view",
      "type": "function"
    }
  ],
  "bytecode": "0x60606040526000600560006101000a81548160ff0219169083600681111561002357fe5b0217905550341561003357600080fd5b6040516060806110b483398101604052808051906020019091908051906020019091908051906020019091905050336000806101000a81548173ffffffffffffffffffffffffffffffffffffffff021916908373ffffffffffffffffffffffffffffffffffffffff1602179055508260018160001916905550816002816000191690555080600960006101000a81548173ffffffffffffffffffffffffffffffffffffffff021916908373ffffffffffffffffffffffffffffffffffffffff160217905550505050610faa8061010a6000396000f300606060405260043610610099576000357c0100000000000000000000000000000000000000000000000000000000900463ffffffff16806306fdde031461009e57806312424e3f146100cf57806322fb947d146100e457806324c12bf61461013c5780635aa68ac01461016d578063653772971461021f5780636f12aa1814610274578063c040e6b81461030e578063d3927c1514610345575b600080fd5b34156100a957600080fd5b6100b161035a565b60405180826000191660001916815260200191505060405180910390f35b34156100da57600080fd5b6100e2610360565b005b34156100ef57600080fd5b610126600480803573ffffffffffffffffffffffffffffffffffffffff169060200190919080351515906020019091905050610586565b6040518082815260200191505060405180910390f35b341561014757600080fd5b61014f610773565b60405180826000191660001916815260200191505060405180910390f35b341561017857600080fd5b610180610779565b604051808060200180602001838103835285818151815260200191508051906020019060200280838360005b838110156101c75780820151818401526020810190506101ac565b50505050905001838103825284818151815260200191508051906020019060200280838360005b838110156102095780820151818401526020810190506101ee565b5050505090500194505050505060405180910390f35b341561022a57600080fd5b6102326108db565b604051808273ffffffffffffffffffffffffffffffffffffffff1673ffffffffffffffffffffffffffffffffffffffff16815260200191505060405180910390f35b341561027f57600080fd5b61030c60048080359060200190820180359060200190808060200260200160405190810160405280939291908181526020018383602002808284378201915050505050509190803590602001908201803590602001908080602002602001604051908101604052809392919081815260200183836020028082843782019150505050505091905050610901565b005b341561031957600080fd5b610321610c86565b6040518082600681111561033157fe5b60ff16815260200191505060405180910390f35b341561035057600080fd5b610358610c99565b005b60015481565b60008060009054906101000a900473ffffffffffffffffffffffffffffffffffffffff1673ffffffffffffffffffffffffffffffffffffffff163373ffffffffffffffffffffffffffffffffffffffff161415156103ba57fe5b60038060068111156103c857fe5b600560009054906101000a900460ff1660068111156103e357fe5b1415156103ef57600080fd5b6004600560006101000a81548160ff0219169083600681111561040e57fe5b0217905550600091505b60078054905082101561058257600960009054906101000a900473ffffffffffffffffffffffffffffffffffffffff1673ffffffffffffffffffffffffffffffffffffffff1663a9059cbb60078481548110151561047257fe5b906000526020600020906003020160000160009054906101000a900473ffffffffffffffffffffffffffffffffffffffff166007858154811015156104b357fe5b9060005260206000209060030201600101546000604051602001526040518363ffffffff167c0100000000000000000000000000000000000000000000000000000000028152600401808373ffffffffffffffffffffffffffffffffffffffff1673ffffffffffffffffffffffffffffffffffffffff16815260200182815260200192505050602060405180830381600087803b151561055257600080fd5b6102c65a03f1151561056357600080fd5b50505060405180519050151561057557fe5b8180600101925050610418565b5050565b600080600280600681111561059757fe5b600560009054906101000a900460ff1660068111156105b257fe5b1415156105be57600080fd5b600860008673ffffffffffffffffffffffffffffffffffffffff1673ffffffffffffffffffffffffffffffffffffffff1681526020019081526020016000205491506007805490508210151561061057fe5b60078281548110151561061f57fe5b906000526020600020906003020160000160009054906101000a900473ffffffffffffffffffffffffffffffffffffffff1673ffffffffffffffffffffffffffffffffffffffff163373ffffffffffffffffffffffffffffffffffffffff1614151561068757fe5b60078281548110151561069657fe5b906000526020600020906003020160020160009054906101000a900460ff161515156106be57fe5b83156107475760016007838154811015156106d557fe5b906000526020600020906003020160020160006101000a81548160ff02191690831515021790555060016004600082825401925050819055506007805490506004541415610742576003600560006101000a81548160ff0219169083600681111561073c57fe5b02179055505b61076b565b60058060006101000a81548160ff0219169083600681111561076557fe5b02179055505b505092915050565b60025481565b610781610ec2565b610789610ed6565b610791610ec2565b610799610ed6565b60006007805490506040518059106107ae5750595b908082528060200260200182016040525092506007805490506040518059106107d45750595b90808252806020026020018201604052509150600090505b6007805490508110156108ce5760078181548110151561080857fe5b906000526020600020906003020160000160009054906101000a900473ffffffffffffffffffffffffffffffffffffffff16838281518110151561084857fe5b9060200190602002019073ffffffffffffffffffffffffffffffffffffffff16908173ffffffffffffffffffffffffffffffffffffffff168152505060078181548110151561089357fe5b90600052602060002090600302016001015482828151811015156108b357fe5b906020019060200201818152505080806001019150506107ec565b8282945094505050509091565b600960009054906101000a900473ffffffffffffffffffffffffffffffffffffffff1681565b60008060009054906101000a900473ffffffffffffffffffffffffffffffffffffffff1673ffffffffffffffffffffffffffffffffffffffff163373ffffffffffffffffffffffffffffffffffffffff1614151561095b57fe5b600180600681111561096957fe5b600560009054906101000a900460ff16600681111561098457fe5b14151561099057600080fd5b6002600560006101000a81548160ff021916908360068111156109af57fe5b02179055506109bd83610e67565b600381905550600091505b8351821015610b3957600780548060010182816109e59190610eea565b916000526020600020906003020160006060604051908101604052808887815181101515610a0f57fe5b9060200190602002015173ffffffffffffffffffffffffffffffffffffffff1681526020018787815181101515610a4257fe5b90602001906020020151815260200160001515815250909190915060008201518160000160006101000a81548173ffffffffffffffffffffffffffffffffffffffff021916908373ffffffffffffffffffffffffffffffffffffffff1602179055506020820151816001015560408201518160020160006101000a81548160ff02191690831515021790555050505081600860008685815181101515610ae457fe5b9060200190602002015173ffffffffffffffffffffffffffffffffffffffff1673ffffffffffffffffffffffffffffffffffffffff1681526020019081526020016000208190555081806001019250506109c8565b600960009054906101000a900473ffffffffffffffffffffffffffffffffffffffff1673ffffffffffffffffffffffffffffffffffffffff166323b872dd6000809054906101000a900473ffffffffffffffffffffffffffffffffffffffff16306003546000604051602001526040518463ffffffff167c0100000000000000000000000000000000000000000000000000000000028152600401808473ffffffffffffffffffffffffffffffffffffffff1673ffffffffffffffffffffffffffffffffffffffff1681526020018373ffffffffffffffffffffffffffffffffffffffff1673ffffffffffffffffffffffffffffffffffffffff1681526020018281526020019350505050602060405180830381600087803b1515610c5d57600080fd5b6102c65a03f11515610c6e57600080fd5b505050604051805190501515610c8057fe5b50505050565b600560009054906101000a900460ff1681565b60008060009054906101000a900473ffffffffffffffffffffffffffffffffffffffff1673ffffffffffffffffffffffffffffffffffffffff163373ffffffffffffffffffffffffffffffffffffffff16141515610cf357fe5b6003806006811115610d0157fe5b600560009054906101000a900460ff166006811115610d1c57fe5b141515610d2857600080fd5b6006600560006101000a81548160ff02191690836006811115610d4757fe5b021790555060035491506000600381905550600960009054906101000a900473ffffffffffffffffffffffffffffffffffffffff1673ffffffffffffffffffffffffffffffffffffffff1663a9059cbb6000809054906101000a900473ffffffffffffffffffffffffffffffffffffffff16846000604051602001526040518363ffffffff167c0100000000000000000000000000000000000000000000000000000000028152600401808373ffffffffffffffffffffffffffffffffffffffff1673ffffffffffffffffffffffffffffffffffffffff16815260200182815260200192505050602060405180830381600087803b1515610e4757600080fd5b6102c65a03f11515610e5857600080fd5b50505060405180519050505050565b600080826000815181101515610e7957fe5b906020019060200201519150600190505b8251811015610ebc578281815181101515610ea157fe5b90602001906020020151820191508080600101915050610e8a565b50919050565b602060405190810160405280600081525090565b602060405190810160405280600081525090565b815481835581811511610f1757600302816003028360005260206000209182019101610f169190610f1c565b5b505050565b610f7b91905b80821115610f7757600080820160006101000a81549073ffffffffffffffffffffffffffffffffffffffff021916905560018201600090556002820160006101000a81549060ff021916905550600301610f22565b5090565b905600a165627a7a7230582094da1624902046980a459c6a4a4d5e6a24a7b2350d2ccf53bb8001dfcd32abea0029",
  "source": "pragma solidity ^0.4.16;\nimport \"./Token/PPcoin.sol\";\nimport \"./Measurements.sol\";\n\n\ncontract DeliveryContract {\n\n    address owner;\n\n    bytes32 public name;\n    bytes32 public code;\n    uint escrowed_amount;\n\n    enum Stages {\n        New,\n        hasAttributes,\n        WaitingForParties,\n        InProgress,\n        Complete,\n        Canceled,\n        reimburse\n    }\n\n    struct Party {\n        address wallet;\n        uint amount;\n        bool has_accepted;\n    }\n\n    uint accepted_no;\n\n    Stages public stage = Stages.New;\n\n    Measurements [] measurements;\n\n    Party [] parties;\n\n    mapping(address => uint) party_from_address;\n\n    PPcoin public ppcoin;\n\n    modifier onlyOwner {\n        assert(msg.sender == owner);\n        _;\n    }\n\n    modifier onlyStage(Stages desired_stage) {\n        if (stage != desired_stage) throw;\n        _;\n    }\n\n    function DeliveryContract(bytes32 _name, bytes32 _code, address _ppcoinAddress) {\n        owner = msg.sender;\n        name = _name;\n        code = _code;\n        ppcoin = PPcoin(_ppcoinAddress);\n    }\n\n    function inviteParticipants(address [] _parties, uint [] _amounts)\n    onlyOwner\n    onlyStage(Stages.hasAttributes)\n    {\n        stage = Stages.WaitingForParties;\n        escrowed_amount = sum(_amounts);\n        for (uint i = 0; i < _parties.length; i++) {\n            parties.push(Party(_parties[i], _amounts[i], false));\n            party_from_address[_parties[i]] = i;\n        }\n        assert(ppcoin.transferFrom(owner, this, escrowed_amount));\n    }\n\n    function processInvite(address _party, bool response) onlyStage(Stages.WaitingForParties) returns (uint)\n    {\n        // Party doesn't exist -- overflow.\n        uint party_index = party_from_address[_party];\n        assert(party_index < parties.length);\n        assert(msg.sender == parties[party_index].wallet);\n        assert(!parties[party_index].has_accepted);\n\n        // User has accepted.\n        if(response)\n        {\n            parties[party_index].has_accepted = true;\n            accepted_no += 1;\n\n            // All accepted.\n            if(accepted_no == parties.length)\n            {\n                stage = Stages.InProgress;\n            }\n        }\n        else\n        {\n            stage = Stages.Canceled;\n        }\n    }\n\n    function approve() onlyOwner onlyStage(Stages.InProgress)  {\n        stage = Stages.Complete;\n        for (uint i = 0; i < parties.length; i++) {\n            assert(ppcoin.transfer(parties[i].wallet, parties[i].amount));\n        }\n    }\n\n    function reimburse() onlyOwner onlyStage(Stages.InProgress) {\n        stage = Stages.reimburse;\n        uint amount = escrowed_amount;\n        escrowed_amount = 0;\n        ppcoin.transfer(owner, amount);\n    }\n\n    function getParticipants() constant returns (address [], uint []) {\n        address [] memory wallets = new address[](parties.length);\n        uint [] memory amounts = new uint[](parties.length);\n        for (uint i = 0; i < parties.length; i++) {\n            wallets[i] = parties[i].wallet;\n            amounts[i] = parties[i].amount;\n        }\n        return (wallets, amounts);\n    }\n\n    function sum(uint[] memory self) internal constant returns (uint r) {\n        r = self[0];\n        for (uint i = 1; i < self.length; i++) {\n            r += self[i];\n        }\n    }\n\n}\n",
  "sourcePath": "/Users/hao/onedrive/OneDrive - The University of Melbourne/project/Product_passport/contracts/DeliveryContract.sol",
  "compiler": {
    "name": "solc",
    "version": "0.4.19+commit.c4cbbb05.Emscripten.clang"
  },
  "schemaVersion": "2.0.0",
  "updatedAt": "2018-05-03T05:52:33.492Z"
}