{
  "contractName": "DeliveryContract",
  "abi": [
    {
      "constant": true,
      "inputs": [],
      "name": "name",
      "outputs": [
        {
          "name": "",
          "type": "bytes32"
        }
      ],
      "payable": false,
      "stateMutability": "view",
      "type": "function"
    },
    {
      "constant": true,
      "inputs": [],
      "name": "code",
      "outputs": [
        {
          "name": "",
          "type": "bytes32"
        }
      ],
      "payable": false,
      "stateMutability": "view",
      "type": "function"
    },
    {
      "constant": true,
      "inputs": [],
      "name": "stage",
      "outputs": [
        {
          "name": "",
          "type": "uint8"
        }
      ],
      "payable": false,
      "stateMutability": "view",
      "type": "function"
    },
    {
      "inputs": [
        {
          "name": "_name",
          "type": "bytes32"
        },
        {
          "name": "_code",
          "type": "bytes32"
        },
        {
          "name": "_ppcoinAddress",
          "type": "address"
        }
      ],
      "payable": false,
      "stateMutability": "nonpayable",
      "type": "constructor"
    },
    {
      "constant": false,
      "inputs": [
        {
          "name": "_parties",
          "type": "address[]"
        },
        {
          "name": "_amounts",
          "type": "uint256[]"
        }
      ],
      "name": "inviteParticipants",
      "outputs": [],
      "payable": false,
      "stateMutability": "nonpayable",
      "type": "function"
    },
    {
      "constant": false,
      "inputs": [
        {
          "name": "_party",
          "type": "address"
        },
        {
          "name": "response",
          "type": "bool"
        }
      ],
      "name": "processInvite",
      "outputs": [
        {
          "name": "",
          "type": "uint256"
        }
      ],
      "payable": false,
      "stateMutability": "nonpayable",
      "type": "function"
    },
    {
      "constant": false,
      "inputs": [],
      "name": "approve",
      "outputs": [],
      "payable": false,
      "stateMutability": "nonpayable",
      "type": "function"
    },
    {
      "constant": false,
      "inputs": [],
      "name": "reimburse",
      "outputs": [],
      "payable": false,
      "stateMutability": "nonpayable",
      "type": "function"
    },
    {
      "constant": true,
      "inputs": [],
      "name": "getParticipants",
      "outputs": [
        {
          "name": "",
          "type": "address[]"
        },
        {
          "name": "",
          "type": "uint256[]"
        }
      ],
      "payable": false,
      "stateMutability": "view",
      "type": "function"
    }
  ],
  "bytecode": "0x60806040526000600560006101000a81548160ff0219169083600681111561002357fe5b021790555034801561003457600080fd5b50604051606080610bcc833981018060405281019080805190602001909291908051906020019092919080519060200190929190505050336000806101000a81548173ffffffffffffffffffffffffffffffffffffffff021916908373ffffffffffffffffffffffffffffffffffffffff16021790555082600181600019169055508160028160001916905550505050610af9806100d36000396000f30060806040526004361061008e576000357c0100000000000000000000000000000000000000000000000000000000900463ffffffff16806306fdde031461009357806312424e3f146100c657806322fb947d146100dd57806324c12bf6146101405780635aa68ac0146101735780636f12aa1814610227578063c040e6b8146102d0578063d3927c1514610309575b600080fd5b34801561009f57600080fd5b506100a8610320565b60405180826000191660001916815260200191505060405180910390f35b3480156100d257600080fd5b506100db610326565b005b3480156100e957600080fd5b5061012a600480360381019080803573ffffffffffffffffffffffffffffffffffffffff1690602001909291908035151590602001909291905050506103fc565b6040518082815260200191505060405180910390f35b34801561014c57600080fd5b506101556105e9565b60405180826000191660001916815260200191505060405180910390f35b34801561017f57600080fd5b506101886105ef565b604051808060200180602001838103835285818151815260200191508051906020019060200280838360005b838110156101cf5780820151818401526020810190506101b4565b50505050905001838103825284818151815260200191508051906020019060200280838360005b838110156102115780820151818401526020810190506101f6565b5050505090500194505050505060405180910390f35b34801561023357600080fd5b506102ce6004803603810190808035906020019082018035906020019080806020026020016040519081016040528093929190818152602001838360200280828437820191505050505050919291929080359060200190820180359060200190808060200260200160405190810160405280939291908181526020018383602002808284378201915050505050509192919290505050610759565b005b3480156102dc57600080fd5b506102e561099b565b604051808260068111156102f557fe5b60ff16815260200191505060405180910390f35b34801561031557600080fd5b5061031e6109ae565b005b60015481565b60008060009054906101000a900473ffffffffffffffffffffffffffffffffffffffff1673ffffffffffffffffffffffffffffffffffffffff163373ffffffffffffffffffffffffffffffffffffffff1614151561038057fe5b600380600681111561038e57fe5b600560009054906101000a900460ff1660068111156103a957fe5b1415156103b557600080fd5b6004600560006101000a81548160ff021916908360068111156103d457fe5b0217905550600091505b6007805490508210156103f85781806001019250506103de565b5050565b600080600280600681111561040d57fe5b600560009054906101000a900460ff16600681111561042857fe5b14151561043457600080fd5b600860008673ffffffffffffffffffffffffffffffffffffffff1673ffffffffffffffffffffffffffffffffffffffff1681526020019081526020016000205491506007805490508210151561048657fe5b60078281548110151561049557fe5b906000526020600020906003020160000160009054906101000a900473ffffffffffffffffffffffffffffffffffffffff1673ffffffffffffffffffffffffffffffffffffffff163373ffffffffffffffffffffffffffffffffffffffff161415156104fd57fe5b60078281548110151561050c57fe5b906000526020600020906003020160020160009054906101000a900460ff1615151561053457fe5b83156105bd57600160078381548110151561054b57fe5b906000526020600020906003020160020160006101000a81548160ff021916908315150217905550600160046000828254019250508190555060078054905060045414156105b8576003600560006101000a81548160ff021916908360068111156105b257fe5b02179055505b6105e1565b60058060006101000a81548160ff021916908360068111156105db57fe5b02179055505b505092915050565b60025481565b606080606080600060078054905060405190808252806020026020018201604052801561062b5781602001602082028038833980820191505090505b5092506007805490506040519080825280602002602001820160405280156106625781602001602082028038833980820191505090505b509150600090505b60078054905081101561074c5760078181548110151561068657fe5b906000526020600020906003020160000160009054906101000a900473ffffffffffffffffffffffffffffffffffffffff1683828151811015156106c657fe5b9060200190602002019073ffffffffffffffffffffffffffffffffffffffff16908173ffffffffffffffffffffffffffffffffffffffff168152505060078181548110151561071157fe5b906000526020600020906003020160010154828281518110151561073157fe5b9060200190602002018181525050808060010191505061066a565b8282945094505050509091565b60008060009054906101000a900473ffffffffffffffffffffffffffffffffffffffff1673ffffffffffffffffffffffffffffffffffffffff163373ffffffffffffffffffffffffffffffffffffffff161415156107b357fe5b60018060068111156107c157fe5b600560009054906101000a900460ff1660068111156107dc57fe5b1415156107e857600080fd5b6002600560006101000a81548160ff0219169083600681111561080757fe5b021790555061081583610a72565b600381905550600091505b8351821015610995576007606060405190810160405280868581518110151561084557fe5b9060200190602002015173ffffffffffffffffffffffffffffffffffffffff168152602001858581518110151561087857fe5b906020019060200201518152602001600015158152509080600181540180825580915050906001820390600052602060002090600302016000909192909190915060008201518160000160006101000a81548173ffffffffffffffffffffffffffffffffffffffff021916908373ffffffffffffffffffffffffffffffffffffffff1602179055506020820151816001015560408201518160020160006101000a81548160ff0219169083151502179055505050508160086000868581518110151561094057fe5b9060200190602002015173ffffffffffffffffffffffffffffffffffffffff1673ffffffffffffffffffffffffffffffffffffffff168152602001908152602001600020819055508180600101925050610820565b50505050565b600560009054906101000a900460ff1681565b60008060009054906101000a900473ffffffffffffffffffffffffffffffffffffffff1673ffffffffffffffffffffffffffffffffffffffff163373ffffffffffffffffffffffffffffffffffffffff16141515610a0857fe5b6003806006811115610a1657fe5b600560009054906101000a900460ff166006811115610a3157fe5b141515610a3d57600080fd5b6006600560006101000a81548160ff02191690836006811115610a5c57fe5b0217905550600354915060006003819055505050565b600080826000815181101515610a8457fe5b906020019060200201519150600190505b8251811015610ac7578281815181101515610aac57fe5b90602001906020020151820191508080600101915050610a95565b509190505600a165627a7a723058207e7e9736ca67e46474391efd18429725619be92f5376e4f1cb28dcf5813e8e0a0029",
  "source": "pragma solidity ^0.4.16;\n\nimport \"./Measurements.sol\";\n\n\ncontract DeliveryContract {\n\n    address owner;\n\n    bytes32 public name;\n    bytes32 public code;\n    uint escrowed_amount;\n\n    enum Stages {\n        New,\n        hasAttributes,\n        WaitingForParties,\n        InProgress,\n        Complete,\n        Canceled,\n        reimburse\n    }\n\n    struct Party {\n        address wallet;\n        uint amount;\n        bool has_accepted;\n    }\n\n    uint accepted_no;\n\n    Stages public stage = Stages.New;\n\n    Measurements [] measurements;\n\n    Party [] parties;\n\n    mapping(address => uint) party_from_address;\n\n   // PPcoin public ppcoin;\n\n    modifier onlyOwner {\n        assert(msg.sender == owner);\n        _;\n    }\n\n    modifier onlyStage(Stages desired_stage) {\n        if (stage != desired_stage) throw;\n        _;\n    }\n\n    function DeliveryContract(bytes32 _name, bytes32 _code, address _ppcoinAddress) {\n        owner = msg.sender;\n        name = _name;\n        code = _code;\n        //ppcoin = PPcoin(_ppcoinAddress);\n    }\n\n    function inviteParticipants(address [] _parties, uint [] _amounts)\n    onlyOwner\n    onlyStage(Stages.hasAttributes)\n    {\n        stage = Stages.WaitingForParties;\n        escrowed_amount = sum(_amounts);\n        for (uint i = 0; i < _parties.length; i++) {\n            parties.push(Party(_parties[i], _amounts[i], false));\n            party_from_address[_parties[i]] = i;\n        }\n        //assert(ppcoin.transferFrom(owner, this, escrowed_amount));\n    }\n\n    function processInvite(address _party, bool response) onlyStage(Stages.WaitingForParties) returns (uint)\n    {\n        // Party doesn't exist -- overflow.\n        uint party_index = party_from_address[_party];\n        assert(party_index < parties.length);\n        assert(msg.sender == parties[party_index].wallet);\n        assert(!parties[party_index].has_accepted);\n\n        // User has accepted.\n        if(response)\n        {\n            parties[party_index].has_accepted = true;\n            accepted_no += 1;\n\n            // All accepted.\n            if(accepted_no == parties.length)\n            {\n                stage = Stages.InProgress;\n            }\n        }\n        else\n        {\n            stage = Stages.Canceled;\n        }\n    }\n\n    function approve() onlyOwner onlyStage(Stages.InProgress)  {\n        stage = Stages.Complete;\n        for (uint i = 0; i < parties.length; i++) {\n           // assert(ppcoin.transfer(parties[i].wallet, parties[i].amount));\n        }\n    }\n\n    function reimburse() onlyOwner onlyStage(Stages.InProgress) {\n        stage = Stages.reimburse;\n        uint amount = escrowed_amount;\n        escrowed_amount = 0;\n        //ppcoin.transfer(owner, amount);\n    }\n\n    function getParticipants() constant returns (address [], uint []) {\n        address [] memory wallets = new address[](parties.length);\n        uint [] memory amounts = new uint[](parties.length);\n        for (uint i = 0; i < parties.length; i++) {\n            wallets[i] = parties[i].wallet;\n            amounts[i] = parties[i].amount;\n        }\n        return (wallets, amounts);\n    }\n\n    function sum(uint[] memory self) internal constant returns (uint r) {\n        r = self[0];\n        for (uint i = 1; i < self.length; i++) {\n            r += self[i];\n        }\n    }\n\n}\n",
  "sourcePath": "/Users/hao/onedrive/OneDrive - The University of Melbourne/project/Product_passport/contracts/DeliveryContract.sol",
  "compiler": {
    "name": "solc",
    "version": "0.4.23+commit.124ca40d.Emscripten.clang"
  },
  "schemaVersion": "2.0.0",
  "updatedAt": "2018-05-31T23:59:05.051Z"
}