{
  "contractName": "Measurements",
  "abi": [
    {
      "constant": false,
      "inputs": [
        {
          "name": "owner_",
          "type": "address"
        }
      ],
      "name": "setOwner",
      "outputs": [],
      "payable": false,
      "stateMutability": "nonpayable",
      "type": "function"
    },
    {
      "constant": true,
      "inputs": [
        {
          "name": "roleName",
          "type": "string"
        }
      ],
      "name": "senderHasRole",
      "outputs": [
        {
          "name": "",
          "type": "bool"
        }
      ],
      "payable": false,
      "stateMutability": "view",
      "type": "function"
    },
    {
      "constant": false,
      "inputs": [
        {
          "name": "hashOfContract",
          "type": "bytes32"
        },
        {
          "name": "roleName",
          "type": "string"
        },
        {
          "name": "user",
          "type": "address"
        }
      ],
      "name": "grantUserRole",
      "outputs": [],
      "payable": false,
      "stateMutability": "nonpayable",
      "type": "function"
    },
    {
      "constant": true,
      "inputs": [
        {
          "name": "",
          "type": "bytes32"
        },
        {
          "name": "",
          "type": "bytes32"
        }
      ],
      "name": "knownRoleNames",
      "outputs": [
        {
          "name": "",
          "type": "bool"
        }
      ],
      "payable": false,
      "stateMutability": "view",
      "type": "function"
    },
    {
      "constant": true,
      "inputs": [],
      "name": "roles",
      "outputs": [
        {
          "name": "",
          "type": "address"
        }
      ],
      "payable": false,
      "stateMutability": "view",
      "type": "function"
    },
    {
      "constant": false,
      "inputs": [
        {
          "name": "hashOfContract",
          "type": "bytes32"
        },
        {
          "name": "roleName",
          "type": "string"
        }
      ],
      "name": "addContractRole",
      "outputs": [],
      "payable": false,
      "stateMutability": "nonpayable",
      "type": "function"
    },
    {
      "constant": false,
      "inputs": [
        {
          "name": "owner_",
          "type": "address"
        }
      ],
      "name": "transferOwnerShip",
      "outputs": [],
      "payable": false,
      "stateMutability": "nonpayable",
      "type": "function"
    },
    {
      "constant": true,
      "inputs": [
        {
          "name": "",
          "type": "bytes32"
        },
        {
          "name": "",
          "type": "bytes32"
        },
        {
          "name": "",
          "type": "address"
        }
      ],
      "name": "roleList",
      "outputs": [
        {
          "name": "",
          "type": "bool"
        }
      ],
      "payable": false,
      "stateMutability": "view",
      "type": "function"
    },
    {
      "constant": true,
      "inputs": [],
      "name": "owner",
      "outputs": [
        {
          "name": "",
          "type": "address"
        }
      ],
      "payable": false,
      "stateMutability": "view",
      "type": "function"
    },
    {
      "constant": true,
      "inputs": [],
      "name": "contractHash",
      "outputs": [
        {
          "name": "",
          "type": "bytes32"
        }
      ],
      "payable": false,
      "stateMutability": "view",
      "type": "function"
    },
    {
      "constant": false,
      "inputs": [
        {
          "name": "roles_",
          "type": "address"
        }
      ],
      "name": "setRolesContract",
      "outputs": [],
      "payable": false,
      "stateMutability": "nonpayable",
      "type": "function"
    },
    {
      "constant": false,
      "inputs": [
        {
          "name": "hashOfContract",
          "type": "bytes32"
        },
        {
          "name": "roleName",
          "type": "string"
        },
        {
          "name": "user",
          "type": "address"
        }
      ],
      "name": "revokeUserRole",
      "outputs": [],
      "payable": false,
      "stateMutability": "nonpayable",
      "type": "function"
    },
    {
      "constant": true,
      "inputs": [
        {
          "name": "roleName",
          "type": "string"
        }
      ],
      "name": "hasRole",
      "outputs": [
        {
          "name": "",
          "type": "bool"
        }
      ],
      "payable": false,
      "stateMutability": "view",
      "type": "function"
    },
    {
      "constant": false,
      "inputs": [
        {
          "name": "hashOfContract",
          "type": "bytes32"
        },
        {
          "name": "roleName",
          "type": "string"
        }
      ],
      "name": "removeContractRole",
      "outputs": [],
      "payable": false,
      "stateMutability": "nonpayable",
      "type": "function"
    },
    {
      "anonymous": false,
      "inputs": [
        {
          "indexed": false,
          "name": "newOwner",
          "type": "address"
        }
      ],
      "name": "SetTheOwner",
      "type": "event"
    },
    {
      "anonymous": false,
      "inputs": [
        {
          "indexed": false,
          "name": "hashOfContract",
          "type": "bytes32"
        },
        {
          "indexed": false,
          "name": "roleName",
          "type": "string"
        }
      ],
      "name": "LogRoleAdded",
      "type": "event"
    },
    {
      "anonymous": false,
      "inputs": [
        {
          "indexed": false,
          "name": "hashOfContract",
          "type": "bytes32"
        },
        {
          "indexed": false,
          "name": "roleName",
          "type": "string"
        }
      ],
      "name": "LogRoleRemoved",
      "type": "event"
    },
    {
      "anonymous": false,
      "inputs": [
        {
          "indexed": false,
          "name": "hashOfContract",
          "type": "bytes32"
        },
        {
          "indexed": false,
          "name": "roleName",
          "type": "string"
        },
        {
          "indexed": false,
          "name": "user",
          "type": "address"
        }
      ],
      "name": "LogRoleGranted",
      "type": "event"
    },
    {
      "anonymous": false,
      "inputs": [
        {
          "indexed": false,
          "name": "hashOfContract",
          "type": "bytes32"
        },
        {
          "indexed": false,
          "name": "roleName",
          "type": "string"
        },
        {
          "indexed": false,
          "name": "user",
          "type": "address"
        }
      ],
      "name": "LogRoleRevoked",
      "type": "event"
    },
    {
      "constant": false,
      "inputs": [
        {
          "name": "_handlers",
          "type": "address[]"
        },
        {
          "name": "_attributes",
          "type": "bytes32[]"
        },
        {
          "name": "_values",
          "type": "int256[]"
        },
        {
          "name": "_events",
          "type": "bytes32[]"
        },
        {
          "name": "_descriptions",
          "type": "bytes32[]"
        },
        {
          "name": "_timestamps",
          "type": "uint256[]"
        },
        {
          "name": "_blockNumbers",
          "type": "uint256[]"
        }
      ],
      "name": "addMeasurements",
      "outputs": [],
      "payable": false,
      "stateMutability": "nonpayable",
      "type": "function"
    },
    {
      "constant": true,
      "inputs": [
        {
          "name": "",
          "type": "bytes32[]"
        }
      ],
      "name": "getMeasurements",
      "outputs": [
        {
          "name": "",
          "type": "address[]"
        },
        {
          "name": "",
          "type": "bytes32[]"
        },
        {
          "name": "",
          "type": "int256[]"
        },
        {
          "name": "",
          "type": "bytes32[]"
        },
        {
          "name": "",
          "type": "bytes32[]"
        },
        {
          "name": "",
          "type": "uint256[]"
        },
        {
          "name": "",
          "type": "uint256[]"
        }
      ],
      "payable": false,
      "stateMutability": "view",
      "type": "function"
    },
    {
      "constant": true,
      "inputs": [
        {
          "name": "i",
          "type": "uint256"
        }
      ],
      "name": "getNameAndValeOfMeasurement",
      "outputs": [
        {
          "name": "",
          "type": "bytes32"
        },
        {
          "name": "",
          "type": "int256"
        }
      ],
      "payable": false,
      "stateMutability": "view",
      "type": "function"
    }
  ],
  "bytecode": "0x60806040526040805190810160405280600d81526020017f526f6c657344617461626173650000000000000000000000000000000000000081525030336000806101000a81548173ffffffffffffffffffffffffffffffffffffffff021916908373ffffffffffffffffffffffffffffffffffffffff160217905550600073ffffffffffffffffffffffffffffffffffffffff168173ffffffffffffffffffffffffffffffffffffffff16141515156100b757600080fd5b816040518082805190602001908083835b6020831015156100ed57805182526020820191506020810190506020830392506100c8565b6001836020036101000a03801982511681845116808217855250505050505090500191505060405180910390206002816000191690555080600160006101000a81548173ffffffffffffffffffffffffffffffffffffffff021916908373ffffffffffffffffffffffffffffffffffffffff1602179055505050612597806101766000396000f3006080604052600436106100f1576000357c0100000000000000000000000000000000000000000000000000000000900463ffffffff16806303dc761e146100f65780630639854c1461014657806313af40351461033e5780631ca03b8e146103815780632f677038146104025780633037cea314610499578063392f5f64146104f0578063644443ed146105475780638863dd1a146105be5780638b51ca42146106015780638da5cb5b14610678578063904c6094146106cf578063afa202ac14610702578063b7cdc12b14610745578063c2a48c70146109b0578063e3c33a9b14610a47578063edd70a7514610ac8575b600080fd5b34801561010257600080fd5b5061012160048036038101908080359060200190929190505050610b3f565b6040518083600019166000191681526020018281526020019250505060405180910390f35b34801561015257600080fd5b5061033c60048036038101908080359060200190820180359060200190808060200260200160405190810160405280939291908181526020018383602002808284378201915050505050509192919290803590602001908201803590602001908080602002602001604051908101604052809392919081815260200183836020028082843782019150505050505091929192908035906020019082018035906020019080806020026020016040519081016040528093929190818152602001838360200280828437820191505050505050919291929080359060200190820180359060200190808060200260200160405190810160405280939291908181526020018383602002808284378201915050505050509192919290803590602001908201803590602001908080602002602001604051908101604052809392919081815260200183836020028082843782019150505050505091929192908035906020019082018035906020019080806020026020016040519081016040528093929190818152602001838360200280828437820191505050505050919291929080359060200190820180359060200190808060200260200160405190810160405280939291908181526020018383602002808284378201915050505050509192919290505050610c2f565b005b34801561034a57600080fd5b5061037f600480360381019080803573ffffffffffffffffffffffffffffffffffffffff169060200190929190505050610f08565b005b34801561038d57600080fd5b506103e8600480360381019080803590602001908201803590602001908080601f016020809104026020016040519081016040528093929190818152602001838380828437820191505050505050919291929050505061102a565b604051808215151515815260200191505060405180910390f35b34801561040e57600080fd5b506104976004803603810190808035600019169060200190929190803590602001908201803590602001908080601f0160208091040260200160405190810160405280939291908181526020018383808284378201915050505050509192919290803573ffffffffffffffffffffffffffffffffffffffff1690602001909291905050506111c0565b005b3480156104a557600080fd5b506104d6600480360381019080803560001916906020019092919080356000191690602001909291905050506114e2565b604051808215151515815260200191505060405180910390f35b3480156104fc57600080fd5b50610505611511565b604051808273ffffffffffffffffffffffffffffffffffffffff1673ffffffffffffffffffffffffffffffffffffffff16815260200191505060405180910390f35b34801561055357600080fd5b506105bc6004803603810190808035600019169060200190929190803590602001908201803590602001908080601f0160208091040260200160405190810160405280939291908181526020018383808284378201915050505050509192919290505050611537565b005b3480156105ca57600080fd5b506105ff600480360381019080803573ffffffffffffffffffffffffffffffffffffffff1690602001909291905050506117e8565b005b34801561060d57600080fd5b5061065e60048036038101908080356000191690602001909291908035600019169060200190929190803573ffffffffffffffffffffffffffffffffffffffff16906020019092919050505061190a565b604051808215151515815260200191505060405180910390f35b34801561068457600080fd5b5061068d611946565b604051808273ffffffffffffffffffffffffffffffffffffffff1673ffffffffffffffffffffffffffffffffffffffff16815260200191505060405180910390f35b3480156106db57600080fd5b506106e461196b565b60405180826000191660001916815260200191505060405180910390f35b34801561070e57600080fd5b50610743600480360381019080803573ffffffffffffffffffffffffffffffffffffffff169060200190929190505050611975565b005b34801561075157600080fd5b506107a960048036038101908080359060200190820180359060200190808060200260200160405190810160405280939291908181526020018383602002808284378201915050505050509192919290505050611a71565b604051808060200180602001806020018060200180602001806020018060200188810388528f818151815260200191508051906020019060200280838360005b838110156108045780820151818401526020810190506107e9565b5050505090500188810387528e818151815260200191508051906020019060200280838360005b8381101561084657808201518184015260208101905061082b565b5050505090500188810386528d818151815260200191508051906020019060200280838360005b8381101561088857808201518184015260208101905061086d565b5050505090500188810385528c818151815260200191508051906020019060200280838360005b838110156108ca5780820151818401526020810190506108af565b5050505090500188810384528b818151815260200191508051906020019060200280838360005b8381101561090c5780820151818401526020810190506108f1565b5050505090500188810383528a818151815260200191508051906020019060200280838360005b8381101561094e578082015181840152602081019050610933565b50505050905001888103825289818151815260200191508051906020019060200280838360005b83811015610990578082015181840152602081019050610975565b505050509050019e50505050505050505050505050505060405180910390f35b3480156109bc57600080fd5b50610a456004803603810190808035600019169060200190929190803590602001908201803590602001908080601f0160208091040260200160405190810160405280939291908181526020018383808284378201915050505050509192919290803573ffffffffffffffffffffffffffffffffffffffff169060200190929190505050611f09565b005b348015610a5357600080fd5b50610aae600480360381019080803590602001908201803590602001908080601f0160208091040260200160405190810160405280939291908181526020018383808284378201915050505050509192919290505050612173565b604051808215151515815260200191505060405180910390f35b348015610ad457600080fd5b50610b3d6004803603810190808035600019169060200190929190803590602001908201803590602001908080601f01602080910402602001604051908101604052809392919081815260200183838082843782019150505050505091929192905050506122c4565b005b6000806040805190810160405280600c81526020017f70726f647563744f776e657200000000000000000000000000000000000000008152506000809054906101000a900473ffffffffffffffffffffffffffffffffffffffff1673ffffffffffffffffffffffffffffffffffffffff163373ffffffffffffffffffffffffffffffffffffffff161480610bd85750610bd78161102a565b5b1515610be357600080fd5b600684815481101515610bf257fe5b906000526020600020906007020160010154600685815481101515610c1357fe5b9060005260206000209060070201600201549250925050915091565b60006040805190810160405280600c81526020017f70726f647563744f776e657200000000000000000000000000000000000000008152506000809054906101000a900473ffffffffffffffffffffffffffffffffffffffff1673ffffffffffffffffffffffffffffffffffffffff163373ffffffffffffffffffffffffffffffffffffffff161480610cc75750610cc68161102a565b5b1515610cd257600080fd5b87518651148015610ce4575086518651145b8015610cf1575083518651145b8015610cfe575084518651145b8015610d0b575082518651145b8015610d18575088518651145b1515610d2357600080fd5b600091505b8551821015610efd576001600660e0604051908101604052808c86815181101515610d4f57fe5b9060200190602002015173ffffffffffffffffffffffffffffffffffffffff1681526020018b86815181101515610d8257fe5b906020019060200201516000191681526020018a86815181101515610da357fe5b9060200190602002015181526020018986815181101515610dc057fe5b906020019060200201516000191681526020018886815181101515610de157fe5b906020019060200201516000191681526020018786815181101515610e0257fe5b9060200190602002015181526020018686815181101515610e1f57fe5b906020019060200201518152509080600181540180825580915050906001820390600052602060002090600702016000909192909190915060008201518160000160006101000a81548173ffffffffffffffffffffffffffffffffffffffff021916908373ffffffffffffffffffffffffffffffffffffffff1602179055506020820151816001019060001916905560408201518160020155606082015181600301906000191690556080820151816004019060001916905560a0820151816005015560c08201518160060155505050508180600101925050610d28565b505050505050505050565b6000809054906101000a900473ffffffffffffffffffffffffffffffffffffffff1673ffffffffffffffffffffffffffffffffffffffff163373ffffffffffffffffffffffffffffffffffffffff16141515610f6357600080fd5b806000806101000a81548173ffffffffffffffffffffffffffffffffffffffff021916908373ffffffffffffffffffffffffffffffffffffffff1602179055507fe68cf4546522887de125201a08bb28732b71c701ef98bdde59bcd7ee077a65da6000809054906101000a900473ffffffffffffffffffffffffffffffffffffffff16604051808273ffffffffffffffffffffffffffffffffffffffff1673ffffffffffffffffffffffffffffffffffffffff16815260200191505060405180910390a150565b600061103582612173565b80156111b95750600160009054906101000a900473ffffffffffffffffffffffffffffffffffffffff1673ffffffffffffffffffffffffffffffffffffffff16638b51ca42600254846040518082805190602001908083835b6020831015156110b3578051825260208201915060208101905060208303925061108e565b6001836020036101000a0380198251168184511680821785525050505050509050019150506040518091039020336040518463ffffffff167c010000000000000000000000000000000000000000000000000000000002815260040180846000191660001916815260200183600019166000191681526020018273ffffffffffffffffffffffffffffffffffffffff1673ffffffffffffffffffffffffffffffffffffffff1681526020019350505050602060405180830381600087803b15801561117d57600080fd5b505af1158015611191573d6000803e3d6000fd5b505050506040513d60208110156111a757600080fd5b81019080805190602001909291905050505b9050919050565b6040805190810160405280600581526020017f61646d696e0000000000000000000000000000000000000000000000000000008152506000809054906101000a900473ffffffffffffffffffffffffffffffffffffffff1673ffffffffffffffffffffffffffffffffffffffff163373ffffffffffffffffffffffffffffffffffffffff16148061125657506112558161102a565b5b151561126157600080fd5b6004600085600019166000191681526020019081526020016000206000846040518082805190602001908083835b6020831015156112b4578051825260208201915060208101905060208303925061128f565b6001836020036101000a03801982511681845116808217855250505050505090500191505060405180910390206000191660001916815260200190815260200160002060009054906101000a900460ff16151561131057600080fd5b60016003600086600019166000191681526020019081526020016000206000856040518082805190602001908083835b6020831015156113655780518252602082019150602081019050602083039250611340565b6001836020036101000a03801982511681845116808217855250505050505090500191505060405180910390206000191660001916815260200190815260200160002060008473ffffffffffffffffffffffffffffffffffffffff1673ffffffffffffffffffffffffffffffffffffffff16815260200190815260200160002060006101000a81548160ff0219169083151502179055507f407d91ed2028325ba84bcf37bade3cde79c3dec599612fa155b042eba4786ddc848484604051808460001916600019168152602001806020018373ffffffffffffffffffffffffffffffffffffffff1673ffffffffffffffffffffffffffffffffffffffff168152602001828103825284818151815260200191508051906020019080838360005b838110156114a0578082015181840152602081019050611485565b50505050905090810190601f1680156114cd5780820380516001836020036101000a031916815260200191505b5094505050505060405180910390a150505050565b60046020528160005260406000206020528060005260406000206000915091509054906101000a900460ff1681565b600160009054906101000a900473ffffffffffffffffffffffffffffffffffffffff1681565b6040805190810160405280600581526020017f61646d696e0000000000000000000000000000000000000000000000000000008152506000809054906101000a900473ffffffffffffffffffffffffffffffffffffffff1673ffffffffffffffffffffffffffffffffffffffff163373ffffffffffffffffffffffffffffffffffffffff1614806115cd57506115cc8161102a565b5b15156115d857600080fd5b6004600084600019166000191681526020019081526020016000206000836040518082805190602001908083835b60208310151561162b5780518252602082019150602081019050602083039250611606565b6001836020036101000a03801982511681845116808217855250505050505090500191505060405180910390206000191660001916815260200190815260200160002060009054906101000a900460ff1615151561168857600080fd5b60016004600085600019166000191681526020019081526020016000206000846040518082805190602001908083835b6020831015156116dd57805182526020820191506020810190506020830392506116b8565b6001836020036101000a03801982511681845116808217855250505050505090500191505060405180910390206000191660001916815260200190815260200160002060006101000a81548160ff0219169083151502179055507f9e854cfefd293f12a3d57e50652dd623ba2880249fd212fa50f89c32a468c26d838360405180836000191660001916815260200180602001828103825283818151815260200191508051906020019080838360005b838110156117a857808201518184015260208101905061178d565b50505050905090810190601f1680156117d55780820380516001836020036101000a031916815260200191505b50935050505060405180910390a1505050565b6000809054906101000a900473ffffffffffffffffffffffffffffffffffffffff1673ffffffffffffffffffffffffffffffffffffffff163373ffffffffffffffffffffffffffffffffffffffff1614151561184357600080fd5b806000806101000a81548173ffffffffffffffffffffffffffffffffffffffff021916908373ffffffffffffffffffffffffffffffffffffffff1602179055507fe68cf4546522887de125201a08bb28732b71c701ef98bdde59bcd7ee077a65da6000809054906101000a900473ffffffffffffffffffffffffffffffffffffffff16604051808273ffffffffffffffffffffffffffffffffffffffff1673ffffffffffffffffffffffffffffffffffffffff16815260200191505060405180910390a150565b6003602052826000526040600020602052816000526040600020602052806000526040600020600092509250509054906101000a900460ff1681565b6000809054906101000a900473ffffffffffffffffffffffffffffffffffffffff1681565b6000600254905090565b6000809054906101000a900473ffffffffffffffffffffffffffffffffffffffff1673ffffffffffffffffffffffffffffffffffffffff163373ffffffffffffffffffffffffffffffffffffffff161415156119d057600080fd5b600160009054906101000a900473ffffffffffffffffffffffffffffffffffffffff1673ffffffffffffffffffffffffffffffffffffffff163073ffffffffffffffffffffffffffffffffffffffff1614151515611a2d57600080fd5b80600160006101000a81548173ffffffffffffffffffffffffffffffffffffffff021916908373ffffffffffffffffffffffffffffffffffffffff16021790555050565b60608060608060608060608060608060608060608060006040805190810160405280600c81526020017f70726f647563744f776e657200000000000000000000000000000000000000008152506000809054906101000a900473ffffffffffffffffffffffffffffffffffffffff1673ffffffffffffffffffffffffffffffffffffffff163373ffffffffffffffffffffffffffffffffffffffff161480611b1e5750611b1d8161102a565b5b1515611b2957600080fd5b600680549050604051908082528060200260200182016040528015611b5d5781602001602082028038833980820191505090505b509850600680549050604051908082528060200260200182016040528015611b945781602001602082028038833980820191505090505b509750600680549050604051908082528060200260200182016040528015611bcb5781602001602082028038833980820191505090505b509650600680549050604051908082528060200260200182016040528015611c025781602001602082028038833980820191505090505b509550600680549050604051908082528060200260200182016040528015611c395781602001602082028038833980820191505090505b509450600680549050604051908082528060200260200182016040528015611c705781602001602082028038833980820191505090505b509350600680549050604051908082528060200260200182016040528015611ca75781602001602082028038833980820191505090505b509250600091505b600680549050821015611ee057600682815481101515611ccb57fe5b906000526020600020906007020160000160009054906101000a900473ffffffffffffffffffffffffffffffffffffffff168983815181101515611d0b57fe5b9060200190602002019073ffffffffffffffffffffffffffffffffffffffff16908173ffffffffffffffffffffffffffffffffffffffff1681525050600682815481101515611d5657fe5b9060005260206000209060070201600101548883815181101515611d7657fe5b906020019060200201906000191690816000191681525050600682815481101515611d9d57fe5b9060005260206000209060070201600201548783815181101515611dbd57fe5b9060200190602002018181525050600682815481101515611dda57fe5b9060005260206000209060070201600301548683815181101515611dfa57fe5b906020019060200201906000191690816000191681525050600682815481101515611e2157fe5b9060005260206000209060070201600401548583815181101515611e4157fe5b906020019060200201906000191690816000191681525050600682815481101515611e6857fe5b9060005260206000209060070201600501548483815181101515611e8857fe5b9060200190602002018181525050600682815481101515611ea557fe5b9060005260206000209060070201600601548383815181101515611ec557fe5b90602001906020020181815250508180600101925050611caf565b888888888888889f509f509f509f509f509f509f50505050505050505050919395979092949650565b6040805190810160405280600581526020017f61646d696e0000000000000000000000000000000000000000000000000000008152506000809054906101000a900473ffffffffffffffffffffffffffffffffffffffff1673ffffffffffffffffffffffffffffffffffffffff163373ffffffffffffffffffffffffffffffffffffffff161480611f9f5750611f9e8161102a565b5b1515611faa57600080fd5b6003600085600019166000191681526020019081526020016000206000846040518082805190602001908083835b602083101515611ffd5780518252602082019150602081019050602083039250611fd8565b6001836020036101000a03801982511681845116808217855250505050505090500191505060405180910390206000191660001916815260200190815260200160002060008373ffffffffffffffffffffffffffffffffffffffff1673ffffffffffffffffffffffffffffffffffffffff16815260200190815260200160002060006101000a81549060ff02191690557f4fbccdb14b9a6cf4300c7a6ec5bf09d09677d23ac78f755e9249094d80cd6e27848484604051808460001916600019168152602001806020018373ffffffffffffffffffffffffffffffffffffffff1673ffffffffffffffffffffffffffffffffffffffff168152602001828103825284818151815260200191508051906020019080838360005b83811015612131578082015181840152602081019050612116565b50505050905090810190601f16801561215e5780820380516001836020036101000a031916815260200191505b5094505050505060405180910390a150505050565b6000600160009054906101000a900473ffffffffffffffffffffffffffffffffffffffff1673ffffffffffffffffffffffffffffffffffffffff16633037cea3600254846040518082805190602001908083835b6020831015156121ec57805182526020820191506020810190506020830392506121c7565b6001836020036101000a03801982511681845116808217855250505050505090500191505060405180910390206040518363ffffffff167c0100000000000000000000000000000000000000000000000000000000028152600401808360001916600019168152602001826000191660001916815260200192505050602060405180830381600087803b15801561228257600080fd5b505af1158015612296573d6000803e3d6000fd5b505050506040513d60208110156122ac57600080fd5b81019080805190602001909291905050509050919050565b6040805190810160405280600581526020017f61646d696e0000000000000000000000000000000000000000000000000000008152506000809054906101000a900473ffffffffffffffffffffffffffffffffffffffff1673ffffffffffffffffffffffffffffffffffffffff163373ffffffffffffffffffffffffffffffffffffffff16148061235a57506123598161102a565b5b151561236557600080fd5b6004600084600019166000191681526020019081526020016000206000836040518082805190602001908083835b6020831015156123b85780518252602082019150602081019050602083039250612393565b6001836020036101000a03801982511681845116808217855250505050505090500191505060405180910390206000191660001916815260200190815260200160002060009054906101000a900460ff16151561241457600080fd5b6004600084600019166000191681526020019081526020016000206000836040518082805190602001908083835b6020831015156124675780518252602082019150602081019050602083039250612442565b6001836020036101000a03801982511681845116808217855250505050505090500191505060405180910390206000191660001916815260200190815260200160002060006101000a81549060ff02191690557f5c012fe87ecf5fc2e083217e8ce9c77a88d3dd15c311bd6725ebbb9421147902838360405180836000191660001916815260200180602001828103825283818151815260200191508051906020019080838360005b8381101561252b578082015181840152602081019050612510565b50505050905090810190601f1680156125585780820380516001836020036101000a031916815260200191505b50935050505060405180910390a15050505600a165627a7a723058203db9fe45e330abbe35c685fce8489391dac112567d4289bcf9d8f3ab88fb0a8c0029",
  "source": "pragma solidity ^0.4.16;\nimport \"./authority/Roles.sol\";\n\n\n// the measurement of products\ncontract Measurements is Roles {\n\n    struct Measurement {\n        address handler;\n        bytes32 attributeName;\n        int value;\n        bytes32 event_id;\n        bytes32 description;\n        // Instant of time when the Measurement is done.\n        uint timestamp;\n        //v Block when the Measurement is done.\n        uint blockNumber;\n    }\n    mapping (address => Measurement) measurement;\n    \n    Measurement [] measurements;\n\n    function addMeasurements(address [] _handlers,bytes32 [] _attributes, int [] _values, bytes32 [] _events, bytes32 [] _descriptions, uint [] _timestamps, uint [] _blockNumbers) roleOrOwner('productOwner') {\n        require (_events.length == _attributes.length&&_events.length == _values.length&&\n        _events.length == _timestamps.length&&_events.length == _descriptions.length&&\n        _events.length == _blockNumbers.length&&_events.length == _handlers.length);\n        for(uint i=0;i<_events.length;i++){\n            measurements.push(Measurement(_handlers[i],_attributes[i], _values[i],   _events[i], _descriptions[i],  _timestamps[i],  _blockNumbers[i]))-1;\n        }\n\n    }\n\n\n    function getMeasurements (bytes32 []) roleOrOwner('productOwner') constant returns(address [], bytes32[],  int [] , bytes32 [] , bytes32 [] , uint [] , uint [] )  {\n\n        address [] memory handles= new address[](measurements.length);\n        bytes32 [] memory attributes = new bytes32[](measurements.length);\n        int [] memory values =new int[](measurements.length);\n        bytes32 [] memory events=new bytes32[](measurements.length);\n        bytes32 [] memory descriptions=new bytes32[](measurements.length);\n        uint [] memory timestamps=new uint[](measurements.length);\n        uint [] memory blockNumbers=new uint[](measurements.length);\n        for (uint i=0; i< measurements.length; i++){\n            handles[i] = measurements[i].handler;\n            attributes[i] = measurements[i].attributeName;\n            values[i] = measurements[i].value;\n            events[i] = measurements[i].event_id;\n            descriptions[i] = measurements[i].description;\n            timestamps[i] = measurements[i].timestamp;\n            blockNumbers[i] = measurements[i].blockNumber;\n        }\n\n        return (handles,attributes,values,events,descriptions,timestamps,blockNumbers);\n    }\n\n    function getNameAndValeOfMeasurement(uint i) roleOrOwner('productOwner') constant returns (bytes32, int){\n        return (measurements[i].attributeName, measurements[i].value);\n    }\n\n\n}\n",
  "sourcePath": "/Users/hao/onedrive/OneDrive - The University of Melbourne/project/Product_passport/contracts/Measurements.sol",
  "compiler": {
    "name": "solc",
    "version": "0.4.23+commit.124ca40d.Emscripten.clang"
  },
  "schemaVersion": "2.0.0",
  "updatedAt": "2018-05-28T22:44:20.557Z"
}