{
  "contractName": "Measurements",
  "abi": [
    {
      "constant": false,
      "inputs": [
        {
          "name": "_handlers",
          "type": "address[]"
        },
        {
          "name": "_attributes",
          "type": "bytes32[]"
        },
        {
          "name": "_values",
          "type": "int256[]"
        },
        {
          "name": "_events",
          "type": "bytes32[]"
        },
        {
          "name": "_descriptions",
          "type": "bytes32[]"
        },
        {
          "name": "_timestamps",
          "type": "uint256[]"
        },
        {
          "name": "_blockNumbers",
          "type": "uint256[]"
        }
      ],
      "name": "addMeasurements",
      "outputs": [],
      "payable": false,
      "stateMutability": "nonpayable",
      "type": "function"
    },
    {
      "constant": true,
      "inputs": [
        {
          "name": "",
          "type": "bytes32[]"
        }
      ],
      "name": "getMeasurements",
      "outputs": [
        {
          "name": "",
          "type": "address[]"
        },
        {
          "name": "",
          "type": "bytes32[]"
        },
        {
          "name": "",
          "type": "int256[]"
        },
        {
          "name": "",
          "type": "bytes32[]"
        },
        {
          "name": "",
          "type": "bytes32[]"
        },
        {
          "name": "",
          "type": "uint256[]"
        },
        {
          "name": "",
          "type": "uint256[]"
        }
      ],
      "payable": false,
      "stateMutability": "view",
      "type": "function"
    },
    {
      "constant": true,
      "inputs": [
        {
          "name": "i",
          "type": "uint256"
        },
        {
          "name": "",
          "type": "uint256[]"
        }
      ],
      "name": "getMeasurement",
      "outputs": [
        {
          "name": "",
          "type": "bytes32"
        },
        {
          "name": "",
          "type": "int256"
        }
      ],
      "payable": false,
      "stateMutability": "view",
      "type": "function"
    }
  ],
  "bytecode": "0x6060604052341561000f57600080fd5b610c9b8061001e6000396000f300606060405260043610610057576000357c0100000000000000000000000000000000000000000000000000000000900463ffffffff1680630639854c1461005c5780635f9fc14214610236578063b7cdc12b146102bc575b600080fd5b341561006757600080fd5b61023460048080359060200190820180359060200190808060200260200160405190810160405280939291908181526020018383602002808284378201915050505050509190803590602001908201803590602001908080602002602001604051908101604052809392919081815260200183836020028082843782019150505050505091908035906020019082018035906020019080806020026020016040519081016040528093929190818152602001838360200280828437820191505050505050919080359060200190820180359060200190808060200260200160405190810160405280939291908181526020018383602002808284378201915050505050509190803590602001908201803590602001908080602002602001604051908101604052809392919081815260200183836020028082843782019150505050505091908035906020019082018035906020019080806020026020016040519081016040528093929190818152602001838360200280828437820191505050505050919080359060200190820180359060200190808060200260200160405190810160405280939291908181526020018383602002808284378201915050505050509190505061051b565b005b341561024157600080fd5b61029760048080359060200190919080359060200190820180359060200190808060200260200160405190810160405280939291908181526020018383602002808284378201915050505050509190505061074e565b6040518083600019166000191681526020018281526020019250505060405180910390f35b34156102c757600080fd5b61031460048080359060200190820180359060200190808060200260200160405190810160405280939291908181526020018383602002808284378201915050505050509190505061079e565b604051808060200180602001806020018060200180602001806020018060200188810388528f818151815260200191508051906020019060200280838360005b8381101561036f578082015181840152602081019050610354565b5050505090500188810387528e818151815260200191508051906020019060200280838360005b838110156103b1578082015181840152602081019050610396565b5050505090500188810386528d818151815260200191508051906020019060200280838360005b838110156103f35780820151818401526020810190506103d8565b5050505090500188810385528c818151815260200191508051906020019060200280838360005b8381101561043557808201518184015260208101905061041a565b5050505090500188810384528b818151815260200191508051906020019060200280838360005b8381101561047757808201518184015260208101905061045c565b5050505090500188810383528a818151815260200191508051906020019060200280838360005b838110156104b957808201518184015260208101905061049e565b50505050905001888103825289818151815260200191508051906020019060200280838360005b838110156104fb5780820151818401526020810190506104e0565b505050509050019e50505050505050505050505050505060405180910390f35b60008651855114801561052f575085518551145b801561053c575082518551145b8015610549575083518551145b8015610556575081518551145b8015610563575087518551145b151561056e57600080fd5b600090505b8451811015610744576001600080548060010182816105929190610b77565b9160005260206000209060070201600060e0604051908101604052808d878151811015156105bc57fe5b9060200190602002015173ffffffffffffffffffffffffffffffffffffffff1681526020018c878151811015156105ef57fe5b906020019060200201516000191681526020018b8781518110151561061057fe5b9060200190602002015181526020018a8781518110151561062d57fe5b90602001906020020151600019168152602001898781518110151561064e57fe5b90602001906020020151600019168152602001888781518110151561066f57fe5b906020019060200201518152602001878781518110151561068c57fe5b90602001906020020151815250909190915060008201518160000160006101000a81548173ffffffffffffffffffffffffffffffffffffffff021916908373ffffffffffffffffffffffffffffffffffffffff1602179055506020820151816001019060001916905560408201518160020155606082015181600301906000191690556080820151816004019060001916905560a0820151816005015560c08201518160060155505050508080600101915050610573565b5050505050505050565b60008060008481548110151561076057fe5b90600052602060002090600702016001015460008581548110151561078157fe5b906000526020600020906007020160020154915091509250929050565b6107a6610ba9565b6107ae610bbd565b6107b6610bd1565b6107be610bbd565b6107c6610bbd565b6107ce610be5565b6107d6610be5565b6107de610ba9565b6107e6610bbd565b6107ee610bd1565b6107f6610bbd565b6107fe610bbd565b610806610be5565b61080e610be5565b600080805490506040518059106108225750595b908082528060200260200182016040525097506000805490506040518059106108485750595b9080825280602002602001820160405250965060008054905060405180591061086e5750595b908082528060200260200182016040525095506000805490506040518059106108945750595b908082528060200260200182016040525094506000805490506040518059106108ba5750595b908082528060200260200182016040525093506000805490506040518059106108e05750595b908082528060200260200182016040525092506000805490506040518059106109065750595b90808252806020026020018201604052509150600090505b600080549050811015610b4f5760008181548110151561093a57fe5b906000526020600020906007020160000160009054906101000a900473ffffffffffffffffffffffffffffffffffffffff16888281518110151561097a57fe5b9060200190602002019073ffffffffffffffffffffffffffffffffffffffff16908173ffffffffffffffffffffffffffffffffffffffff16815250506000818154811015156109c557fe5b90600052602060002090600702016001015487828151811015156109e557fe5b906020019060200201906000191690816000191681525050600081815481101515610a0c57fe5b9060005260206000209060070201600201548682815181101515610a2c57fe5b9060200190602002018181525050600081815481101515610a4957fe5b9060005260206000209060070201600301548582815181101515610a6957fe5b906020019060200201906000191690816000191681525050600081815481101515610a9057fe5b9060005260206000209060070201600401548482815181101515610ab057fe5b906020019060200201906000191690816000191681525050600081815481101515610ad757fe5b9060005260206000209060070201600501548382815181101515610af757fe5b9060200190602002018181525050600081815481101515610b1457fe5b9060005260206000209060070201600601548282815181101515610b3457fe5b9060200190602002018181525050808060010191505061091e565b878787878787879e509e509e509e509e509e509e505050505050505050919395979092949650565b815481835581811511610ba457600702816007028360005260206000209182019101610ba39190610bf9565b5b505050565b602060405190810160405280600081525090565b602060405190810160405280600081525090565b602060405190810160405280600081525090565b602060405190810160405280600081525090565b610c6c91905b80821115610c6857600080820160006101000a81549073ffffffffffffffffffffffffffffffffffffffff021916905560018201600090556002820160009055600382016000905560048201600090556005820160009055600682016000905550600701610bff565b5090565b905600a165627a7a7230582064d84e82b4700df0af82312de053521455a495381f7410b9575ae66763267ebd0029",
  "source": "pragma solidity ^0.4.16;\nimport \"./Product.sol\";\nimport \"./authority/Owned.sol\";\n\n\n// the measurement of products\ncontract Measurements {\n\n    struct Measurement {\n        address handler;\n        bytes32 attribute_id;\n        int value;\n        bytes32 event_id;\n        bytes32 description;\n        // Instant of time when the Measurement is done.\n        uint timestamp;\n        //v Block when the Measurement is done.\n        uint blockNumber;\n    }\n\n\n    Measurement [] measurements;\n\n    function addMeasurements(address [] _handlers,bytes32 [] _attributes, int [] _values, bytes32 [] _events, bytes32 [] _descriptions, uint [] _timestamps, uint [] _blockNumbers)  {\n        require (_events.length == _attributes.length&&_events.length == _values.length&&\n        _events.length == _timestamps.length&&_events.length == _descriptions.length&&\n        _events.length == _blockNumbers.length&&_events.length == _handlers.length);\n        for(uint i=0;i<_events.length;i++){\n            measurements.push(Measurement(_handlers[i],_attributes[i], _values[i],   _events[i], _descriptions[i],  _timestamps[i],  _blockNumbers[i]))-1;\n        }\n\n    }\n\n\n    function getMeasurements(bytes32 [])constant returns(address [], bytes32[],  int [] , bytes32 [] , bytes32 [] , uint [] , uint [] ) {\n\n        address [] memory handles= new address[](measurements.length);\n        bytes32 [] memory attributes = new bytes32[](measurements.length);\n        int [] memory values =new int[](measurements.length);\n        bytes32 [] memory events=new bytes32[](measurements.length);\n        bytes32 [] memory descriptions=new bytes32[](measurements.length);\n        uint [] memory timestamps=new uint[](measurements.length);\n        uint [] memory blockNumbers=new uint[](measurements.length);\n        for (uint i=0; i< measurements.length; i++){\n            handles[i] = measurements[i].handler;\n            attributes[i] = measurements[i].attribute_id;\n            values[i] = measurements[i].value;\n            events[i] = measurements[i].event_id;\n            descriptions[i] = measurements[i].description;\n            timestamps[i] = measurements[i].timestamp;\n            blockNumbers[i] = measurements[i].blockNumber;\n        }\n\n        return (handles,attributes,values,events,descriptions,timestamps,blockNumbers);\n    }\n\n\n\n    function getMeasurement(uint i, uint[]) constant returns (bytes32, int){\n        return (measurements[i].attribute_id, measurements[i].value);\n    }\n\n\n}\n",
  "sourcePath": "/Users/hao/onedrive/OneDrive - The University of Melbourne/project/Product_passport/contracts/Measurements.sol",
  "compiler": {
    "name": "solc",
    "version": "0.4.19+commit.c4cbbb05.Emscripten.clang"
  },
  "schemaVersion": "2.0.0",
  "updatedAt": "2018-05-04T07:21:54.584Z"
}