{
  "contractName": "Measurements",
  "abi": [
    {
      "constant": true,
      "inputs": [
        {
          "name": "",
          "type": "bytes32"
        },
        {
          "name": "",
          "type": "address"
        }
      ],
      "name": "roleList",
      "outputs": [
        {
          "name": "",
          "type": "bool"
        }
      ],
      "payable": false,
      "stateMutability": "view",
      "type": "function"
    },
    {
      "constant": false,
      "inputs": [
        {
          "name": "owner_",
          "type": "address"
        }
      ],
      "name": "setOwner",
      "outputs": [],
      "payable": false,
      "stateMutability": "nonpayable",
      "type": "function"
    },
    {
      "constant": false,
      "inputs": [
        {
          "name": "roleName",
          "type": "string"
        },
        {
          "name": "user",
          "type": "address"
        }
      ],
      "name": "revokeUserRole",
      "outputs": [],
      "payable": false,
      "stateMutability": "nonpayable",
      "type": "function"
    },
    {
      "constant": true,
      "inputs": [
        {
          "name": "roleName",
          "type": "string"
        },
        {
          "name": "user",
          "type": "address"
        }
      ],
      "name": "checkUserRole",
      "outputs": [
        {
          "name": "",
          "type": "bool"
        }
      ],
      "payable": false,
      "stateMutability": "view",
      "type": "function"
    },
    {
      "constant": true,
      "inputs": [
        {
          "name": "roleName",
          "type": "string"
        }
      ],
      "name": "senderHasRole",
      "outputs": [
        {
          "name": "",
          "type": "bool"
        }
      ],
      "payable": false,
      "stateMutability": "view",
      "type": "function"
    },
    {
      "constant": false,
      "inputs": [
        {
          "name": "owner_",
          "type": "address"
        }
      ],
      "name": "transferOwnerShip",
      "outputs": [],
      "payable": false,
      "stateMutability": "nonpayable",
      "type": "function"
    },
    {
      "constant": true,
      "inputs": [],
      "name": "getOwner",
      "outputs": [
        {
          "name": "",
          "type": "address"
        }
      ],
      "payable": false,
      "stateMutability": "view",
      "type": "function"
    },
    {
      "constant": true,
      "inputs": [],
      "name": "owner",
      "outputs": [
        {
          "name": "",
          "type": "address"
        }
      ],
      "payable": false,
      "stateMutability": "view",
      "type": "function"
    },
    {
      "constant": false,
      "inputs": [
        {
          "name": "roleName",
          "type": "string"
        },
        {
          "name": "user",
          "type": "address"
        }
      ],
      "name": "grantUserRole",
      "outputs": [],
      "payable": false,
      "stateMutability": "nonpayable",
      "type": "function"
    },
    {
      "anonymous": false,
      "inputs": [
        {
          "indexed": false,
          "name": "newOwner",
          "type": "address"
        }
      ],
      "name": "SetTheOwner",
      "type": "event"
    },
    {
      "constant": false,
      "inputs": [
        {
          "name": "_handlers",
          "type": "address[]"
        },
        {
          "name": "_attributes",
          "type": "bytes32[]"
        },
        {
          "name": "_values",
          "type": "int256[]"
        },
        {
          "name": "_events",
          "type": "bytes32[]"
        },
        {
          "name": "_descriptions",
          "type": "bytes32[]"
        },
        {
          "name": "_timestamps",
          "type": "uint256[]"
        },
        {
          "name": "_blockNumbers",
          "type": "uint256[]"
        }
      ],
      "name": "addMeasurements",
      "outputs": [],
      "payable": false,
      "stateMutability": "nonpayable",
      "type": "function"
    },
    {
      "constant": true,
      "inputs": [
        {
          "name": "",
          "type": "bytes32[]"
        }
      ],
      "name": "getMeasurements",
      "outputs": [
        {
          "name": "",
          "type": "address[]"
        },
        {
          "name": "",
          "type": "bytes32[]"
        },
        {
          "name": "",
          "type": "int256[]"
        },
        {
          "name": "",
          "type": "bytes32[]"
        },
        {
          "name": "",
          "type": "bytes32[]"
        },
        {
          "name": "",
          "type": "uint256[]"
        },
        {
          "name": "",
          "type": "uint256[]"
        }
      ],
      "payable": false,
      "stateMutability": "view",
      "type": "function"
    },
    {
      "constant": true,
      "inputs": [
        {
          "name": "i",
          "type": "uint256"
        }
      ],
      "name": "getNameAndValeOfMeasurement",
      "outputs": [
        {
          "name": "",
          "type": "bytes32"
        },
        {
          "name": "",
          "type": "int256"
        }
      ],
      "payable": false,
      "stateMutability": "view",
      "type": "function"
    }
  ],
  "bytecode": "0x6080604052336000806101000a81548173ffffffffffffffffffffffffffffffffffffffff021916908373ffffffffffffffffffffffffffffffffffffffff160217905550611925806100536000396000f3006080604052600436106100ba576000357c0100000000000000000000000000000000000000000000000000000000900463ffffffff16806303dc761e146100bf5780630639854c1461010f5780630b0368161461030757806313af4035146103705780631b2c0f6a146103b35780631c432c601461043c5780631ca03b8e146104dd5780638863dd1a1461055e578063893d20e8146105a15780638da5cb5b146105f8578063b7cdc12b1461064f578063d50ea76a146108ba575b600080fd5b3480156100cb57600080fd5b506100ea60048036038101908080359060200190929190505050610943565b6040518083600019166000191681526020018281526020019250505060405180910390f35b34801561011b57600080fd5b5061030560048036038101908080359060200190820180359060200190808060200260200160405190810160405280939291908181526020018383602002808284378201915050505050509192919290803590602001908201803590602001908080602002602001604051908101604052809392919081815260200183836020028082843782019150505050505091929192908035906020019082018035906020019080806020026020016040519081016040528093929190818152602001838360200280828437820191505050505050919291929080359060200190820180359060200190808060200260200160405190810160405280939291908181526020018383602002808284378201915050505050509192919290803590602001908201803590602001908080602002602001604051908101604052809392919081815260200183836020028082843782019150505050505091929192908035906020019082018035906020019080806020026020016040519081016040528093929190818152602001838360200280828437820191505050505050919291929080359060200190820180359060200190808060200260200160405190810160405280939291908181526020018383602002808284378201915050505050509192919290505050610a33565b005b34801561031357600080fd5b506103566004803603810190808035600019169060200190929190803573ffffffffffffffffffffffffffffffffffffffff169060200190929190505050610d0c565b604051808215151515815260200191505060405180910390f35b34801561037c57600080fd5b506103b1600480360381019080803573ffffffffffffffffffffffffffffffffffffffff169060200190929190505050610d3b565b005b3480156103bf57600080fd5b5061043a600480360381019080803590602001908201803590602001908080601f0160208091040260200160405190810160405280939291908181526020018383808284378201915050505050509192919290803573ffffffffffffffffffffffffffffffffffffffff169060200190929190505050610e5d565b005b34801561044857600080fd5b506104c3600480360381019080803590602001908201803590602001908080601f0160208091040260200160405190810160405280939291908181526020018383808284378201915050505050509192919290803573ffffffffffffffffffffffffffffffffffffffff169060200190929190505050610fd6565b604051808215151515815260200191505060405180910390f35b3480156104e957600080fd5b50610544600480360381019080803590602001908201803590602001908080601f01602080910402602001604051908101604052809392919081815260200183838082843782019150505050505091929192905050506110a8565b604051808215151515815260200191505060405180910390f35b34801561056a57600080fd5b5061059f600480360381019080803573ffffffffffffffffffffffffffffffffffffffff169060200190929190505050611179565b005b3480156105ad57600080fd5b506105b661129b565b604051808273ffffffffffffffffffffffffffffffffffffffff1673ffffffffffffffffffffffffffffffffffffffff16815260200191505060405180910390f35b34801561060457600080fd5b5061060d6112c4565b604051808273ffffffffffffffffffffffffffffffffffffffff1673ffffffffffffffffffffffffffffffffffffffff16815260200191505060405180910390f35b34801561065b57600080fd5b506106b3600480360381019080803590602001908201803590602001908080602002602001604051908101604052809392919081815260200183836020028082843782019150505050505091929192905050506112e9565b604051808060200180602001806020018060200180602001806020018060200188810388528f818151815260200191508051906020019060200280838360005b8381101561070e5780820151818401526020810190506106f3565b5050505090500188810387528e818151815260200191508051906020019060200280838360005b83811015610750578082015181840152602081019050610735565b5050505090500188810386528d818151815260200191508051906020019060200280838360005b83811015610792578082015181840152602081019050610777565b5050505090500188810385528c818151815260200191508051906020019060200280838360005b838110156107d45780820151818401526020810190506107b9565b5050505090500188810384528b818151815260200191508051906020019060200280838360005b838110156108165780820151818401526020810190506107fb565b5050505090500188810383528a818151815260200191508051906020019060200280838360005b8381101561085857808201518184015260208101905061083d565b50505050905001888103825289818151815260200191508051906020019060200280838360005b8381101561089a57808201518184015260208101905061087f565b505050509050019e50505050505050505050505050505060405180910390f35b3480156108c657600080fd5b50610941600480360381019080803590602001908201803590602001908080601f0160208091040260200160405190810160405280939291908181526020018383808284378201915050505050509192919290803573ffffffffffffffffffffffffffffffffffffffff169060200190929190505050611781565b005b6000806040805190810160405280600c81526020017f70726f647563744f776e657200000000000000000000000000000000000000008152506000809054906101000a900473ffffffffffffffffffffffffffffffffffffffff1673ffffffffffffffffffffffffffffffffffffffff163373ffffffffffffffffffffffffffffffffffffffff1614806109dc57506109db816110a8565b5b15156109e757600080fd5b6003848154811015156109f657fe5b906000526020600020906007020160010154600385815481101515610a1757fe5b9060005260206000209060070201600201549250925050915091565b60006040805190810160405280600c81526020017f70726f647563744f776e657200000000000000000000000000000000000000008152506000809054906101000a900473ffffffffffffffffffffffffffffffffffffffff1673ffffffffffffffffffffffffffffffffffffffff163373ffffffffffffffffffffffffffffffffffffffff161480610acb5750610aca816110a8565b5b1515610ad657600080fd5b87518651148015610ae8575086518651145b8015610af5575083518651145b8015610b02575084518651145b8015610b0f575082518651145b8015610b1c575088518651145b1515610b2757600080fd5b600091505b8551821015610d01576001600360e0604051908101604052808c86815181101515610b5357fe5b9060200190602002015173ffffffffffffffffffffffffffffffffffffffff1681526020018b86815181101515610b8657fe5b906020019060200201516000191681526020018a86815181101515610ba757fe5b9060200190602002015181526020018986815181101515610bc457fe5b906020019060200201516000191681526020018886815181101515610be557fe5b906020019060200201516000191681526020018786815181101515610c0657fe5b9060200190602002015181526020018686815181101515610c2357fe5b906020019060200201518152509080600181540180825580915050906001820390600052602060002090600702016000909192909190915060008201518160000160006101000a81548173ffffffffffffffffffffffffffffffffffffffff021916908373ffffffffffffffffffffffffffffffffffffffff1602179055506020820151816001019060001916905560408201518160020155606082015181600301906000191690556080820151816004019060001916905560a0820151816005015560c08201518160060155505050508180600101925050610b2c565b505050505050505050565b60016020528160005260406000206020528060005260406000206000915091509054906101000a900460ff1681565b6000809054906101000a900473ffffffffffffffffffffffffffffffffffffffff1673ffffffffffffffffffffffffffffffffffffffff163373ffffffffffffffffffffffffffffffffffffffff16141515610d9657600080fd5b806000806101000a81548173ffffffffffffffffffffffffffffffffffffffff021916908373ffffffffffffffffffffffffffffffffffffffff1602179055507fe68cf4546522887de125201a08bb28732b71c701ef98bdde59bcd7ee077a65da6000809054906101000a900473ffffffffffffffffffffffffffffffffffffffff16604051808273ffffffffffffffffffffffffffffffffffffffff1673ffffffffffffffffffffffffffffffffffffffff16815260200191505060405180910390a150565b6040805190810160405280600581526020017f61646d696e0000000000000000000000000000000000000000000000000000008152506000809054906101000a900473ffffffffffffffffffffffffffffffffffffffff1673ffffffffffffffffffffffffffffffffffffffff163373ffffffffffffffffffffffffffffffffffffffff161480610ef35750610ef2816110a8565b5b1515610efe57600080fd5b600060016000856040518082805190602001908083835b602083101515610f3a5780518252602082019150602081019050602083039250610f15565b6001836020036101000a03801982511681845116808217855250505050505090500191505060405180910390206000191660001916815260200190815260200160002060008473ffffffffffffffffffffffffffffffffffffffff1673ffffffffffffffffffffffffffffffffffffffff16815260200190815260200160002060006101000a81548160ff021916908315150217905550505050565b600060016000846040518082805190602001908083835b6020831015156110125780518252602082019150602081019050602083039250610fed565b6001836020036101000a03801982511681845116808217855250505050505090500191505060405180910390206000191660001916815260200190815260200160002060008373ffffffffffffffffffffffffffffffffffffffff1673ffffffffffffffffffffffffffffffffffffffff16815260200190815260200160002060009054906101000a900460ff16905092915050565b600060016000836040518082805190602001908083835b6020831015156110e457805182526020820191506020810190506020830392506110bf565b6001836020036101000a03801982511681845116808217855250505050505090500191505060405180910390206000191660001916815260200190815260200160002060003373ffffffffffffffffffffffffffffffffffffffff1673ffffffffffffffffffffffffffffffffffffffff16815260200190815260200160002060009054906101000a900460ff169050919050565b6000809054906101000a900473ffffffffffffffffffffffffffffffffffffffff1673ffffffffffffffffffffffffffffffffffffffff163373ffffffffffffffffffffffffffffffffffffffff161415156111d457600080fd5b806000806101000a81548173ffffffffffffffffffffffffffffffffffffffff021916908373ffffffffffffffffffffffffffffffffffffffff1602179055507fe68cf4546522887de125201a08bb28732b71c701ef98bdde59bcd7ee077a65da6000809054906101000a900473ffffffffffffffffffffffffffffffffffffffff16604051808273ffffffffffffffffffffffffffffffffffffffff1673ffffffffffffffffffffffffffffffffffffffff16815260200191505060405180910390a150565b60008060009054906101000a900473ffffffffffffffffffffffffffffffffffffffff16905090565b6000809054906101000a900473ffffffffffffffffffffffffffffffffffffffff1681565b60608060608060608060608060608060608060608060006040805190810160405280600c81526020017f70726f647563744f776e657200000000000000000000000000000000000000008152506000809054906101000a900473ffffffffffffffffffffffffffffffffffffffff1673ffffffffffffffffffffffffffffffffffffffff163373ffffffffffffffffffffffffffffffffffffffff1614806113965750611395816110a8565b5b15156113a157600080fd5b6003805490506040519080825280602002602001820160405280156113d55781602001602082028038833980820191505090505b50985060038054905060405190808252806020026020018201604052801561140c5781602001602082028038833980820191505090505b5097506003805490506040519080825280602002602001820160405280156114435781602001602082028038833980820191505090505b50965060038054905060405190808252806020026020018201604052801561147a5781602001602082028038833980820191505090505b5095506003805490506040519080825280602002602001820160405280156114b15781602001602082028038833980820191505090505b5094506003805490506040519080825280602002602001820160405280156114e85781602001602082028038833980820191505090505b50935060038054905060405190808252806020026020018201604052801561151f5781602001602082028038833980820191505090505b509250600091505b6003805490508210156117585760038281548110151561154357fe5b906000526020600020906007020160000160009054906101000a900473ffffffffffffffffffffffffffffffffffffffff16898381518110151561158357fe5b9060200190602002019073ffffffffffffffffffffffffffffffffffffffff16908173ffffffffffffffffffffffffffffffffffffffff16815250506003828154811015156115ce57fe5b90600052602060002090600702016001015488838151811015156115ee57fe5b90602001906020020190600019169081600019168152505060038281548110151561161557fe5b906000526020600020906007020160020154878381518110151561163557fe5b906020019060200201818152505060038281548110151561165257fe5b906000526020600020906007020160030154868381518110151561167257fe5b90602001906020020190600019169081600019168152505060038281548110151561169957fe5b90600052602060002090600702016004015485838151811015156116b957fe5b9060200190602002019060001916908160001916815250506003828154811015156116e057fe5b906000526020600020906007020160050154848381518110151561170057fe5b906020019060200201818152505060038281548110151561171d57fe5b906000526020600020906007020160060154838381518110151561173d57fe5b90602001906020020181815250508180600101925050611527565b888888888888889f509f509f509f509f509f509f50505050505050505050919395979092949650565b6040805190810160405280600581526020017f61646d696e0000000000000000000000000000000000000000000000000000008152506000809054906101000a900473ffffffffffffffffffffffffffffffffffffffff1673ffffffffffffffffffffffffffffffffffffffff163373ffffffffffffffffffffffffffffffffffffffff1614806118175750611816816110a8565b5b151561182257600080fd5b6001806000856040518082805190602001908083835b60208310151561185d5780518252602082019150602081019050602083039250611838565b6001836020036101000a03801982511681845116808217855250505050505090500191505060405180910390206000191660001916815260200190815260200160002060008473ffffffffffffffffffffffffffffffffffffffff1673ffffffffffffffffffffffffffffffffffffffff16815260200190815260200160002060006101000a81548160ff0219169083151502179055505050505600a165627a7a72305820c33823fab4748d9d09e606b97ad47d0bab750c9c9419b202474c01fe4bc71abf0029",
  "source": "pragma solidity ^0.4.16;\nimport \"./authority/Roles.sol\";\n\n\n// the measurement of products\ncontract Measurements is Roles {\n\n    struct Measurement {\n        address handler;\n        bytes32 attributeName;\n        int value;\n        bytes32 event_id;\n        bytes32 description;\n        // Instant of time when the Measurement is done.\n        uint timestamp;\n        //v Block when the Measurement is done.\n        uint blockNumber;\n    }\n    mapping (address => Measurement) measurement;\n    \n    Measurement [] measurements;\n\n    function addMeasurements(address [] _handlers,bytes32 [] _attributes, int [] _values, bytes32 [] _events, bytes32 [] _descriptions, uint [] _timestamps, uint [] _blockNumbers) roleOrOwner('productOwner') {\n        require (_events.length == _attributes.length&&_events.length == _values.length&&\n        _events.length == _timestamps.length&&_events.length == _descriptions.length&&\n        _events.length == _blockNumbers.length&&_events.length == _handlers.length);\n        for(uint i=0;i<_events.length;i++){\n            measurements.push(Measurement(_handlers[i],_attributes[i], _values[i],   _events[i], _descriptions[i],  _timestamps[i],  _blockNumbers[i]))-1;\n        }\n\n    }\n\n\n    function getMeasurements (bytes32 []) roleOrOwner('productOwner') constant returns(address [], bytes32[],  int [] , bytes32 [] , bytes32 [] , uint [] , uint [] )  {\n\n        address [] memory handles= new address[](measurements.length);\n        bytes32 [] memory attributes = new bytes32[](measurements.length);\n        int [] memory values =new int[](measurements.length);\n        bytes32 [] memory events=new bytes32[](measurements.length);\n        bytes32 [] memory descriptions=new bytes32[](measurements.length);\n        uint [] memory timestamps=new uint[](measurements.length);\n        uint [] memory blockNumbers=new uint[](measurements.length);\n        for (uint i=0; i< measurements.length; i++){\n            handles[i] = measurements[i].handler;\n            attributes[i] = measurements[i].attributeName;\n            values[i] = measurements[i].value;\n            events[i] = measurements[i].event_id;\n            descriptions[i] = measurements[i].description;\n            timestamps[i] = measurements[i].timestamp;\n            blockNumbers[i] = measurements[i].blockNumber;\n        }\n\n        return (handles,attributes,values,events,descriptions,timestamps,blockNumbers);\n    }\n\n    function getNameAndValeOfMeasurement(uint i) roleOrOwner('productOwner') constant returns (bytes32, int){\n        return (measurements[i].attributeName, measurements[i].value);\n    }\n\n\n}\n",
  "sourcePath": "/Users/hao/onedrive/OneDrive - The University of Melbourne/project/Product_passport/contracts/Measurements.sol",
  "compiler": {
    "name": "solc",
    "version": "0.4.23+commit.124ca40d.Emscripten.clang"
  },
  "schemaVersion": "2.0.0",
  "updatedAt": "2018-06-03T21:24:10.090Z"
}