{
  "contractName": "Parties",
  "abi": [
    {
      "constant": true,
      "inputs": [],
      "name": "getUsers",
      "outputs": [
        {
          "name": "",
          "type": "address[]"
        }
      ],
      "payable": false,
      "stateMutability": "view",
      "type": "function"
    },
    {
      "constant": true,
      "inputs": [
        {
          "name": "",
          "type": "uint256"
        }
      ],
      "name": "userAccts",
      "outputs": [
        {
          "name": "",
          "type": "address"
        }
      ],
      "payable": false,
      "stateMutability": "view",
      "type": "function"
    },
    {
      "constant": false,
      "inputs": [
        {
          "name": "owner_",
          "type": "address"
        }
      ],
      "name": "setOwner",
      "outputs": [],
      "payable": false,
      "stateMutability": "nonpayable",
      "type": "function"
    },
    {
      "constant": true,
      "inputs": [
        {
          "name": "roleName",
          "type": "string"
        }
      ],
      "name": "senderHasRole",
      "outputs": [
        {
          "name": "",
          "type": "bool"
        }
      ],
      "payable": false,
      "stateMutability": "view",
      "type": "function"
    },
    {
      "constant": false,
      "inputs": [
        {
          "name": "hashOfContract",
          "type": "bytes32"
        },
        {
          "name": "roleName",
          "type": "string"
        },
        {
          "name": "user",
          "type": "address"
        }
      ],
      "name": "grantUserRole",
      "outputs": [],
      "payable": false,
      "stateMutability": "nonpayable",
      "type": "function"
    },
    {
      "constant": true,
      "inputs": [
        {
          "name": "",
          "type": "bytes32"
        },
        {
          "name": "",
          "type": "bytes32"
        }
      ],
      "name": "knownRoleNames",
      "outputs": [
        {
          "name": "",
          "type": "bool"
        }
      ],
      "payable": false,
      "stateMutability": "view",
      "type": "function"
    },
    {
      "constant": true,
      "inputs": [],
      "name": "roles",
      "outputs": [
        {
          "name": "",
          "type": "address"
        }
      ],
      "payable": false,
      "stateMutability": "view",
      "type": "function"
    },
    {
      "constant": false,
      "inputs": [
        {
          "name": "hashOfContract",
          "type": "bytes32"
        },
        {
          "name": "roleName",
          "type": "string"
        }
      ],
      "name": "addContractRole",
      "outputs": [],
      "payable": false,
      "stateMutability": "nonpayable",
      "type": "function"
    },
    {
      "constant": true,
      "inputs": [
        {
          "name": "_address",
          "type": "address"
        }
      ],
      "name": "getUser",
      "outputs": [
        {
          "name": "",
          "type": "uint256"
        },
        {
          "name": "",
          "type": "bytes16"
        },
        {
          "name": "",
          "type": "bytes16"
        }
      ],
      "payable": false,
      "stateMutability": "view",
      "type": "function"
    },
    {
      "constant": true,
      "inputs": [],
      "name": "buyer",
      "outputs": [
        {
          "name": "",
          "type": "address"
        }
      ],
      "payable": false,
      "stateMutability": "view",
      "type": "function"
    },
    {
      "constant": false,
      "inputs": [
        {
          "name": "owner_",
          "type": "address"
        }
      ],
      "name": "transferOwnerShip",
      "outputs": [],
      "payable": false,
      "stateMutability": "nonpayable",
      "type": "function"
    },
    {
      "constant": true,
      "inputs": [
        {
          "name": "",
          "type": "bytes32"
        },
        {
          "name": "",
          "type": "bytes32"
        },
        {
          "name": "",
          "type": "address"
        }
      ],
      "name": "roleList",
      "outputs": [
        {
          "name": "",
          "type": "bool"
        }
      ],
      "payable": false,
      "stateMutability": "view",
      "type": "function"
    },
    {
      "constant": true,
      "inputs": [],
      "name": "owner",
      "outputs": [
        {
          "name": "",
          "type": "address"
        }
      ],
      "payable": false,
      "stateMutability": "view",
      "type": "function"
    },
    {
      "constant": true,
      "inputs": [],
      "name": "contractHash",
      "outputs": [
        {
          "name": "",
          "type": "bytes32"
        }
      ],
      "payable": false,
      "stateMutability": "view",
      "type": "function"
    },
    {
      "constant": false,
      "inputs": [
        {
          "name": "roles_",
          "type": "address"
        }
      ],
      "name": "setRolesContract",
      "outputs": [],
      "payable": false,
      "stateMutability": "nonpayable",
      "type": "function"
    },
    {
      "constant": true,
      "inputs": [],
      "name": "state",
      "outputs": [
        {
          "name": "",
          "type": "uint8"
        }
      ],
      "payable": false,
      "stateMutability": "view",
      "type": "function"
    },
    {
      "constant": false,
      "inputs": [
        {
          "name": "hashOfContract",
          "type": "bytes32"
        },
        {
          "name": "roleName",
          "type": "string"
        },
        {
          "name": "user",
          "type": "address"
        }
      ],
      "name": "revokeUserRole",
      "outputs": [],
      "payable": false,
      "stateMutability": "nonpayable",
      "type": "function"
    },
    {
      "constant": true,
      "inputs": [
        {
          "name": "roleName",
          "type": "string"
        }
      ],
      "name": "hasRole",
      "outputs": [
        {
          "name": "",
          "type": "bool"
        }
      ],
      "payable": false,
      "stateMutability": "view",
      "type": "function"
    },
    {
      "constant": false,
      "inputs": [
        {
          "name": "hashOfContract",
          "type": "bytes32"
        },
        {
          "name": "roleName",
          "type": "string"
        }
      ],
      "name": "removeContractRole",
      "outputs": [],
      "payable": false,
      "stateMutability": "nonpayable",
      "type": "function"
    },
    {
      "constant": false,
      "inputs": [
        {
          "name": "_address",
          "type": "address"
        },
        {
          "name": "_age",
          "type": "uint256"
        },
        {
          "name": "_fName",
          "type": "bytes16"
        },
        {
          "name": "_lName",
          "type": "bytes16"
        }
      ],
      "name": "setUser",
      "outputs": [],
      "payable": false,
      "stateMutability": "nonpayable",
      "type": "function"
    },
    {
      "constant": true,
      "inputs": [],
      "name": "countUsers",
      "outputs": [
        {
          "name": "",
          "type": "uint256"
        }
      ],
      "payable": false,
      "stateMutability": "view",
      "type": "function"
    },
    {
      "constant": true,
      "inputs": [],
      "name": "token",
      "outputs": [
        {
          "name": "",
          "type": "address"
        }
      ],
      "payable": false,
      "stateMutability": "view",
      "type": "function"
    },
    {
      "inputs": [
        {
          "name": "_token",
          "type": "address"
        }
      ],
      "payable": false,
      "stateMutability": "nonpayable",
      "type": "constructor"
    },
    {
      "anonymous": false,
      "inputs": [
        {
          "indexed": false,
          "name": "fName",
          "type": "bytes16"
        },
        {
          "indexed": false,
          "name": "lName",
          "type": "bytes16"
        },
        {
          "indexed": false,
          "name": "age",
          "type": "uint256"
        }
      ],
      "name": "userInfo",
      "type": "event"
    },
    {
      "anonymous": false,
      "inputs": [
        {
          "indexed": false,
          "name": "newOwner",
          "type": "address"
        }
      ],
      "name": "SetTheOwner",
      "type": "event"
    },
    {
      "anonymous": false,
      "inputs": [
        {
          "indexed": false,
          "name": "hashOfContract",
          "type": "bytes32"
        },
        {
          "indexed": false,
          "name": "roleName",
          "type": "string"
        }
      ],
      "name": "LogRoleAdded",
      "type": "event"
    },
    {
      "anonymous": false,
      "inputs": [
        {
          "indexed": false,
          "name": "hashOfContract",
          "type": "bytes32"
        },
        {
          "indexed": false,
          "name": "roleName",
          "type": "string"
        }
      ],
      "name": "LogRoleRemoved",
      "type": "event"
    },
    {
      "anonymous": false,
      "inputs": [
        {
          "indexed": false,
          "name": "hashOfContract",
          "type": "bytes32"
        },
        {
          "indexed": false,
          "name": "roleName",
          "type": "string"
        },
        {
          "indexed": false,
          "name": "user",
          "type": "address"
        }
      ],
      "name": "LogRoleGranted",
      "type": "event"
    },
    {
      "anonymous": false,
      "inputs": [
        {
          "indexed": false,
          "name": "hashOfContract",
          "type": "bytes32"
        },
        {
          "indexed": false,
          "name": "roleName",
          "type": "string"
        },
        {
          "indexed": false,
          "name": "user",
          "type": "address"
        }
      ],
      "name": "LogRoleRevoked",
      "type": "event"
    },
    {
      "constant": false,
      "inputs": [
        {
          "name": "_parties",
          "type": "address[]"
        },
        {
          "name": "_amounts",
          "type": "uint256[]"
        }
      ],
      "name": "inviteParticipants",
      "outputs": [],
      "payable": false,
      "stateMutability": "nonpayable",
      "type": "function"
    },
    {
      "constant": true,
      "inputs": [],
      "name": "getParticipants",
      "outputs": [
        {
          "name": "",
          "type": "address[]"
        },
        {
          "name": "",
          "type": "uint256[]"
        }
      ],
      "payable": false,
      "stateMutability": "view",
      "type": "function"
    },
    {
      "constant": false,
      "inputs": [],
      "name": "acceptInvite",
      "outputs": [],
      "payable": false,
      "stateMutability": "nonpayable",
      "type": "function"
    },
    {
      "constant": false,
      "inputs": [],
      "name": "approve",
      "outputs": [],
      "payable": false,
      "stateMutability": "nonpayable",
      "type": "function"
    },
    {
      "constant": false,
      "inputs": [],
      "name": "reimburse",
      "outputs": [],
      "payable": false,
      "stateMutability": "nonpayable",
      "type": "function"
    }
  ],
  "bytecode": "0x6060604052341561000f57600080fd5b604051602080620030e7833981016040528080519060200190919050506040805190810160405280600d81526020017f526f6c657344617461626173650000000000000000000000000000000000000081525030336000806101000a81548173ffffffffffffffffffffffffffffffffffffffff021916908373ffffffffffffffffffffffffffffffffffffffff160217905550600073ffffffffffffffffffffffffffffffffffffffff168173ffffffffffffffffffffffffffffffffffffffff16141515156100df57600080fd5b816040518082805190602001908083835b60208310151561011557805182526020820191506020810190506020830392506100f0565b6001836020036101000a03801982511681845116808217855250505050505090500191505060405180910390206002816000191690555080600160006101000a81548173ffffffffffffffffffffffffffffffffffffffff021916908373ffffffffffffffffffffffffffffffffffffffff160217905550505033600860016101000a81548173ffffffffffffffffffffffffffffffffffffffff021916908373ffffffffffffffffffffffffffffffffffffffff16021790555080600b60006101000a81548173ffffffffffffffffffffffffffffffffffffffff021916908373ffffffffffffffffffffffffffffffffffffffff16021790555050612ec580620002226000396000f30060606040526004361061015e576000357c0100000000000000000000000000000000000000000000000000000000900463ffffffff168062ce8e3e146101635780630ab2bb13146101cd57806312424e3f1461023057806313af4035146102455780631ca03b8e1461027e5780632f677038146102f35780633037cea31461037c578063392f5f64146103c85780635aa68ac01461041d578063644443ed146104cf5780636f12aa18146105395780636f77926b146105d35780637150d8ae1461067a5780638863dd1a146106cf5780638b51ca42146107085780638da5cb5b14610773578063904c6094146107c8578063afa202ac146107f9578063bbb4d3e914610832578063c19d93fb14610847578063c2a48c701461087e578063d3927c1514610907578063e3c33a9b1461091c578063edd70a7514610991578063f114005a146109fb578063f8fb1d0f14610a75578063fc0c546a14610a9e575b600080fd5b341561016e57600080fd5b610176610af3565b6040518080602001828103825283818151815260200191508051906020019060200280838360005b838110156101b957808201518184015260208101905061019e565b505050509050019250505060405180910390f35b34156101d857600080fd5b6101ee6004808035906020019091905050610b87565b604051808273ffffffffffffffffffffffffffffffffffffffff1673ffffffffffffffffffffffffffffffffffffffff16815260200191505060405180910390f35b341561023b57600080fd5b610243610bc6565b005b341561025057600080fd5b61027c600480803573ffffffffffffffffffffffffffffffffffffffff16906020019091905050610def565b005b341561028957600080fd5b6102d9600480803590602001908201803590602001908080601f01602080910402602001604051908101604052809392919081815260200183838082843782019150505050505091905050610f11565b604051808215151515815260200191505060405180910390f35b34156102fe57600080fd5b61037a60048080356000191690602001909190803590602001908201803590602001908080601f0160208091040260200160405190810160405280939291908181526020018383808284378201915050505050509190803573ffffffffffffffffffffffffffffffffffffffff1690602001909190505061108f565b005b341561038757600080fd5b6103ae600480803560001916906020019091908035600019169060200190919050506113b1565b604051808215151515815260200191505060405180910390f35b34156103d357600080fd5b6103db6113e0565b604051808273ffffffffffffffffffffffffffffffffffffffff1673ffffffffffffffffffffffffffffffffffffffff16815260200191505060405180910390f35b341561042857600080fd5b610430611406565b604051808060200180602001838103835285818151815260200191508051906020019060200280838360005b8381101561047757808201518184015260208101905061045c565b50505050905001838103825284818151815260200191508051906020019060200280838360005b838110156104b957808201518184015260208101905061049e565b5050505090500194505050505060405180910390f35b34156104da57600080fd5b61053760048080356000191690602001909190803590602001908201803590602001908080601f01602080910402602001604051908101604052809392919081815260200183838082843782019150505050505091905050611568565b005b341561054457600080fd5b6105d160048080359060200190820180359060200190808060200260200160405190810160405280939291908181526020018383602002808284378201915050505050509190803590602001908201803590602001908080602002602001604051908101604052809392919081815260200183836020028082843782019150505050505091905050611819565b005b34156105de57600080fd5b61060a600480803573ffffffffffffffffffffffffffffffffffffffff16906020019091905050611bd5565b60405180848152602001836fffffffffffffffffffffffffffffffff19166fffffffffffffffffffffffffffffffff19168152602001826fffffffffffffffffffffffffffffffff19166fffffffffffffffffffffffffffffffff19168152602001935050505060405180910390f35b341561068557600080fd5b61068d611cea565b604051808273ffffffffffffffffffffffffffffffffffffffff1673ffffffffffffffffffffffffffffffffffffffff16815260200191505060405180910390f35b34156106da57600080fd5b610706600480803573ffffffffffffffffffffffffffffffffffffffff16906020019091905050611d10565b005b341561071357600080fd5b6107596004808035600019169060200190919080356000191690602001909190803573ffffffffffffffffffffffffffffffffffffffff16906020019091905050611e32565b604051808215151515815260200191505060405180910390f35b341561077e57600080fd5b610786611e6e565b604051808273ffffffffffffffffffffffffffffffffffffffff1673ffffffffffffffffffffffffffffffffffffffff16815260200191505060405180910390f35b34156107d357600080fd5b6107db611e94565b60405180826000191660001916815260200191505060405180910390f35b341561080457600080fd5b610830600480803573ffffffffffffffffffffffffffffffffffffffff16906020019091905050611e9a565b005b341561083d57600080fd5b610845611f96565b005b341561085257600080fd5b61085a61204a565b6040518082600481111561086a57fe5b60ff16815260200191505060405180910390f35b341561088957600080fd5b61090560048080356000191690602001909190803590602001908201803590602001908080601f0160208091040260200160405190810160405280939291908181526020018383808284378201915050505050509190803573ffffffffffffffffffffffffffffffffffffffff1690602001909190505061205d565b005b341561091257600080fd5b61091a6122c7565b005b341561092757600080fd5b610977600480803590602001908201803590602001908080601f01602080910402602001604051908101604052809392919081815260200183838082843782019150505050505091905050612568565b604051808215151515815260200191505060405180910390f35b341561099c57600080fd5b6109f960048080356000191690602001909190803590602001908201803590602001908080601f016020809104026020016040519081016040528093929190818152602001838380828437820191505050505050919050506126a1565b005b3415610a0657600080fd5b610a73600480803573ffffffffffffffffffffffffffffffffffffffff169060200190919080359060200190919080356fffffffffffffffffffffffffffffffff19169060200190919080356fffffffffffffffffffffffffffffffff1916906020019091905050612948565b005b3415610a8057600080fd5b610a88612b69565b6040518082815260200191505060405180910390f35b3415610aa957600080fd5b610ab1612b76565b604051808273ffffffffffffffffffffffffffffffffffffffff1673ffffffffffffffffffffffffffffffffffffffff16815260200191505060405180910390f35b610afb612d52565b6006805480602002602001604051908101604052809291908181526020018280548015610b7d57602002820191906000526020600020905b8160009054906101000a900473ffffffffffffffffffffffffffffffffffffffff1673ffffffffffffffffffffffffffffffffffffffff1681526020019060010190808311610b33575b5050505050905090565b600681815481101515610b9657fe5b90600052602060002090016000915054906101000a900473ffffffffffffffffffffffffffffffffffffffff1681565b60006002806004811115610bd657fe5b600860009054906101000a900460ff166004811115610bf157fe5b141515610bfd57600080fd5b6000809054906101000a900473ffffffffffffffffffffffffffffffffffffffff1673ffffffffffffffffffffffffffffffffffffffff163373ffffffffffffffffffffffffffffffffffffffff16141515610c5857600080fd5b600091505b600780549050821015610dc757600b60009054906101000a900473ffffffffffffffffffffffffffffffffffffffff1673ffffffffffffffffffffffffffffffffffffffff1663a9059cbb600784815481101515610cb757fe5b906000526020600020906003020160000160009054906101000a900473ffffffffffffffffffffffffffffffffffffffff16600785815481101515610cf857fe5b9060005260206000209060030201600101546000604051602001526040518363ffffffff167c0100000000000000000000000000000000000000000000000000000000028152600401808373ffffffffffffffffffffffffffffffffffffffff1673ffffffffffffffffffffffffffffffffffffffff16815260200182815260200192505050602060405180830381600087803b1515610d9757600080fd5b6102c65a03f11515610da857600080fd5b505050604051805190501515610dba57fe5b8180600101925050610c5d565b6003600860006101000a81548160ff02191690836004811115610de657fe5b02179055505050565b6000809054906101000a900473ffffffffffffffffffffffffffffffffffffffff1673ffffffffffffffffffffffffffffffffffffffff163373ffffffffffffffffffffffffffffffffffffffff16141515610e4a57600080fd5b806000806101000a81548173ffffffffffffffffffffffffffffffffffffffff021916908373ffffffffffffffffffffffffffffffffffffffff1602179055507fe68cf4546522887de125201a08bb28732b71c701ef98bdde59bcd7ee077a65da6000809054906101000a900473ffffffffffffffffffffffffffffffffffffffff16604051808273ffffffffffffffffffffffffffffffffffffffff1673ffffffffffffffffffffffffffffffffffffffff16815260200191505060405180910390a150565b6000610f1c82612568565b80156110885750600160009054906101000a900473ffffffffffffffffffffffffffffffffffffffff1673ffffffffffffffffffffffffffffffffffffffff16638b51ca42600254846040518082805190602001908083835b602083101515610f9a5780518252602082019150602081019050602083039250610f75565b6001836020036101000a0380198251168184511680821785525050505050509050019150506040518091039020336000604051602001526040518463ffffffff167c010000000000000000000000000000000000000000000000000000000002815260040180846000191660001916815260200183600019166000191681526020018273ffffffffffffffffffffffffffffffffffffffff1673ffffffffffffffffffffffffffffffffffffffff1681526020019350505050602060405180830381600087803b151561106c57600080fd5b6102c65a03f1151561107d57600080fd5b505050604051805190505b9050919050565b6040805190810160405280600581526020017f61646d696e0000000000000000000000000000000000000000000000000000008152506000809054906101000a900473ffffffffffffffffffffffffffffffffffffffff1673ffffffffffffffffffffffffffffffffffffffff163373ffffffffffffffffffffffffffffffffffffffff161480611125575061112481610f11565b5b151561113057600080fd5b6004600085600019166000191681526020019081526020016000206000846040518082805190602001908083835b602083101515611183578051825260208201915060208101905060208303925061115e565b6001836020036101000a03801982511681845116808217855250505050505090500191505060405180910390206000191660001916815260200190815260200160002060009054906101000a900460ff1615156111df57600080fd5b60016003600086600019166000191681526020019081526020016000206000856040518082805190602001908083835b602083101515611234578051825260208201915060208101905060208303925061120f565b6001836020036101000a03801982511681845116808217855250505050505090500191505060405180910390206000191660001916815260200190815260200160002060008473ffffffffffffffffffffffffffffffffffffffff1673ffffffffffffffffffffffffffffffffffffffff16815260200190815260200160002060006101000a81548160ff0219169083151502179055507f407d91ed2028325ba84bcf37bade3cde79c3dec599612fa155b042eba4786ddc848484604051808460001916600019168152602001806020018373ffffffffffffffffffffffffffffffffffffffff1673ffffffffffffffffffffffffffffffffffffffff168152602001828103825284818151815260200191508051906020019080838360005b8381101561136f578082015181840152602081019050611354565b50505050905090810190601f16801561139c5780820380516001836020036101000a031916815260200191505b5094505050505060405180910390a150505050565b60046020528160005260406000206020528060005260406000206000915091509054906101000a900460ff1681565b600160009054906101000a900473ffffffffffffffffffffffffffffffffffffffff1681565b61140e612d52565b611416612d66565b61141e612d52565b611426612d66565b600060078054905060405180591061143b5750595b908082528060200260200182016040525092506007805490506040518059106114615750595b90808252806020026020018201604052509150600090505b60078054905081101561155b5760078181548110151561149557fe5b906000526020600020906003020160000160009054906101000a900473ffffffffffffffffffffffffffffffffffffffff1683828151811015156114d557fe5b9060200190602002019073ffffffffffffffffffffffffffffffffffffffff16908173ffffffffffffffffffffffffffffffffffffffff168152505060078181548110151561152057fe5b906000526020600020906003020160010154828281518110151561154057fe5b90602001906020020181815250508080600101915050611479565b8282945094505050509091565b6040805190810160405280600581526020017f61646d696e0000000000000000000000000000000000000000000000000000008152506000809054906101000a900473ffffffffffffffffffffffffffffffffffffffff1673ffffffffffffffffffffffffffffffffffffffff163373ffffffffffffffffffffffffffffffffffffffff1614806115fe57506115fd81610f11565b5b151561160957600080fd5b6004600084600019166000191681526020019081526020016000206000836040518082805190602001908083835b60208310151561165c5780518252602082019150602081019050602083039250611637565b6001836020036101000a03801982511681845116808217855250505050505090500191505060405180910390206000191660001916815260200190815260200160002060009054906101000a900460ff161515156116b957600080fd5b60016004600085600019166000191681526020019081526020016000206000846040518082805190602001908083835b60208310151561170e57805182526020820191506020810190506020830392506116e9565b6001836020036101000a03801982511681845116808217855250505050505090500191505060405180910390206000191660001916815260200190815260200160002060006101000a81548160ff0219169083151502179055507f9e854cfefd293f12a3d57e50652dd623ba2880249fd212fa50f89c32a468c26d838360405180836000191660001916815260200180602001828103825283818151815260200191508051906020019080838360005b838110156117d95780820151818401526020810190506117be565b50505050905090810190601f1680156118065780820380516001836020036101000a031916815260200191505b50935050505060405180910390a1505050565b60008080600481111561182857fe5b600860009054906101000a900460ff16600481111561184357fe5b14151561184f57600080fd5b6040805190810160405280600481526020017f55736572000000000000000000000000000000000000000000000000000000008152506000809054906101000a900473ffffffffffffffffffffffffffffffffffffffff1673ffffffffffffffffffffffffffffffffffffffff163373ffffffffffffffffffffffffffffffffffffffff1614806118e557506118e481610f11565b5b15156118f057600080fd5b8351855114151561190057600080fd5b33600960006101000a81548173ffffffffffffffffffffffffffffffffffffffff021916908373ffffffffffffffffffffffffffffffffffffffff160217905550600092505b8451831015611a5c57600780548060010182816119639190612d7a565b91600052602060002090600302016000606060405190810160405280898881518110151561198d57fe5b9060200190602002015173ffffffffffffffffffffffffffffffffffffffff16815260200188888151811015156119c057fe5b90602001906020020151815260200160001515815250909190915060008201518160000160006101000a81548173ffffffffffffffffffffffffffffffffffffffff021916908373ffffffffffffffffffffffffffffffffffffffff1602179055506020820151816001015560408201518160020160006101000a81548160ff0219169083151502179055505050508280600101935050611946565b600b60009054906101000a900473ffffffffffffffffffffffffffffffffffffffff1673ffffffffffffffffffffffffffffffffffffffff166323b872dd600960009054906101000a900473ffffffffffffffffffffffffffffffffffffffff1630611ac788612b9c565b6000604051602001526040518463ffffffff167c0100000000000000000000000000000000000000000000000000000000028152600401808473ffffffffffffffffffffffffffffffffffffffff1673ffffffffffffffffffffffffffffffffffffffff1681526020018373ffffffffffffffffffffffffffffffffffffffff1673ffffffffffffffffffffffffffffffffffffffff1681526020018281526020019350505050602060405180830381600087803b1515611b8757600080fd5b6102c65a03f11515611b9857600080fd5b505050604051805190501515611baa57fe5b6001600860006101000a81548160ff02191690836004811115611bc957fe5b02179055505050505050565b6000806000600560008573ffffffffffffffffffffffffffffffffffffffff1673ffffffffffffffffffffffffffffffffffffffff16815260200190815260200160002060000154600560008673ffffffffffffffffffffffffffffffffffffffff1673ffffffffffffffffffffffffffffffffffffffff16815260200190815260200160002060010160009054906101000a900470010000000000000000000000000000000002600560008773ffffffffffffffffffffffffffffffffffffffff1673ffffffffffffffffffffffffffffffffffffffff16815260200190815260200160002060010160109054906101000a9004700100000000000000000000000000000000029250925092509193909250565b600960009054906101000a900473ffffffffffffffffffffffffffffffffffffffff1681565b6000809054906101000a900473ffffffffffffffffffffffffffffffffffffffff1673ffffffffffffffffffffffffffffffffffffffff163373ffffffffffffffffffffffffffffffffffffffff16141515611d6b57600080fd5b806000806101000a81548173ffffffffffffffffffffffffffffffffffffffff021916908373ffffffffffffffffffffffffffffffffffffffff1602179055507fe68cf4546522887de125201a08bb28732b71c701ef98bdde59bcd7ee077a65da6000809054906101000a900473ffffffffffffffffffffffffffffffffffffffff16604051808273ffffffffffffffffffffffffffffffffffffffff1673ffffffffffffffffffffffffffffffffffffffff16815260200191505060405180910390a150565b6003602052826000526040600020602052816000526040600020602052806000526040600020600092509250509054906101000a900460ff1681565b600860019054906101000a900473ffffffffffffffffffffffffffffffffffffffff1681565b60025481565b6000809054906101000a900473ffffffffffffffffffffffffffffffffffffffff1673ffffffffffffffffffffffffffffffffffffffff163373ffffffffffffffffffffffffffffffffffffffff16141515611ef557600080fd5b600160009054906101000a900473ffffffffffffffffffffffffffffffffffffffff1673ffffffffffffffffffffffffffffffffffffffff163073ffffffffffffffffffffffffffffffffffffffff1614151515611f5257600080fd5b80600160006101000a81548173ffffffffffffffffffffffffffffffffffffffff021916908373ffffffffffffffffffffffffffffffffffffffff16021790555050565b611f9e612dac565b6001806004811115611fac57fe5b600860009054906101000a900460ff166004811115611fc757fe5b141515611fd357600080fd5b611fdc33612bf7565b91508160400151151515611fef57600080fd5b6001826040019015159081151581525050600a60008154809291906001019190505550600780549050600a541415612046576002600860006101000a81548160ff0219169083600481111561204057fe5b02179055505b5050565b600860009054906101000a900460ff1681565b6040805190810160405280600581526020017f61646d696e0000000000000000000000000000000000000000000000000000008152506000809054906101000a900473ffffffffffffffffffffffffffffffffffffffff1673ffffffffffffffffffffffffffffffffffffffff163373ffffffffffffffffffffffffffffffffffffffff1614806120f357506120f281610f11565b5b15156120fe57600080fd5b6003600085600019166000191681526020019081526020016000206000846040518082805190602001908083835b602083101515612151578051825260208201915060208101905060208303925061212c565b6001836020036101000a03801982511681845116808217855250505050505090500191505060405180910390206000191660001916815260200190815260200160002060008373ffffffffffffffffffffffffffffffffffffffff1673ffffffffffffffffffffffffffffffffffffffff16815260200190815260200160002060006101000a81549060ff02191690557f4fbccdb14b9a6cf4300c7a6ec5bf09d09677d23ac78f755e9249094d80cd6e27848484604051808460001916600019168152602001806020018373ffffffffffffffffffffffffffffffffffffffff1673ffffffffffffffffffffffffffffffffffffffff168152602001828103825284818151815260200191508051906020019080838360005b8381101561228557808201518184015260208101905061226a565b50505050905090810190601f1680156122b25780820380516001836020036101000a031916815260200191505b5094505050505060405180910390a150505050565b60028060048111156122d557fe5b600860009054906101000a900460ff1660048111156122f057fe5b1415156122fc57600080fd5b6000809054906101000a900473ffffffffffffffffffffffffffffffffffffffff1673ffffffffffffffffffffffffffffffffffffffff163373ffffffffffffffffffffffffffffffffffffffff1614151561235757600080fd5b600b60009054906101000a900473ffffffffffffffffffffffffffffffffffffffff1673ffffffffffffffffffffffffffffffffffffffff1663a9059cbb600960009054906101000a900473ffffffffffffffffffffffffffffffffffffffff16600b60009054906101000a900473ffffffffffffffffffffffffffffffffffffffff1673ffffffffffffffffffffffffffffffffffffffff166370a08231306000604051602001526040518263ffffffff167c0100000000000000000000000000000000000000000000000000000000028152600401808273ffffffffffffffffffffffffffffffffffffffff1673ffffffffffffffffffffffffffffffffffffffff168152602001915050602060405180830381600087803b151561247d57600080fd5b6102c65a03f1151561248e57600080fd5b505050604051805190506000604051602001526040518363ffffffff167c0100000000000000000000000000000000000000000000000000000000028152600401808373ffffffffffffffffffffffffffffffffffffffff1673ffffffffffffffffffffffffffffffffffffffff16815260200182815260200192505050602060405180830381600087803b151561252557600080fd5b6102c65a03f1151561253657600080fd5b50505060405180519050506004600860006101000a81548160ff0219169083600481111561256057fe5b021790555050565b6000600160009054906101000a900473ffffffffffffffffffffffffffffffffffffffff1673ffffffffffffffffffffffffffffffffffffffff16633037cea3600254846040518082805190602001908083835b6020831015156125e157805182526020820191506020810190506020830392506125bc565b6001836020036101000a03801982511681845116808217855250505050505090500191505060405180910390206000604051602001526040518363ffffffff167c0100000000000000000000000000000000000000000000000000000000028152600401808360001916600019168152602001826000191660001916815260200192505050602060405180830381600087803b151561267f57600080fd5b6102c65a03f1151561269057600080fd5b505050604051805190509050919050565b6040805190810160405280600581526020017f61646d696e0000000000000000000000000000000000000000000000000000008152506000809054906101000a900473ffffffffffffffffffffffffffffffffffffffff1673ffffffffffffffffffffffffffffffffffffffff163373ffffffffffffffffffffffffffffffffffffffff161480612737575061273681610f11565b5b151561274257600080fd5b6004600084600019166000191681526020019081526020016000206000836040518082805190602001908083835b6020831015156127955780518252602082019150602081019050602083039250612770565b6001836020036101000a03801982511681845116808217855250505050505090500191505060405180910390206000191660001916815260200190815260200160002060009054906101000a900460ff1615156127f157600080fd5b6004600084600019166000191681526020019081526020016000206000836040518082805190602001908083835b602083101515612844578051825260208201915060208101905060208303925061281f565b6001836020036101000a03801982511681845116808217855250505050505090500191505060405180910390206000191660001916815260200190815260200160002060006101000a81549060ff02191690557f5c012fe87ecf5fc2e083217e8ce9c77a88d3dd15c311bd6725ebbb9421147902838360405180836000191660001916815260200180602001828103825283818151815260200191508051906020019080838360005b838110156129085780820151818401526020810190506128ed565b50505050905090810190601f1680156129355780820380516001836020036101000a031916815260200191505b50935050505060405180910390a1505050565b60008060009054906101000a900473ffffffffffffffffffffffffffffffffffffffff1673ffffffffffffffffffffffffffffffffffffffff163373ffffffffffffffffffffffffffffffffffffffff161415156129a557600080fd5b600560008673ffffffffffffffffffffffffffffffffffffffff1673ffffffffffffffffffffffffffffffffffffffff1681526020019081526020016000209050838160000181905550828160010160006101000a8154816fffffffffffffffffffffffffffffffff021916908370010000000000000000000000000000000090040217905550818160010160106101000a8154816fffffffffffffffffffffffffffffffff021916908370010000000000000000000000000000000090040217905550600160068054806001018281612a7f9190612de6565b9160005260206000209001600088909190916101000a81548173ffffffffffffffffffffffffffffffffffffffff021916908373ffffffffffffffffffffffffffffffffffffffff16021790555050507fc0c3f3bec8418c4e7381366acb606d8d0927960e64c16758e3b12ee8f8a4a4a483838660405180846fffffffffffffffffffffffffffffffff19166fffffffffffffffffffffffffffffffff19168152602001836fffffffffffffffffffffffffffffffff19166fffffffffffffffffffffffffffffffff19168152602001828152602001935050505060405180910390a15050505050565b6000600680549050905090565b600b60009054906101000a900473ffffffffffffffffffffffffffffffffffffffff1681565b600080826000815181101515612bae57fe5b906020019060200201519150600190505b8251811015612bf1578281815181101515612bd657fe5b90602001906020020151820191508080600101915050612bbf565b50919050565b612bff612dac565b60008090505b600780549050811015612d3e578273ffffffffffffffffffffffffffffffffffffffff16600782815481101515612c3857fe5b906000526020600020906003020160000160009054906101000a900473ffffffffffffffffffffffffffffffffffffffff1673ffffffffffffffffffffffffffffffffffffffff161415612d3157600781815481101515612c9557fe5b9060005260206000209060030201606060405190810160405290816000820160009054906101000a900473ffffffffffffffffffffffffffffffffffffffff1673ffffffffffffffffffffffffffffffffffffffff1673ffffffffffffffffffffffffffffffffffffffff168152602001600182015481526020016002820160009054906101000a900460ff1615151515815250509150612d4c565b8080600101915050612c05565b60001515612d4b57600080fd5b5b50919050565b602060405190810160405280600081525090565b602060405190810160405280600081525090565b815481835581811511612da757600302816003028360005260206000209182019101612da69190612e12565b5b505050565b606060405190810160405280600073ffffffffffffffffffffffffffffffffffffffff168152602001600081526020016000151581525090565b815481835581811511612e0d57818360005260206000209182019101612e0c9190612e74565b5b505050565b612e7191905b80821115612e6d57600080820160006101000a81549073ffffffffffffffffffffffffffffffffffffffff021916905560018201600090556002820160006101000a81549060ff021916905550600301612e18565b5090565b90565b612e9691905b80821115612e92576000816000905550600101612e7a565b5090565b905600a165627a7a7230582068bf2b2ef333aa0ecba0272d9caeb078ae76b6e702086744f725436d32cf44db0029",
  "source": "pragma solidity ^0.4.16;\nimport \"../Token/TokenStandard.sol\";\nimport \"../authority/Owned.sol\";\nimport \"../authority/Roles.sol\";\nimport \"../authority/Users.sol\";\n\n\ncontract Parties is Owned,Roles,Users {\n\n    struct Party {\n        address wallet;\n        uint amount;\n        bool has_accepted;\n    }\n\n    enum State { New, Invited, Locked, Approved, Reimbursed}\n\n    Party[] parties;\n\n    State public state;\n\n    address public owner;\n\n    address public buyer;\n\n    uint accepted_count;\n\n    TokenStandard public token;\n\n    modifier onlyState(State _state) {\n        require(state == _state);\n        _;\n    }\n\n    function Parties(TokenStandard _token) {\n        owner = msg.sender;\n        token = _token;\n    }\n\n    function inviteParticipants(address[] _parties, uint[] _amounts) onlyState(State.New) roleOrOwner(\"User\")public  {\n        require(_parties.length == _amounts.length);    \n        buyer = msg.sender;        \n        for (uint i = 0; i < _parties.length; i++) {\n            parties.push(Party(_parties[i], _amounts[i], false));\n        }\n        assert(token.transferFrom(buyer, this, sum(_amounts)));\n        state = State.Invited;\n    }\n\n    function getParticipants() constant returns (address [], uint [])  {\n        address [] memory wallets = new address[](parties.length);\n        uint [] memory amounts = new uint[](parties.length);\n        for (uint i = 0; i < parties.length; i++) {\n            wallets[i] = parties[i].wallet;\n            amounts[i] = parties[i].amount;\n        }\n        return (wallets, amounts);\n    }\n\n    function getPartyByAddress(address _address) constant internal returns (Party) {\n        for (uint i = 0; i < parties.length; i++) {\n            if (parties[i].wallet == _address) {\n                return parties[i];\n            }\n        }\n        require(false);\n    }\n\n\n    function acceptInvite() onlyState(State.Invited) {\n        Party memory party = getPartyByAddress(msg.sender);\n        require(!party.has_accepted);\n        party.has_accepted = true;\n        accepted_count++;        \n        if (accepted_count == parties.length) {\n            state = State.Locked;\n        }\n    }\n\n    function approve() onlyState(State.Locked) onlyOwner {\n        for (uint i = 0; i < parties.length; i++) {\n            assert(token.transfer(parties[i].wallet, parties[i].amount));\n        } \n        state = State.Approved;\n    }\n\n    function reimburse() onlyState(State.Locked) onlyOwner {\n        token.transfer(buyer, token.balanceOf(this));\n        state = State.Reimbursed;      \n    }\n\n    function sum(uint[] memory self) internal constant returns (uint result) {\n        result = self[0];\n        for (uint i = 1; i < self.length; i++) {\n            result += self[i];\n        }\n    }\n}\n",
  "sourcePath": "/Users/hao/onedrive/OneDrive - The University of Melbourne/project/Product_passport/contracts/authority/Parties.sol",
  "compiler": {
    "name": "solc",
    "version": "0.4.19+commit.c4cbbb05.Emscripten.clang"
  },
  "schemaVersion": "2.0.0",
  "updatedAt": "2018-05-03T05:52:33.508Z"
}