{
  "contractName": "Parties",
  "abi": [
    {
      "constant": true,
      "inputs": [],
      "name": "getUsers",
      "outputs": [
        {
          "name": "",
          "type": "address[]"
        }
      ],
      "payable": false,
      "stateMutability": "view",
      "type": "function"
    },
    {
      "constant": true,
      "inputs": [
        {
          "name": "",
          "type": "uint256"
        }
      ],
      "name": "userAccts",
      "outputs": [
        {
          "name": "",
          "type": "address"
        }
      ],
      "payable": false,
      "stateMutability": "view",
      "type": "function"
    },
    {
      "constant": false,
      "inputs": [
        {
          "name": "owner_",
          "type": "address"
        }
      ],
      "name": "setOwner",
      "outputs": [],
      "payable": false,
      "stateMutability": "nonpayable",
      "type": "function"
    },
    {
      "constant": true,
      "inputs": [
        {
          "name": "roleName",
          "type": "string"
        }
      ],
      "name": "senderHasRole",
      "outputs": [
        {
          "name": "",
          "type": "bool"
        }
      ],
      "payable": false,
      "stateMutability": "view",
      "type": "function"
    },
    {
      "constant": false,
      "inputs": [
        {
          "name": "hashOfContract",
          "type": "bytes32"
        },
        {
          "name": "roleName",
          "type": "string"
        },
        {
          "name": "user",
          "type": "address"
        }
      ],
      "name": "grantUserRole",
      "outputs": [],
      "payable": false,
      "stateMutability": "nonpayable",
      "type": "function"
    },
    {
      "constant": true,
      "inputs": [
        {
          "name": "",
          "type": "bytes32"
        },
        {
          "name": "",
          "type": "bytes32"
        }
      ],
      "name": "knownRoleNames",
      "outputs": [
        {
          "name": "",
          "type": "bool"
        }
      ],
      "payable": false,
      "stateMutability": "view",
      "type": "function"
    },
    {
      "constant": true,
      "inputs": [],
      "name": "roles",
      "outputs": [
        {
          "name": "",
          "type": "address"
        }
      ],
      "payable": false,
      "stateMutability": "view",
      "type": "function"
    },
    {
      "constant": false,
      "inputs": [
        {
          "name": "hashOfContract",
          "type": "bytes32"
        },
        {
          "name": "roleName",
          "type": "string"
        }
      ],
      "name": "addContractRole",
      "outputs": [],
      "payable": false,
      "stateMutability": "nonpayable",
      "type": "function"
    },
    {
      "constant": true,
      "inputs": [
        {
          "name": "_address",
          "type": "address"
        }
      ],
      "name": "getUser",
      "outputs": [
        {
          "name": "",
          "type": "uint256"
        },
        {
          "name": "",
          "type": "bytes16"
        },
        {
          "name": "",
          "type": "bytes16"
        }
      ],
      "payable": false,
      "stateMutability": "view",
      "type": "function"
    },
    {
      "constant": true,
      "inputs": [],
      "name": "buyer",
      "outputs": [
        {
          "name": "",
          "type": "address"
        }
      ],
      "payable": false,
      "stateMutability": "view",
      "type": "function"
    },
    {
      "constant": false,
      "inputs": [
        {
          "name": "owner_",
          "type": "address"
        }
      ],
      "name": "transferOwnerShip",
      "outputs": [],
      "payable": false,
      "stateMutability": "nonpayable",
      "type": "function"
    },
    {
      "constant": true,
      "inputs": [
        {
          "name": "",
          "type": "bytes32"
        },
        {
          "name": "",
          "type": "bytes32"
        },
        {
          "name": "",
          "type": "address"
        }
      ],
      "name": "roleList",
      "outputs": [
        {
          "name": "",
          "type": "bool"
        }
      ],
      "payable": false,
      "stateMutability": "view",
      "type": "function"
    },
    {
      "constant": true,
      "inputs": [],
      "name": "owner",
      "outputs": [
        {
          "name": "",
          "type": "address"
        }
      ],
      "payable": false,
      "stateMutability": "view",
      "type": "function"
    },
    {
      "constant": true,
      "inputs": [],
      "name": "contractHash",
      "outputs": [
        {
          "name": "",
          "type": "bytes32"
        }
      ],
      "payable": false,
      "stateMutability": "view",
      "type": "function"
    },
    {
      "constant": false,
      "inputs": [
        {
          "name": "roles_",
          "type": "address"
        }
      ],
      "name": "setRolesContract",
      "outputs": [],
      "payable": false,
      "stateMutability": "nonpayable",
      "type": "function"
    },
    {
      "constant": true,
      "inputs": [],
      "name": "state",
      "outputs": [
        {
          "name": "",
          "type": "uint8"
        }
      ],
      "payable": false,
      "stateMutability": "view",
      "type": "function"
    },
    {
      "constant": false,
      "inputs": [
        {
          "name": "hashOfContract",
          "type": "bytes32"
        },
        {
          "name": "roleName",
          "type": "string"
        },
        {
          "name": "user",
          "type": "address"
        }
      ],
      "name": "revokeUserRole",
      "outputs": [],
      "payable": false,
      "stateMutability": "nonpayable",
      "type": "function"
    },
    {
      "constant": true,
      "inputs": [
        {
          "name": "roleName",
          "type": "string"
        }
      ],
      "name": "hasRole",
      "outputs": [
        {
          "name": "",
          "type": "bool"
        }
      ],
      "payable": false,
      "stateMutability": "view",
      "type": "function"
    },
    {
      "constant": false,
      "inputs": [
        {
          "name": "hashOfContract",
          "type": "bytes32"
        },
        {
          "name": "roleName",
          "type": "string"
        }
      ],
      "name": "removeContractRole",
      "outputs": [],
      "payable": false,
      "stateMutability": "nonpayable",
      "type": "function"
    },
    {
      "constant": false,
      "inputs": [
        {
          "name": "_address",
          "type": "address"
        },
        {
          "name": "_age",
          "type": "uint256"
        },
        {
          "name": "_fName",
          "type": "bytes16"
        },
        {
          "name": "_lName",
          "type": "bytes16"
        }
      ],
      "name": "setUser",
      "outputs": [],
      "payable": false,
      "stateMutability": "nonpayable",
      "type": "function"
    },
    {
      "constant": true,
      "inputs": [],
      "name": "countUsers",
      "outputs": [
        {
          "name": "",
          "type": "uint256"
        }
      ],
      "payable": false,
      "stateMutability": "view",
      "type": "function"
    },
    {
      "constant": true,
      "inputs": [],
      "name": "token",
      "outputs": [
        {
          "name": "",
          "type": "address"
        }
      ],
      "payable": false,
      "stateMutability": "view",
      "type": "function"
    },
    {
      "inputs": [
        {
          "name": "_token",
          "type": "address"
        }
      ],
      "payable": false,
      "stateMutability": "nonpayable",
      "type": "constructor"
    },
    {
      "anonymous": false,
      "inputs": [
        {
          "indexed": false,
          "name": "fName",
          "type": "bytes16"
        },
        {
          "indexed": false,
          "name": "lName",
          "type": "bytes16"
        },
        {
          "indexed": false,
          "name": "age",
          "type": "uint256"
        }
      ],
      "name": "userInfo",
      "type": "event"
    },
    {
      "anonymous": false,
      "inputs": [
        {
          "indexed": false,
          "name": "newOwner",
          "type": "address"
        }
      ],
      "name": "SetTheOwner",
      "type": "event"
    },
    {
      "anonymous": false,
      "inputs": [
        {
          "indexed": false,
          "name": "hashOfContract",
          "type": "bytes32"
        },
        {
          "indexed": false,
          "name": "roleName",
          "type": "string"
        }
      ],
      "name": "LogRoleAdded",
      "type": "event"
    },
    {
      "anonymous": false,
      "inputs": [
        {
          "indexed": false,
          "name": "hashOfContract",
          "type": "bytes32"
        },
        {
          "indexed": false,
          "name": "roleName",
          "type": "string"
        }
      ],
      "name": "LogRoleRemoved",
      "type": "event"
    },
    {
      "anonymous": false,
      "inputs": [
        {
          "indexed": false,
          "name": "hashOfContract",
          "type": "bytes32"
        },
        {
          "indexed": false,
          "name": "roleName",
          "type": "string"
        },
        {
          "indexed": false,
          "name": "user",
          "type": "address"
        }
      ],
      "name": "LogRoleGranted",
      "type": "event"
    },
    {
      "anonymous": false,
      "inputs": [
        {
          "indexed": false,
          "name": "hashOfContract",
          "type": "bytes32"
        },
        {
          "indexed": false,
          "name": "roleName",
          "type": "string"
        },
        {
          "indexed": false,
          "name": "user",
          "type": "address"
        }
      ],
      "name": "LogRoleRevoked",
      "type": "event"
    },
    {
      "constant": false,
      "inputs": [
        {
          "name": "_parties",
          "type": "address[]"
        },
        {
          "name": "_amounts",
          "type": "uint256[]"
        }
      ],
      "name": "inviteParticipants",
      "outputs": [],
      "payable": false,
      "stateMutability": "nonpayable",
      "type": "function"
    },
    {
      "constant": true,
      "inputs": [],
      "name": "getParticipants",
      "outputs": [
        {
          "name": "",
          "type": "address[]"
        },
        {
          "name": "",
          "type": "uint256[]"
        }
      ],
      "payable": false,
      "stateMutability": "view",
      "type": "function"
    },
    {
      "constant": false,
      "inputs": [],
      "name": "acceptInvite",
      "outputs": [],
      "payable": false,
      "stateMutability": "nonpayable",
      "type": "function"
    },
    {
      "constant": false,
      "inputs": [],
      "name": "approve",
      "outputs": [],
      "payable": false,
      "stateMutability": "nonpayable",
      "type": "function"
    },
    {
      "constant": false,
      "inputs": [],
      "name": "reimburse",
      "outputs": [],
      "payable": false,
      "stateMutability": "nonpayable",
      "type": "function"
    }
  ],
  "bytecode": "0x608060405234801561001057600080fd5b5060405160208062003149833981018060405281019080805190602001909291905050506040805190810160405280600d81526020017f526f6c657344617461626173650000000000000000000000000000000000000081525030336000806101000a81548173ffffffffffffffffffffffffffffffffffffffff021916908373ffffffffffffffffffffffffffffffffffffffff160217905550600073ffffffffffffffffffffffffffffffffffffffff168173ffffffffffffffffffffffffffffffffffffffff16141515156100e757600080fd5b816040518082805190602001908083835b60208310151561011d57805182526020820191506020810190506020830392506100f8565b6001836020036101000a03801982511681845116808217855250505050505090500191505060405180910390206002816000191690555080600160006101000a81548173ffffffffffffffffffffffffffffffffffffffff021916908373ffffffffffffffffffffffffffffffffffffffff160217905550505033600860016101000a81548173ffffffffffffffffffffffffffffffffffffffff021916908373ffffffffffffffffffffffffffffffffffffffff16021790555080600b60006101000a81548173ffffffffffffffffffffffffffffffffffffffff021916908373ffffffffffffffffffffffffffffffffffffffff16021790555050612f1f806200022a6000396000f30060806040526004361061015e576000357c0100000000000000000000000000000000000000000000000000000000900463ffffffff168062ce8e3e146101635780630ab2bb13146101cf57806312424e3f1461023c57806313af4035146102535780631ca03b8e146102965780632f677038146103175780633037cea3146103ae578063392f5f64146104055780635aa68ac01461045c578063644443ed146105105780636f12aa18146105875780636f77926b146106305780637150d8ae146106e15780638863dd1a146107385780638b51ca421461077b5780638da5cb5b146107f2578063904c609414610849578063afa202ac1461087c578063bbb4d3e9146108bf578063c19d93fb146108d6578063c2a48c701461090f578063d3927c15146109a6578063e3c33a9b146109bd578063edd70a7514610a3e578063f114005a14610ab5578063f8fb1d0f14610b3c578063fc0c546a14610b67575b600080fd5b34801561016f57600080fd5b50610178610bbe565b6040518080602001828103825283818151815260200191508051906020019060200280838360005b838110156101bb5780820151818401526020810190506101a0565b505050509050019250505060405180910390f35b3480156101db57600080fd5b506101fa60048036038101908080359060200190929190505050610c4c565b604051808273ffffffffffffffffffffffffffffffffffffffff1673ffffffffffffffffffffffffffffffffffffffff16815260200191505060405180910390f35b34801561024857600080fd5b50610251610c8a565b005b34801561025f57600080fd5b50610294600480360381019080803573ffffffffffffffffffffffffffffffffffffffff169060200190929190505050610ecb565b005b3480156102a257600080fd5b506102fd600480360381019080803590602001908201803590602001908080601f0160208091040260200160405190810160405280939291908181526020018383808284378201915050505050509192919290505050610fed565b604051808215151515815260200191505060405180910390f35b34801561032357600080fd5b506103ac6004803603810190808035600019169060200190929190803590602001908201803590602001908080601f0160208091040260200160405190810160405280939291908181526020018383808284378201915050505050509192919290803573ffffffffffffffffffffffffffffffffffffffff169060200190929190505050611183565b005b3480156103ba57600080fd5b506103eb600480360381019080803560001916906020019092919080356000191690602001909291905050506114a5565b604051808215151515815260200191505060405180910390f35b34801561041157600080fd5b5061041a6114d4565b604051808273ffffffffffffffffffffffffffffffffffffffff1673ffffffffffffffffffffffffffffffffffffffff16815260200191505060405180910390f35b34801561046857600080fd5b506104716114fa565b604051808060200180602001838103835285818151815260200191508051906020019060200280838360005b838110156104b857808201518184015260208101905061049d565b50505050905001838103825284818151815260200191508051906020019060200280838360005b838110156104fa5780820151818401526020810190506104df565b5050505090500194505050505060405180910390f35b34801561051c57600080fd5b506105856004803603810190808035600019169060200190929190803590602001908201803590602001908080601f0160208091040260200160405190810160405280939291908181526020018383808284378201915050505050509192919290505050611664565b005b34801561059357600080fd5b5061062e6004803603810190808035906020019082018035906020019080806020026020016040519081016040528093929190818152602001838360200280828437820191505050505050919291929080359060200190820180359060200190808060200260200160405190810160405280939291908181526020018383602002808284378201915050505050509192919290505050611915565b005b34801561063c57600080fd5b50610671600480360381019080803573ffffffffffffffffffffffffffffffffffffffff169060200190929190505050611ced565b60405180848152602001836fffffffffffffffffffffffffffffffff19166fffffffffffffffffffffffffffffffff19168152602001826fffffffffffffffffffffffffffffffff19166fffffffffffffffffffffffffffffffff19168152602001935050505060405180910390f35b3480156106ed57600080fd5b506106f6611e02565b604051808273ffffffffffffffffffffffffffffffffffffffff1673ffffffffffffffffffffffffffffffffffffffff16815260200191505060405180910390f35b34801561074457600080fd5b50610779600480360381019080803573ffffffffffffffffffffffffffffffffffffffff169060200190929190505050611e28565b005b34801561078757600080fd5b506107d860048036038101908080356000191690602001909291908035600019169060200190929190803573ffffffffffffffffffffffffffffffffffffffff169060200190929190505050611f4a565b604051808215151515815260200191505060405180910390f35b3480156107fe57600080fd5b50610807611f86565b604051808273ffffffffffffffffffffffffffffffffffffffff1673ffffffffffffffffffffffffffffffffffffffff16815260200191505060405180910390f35b34801561085557600080fd5b5061085e611fac565b60405180826000191660001916815260200191505060405180910390f35b34801561088857600080fd5b506108bd600480360381019080803573ffffffffffffffffffffffffffffffffffffffff169060200190929190505050611fb6565b005b3480156108cb57600080fd5b506108d46120b2565b005b3480156108e257600080fd5b506108eb612166565b604051808260048111156108fb57fe5b60ff16815260200191505060405180910390f35b34801561091b57600080fd5b506109a46004803603810190808035600019169060200190929190803590602001908201803590602001908080601f0160208091040260200160405190810160405280939291908181526020018383808284378201915050505050509192919290803573ffffffffffffffffffffffffffffffffffffffff169060200190929190505050612179565b005b3480156109b257600080fd5b506109bb6123e3565b005b3480156109c957600080fd5b50610a24600480360381019080803590602001908201803590602001908080601f01602080910402602001604051908101604052809392919081815260200183838082843782019150505050505091929192905050506126b4565b604051808215151515815260200191505060405180910390f35b348015610a4a57600080fd5b50610ab36004803603810190808035600019169060200190929190803590602001908201803590602001908080601f0160208091040260200160405190810160405280939291908181526020018383808284378201915050505050509192919290505050612805565b005b348015610ac157600080fd5b50610b3a600480360381019080803573ffffffffffffffffffffffffffffffffffffffff1690602001909291908035906020019092919080356fffffffffffffffffffffffffffffffff1916906020019092919080356fffffffffffffffffffffffffffffffff19169060200190929190505050612aac565b005b348015610b4857600080fd5b50610b51612cd0565b6040518082815260200191505060405180910390f35b348015610b7357600080fd5b50610b7c612cdd565b604051808273ffffffffffffffffffffffffffffffffffffffff1673ffffffffffffffffffffffffffffffffffffffff16815260200191505060405180910390f35b60606006805480602002602001604051908101604052809291908181526020018280548015610c4257602002820191906000526020600020905b8160009054906101000a900473ffffffffffffffffffffffffffffffffffffffff1673ffffffffffffffffffffffffffffffffffffffff1681526020019060010190808311610bf8575b5050505050905090565b600681815481101515610c5b57fe5b906000526020600020016000915054906101000a900473ffffffffffffffffffffffffffffffffffffffff1681565b60006002806004811115610c9a57fe5b600860009054906101000a900460ff166004811115610cb557fe5b141515610cc157600080fd5b6000809054906101000a900473ffffffffffffffffffffffffffffffffffffffff1673ffffffffffffffffffffffffffffffffffffffff163373ffffffffffffffffffffffffffffffffffffffff16141515610d1c57600080fd5b600091505b600780549050821015610ea357600b60009054906101000a900473ffffffffffffffffffffffffffffffffffffffff1673ffffffffffffffffffffffffffffffffffffffff1663a9059cbb600784815481101515610d7b57fe5b906000526020600020906003020160000160009054906101000a900473ffffffffffffffffffffffffffffffffffffffff16600785815481101515610dbc57fe5b9060005260206000209060030201600101546040518363ffffffff167c0100000000000000000000000000000000000000000000000000000000028152600401808373ffffffffffffffffffffffffffffffffffffffff1673ffffffffffffffffffffffffffffffffffffffff16815260200182815260200192505050602060405180830381600087803b158015610e5357600080fd5b505af1158015610e67573d6000803e3d6000fd5b505050506040513d6020811015610e7d57600080fd5b81019080805190602001909291905050501515610e9657fe5b8180600101925050610d21565b6003600860006101000a81548160ff02191690836004811115610ec257fe5b02179055505050565b6000809054906101000a900473ffffffffffffffffffffffffffffffffffffffff1673ffffffffffffffffffffffffffffffffffffffff163373ffffffffffffffffffffffffffffffffffffffff16141515610f2657600080fd5b806000806101000a81548173ffffffffffffffffffffffffffffffffffffffff021916908373ffffffffffffffffffffffffffffffffffffffff1602179055507fe68cf4546522887de125201a08bb28732b71c701ef98bdde59bcd7ee077a65da6000809054906101000a900473ffffffffffffffffffffffffffffffffffffffff16604051808273ffffffffffffffffffffffffffffffffffffffff1673ffffffffffffffffffffffffffffffffffffffff16815260200191505060405180910390a150565b6000610ff8826126b4565b801561117c5750600160009054906101000a900473ffffffffffffffffffffffffffffffffffffffff1673ffffffffffffffffffffffffffffffffffffffff16638b51ca42600254846040518082805190602001908083835b6020831015156110765780518252602082019150602081019050602083039250611051565b6001836020036101000a0380198251168184511680821785525050505050509050019150506040518091039020336040518463ffffffff167c010000000000000000000000000000000000000000000000000000000002815260040180846000191660001916815260200183600019166000191681526020018273ffffffffffffffffffffffffffffffffffffffff1673ffffffffffffffffffffffffffffffffffffffff1681526020019350505050602060405180830381600087803b15801561114057600080fd5b505af1158015611154573d6000803e3d6000fd5b505050506040513d602081101561116a57600080fd5b81019080805190602001909291905050505b9050919050565b6040805190810160405280600581526020017f61646d696e0000000000000000000000000000000000000000000000000000008152506000809054906101000a900473ffffffffffffffffffffffffffffffffffffffff1673ffffffffffffffffffffffffffffffffffffffff163373ffffffffffffffffffffffffffffffffffffffff161480611219575061121881610fed565b5b151561122457600080fd5b6004600085600019166000191681526020019081526020016000206000846040518082805190602001908083835b6020831015156112775780518252602082019150602081019050602083039250611252565b6001836020036101000a03801982511681845116808217855250505050505090500191505060405180910390206000191660001916815260200190815260200160002060009054906101000a900460ff1615156112d357600080fd5b60016003600086600019166000191681526020019081526020016000206000856040518082805190602001908083835b6020831015156113285780518252602082019150602081019050602083039250611303565b6001836020036101000a03801982511681845116808217855250505050505090500191505060405180910390206000191660001916815260200190815260200160002060008473ffffffffffffffffffffffffffffffffffffffff1673ffffffffffffffffffffffffffffffffffffffff16815260200190815260200160002060006101000a81548160ff0219169083151502179055507f407d91ed2028325ba84bcf37bade3cde79c3dec599612fa155b042eba4786ddc848484604051808460001916600019168152602001806020018373ffffffffffffffffffffffffffffffffffffffff1673ffffffffffffffffffffffffffffffffffffffff168152602001828103825284818151815260200191508051906020019080838360005b83811015611463578082015181840152602081019050611448565b50505050905090810190601f1680156114905780820380516001836020036101000a031916815260200191505b5094505050505060405180910390a150505050565b60046020528160005260406000206020528060005260406000206000915091509054906101000a900460ff1681565b600160009054906101000a900473ffffffffffffffffffffffffffffffffffffffff1681565b60608060608060006007805490506040519080825280602002602001820160405280156115365781602001602082028038833980820191505090505b50925060078054905060405190808252806020026020018201604052801561156d5781602001602082028038833980820191505090505b509150600090505b6007805490508110156116575760078181548110151561159157fe5b906000526020600020906003020160000160009054906101000a900473ffffffffffffffffffffffffffffffffffffffff1683828151811015156115d157fe5b9060200190602002019073ffffffffffffffffffffffffffffffffffffffff16908173ffffffffffffffffffffffffffffffffffffffff168152505060078181548110151561161c57fe5b906000526020600020906003020160010154828281518110151561163c57fe5b90602001906020020181815250508080600101915050611575565b8282945094505050509091565b6040805190810160405280600581526020017f61646d696e0000000000000000000000000000000000000000000000000000008152506000809054906101000a900473ffffffffffffffffffffffffffffffffffffffff1673ffffffffffffffffffffffffffffffffffffffff163373ffffffffffffffffffffffffffffffffffffffff1614806116fa57506116f981610fed565b5b151561170557600080fd5b6004600084600019166000191681526020019081526020016000206000836040518082805190602001908083835b6020831015156117585780518252602082019150602081019050602083039250611733565b6001836020036101000a03801982511681845116808217855250505050505090500191505060405180910390206000191660001916815260200190815260200160002060009054906101000a900460ff161515156117b557600080fd5b60016004600085600019166000191681526020019081526020016000206000846040518082805190602001908083835b60208310151561180a57805182526020820191506020810190506020830392506117e5565b6001836020036101000a03801982511681845116808217855250505050505090500191505060405180910390206000191660001916815260200190815260200160002060006101000a81548160ff0219169083151502179055507f9e854cfefd293f12a3d57e50652dd623ba2880249fd212fa50f89c32a468c26d838360405180836000191660001916815260200180602001828103825283818151815260200191508051906020019080838360005b838110156118d55780820151818401526020810190506118ba565b50505050905090810190601f1680156119025780820380516001836020036101000a031916815260200191505b50935050505060405180910390a1505050565b60008080600481111561192457fe5b600860009054906101000a900460ff16600481111561193f57fe5b14151561194b57600080fd5b6040805190810160405280600481526020017f55736572000000000000000000000000000000000000000000000000000000008152506000809054906101000a900473ffffffffffffffffffffffffffffffffffffffff1673ffffffffffffffffffffffffffffffffffffffff163373ffffffffffffffffffffffffffffffffffffffff1614806119e157506119e081610fed565b5b15156119ec57600080fd5b835185511415156119fc57600080fd5b33600960006101000a81548173ffffffffffffffffffffffffffffffffffffffff021916908373ffffffffffffffffffffffffffffffffffffffff160217905550600092505b8451831015611b5c5760076060604051908101604052808786815181101515611a6757fe5b9060200190602002015173ffffffffffffffffffffffffffffffffffffffff1681526020018686815181101515611a9a57fe5b906020019060200201518152602001600015158152509080600181540180825580915050906001820390600052602060002090600302016000909192909190915060008201518160000160006101000a81548173ffffffffffffffffffffffffffffffffffffffff021916908373ffffffffffffffffffffffffffffffffffffffff1602179055506020820151816001015560408201518160020160006101000a81548160ff0219169083151502179055505050508280600101935050611a42565b600b60009054906101000a900473ffffffffffffffffffffffffffffffffffffffff1673ffffffffffffffffffffffffffffffffffffffff166323b872dd600960009054906101000a900473ffffffffffffffffffffffffffffffffffffffff1630611bc788612d03565b6040518463ffffffff167c0100000000000000000000000000000000000000000000000000000000028152600401808473ffffffffffffffffffffffffffffffffffffffff1673ffffffffffffffffffffffffffffffffffffffff1681526020018373ffffffffffffffffffffffffffffffffffffffff1673ffffffffffffffffffffffffffffffffffffffff1681526020018281526020019350505050602060405180830381600087803b158015611c7f57600080fd5b505af1158015611c93573d6000803e3d6000fd5b505050506040513d6020811015611ca957600080fd5b81019080805190602001909291905050501515611cc257fe5b6001600860006101000a81548160ff02191690836004811115611ce157fe5b02179055505050505050565b6000806000600560008573ffffffffffffffffffffffffffffffffffffffff1673ffffffffffffffffffffffffffffffffffffffff16815260200190815260200160002060000154600560008673ffffffffffffffffffffffffffffffffffffffff1673ffffffffffffffffffffffffffffffffffffffff16815260200190815260200160002060010160009054906101000a900470010000000000000000000000000000000002600560008773ffffffffffffffffffffffffffffffffffffffff1673ffffffffffffffffffffffffffffffffffffffff16815260200190815260200160002060010160109054906101000a9004700100000000000000000000000000000000029250925092509193909250565b600960009054906101000a900473ffffffffffffffffffffffffffffffffffffffff1681565b6000809054906101000a900473ffffffffffffffffffffffffffffffffffffffff1673ffffffffffffffffffffffffffffffffffffffff163373ffffffffffffffffffffffffffffffffffffffff16141515611e8357600080fd5b806000806101000a81548173ffffffffffffffffffffffffffffffffffffffff021916908373ffffffffffffffffffffffffffffffffffffffff1602179055507fe68cf4546522887de125201a08bb28732b71c701ef98bdde59bcd7ee077a65da6000809054906101000a900473ffffffffffffffffffffffffffffffffffffffff16604051808273ffffffffffffffffffffffffffffffffffffffff1673ffffffffffffffffffffffffffffffffffffffff16815260200191505060405180910390a150565b6003602052826000526040600020602052816000526040600020602052806000526040600020600092509250509054906101000a900460ff1681565b600860019054906101000a900473ffffffffffffffffffffffffffffffffffffffff1681565b6000600254905090565b6000809054906101000a900473ffffffffffffffffffffffffffffffffffffffff1673ffffffffffffffffffffffffffffffffffffffff163373ffffffffffffffffffffffffffffffffffffffff1614151561201157600080fd5b600160009054906101000a900473ffffffffffffffffffffffffffffffffffffffff1673ffffffffffffffffffffffffffffffffffffffff163073ffffffffffffffffffffffffffffffffffffffff161415151561206e57600080fd5b80600160006101000a81548173ffffffffffffffffffffffffffffffffffffffff021916908373ffffffffffffffffffffffffffffffffffffffff16021790555050565b6120ba612eb9565b60018060048111156120c857fe5b600860009054906101000a900460ff1660048111156120e357fe5b1415156120ef57600080fd5b6120f833612d5e565b9150816040015115151561210b57600080fd5b6001826040019015159081151581525050600a60008154809291906001019190505550600780549050600a541415612162576002600860006101000a81548160ff0219169083600481111561215c57fe5b02179055505b5050565b600860009054906101000a900460ff1681565b6040805190810160405280600581526020017f61646d696e0000000000000000000000000000000000000000000000000000008152506000809054906101000a900473ffffffffffffffffffffffffffffffffffffffff1673ffffffffffffffffffffffffffffffffffffffff163373ffffffffffffffffffffffffffffffffffffffff16148061220f575061220e81610fed565b5b151561221a57600080fd5b6003600085600019166000191681526020019081526020016000206000846040518082805190602001908083835b60208310151561226d5780518252602082019150602081019050602083039250612248565b6001836020036101000a03801982511681845116808217855250505050505090500191505060405180910390206000191660001916815260200190815260200160002060008373ffffffffffffffffffffffffffffffffffffffff1673ffffffffffffffffffffffffffffffffffffffff16815260200190815260200160002060006101000a81549060ff02191690557f4fbccdb14b9a6cf4300c7a6ec5bf09d09677d23ac78f755e9249094d80cd6e27848484604051808460001916600019168152602001806020018373ffffffffffffffffffffffffffffffffffffffff1673ffffffffffffffffffffffffffffffffffffffff168152602001828103825284818151815260200191508051906020019080838360005b838110156123a1578082015181840152602081019050612386565b50505050905090810190601f1680156123ce5780820380516001836020036101000a031916815260200191505b5094505050505060405180910390a150505050565b60028060048111156123f157fe5b600860009054906101000a900460ff16600481111561240c57fe5b14151561241857600080fd5b6000809054906101000a900473ffffffffffffffffffffffffffffffffffffffff1673ffffffffffffffffffffffffffffffffffffffff163373ffffffffffffffffffffffffffffffffffffffff1614151561247357600080fd5b600b60009054906101000a900473ffffffffffffffffffffffffffffffffffffffff1673ffffffffffffffffffffffffffffffffffffffff1663a9059cbb600960009054906101000a900473ffffffffffffffffffffffffffffffffffffffff16600b60009054906101000a900473ffffffffffffffffffffffffffffffffffffffff1673ffffffffffffffffffffffffffffffffffffffff166370a08231306040518263ffffffff167c0100000000000000000000000000000000000000000000000000000000028152600401808273ffffffffffffffffffffffffffffffffffffffff1673ffffffffffffffffffffffffffffffffffffffff168152602001915050602060405180830381600087803b15801561259157600080fd5b505af11580156125a5573d6000803e3d6000fd5b505050506040513d60208110156125bb57600080fd5b81019080805190602001909291905050506040518363ffffffff167c0100000000000000000000000000000000000000000000000000000000028152600401808373ffffffffffffffffffffffffffffffffffffffff1673ffffffffffffffffffffffffffffffffffffffff16815260200182815260200192505050602060405180830381600087803b15801561265157600080fd5b505af1158015612665573d6000803e3d6000fd5b505050506040513d602081101561267b57600080fd5b8101908080519060200190929190505050506004600860006101000a81548160ff021916908360048111156126ac57fe5b021790555050565b6000600160009054906101000a900473ffffffffffffffffffffffffffffffffffffffff1673ffffffffffffffffffffffffffffffffffffffff16633037cea3600254846040518082805190602001908083835b60208310151561272d5780518252602082019150602081019050602083039250612708565b6001836020036101000a03801982511681845116808217855250505050505090500191505060405180910390206040518363ffffffff167c0100000000000000000000000000000000000000000000000000000000028152600401808360001916600019168152602001826000191660001916815260200192505050602060405180830381600087803b1580156127c357600080fd5b505af11580156127d7573d6000803e3d6000fd5b505050506040513d60208110156127ed57600080fd5b81019080805190602001909291905050509050919050565b6040805190810160405280600581526020017f61646d696e0000000000000000000000000000000000000000000000000000008152506000809054906101000a900473ffffffffffffffffffffffffffffffffffffffff1673ffffffffffffffffffffffffffffffffffffffff163373ffffffffffffffffffffffffffffffffffffffff16148061289b575061289a81610fed565b5b15156128a657600080fd5b6004600084600019166000191681526020019081526020016000206000836040518082805190602001908083835b6020831015156128f957805182526020820191506020810190506020830392506128d4565b6001836020036101000a03801982511681845116808217855250505050505090500191505060405180910390206000191660001916815260200190815260200160002060009054906101000a900460ff16151561295557600080fd5b6004600084600019166000191681526020019081526020016000206000836040518082805190602001908083835b6020831015156129a85780518252602082019150602081019050602083039250612983565b6001836020036101000a03801982511681845116808217855250505050505090500191505060405180910390206000191660001916815260200190815260200160002060006101000a81549060ff02191690557f5c012fe87ecf5fc2e083217e8ce9c77a88d3dd15c311bd6725ebbb9421147902838360405180836000191660001916815260200180602001828103825283818151815260200191508051906020019080838360005b83811015612a6c578082015181840152602081019050612a51565b50505050905090810190601f168015612a995780820380516001836020036101000a031916815260200191505b50935050505060405180910390a1505050565b60008060009054906101000a900473ffffffffffffffffffffffffffffffffffffffff1673ffffffffffffffffffffffffffffffffffffffff163373ffffffffffffffffffffffffffffffffffffffff16141515612b0957600080fd5b600560008673ffffffffffffffffffffffffffffffffffffffff1673ffffffffffffffffffffffffffffffffffffffff1681526020019081526020016000209050838160000181905550828160010160006101000a8154816fffffffffffffffffffffffffffffffff021916908370010000000000000000000000000000000090040217905550818160010160106101000a8154816fffffffffffffffffffffffffffffffff021916908370010000000000000000000000000000000090040217905550600160068690806001815401808255809150509060018203906000526020600020016000909192909190916101000a81548173ffffffffffffffffffffffffffffffffffffffff021916908373ffffffffffffffffffffffffffffffffffffffff16021790555050507fc0c3f3bec8418c4e7381366acb606d8d0927960e64c16758e3b12ee8f8a4a4a483838660405180846fffffffffffffffffffffffffffffffff19166fffffffffffffffffffffffffffffffff19168152602001836fffffffffffffffffffffffffffffffff19166fffffffffffffffffffffffffffffffff19168152602001828152602001935050505060405180910390a15050505050565b6000600680549050905090565b600b60009054906101000a900473ffffffffffffffffffffffffffffffffffffffff1681565b600080826000815181101515612d1557fe5b906020019060200201519150600190505b8251811015612d58578281815181101515612d3d57fe5b90602001906020020151820191508080600101915050612d26565b50919050565b612d66612eb9565b60008090505b600780549050811015612ea5578273ffffffffffffffffffffffffffffffffffffffff16600782815481101515612d9f57fe5b906000526020600020906003020160000160009054906101000a900473ffffffffffffffffffffffffffffffffffffffff1673ffffffffffffffffffffffffffffffffffffffff161415612e9857600781815481101515612dfc57fe5b9060005260206000209060030201606060405190810160405290816000820160009054906101000a900473ffffffffffffffffffffffffffffffffffffffff1673ffffffffffffffffffffffffffffffffffffffff1673ffffffffffffffffffffffffffffffffffffffff168152602001600182015481526020016002820160009054906101000a900460ff1615151515815250509150612eb3565b8080600101915050612d6c565b60001515612eb257600080fd5b5b50919050565b606060405190810160405280600073ffffffffffffffffffffffffffffffffffffffff1681526020016000815260200160001515815250905600a165627a7a723058200f5ed4a699c7ed66c980835dc778792e12264630f8b8e08da0f66759360f05e40029",
  "source": "pragma solidity ^0.4.16;\nimport \"../Token/TokenStandard.sol\";\nimport \"../authority/Owned.sol\";\nimport \"../authority/Roles.sol\";\nimport \"../authority/Users.sol\";\n\n\ncontract Parties is Owned,Roles,Users {\n\n    struct Party {\n        address wallet;\n        uint amount;\n        bool has_accepted;\n    }\n\n    enum State { New, Invited, Locked, Approved, Reimbursed}\n\n    Party[] parties;\n\n    State public state;\n\n    address public owner;\n\n    address public buyer;\n\n    uint accepted_count;\n\n    TokenStandard public token;\n\n    modifier onlyState(State _state) {\n        require(state == _state);\n        _;\n    }\n\n    function Parties(TokenStandard _token) {\n        owner = msg.sender;\n        token = _token;\n    }\n\n    function inviteParticipants(address[] _parties, uint[] _amounts) onlyState(State.New) roleOrOwner(\"User\")public  {\n        require(_parties.length == _amounts.length);    \n        buyer = msg.sender;        \n        for (uint i = 0; i < _parties.length; i++) {\n            parties.push(Party(_parties[i], _amounts[i], false));\n        }\n        assert(token.transferFrom(buyer, this, sum(_amounts)));\n        state = State.Invited;\n    }\n\n    function getParticipants() constant returns (address [], uint [])  {\n        address [] memory wallets = new address[](parties.length);\n        uint [] memory amounts = new uint[](parties.length);\n        for (uint i = 0; i < parties.length; i++) {\n            wallets[i] = parties[i].wallet;\n            amounts[i] = parties[i].amount;\n        }\n        return (wallets, amounts);\n    }\n\n    function getPartyByAddress(address _address) constant internal returns (Party) {\n        for (uint i = 0; i < parties.length; i++) {\n            if (parties[i].wallet == _address) {\n                return parties[i];\n            }\n        }\n        require(false);\n    }\n\n\n    function acceptInvite() onlyState(State.Invited) {\n        Party memory party = getPartyByAddress(msg.sender);\n        require(!party.has_accepted);\n        party.has_accepted = true;\n        accepted_count++;        \n        if (accepted_count == parties.length) {\n            state = State.Locked;\n        }\n    }\n\n    function approve() onlyState(State.Locked) onlyOwner {\n        for (uint i = 0; i < parties.length; i++) {\n            assert(token.transfer(parties[i].wallet, parties[i].amount));\n        } \n        state = State.Approved;\n    }\n\n    function reimburse() onlyState(State.Locked) onlyOwner {\n        token.transfer(buyer, token.balanceOf(this));\n        state = State.Reimbursed;      \n    }\n\n    function sum(uint[] memory self) internal constant returns (uint result) {\n        result = self[0];\n        for (uint i = 1; i < self.length; i++) {\n            result += self[i];\n        }\n    }\n}\n",
  "sourcePath": "/Users/hao/onedrive/OneDrive - The University of Melbourne/project/Product_passport/contracts/authority/Parties.sol",
  "compiler": {
    "name": "solc",
    "version": "0.4.23+commit.124ca40d.Emscripten.clang"
  },
  "schemaVersion": "2.0.0",
  "updatedAt": "2018-05-08T06:16:16.640Z"
}