{
  "contractName": "Parties",
  "abi": [
    {
      "constant": true,
      "inputs": [
        {
          "name": "",
          "type": "bytes32"
        },
        {
          "name": "",
          "type": "address"
        }
      ],
      "name": "roleList",
      "outputs": [
        {
          "name": "",
          "type": "bool"
        }
      ],
      "payable": false,
      "stateMutability": "view",
      "type": "function"
    },
    {
      "constant": false,
      "inputs": [
        {
          "name": "owner_",
          "type": "address"
        }
      ],
      "name": "setOwner",
      "outputs": [],
      "payable": false,
      "stateMutability": "nonpayable",
      "type": "function"
    },
    {
      "constant": false,
      "inputs": [
        {
          "name": "roleName",
          "type": "string"
        },
        {
          "name": "user",
          "type": "address"
        }
      ],
      "name": "revokeUserRole",
      "outputs": [],
      "payable": false,
      "stateMutability": "nonpayable",
      "type": "function"
    },
    {
      "constant": true,
      "inputs": [
        {
          "name": "roleName",
          "type": "string"
        },
        {
          "name": "user",
          "type": "address"
        }
      ],
      "name": "checkUserRole",
      "outputs": [
        {
          "name": "",
          "type": "bool"
        }
      ],
      "payable": false,
      "stateMutability": "view",
      "type": "function"
    },
    {
      "constant": true,
      "inputs": [
        {
          "name": "roleName",
          "type": "string"
        }
      ],
      "name": "senderHasRole",
      "outputs": [
        {
          "name": "",
          "type": "bool"
        }
      ],
      "payable": false,
      "stateMutability": "view",
      "type": "function"
    },
    {
      "constant": true,
      "inputs": [],
      "name": "buyer",
      "outputs": [
        {
          "name": "",
          "type": "address"
        }
      ],
      "payable": false,
      "stateMutability": "view",
      "type": "function"
    },
    {
      "constant": false,
      "inputs": [
        {
          "name": "owner_",
          "type": "address"
        }
      ],
      "name": "transferOwnerShip",
      "outputs": [],
      "payable": false,
      "stateMutability": "nonpayable",
      "type": "function"
    },
    {
      "constant": true,
      "inputs": [],
      "name": "getOwner",
      "outputs": [
        {
          "name": "",
          "type": "address"
        }
      ],
      "payable": false,
      "stateMutability": "view",
      "type": "function"
    },
    {
      "constant": true,
      "inputs": [],
      "name": "owner",
      "outputs": [
        {
          "name": "",
          "type": "address"
        }
      ],
      "payable": false,
      "stateMutability": "view",
      "type": "function"
    },
    {
      "constant": true,
      "inputs": [],
      "name": "state",
      "outputs": [
        {
          "name": "",
          "type": "uint8"
        }
      ],
      "payable": false,
      "stateMutability": "view",
      "type": "function"
    },
    {
      "constant": false,
      "inputs": [
        {
          "name": "roleName",
          "type": "string"
        },
        {
          "name": "user",
          "type": "address"
        }
      ],
      "name": "grantUserRole",
      "outputs": [],
      "payable": false,
      "stateMutability": "nonpayable",
      "type": "function"
    },
    {
      "inputs": [],
      "payable": false,
      "stateMutability": "nonpayable",
      "type": "constructor"
    },
    {
      "anonymous": false,
      "inputs": [
        {
          "indexed": false,
          "name": "newOwner",
          "type": "address"
        }
      ],
      "name": "SetTheOwner",
      "type": "event"
    },
    {
      "constant": false,
      "inputs": [
        {
          "name": "_parties",
          "type": "address[]"
        },
        {
          "name": "_amounts",
          "type": "uint256[]"
        }
      ],
      "name": "inviteParticipants",
      "outputs": [],
      "payable": false,
      "stateMutability": "nonpayable",
      "type": "function"
    },
    {
      "constant": true,
      "inputs": [],
      "name": "getParticipants",
      "outputs": [
        {
          "name": "",
          "type": "address[]"
        },
        {
          "name": "",
          "type": "uint256[]"
        }
      ],
      "payable": false,
      "stateMutability": "view",
      "type": "function"
    },
    {
      "constant": false,
      "inputs": [],
      "name": "acceptInvite",
      "outputs": [],
      "payable": false,
      "stateMutability": "nonpayable",
      "type": "function"
    },
    {
      "constant": false,
      "inputs": [],
      "name": "approve",
      "outputs": [],
      "payable": false,
      "stateMutability": "nonpayable",
      "type": "function"
    }
  ],
  "bytecode": "0x608060405234801561001057600080fd5b50336000806101000a81548173ffffffffffffffffffffffffffffffffffffffff021916908373ffffffffffffffffffffffffffffffffffffffff16021790555033600360016101000a81548173ffffffffffffffffffffffffffffffffffffffff021916908373ffffffffffffffffffffffffffffffffffffffff1602179055506114b7806100a16000396000f3006080604052600436106100db576000357c0100000000000000000000000000000000000000000000000000000000900463ffffffff1680630b036816146100e057806312424e3f1461014957806313af4035146101605780631b2c0f6a146101a35780631c432c601461022c5780631ca03b8e146102cd5780635aa68ac01461034e5780636f12aa18146104025780637150d8ae146104ab5780638863dd1a14610502578063893d20e8146105455780638da5cb5b1461059c578063bbb4d3e9146105f3578063c19d93fb1461060a578063d50ea76a14610643575b600080fd5b3480156100ec57600080fd5b5061012f6004803603810190808035600019169060200190929190803573ffffffffffffffffffffffffffffffffffffffff1690602001909291905050506106cc565b604051808215151515815260200191505060405180910390f35b34801561015557600080fd5b5061015e6106fb565b005b34801561016c57600080fd5b506101a1600480360381019080803573ffffffffffffffffffffffffffffffffffffffff1690602001909291905050506107b1565b005b3480156101af57600080fd5b5061022a600480360381019080803590602001908201803590602001908080601f0160208091040260200160405190810160405280939291908181526020018383808284378201915050505050509192919290803573ffffffffffffffffffffffffffffffffffffffff1690602001909291905050506108d3565b005b34801561023857600080fd5b506102b3600480360381019080803590602001908201803590602001908080601f0160208091040260200160405190810160405280939291908181526020018383808284378201915050505050509192919290803573ffffffffffffffffffffffffffffffffffffffff169060200190929190505050610a43565b604051808215151515815260200191505060405180910390f35b3480156102d957600080fd5b50610334600480360381019080803590602001908201803590602001908080601f0160208091040260200160405190810160405280939291908181526020018383808284378201915050505050509192919290505050610b15565b604051808215151515815260200191505060405180910390f35b34801561035a57600080fd5b50610363610be6565b604051808060200180602001838103835285818151815260200191508051906020019060200280838360005b838110156103aa57808201518184015260208101905061038f565b50505050905001838103825284818151815260200191508051906020019060200280838360005b838110156103ec5780820151818401526020810190506103d1565b5050505090500194505050505060405180910390f35b34801561040e57600080fd5b506104a96004803603810190808035906020019082018035906020019080806020026020016040519081016040528093929190818152602001838360200280828437820191505050505050919291929080359060200190820180359060200190808060200260200160405190810160405280939291908181526020018383602002808284378201915050505050509192919290505050610d50565b005b3480156104b757600080fd5b506104c0610f20565b604051808273ffffffffffffffffffffffffffffffffffffffff1673ffffffffffffffffffffffffffffffffffffffff16815260200191505060405180910390f35b34801561050e57600080fd5b50610543600480360381019080803573ffffffffffffffffffffffffffffffffffffffff169060200190929190505050610f46565b005b34801561055157600080fd5b5061055a611068565b604051808273ffffffffffffffffffffffffffffffffffffffff1673ffffffffffffffffffffffffffffffffffffffff16815260200191505060405180910390f35b3480156105a857600080fd5b506105b1611091565b604051808273ffffffffffffffffffffffffffffffffffffffff1673ffffffffffffffffffffffffffffffffffffffff16815260200191505060405180910390f35b3480156105ff57600080fd5b506106086110b7565b005b34801561061657600080fd5b5061061f61116b565b6040518082600481111561062f57fe5b60ff16815260200191505060405180910390f35b34801561064f57600080fd5b506106ca600480360381019080803590602001908201803590602001908080601f0160208091040260200160405190810160405280939291908181526020018383808284378201915050505050509192919290803573ffffffffffffffffffffffffffffffffffffffff16906020019092919050505061117e565b005b60016020528160005260406000206020528060005260406000206000915091509054906101000a900460ff1681565b600280600481111561070957fe5b600360009054906101000a900460ff16600481111561072457fe5b14151561073057600080fd5b6000809054906101000a900473ffffffffffffffffffffffffffffffffffffffff1673ffffffffffffffffffffffffffffffffffffffff163373ffffffffffffffffffffffffffffffffffffffff1614151561078b57600080fd5b60038060006101000a81548160ff021916908360048111156107a957fe5b021790555050565b6000809054906101000a900473ffffffffffffffffffffffffffffffffffffffff1673ffffffffffffffffffffffffffffffffffffffff163373ffffffffffffffffffffffffffffffffffffffff1614151561080c57600080fd5b806000806101000a81548173ffffffffffffffffffffffffffffffffffffffff021916908373ffffffffffffffffffffffffffffffffffffffff1602179055507fe68cf4546522887de125201a08bb28732b71c701ef98bdde59bcd7ee077a65da6000809054906101000a900473ffffffffffffffffffffffffffffffffffffffff16604051808273ffffffffffffffffffffffffffffffffffffffff1673ffffffffffffffffffffffffffffffffffffffff16815260200191505060405180910390a150565b6040805190810160405280600581526020017f61646d696e0000000000000000000000000000000000000000000000000000008152506000809054906101000a900473ffffffffffffffffffffffffffffffffffffffff1673ffffffffffffffffffffffffffffffffffffffff163373ffffffffffffffffffffffffffffffffffffffff161480610969575061096881610b15565b5b151561097457600080fd5b60016000846040518082805190602001908083835b6020831015156109ae5780518252602082019150602081019050602083039250610989565b6001836020036101000a03801982511681845116808217855250505050505090500191505060405180910390206000191660001916815260200190815260200160002060008373ffffffffffffffffffffffffffffffffffffffff1673ffffffffffffffffffffffffffffffffffffffff16815260200190815260200160002060006101000a81549060ff0219169055505050565b600060016000846040518082805190602001908083835b602083101515610a7f5780518252602082019150602081019050602083039250610a5a565b6001836020036101000a03801982511681845116808217855250505050505090500191505060405180910390206000191660001916815260200190815260200160002060008373ffffffffffffffffffffffffffffffffffffffff1673ffffffffffffffffffffffffffffffffffffffff16815260200190815260200160002060009054906101000a900460ff16905092915050565b600060016000836040518082805190602001908083835b602083101515610b515780518252602082019150602081019050602083039250610b2c565b6001836020036101000a03801982511681845116808217855250505050505090500191505060405180910390206000191660001916815260200190815260200160002060003373ffffffffffffffffffffffffffffffffffffffff1673ffffffffffffffffffffffffffffffffffffffff16815260200190815260200160002060009054906101000a900460ff169050919050565b6060806060806000600280549050604051908082528060200260200182016040528015610c225781602001602082028038833980820191505090505b509250600280549050604051908082528060200260200182016040528015610c595781602001602082028038833980820191505090505b509150600090505b600280549050811015610d4357600281815481101515610c7d57fe5b906000526020600020906003020160000160009054906101000a900473ffffffffffffffffffffffffffffffffffffffff168382815181101515610cbd57fe5b9060200190602002019073ffffffffffffffffffffffffffffffffffffffff16908173ffffffffffffffffffffffffffffffffffffffff1681525050600281815481101515610d0857fe5b9060005260206000209060030201600101548282815181101515610d2857fe5b90602001906020020181815250508080600101915050610c61565b8282945094505050509091565b600080806004811115610d5f57fe5b600360009054906101000a900460ff166004811115610d7a57fe5b141515610d8657600080fd5b82518451141515610d9657600080fd5b33600460006101000a81548173ffffffffffffffffffffffffffffffffffffffff021916908373ffffffffffffffffffffffffffffffffffffffff160217905550600091505b8351821015610ef65760026060604051908101604052808685815181101515610e0157fe5b9060200190602002015173ffffffffffffffffffffffffffffffffffffffff1681526020018585815181101515610e3457fe5b906020019060200201518152602001600015158152509080600181540180825580915050906001820390600052602060002090600302016000909192909190915060008201518160000160006101000a81548173ffffffffffffffffffffffffffffffffffffffff021916908373ffffffffffffffffffffffffffffffffffffffff1602179055506020820151816001015560408201518160020160006101000a81548160ff0219169083151502179055505050508180600101925050610ddc565b6001600360006101000a81548160ff02191690836004811115610f1557fe5b021790555050505050565b600460009054906101000a900473ffffffffffffffffffffffffffffffffffffffff1681565b6000809054906101000a900473ffffffffffffffffffffffffffffffffffffffff1673ffffffffffffffffffffffffffffffffffffffff163373ffffffffffffffffffffffffffffffffffffffff16141515610fa157600080fd5b806000806101000a81548173ffffffffffffffffffffffffffffffffffffffff021916908373ffffffffffffffffffffffffffffffffffffffff1602179055507fe68cf4546522887de125201a08bb28732b71c701ef98bdde59bcd7ee077a65da6000809054906101000a900473ffffffffffffffffffffffffffffffffffffffff16604051808273ffffffffffffffffffffffffffffffffffffffff1673ffffffffffffffffffffffffffffffffffffffff16815260200191505060405180910390a150565b60008060009054906101000a900473ffffffffffffffffffffffffffffffffffffffff16905090565b600360019054906101000a900473ffffffffffffffffffffffffffffffffffffffff1681565b6110bf611451565b60018060048111156110cd57fe5b600360009054906101000a900460ff1660048111156110e857fe5b1415156110f457600080fd5b6110fd336112f6565b9150816040015115151561111057600080fd5b60018260400190151590811515815250506005600081548092919060010191905055506002805490506005541415611167576002600360006101000a81548160ff0219169083600481111561116157fe5b02179055505b5050565b600360009054906101000a900460ff1681565b6040805190810160405280600581526020017f61646d696e0000000000000000000000000000000000000000000000000000008152506000809054906101000a900473ffffffffffffffffffffffffffffffffffffffff1673ffffffffffffffffffffffffffffffffffffffff163373ffffffffffffffffffffffffffffffffffffffff161480611214575061121381610b15565b5b151561121f57600080fd5b6001806000856040518082805190602001908083835b60208310151561125a5780518252602082019150602081019050602083039250611235565b6001836020036101000a03801982511681845116808217855250505050505090500191505060405180910390206000191660001916815260200190815260200160002060008473ffffffffffffffffffffffffffffffffffffffff1673ffffffffffffffffffffffffffffffffffffffff16815260200190815260200160002060006101000a81548160ff021916908315150217905550505050565b6112fe611451565b60008090505b60028054905081101561143d578273ffffffffffffffffffffffffffffffffffffffff1660028281548110151561133757fe5b906000526020600020906003020160000160009054906101000a900473ffffffffffffffffffffffffffffffffffffffff1673ffffffffffffffffffffffffffffffffffffffff1614156114305760028181548110151561139457fe5b9060005260206000209060030201606060405190810160405290816000820160009054906101000a900473ffffffffffffffffffffffffffffffffffffffff1673ffffffffffffffffffffffffffffffffffffffff1673ffffffffffffffffffffffffffffffffffffffff168152602001600182015481526020016002820160009054906101000a900460ff161515151581525050915061144b565b8080600101915050611304565b6000151561144a57600080fd5b5b50919050565b606060405190810160405280600073ffffffffffffffffffffffffffffffffffffffff1681526020016000815260200160001515815250905600a165627a7a7230582045a6b6397ecd5eb6e581cd1a4945a4375cec2dc161bb6a3b7f5861c71cda48a50029",
  "source": "pragma solidity ^0.4.16;\nimport \"./Owned.sol\";\nimport \"./Roles.sol\";\n\n\ncontract Parties is Owned,Roles {\n\n    struct Party {\n        address wallet;\n        uint amount;\n        bool has_accepted;\n    }\n\n    enum State { New, Invited, Locked, Approved, Reimbursed}\n\n    Party[] parties;\n\n    State public state;\n\n    address public owner;\n\n    address public buyer;\n\n    uint accepted_count;\n\n\n    modifier onlyState(State _state) {\n        require(state == _state);\n        _;\n    }\n\n    function Parties() {\n        owner = msg.sender;\n    }\n\n    function inviteParticipants(address[] _parties, uint[] _amounts) onlyState(State.New) public  {\n        require(_parties.length == _amounts.length);    \n        buyer = msg.sender;        \n        for (uint i = 0; i < _parties.length; i++) {\n            parties.push(Party(_parties[i], _amounts[i], false));\n        }\n        state = State.Invited;\n    }\n\n    function getParticipants() constant returns (address [], uint [])  {\n        address [] memory wallets = new address[](parties.length);\n        uint [] memory amounts = new uint[](parties.length);\n        for (uint i = 0; i < parties.length; i++) {\n            wallets[i] = parties[i].wallet;\n            amounts[i] = parties[i].amount;\n        }\n        return (wallets, amounts);\n    }\n\n    function getPartyByAddress(address _address) constant internal returns (Party) {\n        for (uint i = 0; i < parties.length; i++) {\n            if (parties[i].wallet == _address) {\n                return parties[i];\n            }\n        }\n        require(false);\n    }\n\n\n    function acceptInvite() onlyState(State.Invited) {\n        Party memory party = getPartyByAddress(msg.sender);\n        require(!party.has_accepted);\n        party.has_accepted = true;\n        accepted_count++;        \n        if (accepted_count == parties.length) {\n            state = State.Locked;\n        }\n    }\n\n    function approve() onlyState(State.Locked) onlyOwner {\n        state = State.Approved;\n    }\n\n    // function reimburse() onlyState(State.Locked) onlyOwner {\n    //     token.transfer(buyer, token.balanceOf(this));\n    //     state = State.Reimbursed;      \n    // }\n\n    function sum(uint[] memory self) internal constant returns (uint result) {\n        result = self[0];\n        for (uint i = 1; i < self.length; i++) {\n            result += self[i];\n        }\n    }\n}\n",
  "sourcePath": "/Users/hao/onedrive/OneDrive - The University of Melbourne/project/Product_passport/contracts/authority/Parties.sol",
  "compiler": {
    "name": "solc",
    "version": "0.4.23+commit.124ca40d.Emscripten.clang"
  },
  "schemaVersion": "2.0.0",
  "updatedAt": "2018-05-31T23:59:05.089Z"
}