{
  "contractName": "Parties",
  "abi": [
    {
      "constant": true,
      "inputs": [],
      "name": "stage",
      "outputs": [
        {
          "name": "",
          "type": "uint8"
        }
      ],
      "payable": false,
      "stateMutability": "view",
      "type": "function"
    },
    {
      "constant": false,
      "inputs": [
        {
          "name": "_parties",
          "type": "address[]"
        },
        {
          "name": "_amounts",
          "type": "uint256[]"
        }
      ],
      "name": "inviteParties",
      "outputs": [],
      "payable": false,
      "stateMutability": "nonpayable",
      "type": "function"
    },
    {
      "constant": false,
      "inputs": [
        {
          "name": "dst",
          "type": "address"
        },
        {
          "name": "wad",
          "type": "uint256"
        }
      ],
      "name": "transferTo",
      "outputs": [],
      "payable": false,
      "stateMutability": "nonpayable",
      "type": "function"
    },
    {
      "constant": false,
      "inputs": [
        {
          "name": "_party",
          "type": "address"
        },
        {
          "name": "response",
          "type": "bool"
        }
      ],
      "name": "processInvite",
      "outputs": [
        {
          "name": "",
          "type": "uint256"
        }
      ],
      "payable": false,
      "stateMutability": "nonpayable",
      "type": "function"
    },
    {
      "constant": false,
      "inputs": [],
      "name": "approve",
      "outputs": [],
      "payable": false,
      "stateMutability": "nonpayable",
      "type": "function"
    },
    {
      "constant": true,
      "inputs": [],
      "name": "getParticipants",
      "outputs": [
        {
          "name": "",
          "type": "address[]"
        },
        {
          "name": "",
          "type": "uint256[]"
        }
      ],
      "payable": false,
      "stateMutability": "view",
      "type": "function"
    }
  ],
  "bytecode": "0x60806040526000600360006101000a81548160ff0219169083600481111561002357fe5b021790555034801561003457600080fd5b506109e6806100446000396000f300608060405260043610610078576000357c0100000000000000000000000000000000000000000000000000000000900463ffffffff16806312424e3f1461007d57806322fb947d146100945780632ccb1b30146100f75780634c73ca32146101445780635aa68ac0146101ed578063c040e6b8146102a1575b600080fd5b34801561008957600080fd5b506100926102da565b005b3480156100a057600080fd5b506100e1600480360381019080803573ffffffffffffffffffffffffffffffffffffffff1690602001909291908035151590602001909291905050506103c6565b6040518082815260200191505060405180910390f35b34801561010357600080fd5b50610142600480360381019080803573ffffffffffffffffffffffffffffffffffffffff169060200190929190803590602001909291905050506105b1565b005b34801561015057600080fd5b506101eb60048036038101908080359060200190820180359060200190808060200260200160405190810160405280939291908181526020018383602002808284378201915050505050509192919290803590602001908201803590602001908080602002602001604051908101604052809392919081815260200183836020028082843782019150505050505091929192905050506105fc565b005b3480156101f957600080fd5b506102026107e2565b604051808060200180602001838103835285818151815260200191508051906020019060200280838360005b8381101561024957808201518184015260208101905061022e565b50505050905001838103825284818151815260200191508051906020019060200280838360005b8381101561028b578082015181840152602081019050610270565b5050505090500194505050505060405180910390f35b3480156102ad57600080fd5b506102b661094c565b604051808260048111156102c657fe5b60ff16815260200191505060405180910390f35b600060028060048111156102ea57fe5b600360009054906101000a900460ff16600481111561030557fe5b14151561030e57fe5b60038060006101000a81548160ff0219169083600481111561032c57fe5b0217905550600091505b6004805490508210156103ba576103ad60048381548110151561035557fe5b906000526020600020906003020160000160009054906101000a900473ffffffffffffffffffffffffffffffffffffffff1660048481548110151561039657fe5b9060005260206000209060030201600101546105b1565b8180600101925050610336565b60006001819055505050565b60008060018060048111156103d757fe5b600360009054906101000a900460ff1660048111156103f257fe5b1415156103fb57fe5b600560008673ffffffffffffffffffffffffffffffffffffffff1673ffffffffffffffffffffffffffffffffffffffff1681526020019081526020016000205491506004805490508210151561044d57fe5b60048281548110151561045c57fe5b906000526020600020906003020160000160009054906101000a900473ffffffffffffffffffffffffffffffffffffffff1673ffffffffffffffffffffffffffffffffffffffff163373ffffffffffffffffffffffffffffffffffffffff161415156104c457fe5b6004828154811015156104d357fe5b906000526020600020906003020160020160009054906101000a900460ff161515156104fb57fe5b831561058457600160048381548110151561051257fe5b906000526020600020906003020160020160006101000a81548160ff0219169083151502179055506001600260008282540192505081905550600480549050600254141561057f576002600360006101000a81548160ff0219169083600481111561057957fe5b02179055505b6105a9565b6004600360006101000a81548160ff021916908360048111156105a357fe5b02179055505b505092915050565b8173ffffffffffffffffffffffffffffffffffffffff166108fc829081150290604051600060405180830381858888f193505050501580156105f7573d6000803e3d6000fd5b505050565b60008080600481111561060b57fe5b600360009054906101000a900460ff16600481111561062657fe5b14151561062f57fe5b6001600360006101000a81548160ff0219169083600481111561064e57fe5b021790555061065c8361095f565b600181905550600091505b83518210156107dc576004606060405190810160405280868581518110151561068c57fe5b9060200190602002015173ffffffffffffffffffffffffffffffffffffffff16815260200185858151811015156106bf57fe5b906020019060200201518152602001600015158152509080600181540180825580915050906001820390600052602060002090600302016000909192909190915060008201518160000160006101000a81548173ffffffffffffffffffffffffffffffffffffffff021916908373ffffffffffffffffffffffffffffffffffffffff1602179055506020820151816001015560408201518160020160006101000a81548160ff0219169083151502179055505050508160056000868581518110151561078757fe5b9060200190602002015173ffffffffffffffffffffffffffffffffffffffff1673ffffffffffffffffffffffffffffffffffffffff168152602001908152602001600020819055508180600101925050610667565b50505050565b606080606080600060048054905060405190808252806020026020018201604052801561081e5781602001602082028038833980820191505090505b5092506004805490506040519080825280602002602001820160405280156108555781602001602082028038833980820191505090505b509150600090505b60048054905081101561093f5760048181548110151561087957fe5b906000526020600020906003020160000160009054906101000a900473ffffffffffffffffffffffffffffffffffffffff1683828151811015156108b957fe5b9060200190602002019073ffffffffffffffffffffffffffffffffffffffff16908173ffffffffffffffffffffffffffffffffffffffff168152505060048181548110151561090457fe5b906000526020600020906003020160010154828281518110151561092457fe5b9060200190602002018181525050808060010191505061085d565b8282945094505050509091565b600360009054906101000a900460ff1681565b60008082600081518110151561097157fe5b906020019060200201519150600190505b82518110156109b457828181518110151561099957fe5b90602001906020020151820191508080600101915050610982565b509190505600a165627a7a723058209e125b681af66d63fdd352c9d7a8606d38f160aacf178c43c66530155285bdf00029",
  "source": "pragma solidity ^0.4.16;\n\ncontract Parties {\n    bool response;\n    uint escrowed_amount;\n\n    enum Stages {\n        New,\n        Waiting,\n        Progressing,\n        Completed,\n        Canceled\n    }\n\n    struct Party {\n        address user;\n        uint amount;\n        bool has_accepted;\n    }\n\n    uint accepted_no;\n\n    Stages public stage = Stages.New;\n\n    Party [] parties;\n\n    mapping(address => uint) party_from_address;\n\n\n    modifier onlyStage(Stages desired_stage) {\n          assert(stage == desired_stage);\n        _;\n       \n    }\n\n\n\n    function inviteParties  (address [] _parties, uint [] _amounts)public\n    onlyStage(Stages.New)\n    {\n        stage = Stages.Waiting;\n        escrowed_amount = sum(_amounts);\n        for (uint i = 0; i < _parties.length; i++) {\n            parties.push(Party(_parties[i], _amounts[i], false));\n            party_from_address[_parties[i]] = i;\n        }\n    }\n     \n     function transferTo(address dst, uint256 wad) public {\n        \n       dst.transfer(wad);\n      \n    }\n    \n    function processInvite(address _party, bool response) onlyStage(Stages.Waiting)public returns (uint) \n    {\n        uint party_index = party_from_address[_party];\n        assert(party_index < parties.length);\n        assert(msg.sender == parties[party_index].user);\n        assert(!parties[party_index].has_accepted);\n\n        if(response)\n        {\n            parties[party_index].has_accepted = true;\n            accepted_no += 1;\n\n            // All accepted.\n            if(accepted_no == parties.length)\n            {\n                stage = Stages.Progressing;\n            }\n        }\n        else\n        {\n            stage = Stages.Canceled;\n        }\n    }\n\n    function approve()  onlyStage(Stages.Progressing) public {\n        stage = Stages.Completed;\n        for (uint i = 0; i < parties.length; i++) {\n            transferTo(parties[i].user, parties[i].amount);\n        }\n         escrowed_amount = 0;\n    }\n\n    function getParticipants() public constant returns (address [], uint [])  {\n        address [] memory users = new address[](parties.length);\n        uint [] memory amounts = new uint[](parties.length);\n        for (uint i = 0; i < parties.length; i++) {\n            users[i] = parties[i].user;\n            amounts[i] = parties[i].amount;\n        }\n        return (users, amounts);\n    }\n\n    function sum(uint[] memory self) internal constant returns (uint r) {\n        r = self[0];\n        for (uint i = 1; i < self.length; i++) {\n            r += self[i];\n        }\n    }\n\n}\n",
  "sourcePath": "/Users/hao/onedrive/OneDrive - The University of Melbourne/project/Product_passport/contracts/authority/Parties.sol",
  "compiler": {
    "name": "solc",
    "version": "0.4.23+commit.124ca40d.Emscripten.clang"
  },
  "schemaVersion": "2.0.0",
  "updatedAt": "2018-06-03T19:37:31.636Z"
}