{
  "contractName": "PathsRecord",
  "abi": [
    {
      "constant": true,
      "inputs": [],
      "name": "owner",
      "outputs": [
        {
          "name": "",
          "type": "address"
        }
      ],
      "payable": false,
      "stateMutability": "view",
      "type": "function"
    },
    {
      "constant": true,
      "inputs": [
        {
          "name": "",
          "type": "uint256"
        }
      ],
      "name": "path",
      "outputs": [
        {
          "name": "",
          "type": "address"
        }
      ],
      "payable": false,
      "stateMutability": "view",
      "type": "function"
    },
    {
      "inputs": [],
      "payable": false,
      "stateMutability": "nonpayable",
      "type": "constructor"
    },
    {
      "constant": false,
      "inputs": [
        {
          "name": "point",
          "type": "address"
        }
      ],
      "name": "addpoint",
      "outputs": [
        {
          "name": "",
          "type": "bool"
        }
      ],
      "payable": false,
      "stateMutability": "nonpayable",
      "type": "function"
    },
    {
      "constant": true,
      "inputs": [],
      "name": "getPath",
      "outputs": [
        {
          "name": "",
          "type": "address[]"
        }
      ],
      "payable": false,
      "stateMutability": "view",
      "type": "function"
    },
    {
      "constant": true,
      "inputs": [],
      "name": "getPathLength",
      "outputs": [
        {
          "name": "",
          "type": "uint256"
        }
      ],
      "payable": false,
      "stateMutability": "view",
      "type": "function"
    },
    {
      "constant": false,
      "inputs": [],
      "name": "destroy",
      "outputs": [],
      "payable": false,
      "stateMutability": "nonpayable",
      "type": "function"
    }
  ],
  "bytecode": "0x6060604052341561000f57600080fd5b33600160006101000a81548173ffffffffffffffffffffffffffffffffffffffff021916908373ffffffffffffffffffffffffffffffffffffffff1602179055506105d18061005f6000396000f300606060405260043610610078576000357c0100000000000000000000000000000000000000000000000000000000900463ffffffff168063555b37be1461007d5780636295a07e146100e757806383197ef0146101385780638da5cb5b1461014d578063a550450c146101a2578063af6d1fe4146101cb575b600080fd5b341561008857600080fd5b61009061022e565b6040518080602001828103825283818151815260200191508051906020019060200280838360005b838110156100d35780820151818401526020810190506100b8565b505050509050019250505060405180910390f35b34156100f257600080fd5b61011e600480803573ffffffffffffffffffffffffffffffffffffffff16906020019091905050610317565b604051808215151515815260200191505060405180910390f35b341561014357600080fd5b61014b61043c565b005b341561015857600080fd5b6101606104cf565b604051808273ffffffffffffffffffffffffffffffffffffffff1673ffffffffffffffffffffffffffffffffffffffff16815260200191505060405180910390f35b34156101ad57600080fd5b6101b56104f5565b6040518082815260200191505060405180910390f35b34156101d657600080fd5b6101ec6004808035906020019091905050610501565b604051808273ffffffffffffffffffffffffffffffffffffffff1673ffffffffffffffffffffffffffffffffffffffff16815260200191505060405180910390f35b610236610540565b6000610240610540565b600080805490509250826040518059106102575750595b90808252806020026020018201604052509150600090505b60008054905081101561030e5760008181548110151561028b57fe5b906000526020600020900160009054906101000a900473ffffffffffffffffffffffffffffffffffffffff1682828151811015156102c557fe5b9060200190602002019073ffffffffffffffffffffffffffffffffffffffff16908173ffffffffffffffffffffffffffffffffffffffff1681525050808060010191505061026f565b81935050505090565b6000808273ffffffffffffffffffffffffffffffffffffffff1614156103405760009050610437565b6000808054905014806103c157508173ffffffffffffffffffffffffffffffffffffffff16600060016000805490500381548110151561037c57fe5b906000526020600020900160009054906101000a900473ffffffffffffffffffffffffffffffffffffffff1673ffffffffffffffffffffffffffffffffffffffff1614155b1561043257600080548060010182816103da9190610554565b9160005260206000209001600084909190916101000a81548173ffffffffffffffffffffffffffffffffffffffff021916908373ffffffffffffffffffffffffffffffffffffffff1602179055505060019050610437565b600090505b919050565b3373ffffffffffffffffffffffffffffffffffffffff16600160009054906101000a900473ffffffffffffffffffffffffffffffffffffffff1673ffffffffffffffffffffffffffffffffffffffff1614156104cd57600160009054906101000a900473ffffffffffffffffffffffffffffffffffffffff1673ffffffffffffffffffffffffffffffffffffffff16ff5b565b600160009054906101000a900473ffffffffffffffffffffffffffffffffffffffff1681565b60008080549050905090565b60008181548110151561051057fe5b90600052602060002090016000915054906101000a900473ffffffffffffffffffffffffffffffffffffffff1681565b602060405190810160405280600081525090565b81548183558181151161057b5781836000526020600020918201910161057a9190610580565b5b505050565b6105a291905b8082111561059e576000816000905550600101610586565b5090565b905600a165627a7a72305820ffb1c056426354f416cdb809059e3f8169b3e95a05f46c35570b8afe486ce63d0029",
  "source": "pragma solidity ^0.4.8;\n\ncontract PathsRecord {\n\n    address[] public path;\n    address public owner;\n\n    function PathsRecord() {\n      owner = msg.sender;\n    }\n\n    function addpoint(address point) returns (bool) {\n      if (point == 0x0) {\n        return false;\n      }\n      if (path.length == 0 || path[path.length-1] != point) {\n        path.push(point);\n        return true;\n      }\n      return false;\n    }\n\n    function getPath() constant returns (address[]) {\n      uint length = path.length;\n\n      address[] memory points = new address[](length);\n\n      for (uint i = 0; i < path.length; i++) {\n        points[i] = path[i];\n      }\n\n      return points;\n    }\n\n    function getPathLength() constant returns (uint) {\n      return path.length;\n    }\n\n    function destroy() {\n        if (owner == msg.sender) selfdestruct(owner);\n    }\n}",
  "sourcePath": "/Users/hao/onedrive/OneDrive - The University of Melbourne/project/Product_passport/contracts/PathsRecord.sol",
  "compiler": {
    "name": "solc",
    "version": "0.4.19+commit.c4cbbb05.Emscripten.clang"
  },
  "schemaVersion": "2.0.0",
  "updatedAt": "2018-03-13T14:25:46.279Z"
}