{
  "contractName": "PPcoin",
  "abi": [
    {
      "constant": true,
      "inputs": [],
      "name": "name",
      "outputs": [
        {
          "name": "",
          "type": "string"
        }
      ],
      "payable": false,
      "stateMutability": "view",
      "type": "function"
    },
    {
      "constant": false,
      "inputs": [
        {
          "name": "owner_",
          "type": "address"
        }
      ],
      "name": "setOwner",
      "outputs": [],
      "payable": false,
      "stateMutability": "nonpayable",
      "type": "function"
    },
    {
      "constant": true,
      "inputs": [
        {
          "name": "roleName",
          "type": "string"
        }
      ],
      "name": "senderHasRole",
      "outputs": [
        {
          "name": "",
          "type": "bool"
        }
      ],
      "payable": false,
      "stateMutability": "view",
      "type": "function"
    },
    {
      "constant": true,
      "inputs": [],
      "name": "decimals",
      "outputs": [
        {
          "name": "",
          "type": "uint8"
        }
      ],
      "payable": false,
      "stateMutability": "view",
      "type": "function"
    },
    {
      "constant": true,
      "inputs": [],
      "name": "roles",
      "outputs": [
        {
          "name": "",
          "type": "address"
        }
      ],
      "payable": false,
      "stateMutability": "view",
      "type": "function"
    },
    {
      "constant": true,
      "inputs": [],
      "name": "stopped",
      "outputs": [
        {
          "name": "",
          "type": "bool"
        }
      ],
      "payable": false,
      "stateMutability": "view",
      "type": "function"
    },
    {
      "constant": false,
      "inputs": [
        {
          "name": "owner_",
          "type": "address"
        }
      ],
      "name": "transferOwnerShip",
      "outputs": [],
      "payable": false,
      "stateMutability": "nonpayable",
      "type": "function"
    },
    {
      "constant": true,
      "inputs": [],
      "name": "getOwner",
      "outputs": [
        {
          "name": "",
          "type": "address"
        }
      ],
      "payable": false,
      "stateMutability": "view",
      "type": "function"
    },
    {
      "constant": true,
      "inputs": [],
      "name": "owner",
      "outputs": [
        {
          "name": "",
          "type": "address"
        }
      ],
      "payable": false,
      "stateMutability": "view",
      "type": "function"
    },
    {
      "constant": true,
      "inputs": [],
      "name": "contractHash",
      "outputs": [
        {
          "name": "",
          "type": "bytes32"
        }
      ],
      "payable": false,
      "stateMutability": "view",
      "type": "function"
    },
    {
      "constant": true,
      "inputs": [],
      "name": "symbol",
      "outputs": [
        {
          "name": "",
          "type": "string"
        }
      ],
      "payable": false,
      "stateMutability": "view",
      "type": "function"
    },
    {
      "constant": false,
      "inputs": [
        {
          "name": "roles_",
          "type": "address"
        }
      ],
      "name": "setRolesContract",
      "outputs": [],
      "payable": false,
      "stateMutability": "nonpayable",
      "type": "function"
    },
    {
      "constant": true,
      "inputs": [],
      "name": "logic",
      "outputs": [
        {
          "name": "",
          "type": "address"
        }
      ],
      "payable": false,
      "stateMutability": "view",
      "type": "function"
    },
    {
      "constant": true,
      "inputs": [
        {
          "name": "roleName",
          "type": "string"
        }
      ],
      "name": "hasRole",
      "outputs": [
        {
          "name": "",
          "type": "bool"
        }
      ],
      "payable": false,
      "stateMutability": "view",
      "type": "function"
    },
    {
      "inputs": [
        {
          "name": "_roles",
          "type": "address"
        }
      ],
      "payable": false,
      "stateMutability": "nonpayable",
      "type": "constructor"
    },
    {
      "anonymous": false,
      "inputs": [
        {
          "indexed": false,
          "name": "newOwner",
          "type": "address"
        }
      ],
      "name": "SetTheOwner",
      "type": "event"
    },
    {
      "anonymous": false,
      "inputs": [
        {
          "indexed": true,
          "name": "src",
          "type": "address"
        },
        {
          "indexed": false,
          "name": "wad",
          "type": "uint256"
        }
      ],
      "name": "LogBurn",
      "type": "event"
    },
    {
      "anonymous": false,
      "inputs": [
        {
          "indexed": true,
          "name": "src",
          "type": "address"
        },
        {
          "indexed": false,
          "name": "wad",
          "type": "uint256"
        }
      ],
      "name": "LogMint",
      "type": "event"
    },
    {
      "anonymous": false,
      "inputs": [
        {
          "indexed": false,
          "name": "newLogic",
          "type": "address"
        }
      ],
      "name": "LogLogicReplaced",
      "type": "event"
    },
    {
      "anonymous": false,
      "inputs": [
        {
          "indexed": true,
          "name": "from",
          "type": "address"
        },
        {
          "indexed": true,
          "name": "to",
          "type": "address"
        },
        {
          "indexed": false,
          "name": "value",
          "type": "uint256"
        }
      ],
      "name": "Transfer",
      "type": "event"
    },
    {
      "anonymous": false,
      "inputs": [
        {
          "indexed": true,
          "name": "owner",
          "type": "address"
        },
        {
          "indexed": true,
          "name": "spender",
          "type": "address"
        },
        {
          "indexed": false,
          "name": "value",
          "type": "uint256"
        }
      ],
      "name": "Approval",
      "type": "event"
    },
    {
      "constant": false,
      "inputs": [
        {
          "name": "_spender",
          "type": "address"
        },
        {
          "name": "_value",
          "type": "uint256"
        },
        {
          "name": "_extraData",
          "type": "bytes"
        }
      ],
      "name": "approveAndCall",
      "outputs": [
        {
          "name": "success",
          "type": "bool"
        }
      ],
      "payable": false,
      "stateMutability": "nonpayable",
      "type": "function"
    },
    {
      "constant": true,
      "inputs": [],
      "name": "totalSupply",
      "outputs": [
        {
          "name": "",
          "type": "uint256"
        }
      ],
      "payable": false,
      "stateMutability": "view",
      "type": "function"
    },
    {
      "constant": true,
      "inputs": [
        {
          "name": "who",
          "type": "address"
        }
      ],
      "name": "balanceOf",
      "outputs": [
        {
          "name": "value",
          "type": "uint256"
        }
      ],
      "payable": false,
      "stateMutability": "view",
      "type": "function"
    },
    {
      "constant": true,
      "inputs": [
        {
          "name": "owner",
          "type": "address"
        },
        {
          "name": "spender",
          "type": "address"
        }
      ],
      "name": "allowance",
      "outputs": [
        {
          "name": "_allowance",
          "type": "uint256"
        }
      ],
      "payable": false,
      "stateMutability": "view",
      "type": "function"
    },
    {
      "constant": false,
      "inputs": [
        {
          "name": "src",
          "type": "address"
        },
        {
          "name": "dst",
          "type": "address"
        },
        {
          "name": "wad",
          "type": "uint256"
        }
      ],
      "name": "triggerTransfer",
      "outputs": [],
      "payable": false,
      "stateMutability": "nonpayable",
      "type": "function"
    },
    {
      "constant": false,
      "inputs": [
        {
          "name": "logic_",
          "type": "address"
        }
      ],
      "name": "setLogic",
      "outputs": [],
      "payable": false,
      "stateMutability": "nonpayable",
      "type": "function"
    },
    {
      "constant": false,
      "inputs": [
        {
          "name": "dst",
          "type": "address"
        },
        {
          "name": "wad",
          "type": "uint256"
        }
      ],
      "name": "transfer",
      "outputs": [
        {
          "name": "",
          "type": "bool"
        }
      ],
      "payable": false,
      "stateMutability": "nonpayable",
      "type": "function"
    },
    {
      "constant": false,
      "inputs": [
        {
          "name": "src",
          "type": "address"
        },
        {
          "name": "dst",
          "type": "address"
        },
        {
          "name": "wad",
          "type": "uint256"
        }
      ],
      "name": "transferFrom",
      "outputs": [
        {
          "name": "",
          "type": "bool"
        }
      ],
      "payable": false,
      "stateMutability": "nonpayable",
      "type": "function"
    },
    {
      "constant": false,
      "inputs": [
        {
          "name": "guy",
          "type": "address"
        },
        {
          "name": "wad",
          "type": "uint256"
        }
      ],
      "name": "approve",
      "outputs": [
        {
          "name": "",
          "type": "bool"
        }
      ],
      "payable": false,
      "stateMutability": "nonpayable",
      "type": "function"
    },
    {
      "constant": false,
      "inputs": [
        {
          "name": "src",
          "type": "address"
        },
        {
          "name": "wad",
          "type": "uint256"
        }
      ],
      "name": "pull",
      "outputs": [
        {
          "name": "",
          "type": "bool"
        }
      ],
      "payable": false,
      "stateMutability": "nonpayable",
      "type": "function"
    },
    {
      "constant": false,
      "inputs": [
        {
          "name": "recipient",
          "type": "address"
        },
        {
          "name": "wad",
          "type": "uint256"
        }
      ],
      "name": "mintFor",
      "outputs": [],
      "payable": false,
      "stateMutability": "nonpayable",
      "type": "function"
    },
    {
      "constant": false,
      "inputs": [
        {
          "name": "wad",
          "type": "uint256"
        }
      ],
      "name": "burn",
      "outputs": [],
      "payable": false,
      "stateMutability": "nonpayable",
      "type": "function"
    }
  ],
  "bytecode": "0x60806040526a52b7d2dcc80cd2e40000006005556000600660146101000a81548160ff02191690831515021790555034801561003a57600080fd5b506040516020806124bf833981018060405281019080805190602001909291905050506040805190810160405280600881526020017f505020546f6b656e00000000000000000000000000000000000000000000000081525081336000806101000a81548173ffffffffffffffffffffffffffffffffffffffff021916908373ffffffffffffffffffffffffffffffffffffffff160217905550600073ffffffffffffffffffffffffffffffffffffffff168173ffffffffffffffffffffffffffffffffffffffff161415151561011057600080fd5b816040518082805190602001908083835b6020831015156101465780518252602082019150602081019050602083039250610121565b6001836020036101000a03801982511681845116808217855250505050505090500191505060405180910390206002816000191690555080600160006101000a81548173ffffffffffffffffffffffffffffffffffffffff021916908373ffffffffffffffffffffffffffffffffffffffff1602179055505050600554600360003373ffffffffffffffffffffffffffffffffffffffff1673ffffffffffffffffffffffffffffffffffffffff16815260200190815260200160002081905550506122a9806102166000396000f300608060405260043610610154576000357c0100000000000000000000000000000000000000000000000000000000900463ffffffff16806306fdde0314610159578063095ea7b3146101e957806313af40351461024e57806318160ddd146102915780631ca03b8e146102bc57806323b872dd1461033d578063313ce567146103c2578063392f5f64146103f357806342966c681461044a57806370a082311461047757806371857000146104ce57806375f12b21146105115780638863dd1a14610540578063893d20e8146105835780638da5cb5b146105da578063904c60941461063157806395d89b4114610664578063a9059cbb146106f4578063afa202ac14610759578063cae9ca511461079c578063d7dfa0dd14610847578063da1919b31461089e578063dd62ed3e146108eb578063e31a7c0114610962578063e3c33a9b146109cf578063f2d5d56b14610a50575b600080fd5b34801561016557600080fd5b5061016e610ab5565b6040518080602001828103825283818151815260200191508051906020019080838360005b838110156101ae578082015181840152602081019050610193565b50505050905090810190601f1680156101db5780820380516001836020036101000a031916815260200191505b509250505060405180910390f35b3480156101f557600080fd5b50610234600480360381019080803573ffffffffffffffffffffffffffffffffffffffff16906020019092919080359060200190929190505050610aee565b604051808215151515815260200191505060405180910390f35b34801561025a57600080fd5b5061028f600480360381019080803573ffffffffffffffffffffffffffffffffffffffff169060200190929190505050610cb9565b005b34801561029d57600080fd5b506102a6610ddb565b6040518082815260200191505060405180910390f35b3480156102c857600080fd5b50610323600480360381019080803590602001908201803590602001908080601f0160208091040260200160405190810160405280939291908181526020018383808284378201915050505050509192919290505050610ea3565b604051808215151515815260200191505060405180910390f35b34801561034957600080fd5b506103a8600480360381019080803573ffffffffffffffffffffffffffffffffffffffff169060200190929190803573ffffffffffffffffffffffffffffffffffffffff16906020019092919080359060200190929190505050611039565b604051808215151515815260200191505060405180910390f35b3480156103ce57600080fd5b506103d7611199565b604051808260ff1660ff16815260200191505060405180910390f35b3480156103ff57600080fd5b5061040861119e565b604051808273ffffffffffffffffffffffffffffffffffffffff1673ffffffffffffffffffffffffffffffffffffffff16815260200191505060405180910390f35b34801561045657600080fd5b50610475600480360381019080803590602001909291905050506111c4565b005b34801561048357600080fd5b506104b8600480360381019080803573ffffffffffffffffffffffffffffffffffffffff16906020019092919050505061130e565b6040518082815260200191505060405180910390f35b3480156104da57600080fd5b5061050f600480360381019080803573ffffffffffffffffffffffffffffffffffffffff16906020019092919050505061140f565b005b34801561051d57600080fd5b506105266115c6565b604051808215151515815260200191505060405180910390f35b34801561054c57600080fd5b50610581600480360381019080803573ffffffffffffffffffffffffffffffffffffffff1690602001909291905050506115d9565b005b34801561058f57600080fd5b506105986116fb565b604051808273ffffffffffffffffffffffffffffffffffffffff1673ffffffffffffffffffffffffffffffffffffffff16815260200191505060405180910390f35b3480156105e657600080fd5b506105ef611724565b604051808273ffffffffffffffffffffffffffffffffffffffff1673ffffffffffffffffffffffffffffffffffffffff16815260200191505060405180910390f35b34801561063d57600080fd5b50610646611749565b60405180826000191660001916815260200191505060405180910390f35b34801561067057600080fd5b50610679611753565b6040518080602001828103825283818151815260200191508051906020019080838360005b838110156106b957808201518184015260208101905061069e565b50505050905090810190601f1680156106e65780820380516001836020036101000a031916815260200191505b509250505060405180910390f35b34801561070057600080fd5b5061073f600480360381019080803573ffffffffffffffffffffffffffffffffffffffff1690602001909291908035906020019092919050505061178c565b604051808215151515815260200191505060405180910390f35b34801561076557600080fd5b5061079a600480360381019080803573ffffffffffffffffffffffffffffffffffffffff1690602001909291905050506118eb565b005b3480156107a857600080fd5b5061082d600480360381019080803573ffffffffffffffffffffffffffffffffffffffff16906020019092919080359060200190929190803590602001908201803590602001908080601f01602080910402602001604051908101604052809392919081815260200183838082843782019150505050505091929192905050506119e7565b604051808215151515815260200191505060405180910390f35b34801561085357600080fd5b5061085c611c84565b604051808273ffffffffffffffffffffffffffffffffffffffff1673ffffffffffffffffffffffffffffffffffffffff16815260200191505060405180910390f35b3480156108aa57600080fd5b506108e9600480360381019080803573ffffffffffffffffffffffffffffffffffffffff16906020019092919080359060200190929190505050611caa565b005b3480156108f757600080fd5b5061094c600480360381019080803573ffffffffffffffffffffffffffffffffffffffff169060200190929190803573ffffffffffffffffffffffffffffffffffffffff169060200190929190505050611ea6565b6040518082815260200191505060405180910390f35b34801561096e57600080fd5b506109cd600480360381019080803573ffffffffffffffffffffffffffffffffffffffff169060200190929190803573ffffffffffffffffffffffffffffffffffffffff16906020019092919080359060200190929190505050611fdc565b005b3480156109db57600080fd5b50610a36600480360381019080803590602001908201803590602001908080601f01602080910402602001604051908101604052809392919081815260200183838082843782019150505050505091929192905050506120fb565b604051808215151515815260200191505060405180910390f35b348015610a5c57600080fd5b50610a9b600480360381019080803573ffffffffffffffffffffffffffffffffffffffff1690602001909291908035906020019092919050505061224c565b604051808215151515815260200191505060405180910390f35b6040805190810160405280600881526020017f505020546f6b656e00000000000000000000000000000000000000000000000081525081565b600080600660149054906101000a900460ff16151515610b0d57600080fd5b600660009054906101000a900473ffffffffffffffffffffffffffffffffffffffff1673ffffffffffffffffffffffffffffffffffffffff1663e1f21c673386866040518463ffffffff167c0100000000000000000000000000000000000000000000000000000000028152600401808473ffffffffffffffffffffffffffffffffffffffff1673ffffffffffffffffffffffffffffffffffffffff1681526020018373ffffffffffffffffffffffffffffffffffffffff1673ffffffffffffffffffffffffffffffffffffffff1681526020018281526020019350505050602060405180830381600087803b158015610c0657600080fd5b505af1158015610c1a573d6000803e3d6000fd5b505050506040513d6020811015610c3057600080fd5b810190808051906020019092919050505090508015610caf578373ffffffffffffffffffffffffffffffffffffffff163373ffffffffffffffffffffffffffffffffffffffff167f8c5be1e5ebec7d5bd14f71427d1e84f3dd0314c0f7b2291e5b200ac8c7c3b925856040518082815260200191505060405180910390a35b8091505092915050565b6000809054906101000a900473ffffffffffffffffffffffffffffffffffffffff1673ffffffffffffffffffffffffffffffffffffffff163373ffffffffffffffffffffffffffffffffffffffff16141515610d1457600080fd5b806000806101000a81548173ffffffffffffffffffffffffffffffffffffffff021916908373ffffffffffffffffffffffffffffffffffffffff1602179055507fe68cf4546522887de125201a08bb28732b71c701ef98bdde59bcd7ee077a65da6000809054906101000a900473ffffffffffffffffffffffffffffffffffffffff16604051808273ffffffffffffffffffffffffffffffffffffffff1673ffffffffffffffffffffffffffffffffffffffff16815260200191505060405180910390a150565b6000600660009054906101000a900473ffffffffffffffffffffffffffffffffffffffff1673ffffffffffffffffffffffffffffffffffffffff166318160ddd6040518163ffffffff167c0100000000000000000000000000000000000000000000000000000000028152600401602060405180830381600087803b158015610e6357600080fd5b505af1158015610e77573d6000803e3d6000fd5b505050506040513d6020811015610e8d57600080fd5b8101908080519060200190929190505050905090565b6000610eae826120fb565b80156110325750600160009054906101000a900473ffffffffffffffffffffffffffffffffffffffff1673ffffffffffffffffffffffffffffffffffffffff16638b51ca42600254846040518082805190602001908083835b602083101515610f2c5780518252602082019150602081019050602083039250610f07565b6001836020036101000a0380198251168184511680821785525050505050509050019150506040518091039020336040518463ffffffff167c010000000000000000000000000000000000000000000000000000000002815260040180846000191660001916815260200183600019166000191681526020018273ffffffffffffffffffffffffffffffffffffffff1673ffffffffffffffffffffffffffffffffffffffff1681526020019350505050602060405180830381600087803b158015610ff657600080fd5b505af115801561100a573d6000803e3d6000fd5b505050506040513d602081101561102057600080fd5b81019080805190602001909291905050505b9050919050565b600080600660149054906101000a900460ff1615151561105857600080fd5b600660009054906101000a900473ffffffffffffffffffffffffffffffffffffffff1673ffffffffffffffffffffffffffffffffffffffff166323b872dd8686866040518463ffffffff167c0100000000000000000000000000000000000000000000000000000000028152600401808473ffffffffffffffffffffffffffffffffffffffff1673ffffffffffffffffffffffffffffffffffffffff1681526020018373ffffffffffffffffffffffffffffffffffffffff1673ffffffffffffffffffffffffffffffffffffffff1681526020018281526020019350505050602060405180830381600087803b15801561115157600080fd5b505af1158015611165573d6000803e3d6000fd5b505050506040513d602081101561117b57600080fd5b81019080805190602001909291905050509050809150509392505050565b601281565b600160009054906101000a900473ffffffffffffffffffffffffffffffffffffffff1681565b600660149054906101000a900460ff161515156111e057600080fd5b600660009054906101000a900473ffffffffffffffffffffffffffffffffffffffff1673ffffffffffffffffffffffffffffffffffffffff16639dc29fac33836040518363ffffffff167c0100000000000000000000000000000000000000000000000000000000028152600401808373ffffffffffffffffffffffffffffffffffffffff1673ffffffffffffffffffffffffffffffffffffffff16815260200182815260200192505050600060405180830381600087803b1580156112a557600080fd5b505af11580156112b9573d6000803e3d6000fd5b505050503373ffffffffffffffffffffffffffffffffffffffff167f38d762ef507761291a578e921acfe29c1af31a7331ea03e391cf16cfc4d4f581826040518082815260200191505060405180910390a250565b6000600660009054906101000a900473ffffffffffffffffffffffffffffffffffffffff1673ffffffffffffffffffffffffffffffffffffffff166370a08231836040518263ffffffff167c0100000000000000000000000000000000000000000000000000000000028152600401808273ffffffffffffffffffffffffffffffffffffffff1673ffffffffffffffffffffffffffffffffffffffff168152602001915050602060405180830381600087803b1580156113cd57600080fd5b505af11580156113e1573d6000803e3d6000fd5b505050506040513d60208110156113f757600080fd5b81019080805190602001909291905050509050919050565b600073ffffffffffffffffffffffffffffffffffffffff16600660009054906101000a900473ffffffffffffffffffffffffffffffffffffffff1673ffffffffffffffffffffffffffffffffffffffff1614806114b957503373ffffffffffffffffffffffffffffffffffffffff16600660009054906101000a900473ffffffffffffffffffffffffffffffffffffffff1673ffffffffffffffffffffffffffffffffffffffff16145b15156114c457600080fd5b600073ffffffffffffffffffffffffffffffffffffffff168173ffffffffffffffffffffffffffffffffffffffff16141515156114fd57fe5b80600660006101000a81548173ffffffffffffffffffffffffffffffffffffffff021916908373ffffffffffffffffffffffffffffffffffffffff1602179055507ffe2210ec3c91da0ee4bf50e5962a84bb51e9e2196c49c371b20c2b5226974e5e600660009054906101000a900473ffffffffffffffffffffffffffffffffffffffff16604051808273ffffffffffffffffffffffffffffffffffffffff1673ffffffffffffffffffffffffffffffffffffffff16815260200191505060405180910390a150565b600660149054906101000a900460ff1681565b6000809054906101000a900473ffffffffffffffffffffffffffffffffffffffff1673ffffffffffffffffffffffffffffffffffffffff163373ffffffffffffffffffffffffffffffffffffffff1614151561163457600080fd5b806000806101000a81548173ffffffffffffffffffffffffffffffffffffffff021916908373ffffffffffffffffffffffffffffffffffffffff1602179055507fe68cf4546522887de125201a08bb28732b71c701ef98bdde59bcd7ee077a65da6000809054906101000a900473ffffffffffffffffffffffffffffffffffffffff16604051808273ffffffffffffffffffffffffffffffffffffffff1673ffffffffffffffffffffffffffffffffffffffff16815260200191505060405180910390a150565b60008060009054906101000a900473ffffffffffffffffffffffffffffffffffffffff16905090565b6000809054906101000a900473ffffffffffffffffffffffffffffffffffffffff1681565b6000600254905090565b6040805190810160405280600381526020017f505043000000000000000000000000000000000000000000000000000000000081525081565b600080600660149054906101000a900460ff161515156117ab57600080fd5b600660009054906101000a900473ffffffffffffffffffffffffffffffffffffffff1673ffffffffffffffffffffffffffffffffffffffff1663beabacc83386866040518463ffffffff167c0100000000000000000000000000000000000000000000000000000000028152600401808473ffffffffffffffffffffffffffffffffffffffff1673ffffffffffffffffffffffffffffffffffffffff1681526020018373ffffffffffffffffffffffffffffffffffffffff1673ffffffffffffffffffffffffffffffffffffffff1681526020018281526020019350505050602060405180830381600087803b1580156118a457600080fd5b505af11580156118b8573d6000803e3d6000fd5b505050506040513d60208110156118ce57600080fd5b810190808051906020019092919050505090508091505092915050565b6000809054906101000a900473ffffffffffffffffffffffffffffffffffffffff1673ffffffffffffffffffffffffffffffffffffffff163373ffffffffffffffffffffffffffffffffffffffff1614151561194657600080fd5b600160009054906101000a900473ffffffffffffffffffffffffffffffffffffffff1673ffffffffffffffffffffffffffffffffffffffff163073ffffffffffffffffffffffffffffffffffffffff16141515156119a357600080fd5b80600160006101000a81548173ffffffffffffffffffffffffffffffffffffffff021916908373ffffffffffffffffffffffffffffffffffffffff16021790555050565b600082600460003373ffffffffffffffffffffffffffffffffffffffff1673ffffffffffffffffffffffffffffffffffffffff16815260200190815260200160002060008673ffffffffffffffffffffffffffffffffffffffff1673ffffffffffffffffffffffffffffffffffffffff168152602001908152602001600020819055508373ffffffffffffffffffffffffffffffffffffffff163373ffffffffffffffffffffffffffffffffffffffff167f8c5be1e5ebec7d5bd14f71427d1e84f3dd0314c0f7b2291e5b200ac8c7c3b925856040518082815260200191505060405180910390a38373ffffffffffffffffffffffffffffffffffffffff1660405180807f72656365697665417070726f76616c28616464726573732c75696e743235362c81526020017f616464726573732c627974657329000000000000000000000000000000000000815250602e01905060405180910390207c01000000000000000000000000000000000000000000000000000000009004338530866040518563ffffffff167c0100000000000000000000000000000000000000000000000000000000028152600401808573ffffffffffffffffffffffffffffffffffffffff1673ffffffffffffffffffffffffffffffffffffffff1681526020018481526020018373ffffffffffffffffffffffffffffffffffffffff1673ffffffffffffffffffffffffffffffffffffffff168152602001828051906020019080838360005b83811015611c28578082015181840152602081019050611c0d565b50505050905090810190601f168015611c555780820380516001836020036101000a031916815260200191505b509450505050506000604051808303816000875af1925050501515611c7957600080fd5b600190509392505050565b600660009054906101000a900473ffffffffffffffffffffffffffffffffffffffff1681565b600660149054906101000a900460ff16151515611cc657600080fd5b6040805190810160405280600681526020017f6d696e7465720000000000000000000000000000000000000000000000000000815250611d0581610ea3565b1515611d1057600080fd5b600660009054906101000a900473ffffffffffffffffffffffffffffffffffffffff1673ffffffffffffffffffffffffffffffffffffffff1663da1919b384846040518363ffffffff167c0100000000000000000000000000000000000000000000000000000000028152600401808373ffffffffffffffffffffffffffffffffffffffff1673ffffffffffffffffffffffffffffffffffffffff16815260200182815260200192505050600060405180830381600087803b158015611dd557600080fd5b505af1158015611de9573d6000803e3d6000fd5b505050508273ffffffffffffffffffffffffffffffffffffffff167f9f494565851dbcb31fb5198ca217cda6833282fadb96ba9431bd19c82afc1dd3836040518082815260200191505060405180910390a28273ffffffffffffffffffffffffffffffffffffffff16600073ffffffffffffffffffffffffffffffffffffffff167fddf252ad1be2c89b69c2b068fc378daa952ba7f163c4a11628f55a4df523b3ef846040518082815260200191505060405180910390a3505050565b6000600660009054906101000a900473ffffffffffffffffffffffffffffffffffffffff1673ffffffffffffffffffffffffffffffffffffffff1663dd62ed3e84846040518363ffffffff167c0100000000000000000000000000000000000000000000000000000000028152600401808373ffffffffffffffffffffffffffffffffffffffff1673ffffffffffffffffffffffffffffffffffffffff1681526020018273ffffffffffffffffffffffffffffffffffffffff1673ffffffffffffffffffffffffffffffffffffffff16815260200192505050602060405180830381600087803b158015611f9957600080fd5b505af1158015611fad573d6000803e3d6000fd5b505050506040513d6020811015611fc357600080fd5b8101908080519060200190929190505050905092915050565b600073ffffffffffffffffffffffffffffffffffffffff16600660009054906101000a900473ffffffffffffffffffffffffffffffffffffffff1673ffffffffffffffffffffffffffffffffffffffff16148061208657503373ffffffffffffffffffffffffffffffffffffffff16600660009054906101000a900473ffffffffffffffffffffffffffffffffffffffff1673ffffffffffffffffffffffffffffffffffffffff16145b151561209157600080fd5b8173ffffffffffffffffffffffffffffffffffffffff168373ffffffffffffffffffffffffffffffffffffffff167fddf252ad1be2c89b69c2b068fc378daa952ba7f163c4a11628f55a4df523b3ef836040518082815260200191505060405180910390a3505050565b6000600160009054906101000a900473ffffffffffffffffffffffffffffffffffffffff1673ffffffffffffffffffffffffffffffffffffffff16633037cea3600254846040518082805190602001908083835b602083101515612174578051825260208201915060208101905060208303925061214f565b6001836020036101000a03801982511681845116808217855250505050505090500191505060405180910390206040518363ffffffff167c0100000000000000000000000000000000000000000000000000000000028152600401808360001916600019168152602001826000191660001916815260200192505050602060405180830381600087803b15801561220a57600080fd5b505af115801561221e573d6000803e3d6000fd5b505050506040513d602081101561223457600080fd5b81019080805190602001909291905050509050919050565b6000600660149054906101000a900460ff1615151561226a57600080fd5b612275833384611039565b9050929150505600a165627a7a72305820458b3fe2d487b6b1956275e8812a3b25f2b7cc4e42cea613aa2cdca42930970a0029",
  "source": "pragma solidity ^0.4.16;\n\nimport \"../authority/Roles.sol\";\nimport \"./TokenStandard.sol\";\nimport \"./TokenEvents.sol\";\nimport \"./TokenLogic.sol\";\n\n\ncontract PPcoin is  TokenStandard,TokenEvents,rolesTest {\n\n\n    mapping (address => uint256) balances;\n    mapping (address => mapping (address => uint256)) allowed;\n    //1000000\n    uint public  totalSupply=1e26;\n    string public constant name= \"PP Token\";\n    uint8 public constant decimals = 18;\n    string public constant symbol=\"PPC\";\n\n    TokenLogicI public logic;\n    bool public stopped = false;\n    function PPcoin( address _roles)public rolesTest(name,_roles) {\n\n        balances[msg.sender] = totalSupply;\n    }\n    \n    function approveAndCall(address _spender, uint256 _value, bytes _extraData) returns (bool success) {\n        allowed[msg.sender][_spender] = _value;\n        Approval(msg.sender, _spender, _value);\n        //call the receiveApproval function on the contract you want to be notified. This crafts the function signature manually so one doesn't have to include a contract in here just for this.\n        //receiveApproval(address _from, uint256 _value, address _tokenContract, bytes _extraData)\n        //it is assumed that when does this that the call *should* succeed, otherwise one would use vanilla approve instead.\n        if(!_spender.call(bytes4(bytes32(sha3(\"receiveApproval(address,uint256,address,bytes)\"))), msg.sender, _value, this, _extraData)) { throw; }\n        return true;\n    }\n    \n\n    modifier stoppable() {\n        require(!stopped);\n        _;\n    }\n    modifier logicOnly {\n        require(address(logic) == address(0x0) || address(logic) == msg.sender);\n        _;\n    }\n\n    function totalSupply() public view returns (uint256) {\n        return logic.totalSupply();\n    }\n\n    function balanceOf( address who ) public view returns (uint256 value) {\n        return logic.balanceOf(who);\n    }\n\n    function allowance(address owner, address spender ) public view returns (uint256 _allowance) {\n        return logic.allowance(owner, spender);\n    }\n\n    function triggerTransfer(address src, address dst, uint256 wad) public logicOnly {\n        Transfer(src, dst, wad);\n    }\n    /**\n     * @dev Transfer the specified amount of tokens to the specified address.\n     *      Invokes the `tokenFallback` function if the recipient is a contract.\n     *      The token transfer fails if the recipient is a contract\n     *      but does not implement the `tokenFallback` function\n     *      or the fallback function to receive funds.\n     */\n    function setLogic(address logic_) public logicOnly {\n        assert(logic_ != address(0));\n        logic = TokenLogicI(logic_);\n        LogLogicReplaced(logic);\n    }\n\n    function transfer(address dst, uint256 wad) public stoppable returns (bool) {\n        bool retVal = logic.transfer(msg.sender, dst, wad);\n        return retVal;\n    }\n\n    function transferFrom(address src, address dst, uint256 wad) public stoppable returns (bool) {\n        bool retVal = logic.transferFrom(src, dst, wad);\n        return retVal;\n    }\n\n    function approve(address guy, uint256 wad) public stoppable returns (bool) {\n        bool ok = logic.approve(msg.sender, guy, wad);\n        if (ok)\n            Approval(msg.sender, guy, wad);\n        return ok;\n    }\n\n    function pull(address src, uint256 wad) public stoppable returns (bool) {\n        return transferFrom(src, msg.sender, wad);\n    }\n\n    function mintFor(address recipient, uint256 wad) public stoppable onlyRole(\"minter\") {\n        logic.mintFor(recipient, wad);\n        LogMint(recipient, wad);\n        Transfer(address(0x0), recipient, wad);\n    }\n\n    function burn(uint256 wad) public stoppable {\n        logic.burn(msg.sender, wad);\n        LogBurn(msg.sender, wad);\n    }\n\n\n}\n",
  "sourcePath": "/Users/hao/onedrive/OneDrive - The University of Melbourne/project/Product_passport/contracts/Token/PPcoin.sol",
  "compiler": {
    "name": "solc",
    "version": "0.4.23+commit.124ca40d.Emscripten.clang"
  },
  "schemaVersion": "2.0.0",
  "updatedAt": "2018-05-30T06:37:58.559Z"
}