{
  "contractName": "Product",
  "abi": [
    {
      "constant": true,
      "inputs": [],
      "name": "name",
      "outputs": [
        {
          "name": "",
          "type": "bytes32"
        }
      ],
      "payable": false,
      "stateMutability": "view",
      "type": "function"
    },
    {
      "constant": true,
      "inputs": [
        {
          "name": "",
          "type": "uint256"
        }
      ],
      "name": "childProducts",
      "outputs": [
        {
          "name": "",
          "type": "address"
        }
      ],
      "payable": false,
      "stateMutability": "view",
      "type": "function"
    },
    {
      "constant": true,
      "inputs": [
        {
          "name": "",
          "type": "bytes32"
        },
        {
          "name": "",
          "type": "address"
        }
      ],
      "name": "roleList",
      "outputs": [
        {
          "name": "",
          "type": "bool"
        }
      ],
      "payable": false,
      "stateMutability": "view",
      "type": "function"
    },
    {
      "constant": false,
      "inputs": [
        {
          "name": "owner_",
          "type": "address"
        }
      ],
      "name": "setOwner",
      "outputs": [],
      "payable": false,
      "stateMutability": "nonpayable",
      "type": "function"
    },
    {
      "constant": false,
      "inputs": [
        {
          "name": "roleName",
          "type": "string"
        },
        {
          "name": "user",
          "type": "address"
        }
      ],
      "name": "revokeUserRole",
      "outputs": [],
      "payable": false,
      "stateMutability": "nonpayable",
      "type": "function"
    },
    {
      "constant": true,
      "inputs": [
        {
          "name": "roleName",
          "type": "string"
        },
        {
          "name": "user",
          "type": "address"
        }
      ],
      "name": "checkUserRole",
      "outputs": [
        {
          "name": "",
          "type": "bool"
        }
      ],
      "payable": false,
      "stateMutability": "view",
      "type": "function"
    },
    {
      "constant": true,
      "inputs": [
        {
          "name": "roleName",
          "type": "string"
        }
      ],
      "name": "senderHasRole",
      "outputs": [
        {
          "name": "",
          "type": "bool"
        }
      ],
      "payable": false,
      "stateMutability": "view",
      "type": "function"
    },
    {
      "constant": true,
      "inputs": [],
      "name": "DATABASE_CONTRACT",
      "outputs": [
        {
          "name": "",
          "type": "address"
        }
      ],
      "payable": false,
      "stateMutability": "view",
      "type": "function"
    },
    {
      "constant": true,
      "inputs": [],
      "name": "lon",
      "outputs": [
        {
          "name": "",
          "type": "uint256"
        }
      ],
      "payable": false,
      "stateMutability": "view",
      "type": "function"
    },
    {
      "constant": true,
      "inputs": [],
      "name": "lat",
      "outputs": [
        {
          "name": "",
          "type": "uint256"
        }
      ],
      "payable": false,
      "stateMutability": "view",
      "type": "function"
    },
    {
      "constant": true,
      "inputs": [],
      "name": "PRODUCT_FACTORY",
      "outputs": [
        {
          "name": "",
          "type": "address"
        }
      ],
      "payable": false,
      "stateMutability": "view",
      "type": "function"
    },
    {
      "constant": true,
      "inputs": [],
      "name": "isConsumed",
      "outputs": [
        {
          "name": "",
          "type": "bool"
        }
      ],
      "payable": false,
      "stateMutability": "view",
      "type": "function"
    },
    {
      "constant": true,
      "inputs": [
        {
          "name": "",
          "type": "uint256"
        }
      ],
      "name": "actions",
      "outputs": [
        {
          "name": "handler",
          "type": "address"
        },
        {
          "name": "description",
          "type": "bytes32"
        },
        {
          "name": "lon",
          "type": "uint256"
        },
        {
          "name": "lat",
          "type": "uint256"
        },
        {
          "name": "timestamp",
          "type": "uint256"
        },
        {
          "name": "blockNumber",
          "type": "uint256"
        }
      ],
      "payable": false,
      "stateMutability": "view",
      "type": "function"
    },
    {
      "constant": false,
      "inputs": [
        {
          "name": "owner_",
          "type": "address"
        }
      ],
      "name": "transferOwnerShip",
      "outputs": [],
      "payable": false,
      "stateMutability": "nonpayable",
      "type": "function"
    },
    {
      "constant": true,
      "inputs": [],
      "name": "getOwner",
      "outputs": [
        {
          "name": "",
          "type": "address"
        }
      ],
      "payable": false,
      "stateMutability": "view",
      "type": "function"
    },
    {
      "constant": true,
      "inputs": [],
      "name": "owner",
      "outputs": [
        {
          "name": "",
          "type": "address"
        }
      ],
      "payable": false,
      "stateMutability": "view",
      "type": "function"
    },
    {
      "constant": true,
      "inputs": [
        {
          "name": "",
          "type": "uint256"
        }
      ],
      "name": "attributes",
      "outputs": [
        {
          "name": "attributeName",
          "type": "bytes32"
        },
        {
          "name": "value",
          "type": "uint256"
        }
      ],
      "payable": false,
      "stateMutability": "view",
      "type": "function"
    },
    {
      "constant": false,
      "inputs": [
        {
          "name": "roleName",
          "type": "string"
        },
        {
          "name": "user",
          "type": "address"
        }
      ],
      "name": "grantUserRole",
      "outputs": [],
      "payable": false,
      "stateMutability": "nonpayable",
      "type": "function"
    },
    {
      "constant": true,
      "inputs": [
        {
          "name": "",
          "type": "uint256"
        }
      ],
      "name": "parentProducts",
      "outputs": [
        {
          "name": "",
          "type": "address"
        }
      ],
      "payable": false,
      "stateMutability": "view",
      "type": "function"
    },
    {
      "inputs": [
        {
          "name": "_owner",
          "type": "address"
        },
        {
          "name": "_name",
          "type": "bytes32"
        },
        {
          "name": "_attributeName",
          "type": "bytes32[]"
        },
        {
          "name": "_values",
          "type": "uint256[]"
        },
        {
          "name": "_parentProducts",
          "type": "address[]"
        },
        {
          "name": "_lon",
          "type": "uint256"
        },
        {
          "name": "_lat",
          "type": "uint256"
        },
        {
          "name": "_DATABASE_CONTRACT",
          "type": "address"
        },
        {
          "name": "_PRODUCT_FACTORY",
          "type": "address"
        }
      ],
      "payable": false,
      "stateMutability": "nonpayable",
      "type": "constructor"
    },
    {
      "payable": false,
      "stateMutability": "nonpayable",
      "type": "fallback"
    },
    {
      "anonymous": false,
      "inputs": [
        {
          "indexed": false,
          "name": "name",
          "type": "bytes32"
        },
        {
          "indexed": false,
          "name": "owner",
          "type": "address"
        },
        {
          "indexed": false,
          "name": "attributeNames",
          "type": "bytes32[]"
        },
        {
          "indexed": false,
          "name": "values",
          "type": "uint256[]"
        },
        {
          "indexed": false,
          "name": "parentProducts",
          "type": "address[]"
        },
        {
          "indexed": false,
          "name": "lon",
          "type": "uint256"
        },
        {
          "indexed": false,
          "name": "lat",
          "type": "uint256"
        },
        {
          "indexed": false,
          "name": "PRODUCT_FACTORY",
          "type": "address"
        },
        {
          "indexed": false,
          "name": "DATABASE_CONTRACT",
          "type": "address"
        }
      ],
      "name": "ProductInfo",
      "type": "event"
    },
    {
      "constant": false,
      "inputs": [],
      "name": "logProductInfo",
      "outputs": [],
      "payable": false,
      "stateMutability": "nonpayable",
      "type": "function"
    },
    {
      "constant": false,
      "inputs": [
        {
          "name": "_attributeName",
          "type": "bytes32[]"
        },
        {
          "name": "_values",
          "type": "uint256[]"
        }
      ],
      "name": "setAttributes",
      "outputs": [],
      "payable": false,
      "stateMutability": "nonpayable",
      "type": "function"
    },
    {
      "constant": true,
      "inputs": [],
      "name": "getAttributes",
      "outputs": [
        {
          "name": "",
          "type": "bytes32[]"
        },
        {
          "name": "",
          "type": "uint256[]"
        }
      ],
      "payable": false,
      "stateMutability": "view",
      "type": "function"
    },
    {
      "constant": true,
      "inputs": [
        {
          "name": "_name",
          "type": "bytes32"
        }
      ],
      "name": "getAttributeByName",
      "outputs": [
        {
          "name": "",
          "type": "bytes32"
        },
        {
          "name": "",
          "type": "uint256"
        }
      ],
      "payable": false,
      "stateMutability": "view",
      "type": "function"
    },
    {
      "constant": true,
      "inputs": [],
      "name": "getActionCount",
      "outputs": [
        {
          "name": "",
          "type": "uint256"
        }
      ],
      "payable": false,
      "stateMutability": "view",
      "type": "function"
    },
    {
      "constant": true,
      "inputs": [
        {
          "name": "index",
          "type": "uint256"
        }
      ],
      "name": "getActionByCount",
      "outputs": [
        {
          "name": "",
          "type": "address"
        },
        {
          "name": "",
          "type": "bytes32"
        },
        {
          "name": "",
          "type": "uint256"
        },
        {
          "name": "",
          "type": "uint256"
        },
        {
          "name": "",
          "type": "uint256"
        },
        {
          "name": "",
          "type": "uint256"
        }
      ],
      "payable": false,
      "stateMutability": "view",
      "type": "function"
    },
    {
      "constant": false,
      "inputs": [
        {
          "name": "_newProductsNames",
          "type": "bytes32"
        },
        {
          "name": "description",
          "type": "bytes32"
        },
        {
          "name": "_newAttributeNames",
          "type": "bytes32[]"
        },
        {
          "name": "_newValues",
          "type": "uint256[]"
        },
        {
          "name": "lon",
          "type": "uint256"
        },
        {
          "name": "lat",
          "type": "uint256"
        },
        {
          "name": "_consumed",
          "type": "bool"
        }
      ],
      "name": "addAction",
      "outputs": [],
      "payable": false,
      "stateMutability": "nonpayable",
      "type": "function"
    },
    {
      "constant": false,
      "inputs": [
        {
          "name": "_newProductsNames",
          "type": "bytes32[]"
        },
        {
          "name": "description",
          "type": "bytes32"
        },
        {
          "name": "_newAttributeNames",
          "type": "bytes32[]"
        },
        {
          "name": "_newValues",
          "type": "uint256[]"
        },
        {
          "name": "lon",
          "type": "uint256"
        },
        {
          "name": "lat",
          "type": "uint256"
        },
        {
          "name": "_consumed",
          "type": "bool"
        }
      ],
      "name": "splitProduct",
      "outputs": [],
      "payable": false,
      "stateMutability": "nonpayable",
      "type": "function"
    },
    {
      "constant": false,
      "inputs": [
        {
          "name": "_otherProducts",
          "type": "address[]"
        },
        {
          "name": "_newProductName",
          "type": "bytes32"
        },
        {
          "name": "_newAttributeName",
          "type": "bytes32[]"
        },
        {
          "name": "_newValues",
          "type": "uint256[]"
        },
        {
          "name": "_lon",
          "type": "uint256"
        },
        {
          "name": "_lat",
          "type": "uint256"
        }
      ],
      "name": "merge",
      "outputs": [],
      "payable": false,
      "stateMutability": "nonpayable",
      "type": "function"
    },
    {
      "constant": false,
      "inputs": [
        {
          "name": "_newProductAddress",
          "type": "address"
        },
        {
          "name": "_lon",
          "type": "uint256"
        },
        {
          "name": "_lat",
          "type": "uint256"
        }
      ],
      "name": "addMergeAction",
      "outputs": [],
      "payable": false,
      "stateMutability": "nonpayable",
      "type": "function"
    }
  ],
  "bytecode": "0x60806040523480156200001157600080fd5b5060405162003556380380620035568339810180604052810190808051906020019092919080519060200190929190805182019291906020018051820192919060200180518201929190602001805190602001909291908051906020019092919080519060200190929190805190602001909291905050506200009362000795565b6000336000806101000a81548173ffffffffffffffffffffffffffffffffffffffff021916908373ffffffffffffffffffffffffffffffffffffffff1602179055508a600260006101000a81548173ffffffffffffffffffffffffffffffffffffffff021916908373ffffffffffffffffffffffffffffffffffffffff16021790555089600881600019169055506000600760006101000a81548160ff021916908315150217905550866005908051906020019062000154929190620007e5565b5088600990805190602001906200016d92919062000874565b5087600c908051906020019062000186929190620008cc565b50620001a28989620006cd640100000000026401000000009004565b82600360006101000a81548173ffffffffffffffffffffffffffffffffffffffff021916908373ffffffffffffffffffffffffffffffffffffffff16021790555085600a8190555084600b8190555083600460006101000a81548173ffffffffffffffffffffffffffffffffffffffff021916908373ffffffffffffffffffffffffffffffffffffffff16021790555033826000019073ffffffffffffffffffffffffffffffffffffffff16908173ffffffffffffffffffffffffffffffffffffffff16815250507f50726f64756374206372656174696f6e0000000000000000000000000000000082602001906000191690816000191681525050858260400181815250508482606001818152505042826080018181525050438260a0018181525050600e829080600181540180825580915050906001820390600052602060002090600602016000909192909190915060008201518160000160006101000a81548173ffffffffffffffffffffffffffffffffffffffff021916908373ffffffffffffffffffffffffffffffffffffffff1602179055506020820151816001019060001916905560408201518160020155606082015181600301556080820151816004015560a08201518160050155505050600460009054906101000a900473ffffffffffffffffffffffffffffffffffffffff1690508073ffffffffffffffffffffffffffffffffffffffff1663805593db306040518263ffffffff167c0100000000000000000000000000000000000000000000000000000000028152600401808273ffffffffffffffffffffffffffffffffffffffff1673ffffffffffffffffffffffffffffffffffffffff168152602001915050600060405180830381600087803b1580156200043757600080fd5b505af11580156200044c573d6000803e3d6000fd5b505050507f3e1affa5ee6c367ab0bc698a48e776e21f8335906e55934565f1504761f8e202600854600260009054906101000a900473ffffffffffffffffffffffffffffffffffffffff166009600c6005600a54600b54600360009054906101000a900473ffffffffffffffffffffffffffffffffffffffff16600460009054906101000a900473ffffffffffffffffffffffffffffffffffffffff16604051808a600019166000191681526020018973ffffffffffffffffffffffffffffffffffffffff1673ffffffffffffffffffffffffffffffffffffffff1681526020018060200180602001806020018881526020018781526020018673ffffffffffffffffffffffffffffffffffffffff1673ffffffffffffffffffffffffffffffffffffffff1681526020018573ffffffffffffffffffffffffffffffffffffffff1673ffffffffffffffffffffffffffffffffffffffff16815260200184810384528b8181548152602001915080548015620005ec57602002820191906000526020600020905b81546000191681526020019060010190808311620005d3575b505084810383528a81815481526020019150805480156200062d57602002820191906000526020600020905b81548152602001906001019080831162000618575b50508481038252898181548152602001915080548015620006a457602002820191906000526020600020905b8160009054906101000a900473ffffffffffffffffffffffffffffffffffffffff1673ffffffffffffffffffffffffffffffffffffffff168152602001906001019080831162000659575b50509c5050505050505050505050505060405180910390a15050505050505050505050620009b4565b600081518351141515620006e057600080fd5b600090505b82518110156200079057600d604080519081016040528085848151811015156200070b57fe5b9060200190602002015160001916815260200184848151811015156200072d57fe5b906020019060200201518152509080600181540180825580915050906001820390600052602060002090600202016000909192909190915060008201518160000190600019169055602082015181600101555050508080600101915050620006e5565b505050565b60c060405190810160405280600073ffffffffffffffffffffffffffffffffffffffff16815260200160008019168152602001600081526020016000815260200160008152602001600081525090565b82805482825590600052602060002090810192821562000861579160200282015b82811115620008605782518260006101000a81548173ffffffffffffffffffffffffffffffffffffffff021916908373ffffffffffffffffffffffffffffffffffffffff1602179055509160200191906001019062000806565b5b5090506200087091906200091e565b5090565b828054828255906000526020600020908101928215620008b9579160200282015b82811115620008b857825182906000191690559160200191906001019062000895565b5b509050620008c8919062000964565b5090565b8280548282559060005260206000209081019282156200090b579160200282015b828111156200090a578251825591602001919060010190620008ed565b5b5090506200091a91906200098c565b5090565b6200096191905b808211156200095d57600081816101000a81549073ffffffffffffffffffffffffffffffffffffffff02191690555060010162000925565b5090565b90565b6200098991905b80821115620009855760008160009055506001016200096b565b5090565b90565b620009b191905b80821115620009ad57600081600090555060010162000993565b5090565b90565b612b9280620009c46000396000f300608060405260043610610175576000357c0100000000000000000000000000000000000000000000000000000000900463ffffffff16806306fdde03146101875780630a430d89146101ba5780630b036816146102275780630c30b7e71461029057806313af40351461037557806313c90fb2146103b8578063152583de146103cf5780631b2c0f6a146104835780631b91770c1461050c5780631c432c601461061a5780631ca03b8e146106bb578063301374c61461073c5780633221be1e14610793578063400566d7146107ea5780634dee73c81461083e57806355d576cc146108695780635eecd2181461089457806363ca2ffe146108bf578063743d3f44146109165780637a0d0031146109bf57806383240f83146109ee5780638863dd1a14610a86578063893d20e814610ac95780638da5cb5b14610b205780638dfb254c14610b77578063d05dcc6a14610c0f578063d50ea76a14610c5f578063e0249d6814610ce8578063f227867f14610e02575b34801561018157600080fd5b50600080fd5b34801561019357600080fd5b5061019c610e6f565b60405180826000191660001916815260200191505060405180910390f35b3480156101c657600080fd5b506101e560048036038101908080359060200190929190505050610e75565b604051808273ffffffffffffffffffffffffffffffffffffffff1673ffffffffffffffffffffffffffffffffffffffff16815260200191505060405180910390f35b34801561023357600080fd5b506102766004803603810190808035600019169060200190929190803573ffffffffffffffffffffffffffffffffffffffff169060200190929190505050610eb3565b604051808215151515815260200191505060405180910390f35b34801561029c57600080fd5b506103736004803603810190808035600019169060200190929190803560001916906020019092919080359060200190820180359060200190808060200260200160405190810160405280939291908181526020018383602002808284378201915050505050509192919290803590602001908201803590602001908080602002602001604051908101604052809392919081815260200183836020028082843782019150505050505091929192908035906020019092919080359060200190929190803515159060200190929190505050610ee2565b005b34801561038157600080fd5b506103b6600480360381019080803573ffffffffffffffffffffffffffffffffffffffff169060200190929190505050611328565b005b3480156103c457600080fd5b506103cd6113c6565b005b3480156103db57600080fd5b506103e461162e565b604051808060200180602001838103835285818151815260200191508051906020019060200280838360005b8381101561042b578082015181840152602081019050610410565b50505050905001838103825284818151815260200191508051906020019060200280838360005b8381101561046d578082015181840152602081019050610452565b5050505090500194505050505060405180910390f35b34801561048f57600080fd5b5061050a600480360381019080803590602001908201803590602001908080601f0160208091040260200160405190810160405280939291908181526020018383808284378201915050505050509192919290803573ffffffffffffffffffffffffffffffffffffffff169060200190929190505050611754565b005b34801561051857600080fd5b50610618600480360381019080803590602001908201803590602001908080602002602001604051908101604052809392919081815260200183836020028082843782019150505050505091929192908035600019169060200190929190803590602001908201803590602001908080602002602001604051908101604052809392919081815260200183836020028082843782019150505050505091929192908035906020019082018035906020019080806020026020016040519081016040528093929190818152602001838360200280828437820191505050505050919291929080359060200190929190803590602001909291905050506118cd565b005b34801561062657600080fd5b506106a1600480360381019080803590602001908201803590602001908080601f0160208091040260200160405190810160405280939291908181526020018383808284378201915050505050509192919290803573ffffffffffffffffffffffffffffffffffffffff169060200190929190505050611d00565b604051808215151515815260200191505060405180910390f35b3480156106c757600080fd5b50610722600480360381019080803590602001908201803590602001908080601f0160208091040260200160405190810160405280939291908181526020018383808284378201915050505050509192919290505050611dd2565b604051808215151515815260200191505060405180910390f35b34801561074857600080fd5b50610751611ea3565b604051808273ffffffffffffffffffffffffffffffffffffffff1673ffffffffffffffffffffffffffffffffffffffff16815260200191505060405180910390f35b34801561079f57600080fd5b506107e8600480360381019080803573ffffffffffffffffffffffffffffffffffffffff1690602001909291908035906020019092919080359060200190929190505050611ec9565b005b3480156107f657600080fd5b5061081960048036038101908080356000191690602001909291905050506120b6565b6040518083600019166000191681526020018281526020019250505060405180910390f35b34801561084a57600080fd5b50610853612143565b6040518082815260200191505060405180910390f35b34801561087557600080fd5b5061087e612149565b6040518082815260200191505060405180910390f35b3480156108a057600080fd5b506108a961214f565b6040518082815260200191505060405180910390f35b3480156108cb57600080fd5b506108d461215c565b604051808273ffffffffffffffffffffffffffffffffffffffff1673ffffffffffffffffffffffffffffffffffffffff16815260200191505060405180910390f35b34801561092257600080fd5b506109bd6004803603810190808035906020019082018035906020019080806020026020016040519081016040528093929190818152602001838360200280828437820191505050505050919291929080359060200190820180359060200190808060200260200160405190810160405280939291908181526020018383602002808284378201915050505050509192919290505050612182565b005b3480156109cb57600080fd5b506109d4612245565b604051808215151515815260200191505060405180910390f35b3480156109fa57600080fd5b50610a1960048036038101908080359060200190929190505050612258565b604051808773ffffffffffffffffffffffffffffffffffffffff1673ffffffffffffffffffffffffffffffffffffffff1681526020018660001916600019168152602001858152602001848152602001838152602001828152602001965050505050505060405180910390f35b348015610a9257600080fd5b50610ac7600480360381019080803573ffffffffffffffffffffffffffffffffffffffff1690602001909291905050506122c3565b005b348015610ad557600080fd5b50610ade612361565b604051808273ffffffffffffffffffffffffffffffffffffffff1673ffffffffffffffffffffffffffffffffffffffff16815260200191505060405180910390f35b348015610b2c57600080fd5b50610b3561238a565b604051808273ffffffffffffffffffffffffffffffffffffffff1673ffffffffffffffffffffffffffffffffffffffff16815260200191505060405180910390f35b348015610b8357600080fd5b50610ba2600480360381019080803590602001909291905050506123b0565b604051808773ffffffffffffffffffffffffffffffffffffffff1673ffffffffffffffffffffffffffffffffffffffff1681526020018660001916600019168152602001858152602001848152602001838152602001828152602001965050505050505060405180910390f35b348015610c1b57600080fd5b50610c3a600480360381019080803590602001909291905050506124b4565b6040518083600019166000191681526020018281526020019250505060405180910390f35b348015610c6b57600080fd5b50610ce6600480360381019080803590602001908201803590602001908080601f0160208091040260200160405190810160405280939291908181526020018383808284378201915050505050509192919290803573ffffffffffffffffffffffffffffffffffffffff1690602001909291905050506124e7565b005b348015610cf457600080fd5b50610e006004803603810190808035906020019082018035906020019080806020026020016040519081016040528093929190818152602001838360200280828437820191505050505050919291929080356000191690602001909291908035906020019082018035906020019080806020026020016040519081016040528093929190818152602001838360200280828437820191505050505050919291929080359060200190820180359060200190808060200260200160405190810160405280939291908181526020018383602002808284378201915050505050509192919290803590602001909291908035906020019092919080351515906020019092919050505061265f565b005b348015610e0e57600080fd5b50610e2d60048036038101908080359060200190929190505050612ad8565b604051808273ffffffffffffffffffffffffffffffffffffffff1673ffffffffffffffffffffffffffffffffffffffff16815260200191505060405180910390f35b60085481565b600681815481101515610e8457fe5b906000526020600020016000915054906101000a900473ffffffffffffffffffffffffffffffffffffffff1681565b60016020528160005260406000206020528060005260406000206000915091509054906101000a900460ff1681565b610eea612b16565b60006060600760009054906101000a900460ff1615610f0857600080fd5b610f128888612182565b33836000019073ffffffffffffffffffffffffffffffffffffffff16908173ffffffffffffffffffffffffffffffffffffffff16815250508883602001906000191690816000191681525050858360400181815250508483606001818152505042836080018181525050438360a0018181525050600e839080600181540180825580915050906001820390600052602060002090600602016000909192909190915060008201518160000160006101000a81548173ffffffffffffffffffffffffffffffffffffffff021916908373ffffffffffffffffffffffffffffffffffffffff1602179055506020820151816001019060001916905560408201518160020155606082015181600301556080820151816004015560a08201518160050155505050600360009054906101000a900473ffffffffffffffffffffffffffffffffffffffff169150600160405190808252806020026020018201604052801561108b5781602001602082028038833980820191505090505b5090503081600081518110151561109e57fe5b9060200190602002019073ffffffffffffffffffffffffffffffffffffffff16908173ffffffffffffffffffffffffffffffffffffffff16815250508173ffffffffffffffffffffffffffffffffffffffff166370233fde338c8b8b868c8c600460009054906101000a900473ffffffffffffffffffffffffffffffffffffffff166040518963ffffffff167c0100000000000000000000000000000000000000000000000000000000028152600401808973ffffffffffffffffffffffffffffffffffffffff1673ffffffffffffffffffffffffffffffffffffffff16815260200188600019166000191681526020018060200180602001806020018781526020018681526020018573ffffffffffffffffffffffffffffffffffffffff1673ffffffffffffffffffffffffffffffffffffffff16815260200184810384528a818151815260200191508051906020019060200280838360005b838110156112145780820151818401526020810190506111f9565b50505050905001848103835289818151815260200191508051906020019060200280838360005b8381101561125657808201518184015260208101905061123b565b50505050905001848103825288818151815260200191508051906020019060200280838360005b8381101561129857808201518184015260208101905061127d565b505050509050019b505050505050505050505050602060405180830381600087803b1580156112c657600080fd5b505af11580156112da573d6000803e3d6000fd5b505050506040513d60208110156112f057600080fd5b81019080805190602001909291905050505083600760006101000a81548160ff02191690831515021790555050505050505050505050565b6000809054906101000a900473ffffffffffffffffffffffffffffffffffffffff1673ffffffffffffffffffffffffffffffffffffffff163373ffffffffffffffffffffffffffffffffffffffff1614151561138357600080fd5b806000806101000a81548173ffffffffffffffffffffffffffffffffffffffff021916908373ffffffffffffffffffffffffffffffffffffffff16021790555050565b7f3e1affa5ee6c367ab0bc698a48e776e21f8335906e55934565f1504761f8e202600854600260009054906101000a900473ffffffffffffffffffffffffffffffffffffffff166009600c6005600a54600b54600360009054906101000a900473ffffffffffffffffffffffffffffffffffffffff16600460009054906101000a900473ffffffffffffffffffffffffffffffffffffffff16604051808a600019166000191681526020018973ffffffffffffffffffffffffffffffffffffffff1673ffffffffffffffffffffffffffffffffffffffff1681526020018060200180602001806020018881526020018781526020018673ffffffffffffffffffffffffffffffffffffffff1673ffffffffffffffffffffffffffffffffffffffff1681526020018573ffffffffffffffffffffffffffffffffffffffff1673ffffffffffffffffffffffffffffffffffffffff16815260200184810384528b818154815260200191508054801561156057602002820191906000526020600020905b81546000191681526020019060010190808311611548575b505084810383528a818154815260200191508054801561159f57602002820191906000526020600020905b81548152602001906001019080831161158b575b5050848103825289818154815260200191508054801561161457602002820191906000526020600020905b8160009054906101000a900473ffffffffffffffffffffffffffffffffffffffff1673ffffffffffffffffffffffffffffffffffffffff16815260200190600101908083116115ca575b50509c5050505050505050505050505060405180910390a1565b6060806060806000600d8054905060405190808252806020026020018201604052801561166a5781602001602082028038833980820191505090505b509250600d805490506040519080825280602002602001820160405280156116a15781602001602082028038833980820191505090505b509150600090505b600d8054905081101561174757600d818154811015156116c557fe5b90600052602060002090600202016000015483828151811015156116e557fe5b906020019060200201906000191690816000191681525050600d8181548110151561170c57fe5b906000526020600020906002020160010154828281518110151561172c57fe5b906020019060200201818152505080806001019150506116a9565b8282945094505050509091565b6040805190810160405280600581526020017f61646d696e0000000000000000000000000000000000000000000000000000008152506000809054906101000a900473ffffffffffffffffffffffffffffffffffffffff1673ffffffffffffffffffffffffffffffffffffffff163373ffffffffffffffffffffffffffffffffffffffff1614806117ea57506117e981611dd2565b5b15156117f557600080fd5b600060016000856040518082805190602001908083835b602083101515611831578051825260208201915060208101905060208303925061180c565b6001836020036101000a03801982511681845116808217855250505050505090500191505060405180910390206000191660001916815260200190815260200160002060008473ffffffffffffffffffffffffffffffffffffffff1673ffffffffffffffffffffffffffffffffffffffff16815260200190815260200160002060006101000a81548160ff021916908315150217905550505050565b600080600080600760009054906101000a900460ff16156118ed57600080fd5b600360009054906101000a900473ffffffffffffffffffffffffffffffffffffffff1693508373ffffffffffffffffffffffffffffffffffffffff166370233fde338b8b8b8f8c8c600460009054906101000a900473ffffffffffffffffffffffffffffffffffffffff166040518963ffffffff167c0100000000000000000000000000000000000000000000000000000000028152600401808973ffffffffffffffffffffffffffffffffffffffff1673ffffffffffffffffffffffffffffffffffffffff16815260200188600019166000191681526020018060200180602001806020018781526020018681526020018573ffffffffffffffffffffffffffffffffffffffff1673ffffffffffffffffffffffffffffffffffffffff16815260200184810384528a818151815260200191508051906020019060200280838360005b83811015611a4c578082015181840152602081019050611a31565b50505050905001848103835289818151815260200191508051906020019060200280838360005b83811015611a8e578082015181840152602081019050611a73565b50505050905001848103825288818151815260200191508051906020019060200280838360005b83811015611ad0578082015181840152602081019050611ab5565b505050509050019b505050505050505050505050602060405180830381600087803b158015611afe57600080fd5b505af1158015611b12573d6000803e3d6000fd5b505050506040513d6020811015611b2857600080fd5b810190808051906020019092919050505092503073ffffffffffffffffffffffffffffffffffffffff16633221be1e8488886040518463ffffffff167c0100000000000000000000000000000000000000000000000000000000028152600401808473ffffffffffffffffffffffffffffffffffffffff1673ffffffffffffffffffffffffffffffffffffffff1681526020018381526020018281526020019350505050600060405180830381600087803b158015611be657600080fd5b505af1158015611bfa573d6000803e3d6000fd5b50505050600091505b8951821015611cf4578982815181101515611c1a57fe5b9060200190602002015190508073ffffffffffffffffffffffffffffffffffffffff16633221be1e8488886040518463ffffffff167c0100000000000000000000000000000000000000000000000000000000028152600401808473ffffffffffffffffffffffffffffffffffffffff1673ffffffffffffffffffffffffffffffffffffffff1681526020018381526020018281526020019350505050600060405180830381600087803b158015611cd157600080fd5b505af1158015611ce5573d6000803e3d6000fd5b50505050816001019150611c03565b50505050505050505050565b600060016000846040518082805190602001908083835b602083101515611d3c5780518252602082019150602081019050602083039250611d17565b6001836020036101000a03801982511681845116808217855250505050505090500191505060405180910390206000191660001916815260200190815260200160002060008373ffffffffffffffffffffffffffffffffffffffff1673ffffffffffffffffffffffffffffffffffffffff16815260200190815260200160002060009054906101000a900460ff16905092915050565b600060016000836040518082805190602001908083835b602083101515611e0e5780518252602082019150602081019050602083039250611de9565b6001836020036101000a03801982511681845116808217855250505050505090500191505060405180910390206000191660001916815260200190815260200160002060003373ffffffffffffffffffffffffffffffffffffffff1673ffffffffffffffffffffffffffffffffffffffff16815260200190815260200160002060009054906101000a900460ff169050919050565b600460009054906101000a900473ffffffffffffffffffffffffffffffffffffffff1681565b611ed1612b16565b600760009054906101000a900460ff1615611eeb57600080fd5b60068490806001815401808255809150509060018203906000526020600020016000909192909190916101000a81548173ffffffffffffffffffffffffffffffffffffffff021916908373ffffffffffffffffffffffffffffffffffffffff1602179055505030816000019073ffffffffffffffffffffffffffffffffffffffff16908173ffffffffffffffffffffffffffffffffffffffff16815250507f4d65726765207468652070726f6475637420616e6420637265617465206e657781602001906000191690816000191681525050828160400181815250508181606001818152505042816080018181525050438160a0018181525050600e819080600181540180825580915050906001820390600052602060002090600602016000909192909190915060008201518160000160006101000a81548173ffffffffffffffffffffffffffffffffffffffff021916908373ffffffffffffffffffffffffffffffffffffffff1602179055506020820151816001019060001916905560408201518160020155606082015181600301556080820151816004015560a082015181600501555050506001600760006101000a81548160ff02191690831515021790555050505050565b60008060008060008090505b600d8054905081101561213a578560001916600d828154811015156120e357fe5b90600052602060002090600202016000015460001916141561212d57600d8181548110151561210e57fe5b906000526020600020906002020160010154915085829450945061213b565b80806001019150506120c2565b5b505050915091565b600a5481565b600b5481565b6000600e80549050905090565b600360009054906101000a900473ffffffffffffffffffffffffffffffffffffffff1681565b60008151835114151561219457600080fd5b600090505b825181101561224057600d604080519081016040528085848151811015156121bd57fe5b9060200190602002015160001916815260200184848151811015156121de57fe5b906020019060200201518152509080600181540180825580915050906001820390600052602060002090600202016000909192909190915060008201518160000190600019169055602082015181600101555050508080600101915050612199565b505050565b600760009054906101000a900460ff1681565b600e8181548110151561226757fe5b90600052602060002090600602016000915090508060000160009054906101000a900473ffffffffffffffffffffffffffffffffffffffff16908060010154908060020154908060030154908060040154908060050154905086565b6000809054906101000a900473ffffffffffffffffffffffffffffffffffffffff1673ffffffffffffffffffffffffffffffffffffffff163373ffffffffffffffffffffffffffffffffffffffff1614151561231e57600080fd5b806000806101000a81548173ffffffffffffffffffffffffffffffffffffffff021916908373ffffffffffffffffffffffffffffffffffffffff16021790555050565b60008060009054906101000a900473ffffffffffffffffffffffffffffffffffffffff16905090565b600260009054906101000a900473ffffffffffffffffffffffffffffffffffffffff1681565b600080600080600080600e878154811015156123c857fe5b906000526020600020906006020160000160009054906101000a900473ffffffffffffffffffffffffffffffffffffffff16600e8881548110151561240957fe5b906000526020600020906006020160010154600e8981548110151561242a57fe5b906000526020600020906006020160020154600e8a81548110151561244b57fe5b906000526020600020906006020160030154600e8b81548110151561246c57fe5b906000526020600020906006020160040154600e8c81548110151561248d57fe5b90600052602060002090600602016005015495509550955095509550955091939550919395565b600d818154811015156124c357fe5b90600052602060002090600202016000915090508060000154908060010154905082565b6040805190810160405280600581526020017f61646d696e0000000000000000000000000000000000000000000000000000008152506000809054906101000a900473ffffffffffffffffffffffffffffffffffffffff1673ffffffffffffffffffffffffffffffffffffffff163373ffffffffffffffffffffffffffffffffffffffff16148061257d575061257c81611dd2565b5b151561258857600080fd5b6001806000856040518082805190602001908083835b6020831015156125c3578051825260208201915060208101905060208303925061259e565b6001836020036101000a03801982511681845116808217855250505050505090500191505060405180910390206000191660001916815260200190815260200160002060008473ffffffffffffffffffffffffffffffffffffffff1673ffffffffffffffffffffffffffffffffffffffff16815260200190815260200160002060006101000a81548160ff021916908315150217905550505050565b612667612b16565b600060606000600760009054906101000a900460ff161561268757600080fd5b33846000019073ffffffffffffffffffffffffffffffffffffffff16908173ffffffffffffffffffffffffffffffffffffffff168152505089846020019060001916908160001916815250506126dd8989612182565b868460400181815250508584606001818152505042846080018181525050438460a0018181525050600e849080600181540180825580915050906001820390600052602060002090600602016000909192909190915060008201518160000160006101000a81548173ffffffffffffffffffffffffffffffffffffffff021916908373ffffffffffffffffffffffffffffffffffffffff1602179055506020820151816001019060001916905560408201518160020155606082015181600301556080820151816004015560a08201518160050155505050600360009054906101000a900473ffffffffffffffffffffffffffffffffffffffff169250600160405190808252806020026020018201604052801561280a5781602001602082028038833980820191505090505b5091503082600081518110151561281d57fe5b9060200190602002019073ffffffffffffffffffffffffffffffffffffffff16908173ffffffffffffffffffffffffffffffffffffffff1681525050600090505b8a51811015612ab1578273ffffffffffffffffffffffffffffffffffffffff166370233fde338d8481518110151561289257fe5b906020019060200201518c8c878d8d600460009054906101000a900473ffffffffffffffffffffffffffffffffffffffff166040518963ffffffff167c0100000000000000000000000000000000000000000000000000000000028152600401808973ffffffffffffffffffffffffffffffffffffffff1673ffffffffffffffffffffffffffffffffffffffff16815260200188600019166000191681526020018060200180602001806020018781526020018681526020018573ffffffffffffffffffffffffffffffffffffffff1673ffffffffffffffffffffffffffffffffffffffff16815260200184810384528a818151815260200191508051906020019060200280838360005b838110156129b857808201518184015260208101905061299d565b50505050905001848103835289818151815260200191508051906020019060200280838360005b838110156129fa5780820151818401526020810190506129df565b50505050905001848103825288818151815260200191508051906020019060200280838360005b83811015612a3c578082015181840152602081019050612a21565b505050509050019b505050505050505050505050602060405180830381600087803b158015612a6a57600080fd5b505af1158015612a7e573d6000803e3d6000fd5b505050506040513d6020811015612a9457600080fd5b81019080805190602001909291905050505080600101905061285e565b84600760006101000a81548160ff0219169083151502179055505050505050505050505050565b600581815481101515612ae757fe5b906000526020600020016000915054906101000a900473ffffffffffffffffffffffffffffffffffffffff1681565b60c060405190810160405280600073ffffffffffffffffffffffffffffffffffffffff168152602001600080191681526020016000815260200160008152602001600081526020016000815250905600a165627a7a72305820f186ab014632b0bfa68b0959a4a46b6ab2184b2ad899ac1053294fdcebf2a3000029",
  "source": "pragma solidity ^0.4.16;\nimport \"./authority/Owned.sol\";\nimport \"./Database.sol\";\nimport \"./authority/Roles.sol\";\n\ncontract Product is Roles{\n    \n    address public owner;\n    address public PRODUCT_FACTORY;\n    address public DATABASE_CONTRACT;\n    address[] public parentProducts;\n    address[] public childProducts;\n    \n    bool public isConsumed;\n    bytes32 public name;\n    bytes32 [] attributeNames;\n    uint public lon;\n    uint public lat;\n    uint [] values;\n    \n    \n    Attribute [] public attributes;\n    Action[] public actions;\n    \n    struct Action {\n        address handler;\n        bytes32 description;\n        uint lon;\n        uint lat;\n        uint timestamp;\n        uint blockNumber;\n    }\n\n    struct Attribute {\n        bytes32 attributeName;\n        uint value;\n    }\n    \n\n    event ProductInfo(\n        bytes32 name, \n        address owner,\n        bytes32[] attributeNames, \n        uint[] values, \n        address[] parentProducts,\n        uint lon,\n        uint lat,\n        address PRODUCT_FACTORY,\n        address DATABASE_CONTRACT\n        ) ;\n    \n\n    modifier notConsumed {\n        if (isConsumed)\n            throw;\n        _;\n    }\n    function () {\n            // If anyone wants to send Ether to this contract, the transaction gets rejected\n            throw;\n        }\n\n    \n    function Product(address _owner, \n        bytes32 _name, \n        bytes32[] _attributeName, \n        uint[] _values, \n        address[] _parentProducts, \n        uint _lon, \n        uint _lat ,\n        address _DATABASE_CONTRACT,\n        address _PRODUCT_FACTORY) {\n\n        owner = _owner;\n        name = _name;\n        isConsumed = false;\n        parentProducts = _parentProducts;\n        attributeNames = _attributeName;\n        values = _values;\n        setAttributes(_attributeName,_values);\n        PRODUCT_FACTORY = _PRODUCT_FACTORY;\n        lon = _lon;\n        lat = _lat;\n        DATABASE_CONTRACT = _DATABASE_CONTRACT;\n      \n        Action memory firstCreate;\n        firstCreate.handler = msg.sender;\n        firstCreate.description = \"Product creation\";\n        firstCreate.lon = _lon;\n        firstCreate.lat = _lat;\n        firstCreate.timestamp = now;\n        firstCreate.blockNumber = block.number;\n        actions.push(firstCreate);\n     \n        Database database = Database(DATABASE_CONTRACT);\n        database.storeProductReference(this);\n        \n        ProductInfo( name,\n            owner,\n            attributeNames,\n            values,\n            parentProducts,\n            lon,\n            lat,\n            PRODUCT_FACTORY,\n            DATABASE_CONTRACT);\n    }\n     \n    function logProductInfo(){\n        ProductInfo( name,\n            owner,\n            attributeNames,\n            values,\n            parentProducts,\n            lon,\n            lat,\n            PRODUCT_FACTORY,\n            DATABASE_CONTRACT);\n        \n    }\n    \n    function setAttributes(bytes32 [] _attributeName, uint [] _values)   {\n        if (_attributeName.length != _values.length) throw;\n        for (uint i = 0; i < _attributeName.length; i++) {\n            attributes.push(Attribute(_attributeName[i], _values[i]));\n        }\n    }\n\n    function getAttributes() constant returns (bytes32 [], uint []) {\n        bytes32 [] memory attributeNames = new bytes32[](attributes.length);\n        uint [] memory values = new uint[](attributes.length);\n        for (uint i = 0; i < attributes.length; i++) {\n            attributeNames[i] = attributes[i].attributeName;\n            values[i] = attributes[i].value;\n        }\n        return (attributeNames,values);\n    }\n\n    function getAttributeByName(bytes32 _name) constant returns (bytes32 , uint ) {\n        bytes32 name;\n        uint value;\n        for (uint i = 0; i < attributes.length; i++) {\n            if(attributes[i].attributeName == _name){\n                value = attributes[i].value;\n                return (_name,value);\n            }\n        }\n    }\n\n    \n    function getActionCount() public constant returns(uint) {\n        return actions.length;\n    }\n    \n    \n    \n    function getActionByCount(uint index) public constant returns(address, bytes32, uint,uint,uint,uint) {\n        return (actions[index].handler, actions[index].description, actions[index].lon, actions[index].lat, actions[index].timestamp,actions[index].blockNumber);\n    }\n  \n\n    function addAction( bytes32 _newProductsNames, \n        bytes32 description, bytes32 []_newAttributeNames,\n        uint[] _newValues,\n        uint lon, \n        uint lat, \n        bool _consumed) notConsumed {\n\n        setAttributes(_newAttributeNames,_newValues);\n    \n        \n        Action memory anyAction;\n        anyAction.handler = msg.sender;\n        anyAction.description = description;\n        anyAction.lon = lon;\n        anyAction.lat = lat;\n        anyAction.timestamp = now;\n        anyAction.blockNumber = block.number;\n\n        actions.push(anyAction);\n\n\n        ProductFactory productFactory = ProductFactory(PRODUCT_FACTORY);\n\n        address[] memory parentProducts = new address[](1);\n        parentProducts[0] = this;\n        productFactory.createProduct(msg.sender,_newProductsNames, _newAttributeNames,_newValues, parentProducts, lon, lat, DATABASE_CONTRACT);\n        isConsumed = _consumed;\n    }\n    \n    function splitProduct( bytes32[] _newProductsNames, bytes32 description, bytes32 []_newAttributeNames,uint[] _newValues,uint lon, uint lat, bool _consumed) notConsumed {\n\n\n        Action memory split;\n        split.handler = msg.sender;\n        split.description = description;\n        setAttributes(_newAttributeNames,_newValues);\n        split.lon = lon;\n        split.lat = lat;\n        split.timestamp = now;\n        split.blockNumber = block.number;\n\n        actions.push(split);\n\n        ProductFactory productFactory = ProductFactory(PRODUCT_FACTORY);\n        address[] memory parentProducts = new address[](1);\n        parentProducts[0] = this;\n        for (uint i = 0; i < _newProductsNames.length; ++i) {\n            productFactory.createProduct( msg.sender, _newProductsNames[i], _newAttributeNames,_newValues, parentProducts, lon, lat, DATABASE_CONTRACT);\n        }\n\n\n        isConsumed = _consumed;\n    }\n    \n\n    function merge(address[] _otherProducts, bytes32 _newProductName, bytes32[] _newAttributeName, uint[] _newValues, uint _lon, uint _lat) notConsumed {\n        ProductFactory productFactory = ProductFactory(PRODUCT_FACTORY);\n        address _newProduct = productFactory.createProduct(msg.sender,_newProductName, _newAttributeName,  _newValues, _otherProducts, _lon, _lat,DATABASE_CONTRACT);\n\n        this.addMergeAction(_newProduct, _lon, _lat);\n        for (uint i = 0; i < _otherProducts.length; ++i) {\n            Product prod = Product(_otherProducts[i]);\n            prod.addMergeAction(_newProduct, _lon, _lat);\n        }\n    }\n\n    function addMergeAction(address _newProductAddress, uint _lon, uint _lat) notConsumed {\n        childProducts.push(_newProductAddress);\n\n        Action memory merge;\n        merge.handler = this;\n        merge.description = \"Merge the product and create new\";\n        merge.lon = _lon;\n        merge.lat = _lat;\n        merge.timestamp = now;\n        merge.blockNumber = block.number;\n        actions.push(merge);\n\n       isConsumed = true;\n    }\n\n  \n}\n\ncontract ProductFactory is Roles{\n    address public owner;\n    \n\n    function ProductFactory() {\n        owner=msg.sender;\n    }\n\n    function () {\n        // If anyone wants to send Ether to this contract, the transaction gets rejected\n        throw;\n    }\n  \n\n    function createProduct(\n        address _owner ,\n        bytes32 _name, \n        bytes32[] _newAttributeName, \n        uint [] _newValues, \n        address[] _parentProducts, \n        uint _lon, \n        uint _lat, \n        address DATABASE_CONTRACT)  returns(address) {\n        return new Product(_owner,_name, _newAttributeName,  _newValues, _parentProducts, _lon, _lat, DATABASE_CONTRACT, this);\n    }\n}\n",
  "sourcePath": "/Users/hao/onedrive/OneDrive - The University of Melbourne/project/Product_passport/contracts/Product.sol",
  "compiler": {
    "name": "solc",
    "version": "0.4.23+commit.124ca40d.Emscripten.clang"
  },
  "schemaVersion": "2.0.0",
  "updatedAt": "2018-06-03T21:24:08.575Z"
}