{
  "contractName": "Product",
  "abi": [
    {
      "constant": true,
      "inputs": [],
      "name": "name",
      "outputs": [
        {
          "name": "",
          "type": "bytes32"
        }
      ],
      "payable": false,
      "stateMutability": "view",
      "type": "function"
    },
    {
      "constant": true,
      "inputs": [
        {
          "name": "",
          "type": "uint256"
        }
      ],
      "name": "childProducts",
      "outputs": [
        {
          "name": "",
          "type": "address"
        }
      ],
      "payable": false,
      "stateMutability": "view",
      "type": "function"
    },
    {
      "constant": true,
      "inputs": [],
      "name": "DATABASE_CONTRACT",
      "outputs": [
        {
          "name": "",
          "type": "address"
        }
      ],
      "payable": false,
      "stateMutability": "view",
      "type": "function"
    },
    {
      "constant": true,
      "inputs": [],
      "name": "lon",
      "outputs": [
        {
          "name": "",
          "type": "uint256"
        }
      ],
      "payable": false,
      "stateMutability": "view",
      "type": "function"
    },
    {
      "constant": true,
      "inputs": [],
      "name": "lat",
      "outputs": [
        {
          "name": "",
          "type": "uint256"
        }
      ],
      "payable": false,
      "stateMutability": "view",
      "type": "function"
    },
    {
      "constant": true,
      "inputs": [],
      "name": "PRODUCT_FACTORY",
      "outputs": [
        {
          "name": "",
          "type": "address"
        }
      ],
      "payable": false,
      "stateMutability": "view",
      "type": "function"
    },
    {
      "constant": true,
      "inputs": [
        {
          "name": "",
          "type": "uint256"
        }
      ],
      "name": "measurements",
      "outputs": [
        {
          "name": "",
          "type": "address"
        }
      ],
      "payable": false,
      "stateMutability": "view",
      "type": "function"
    },
    {
      "constant": true,
      "inputs": [],
      "name": "isConsumed",
      "outputs": [
        {
          "name": "",
          "type": "bool"
        }
      ],
      "payable": false,
      "stateMutability": "view",
      "type": "function"
    },
    {
      "constant": true,
      "inputs": [
        {
          "name": "",
          "type": "uint256"
        }
      ],
      "name": "actions",
      "outputs": [
        {
          "name": "handler",
          "type": "address"
        },
        {
          "name": "description",
          "type": "bytes32"
        },
        {
          "name": "lon",
          "type": "uint256"
        },
        {
          "name": "lat",
          "type": "uint256"
        },
        {
          "name": "timestamp",
          "type": "uint256"
        },
        {
          "name": "blockNumber",
          "type": "uint256"
        }
      ],
      "payable": false,
      "stateMutability": "view",
      "type": "function"
    },
    {
      "constant": true,
      "inputs": [
        {
          "name": "",
          "type": "uint256"
        }
      ],
      "name": "attributes",
      "outputs": [
        {
          "name": "attributeName",
          "type": "bytes32"
        },
        {
          "name": "value",
          "type": "uint256"
        }
      ],
      "payable": false,
      "stateMutability": "view",
      "type": "function"
    },
    {
      "constant": true,
      "inputs": [
        {
          "name": "",
          "type": "uint256"
        }
      ],
      "name": "parentProducts",
      "outputs": [
        {
          "name": "",
          "type": "address"
        }
      ],
      "payable": false,
      "stateMutability": "view",
      "type": "function"
    },
    {
      "inputs": [
        {
          "name": "_name",
          "type": "bytes32"
        },
        {
          "name": "_attributeName",
          "type": "bytes32[]"
        },
        {
          "name": "_values",
          "type": "uint256[]"
        },
        {
          "name": "_parentProducts",
          "type": "address[]"
        },
        {
          "name": "_lon",
          "type": "uint256"
        },
        {
          "name": "_lat",
          "type": "uint256"
        },
        {
          "name": "_DATABASE_CONTRACT",
          "type": "address"
        },
        {
          "name": "_PRODUCT_FACTORY",
          "type": "address"
        }
      ],
      "payable": false,
      "stateMutability": "nonpayable",
      "type": "constructor"
    },
    {
      "payable": false,
      "stateMutability": "nonpayable",
      "type": "fallback"
    },
    {
      "anonymous": false,
      "inputs": [
        {
          "indexed": false,
          "name": "name",
          "type": "bytes32"
        },
        {
          "indexed": false,
          "name": "attributeNames",
          "type": "bytes32[]"
        },
        {
          "indexed": false,
          "name": "values",
          "type": "uint256[]"
        },
        {
          "indexed": false,
          "name": "parentProducts",
          "type": "address[]"
        },
        {
          "indexed": false,
          "name": "lon",
          "type": "uint256"
        },
        {
          "indexed": false,
          "name": "lat",
          "type": "uint256"
        },
        {
          "indexed": false,
          "name": "PRODUCT_FACTORY",
          "type": "address"
        },
        {
          "indexed": false,
          "name": "DATABASE_CONTRACT",
          "type": "address"
        }
      ],
      "name": "ProductInfo",
      "type": "event"
    },
    {
      "constant": false,
      "inputs": [
        {
          "name": "_attributeName",
          "type": "bytes32[]"
        },
        {
          "name": "_values",
          "type": "uint256[]"
        }
      ],
      "name": "setAttributes",
      "outputs": [],
      "payable": false,
      "stateMutability": "nonpayable",
      "type": "function"
    },
    {
      "constant": true,
      "inputs": [],
      "name": "getAttributes",
      "outputs": [
        {
          "name": "",
          "type": "bytes32[]"
        },
        {
          "name": "",
          "type": "uint256[]"
        }
      ],
      "payable": false,
      "stateMutability": "view",
      "type": "function"
    },
    {
      "constant": true,
      "inputs": [
        {
          "name": "_name",
          "type": "bytes32"
        }
      ],
      "name": "getAttributeByName",
      "outputs": [
        {
          "name": "",
          "type": "bytes32"
        },
        {
          "name": "",
          "type": "uint256"
        }
      ],
      "payable": false,
      "stateMutability": "view",
      "type": "function"
    },
    {
      "constant": true,
      "inputs": [],
      "name": "getAttributeNames",
      "outputs": [
        {
          "name": "",
          "type": "bytes32[]"
        }
      ],
      "payable": false,
      "stateMutability": "view",
      "type": "function"
    },
    {
      "constant": true,
      "inputs": [],
      "name": "getAttributeValues",
      "outputs": [
        {
          "name": "",
          "type": "uint256[]"
        }
      ],
      "payable": false,
      "stateMutability": "view",
      "type": "function"
    },
    {
      "constant": false,
      "inputs": [],
      "name": "logProductInfo",
      "outputs": [],
      "payable": false,
      "stateMutability": "nonpayable",
      "type": "function"
    },
    {
      "constant": false,
      "inputs": [
        {
          "name": "_newProductsNames",
          "type": "bytes32"
        },
        {
          "name": "description",
          "type": "bytes32"
        },
        {
          "name": "_newAttributeNames",
          "type": "bytes32[]"
        },
        {
          "name": "_newValues",
          "type": "uint256[]"
        },
        {
          "name": "lon",
          "type": "uint256"
        },
        {
          "name": "lat",
          "type": "uint256"
        },
        {
          "name": "_consumed",
          "type": "bool"
        }
      ],
      "name": "addAction",
      "outputs": [],
      "payable": false,
      "stateMutability": "nonpayable",
      "type": "function"
    },
    {
      "constant": false,
      "inputs": [
        {
          "name": "otherProducts",
          "type": "address[]"
        },
        {
          "name": "newProductName",
          "type": "bytes32"
        },
        {
          "name": "_newAttributeName",
          "type": "bytes32[]"
        },
        {
          "name": "_newValues",
          "type": "uint256[]"
        },
        {
          "name": "lon",
          "type": "uint256"
        },
        {
          "name": "lat",
          "type": "uint256"
        }
      ],
      "name": "merge",
      "outputs": [],
      "payable": false,
      "stateMutability": "nonpayable",
      "type": "function"
    },
    {
      "constant": false,
      "inputs": [
        {
          "name": "newProductAddress",
          "type": "address"
        },
        {
          "name": "lon",
          "type": "uint256"
        },
        {
          "name": "lat",
          "type": "uint256"
        }
      ],
      "name": "collaborateInMerge",
      "outputs": [],
      "payable": false,
      "stateMutability": "nonpayable",
      "type": "function"
    },
    {
      "constant": false,
      "inputs": [],
      "name": "consume",
      "outputs": [],
      "payable": false,
      "stateMutability": "nonpayable",
      "type": "function"
    }
  ],
  "bytecode": "0x60806040523480156200001157600080fd5b506040516200228438038062002284833981018060405281019080805190602001909291908051820192919060200180518201929190602001805182019291906020018051906020019092919080519060200190929190805190602001909291908051906020019092919050505062000089620003b9565b600089600881600019169055506000600760006101000a81548160ff0219169083151502179055508660059080519060200190620000c992919062000409565b5088600b9080519060200190620000e292919062000498565b5087600c9080519060200190620000fb929190620004f0565b50826000806101000a81548173ffffffffffffffffffffffffffffffffffffffff021916908373ffffffffffffffffffffffffffffffffffffffff1602179055508560098190555084600a8190555083600160006101000a81548173ffffffffffffffffffffffffffffffffffffffff021916908373ffffffffffffffffffffffffffffffffffffffff16021790555033826000019073ffffffffffffffffffffffffffffffffffffffff16908173ffffffffffffffffffffffffffffffffffffffff16815250507f50726f64756374206372656174696f6e0000000000000000000000000000000082602001906000191690816000191681525050858260400181815250508482606001818152505042826080018181525050438260a00181815250506004829080600181540180825580915050906001820390600052602060002090600602016000909192909190915060008201518160000160006101000a81548173ffffffffffffffffffffffffffffffffffffffff021916908373ffffffffffffffffffffffffffffffffffffffff1602179055506020820151816001019060001916905560408201518160020155606082015181600301556080820151816004015560a08201518160050155505050600160009054906101000a900473ffffffffffffffffffffffffffffffffffffffff1690508073ffffffffffffffffffffffffffffffffffffffff1663805593db306040518263ffffffff167c0100000000000000000000000000000000000000000000000000000000028152600401808273ffffffffffffffffffffffffffffffffffffffff1673ffffffffffffffffffffffffffffffffffffffff168152602001915050600060405180830381600087803b1580156200039057600080fd5b505af1158015620003a5573d6000803e3d6000fd5b5050505050505050505050505050620005d8565b60c060405190810160405280600073ffffffffffffffffffffffffffffffffffffffff16815260200160008019168152602001600081526020016000815260200160008152602001600081525090565b82805482825590600052602060002090810192821562000485579160200282015b82811115620004845782518260006101000a81548173ffffffffffffffffffffffffffffffffffffffff021916908373ffffffffffffffffffffffffffffffffffffffff160217905550916020019190600101906200042a565b5b50905062000494919062000542565b5090565b828054828255906000526020600020908101928215620004dd579160200282015b82811115620004dc578251829060001916905591602001919060010190620004b9565b5b509050620004ec919062000588565b5090565b8280548282559060005260206000209081019282156200052f579160200282015b828111156200052e57825182559160200191906001019062000511565b5b5090506200053e9190620005b0565b5090565b6200058591905b808211156200058157600081816101000a81549073ffffffffffffffffffffffffffffffffffffffff02191690555060010162000549565b5090565b90565b620005ad91905b80821115620005a95760008160009055506001016200058f565b5090565b90565b620005d591905b80821115620005d1576000816000905550600101620005b7565b5090565b90565b611c9c80620005e86000396000f30060806040526004361061011d576000357c0100000000000000000000000000000000000000000000000000000000900463ffffffff16806306fdde031461012f5780630a430d89146101625780630c30b7e7146101cf57806313c90fb2146102b4578063152583de146102cb5780631b91770c1461037f5780631dedc6f71461048d578063301374c6146104a4578063400566d7146104fb5780634dee73c81461054f5780634e6762fa1461057a57806355d576cc146105e657806363ca2ffe14610611578063743d3f44146106685780637791a772146107115780637a0d00311461077e57806383240f83146107ad578063c0a9ef4614610845578063cf6b90a11461089c578063d05dcc6a14610908578063f227867f14610958575b34801561012957600080fd5b50600080fd5b34801561013b57600080fd5b506101446109c5565b60405180826000191660001916815260200191505060405180910390f35b34801561016e57600080fd5b5061018d600480360381019080803590602001909291905050506109cb565b604051808273ffffffffffffffffffffffffffffffffffffffff1673ffffffffffffffffffffffffffffffffffffffff16815260200191505060405180910390f35b3480156101db57600080fd5b506102b26004803603810190808035600019169060200190929190803560001916906020019092919080359060200190820180359060200190808060200260200160405190810160405280939291908181526020018383602002808284378201915050505050509192919290803590602001908201803590602001908080602002602001604051908101604052809392919081815260200183836020028082843782019150505050505091929192908035906020019092919080359060200190929190803515159060200190929190505050610a09565b005b3480156102c057600080fd5b506102c9610e1a565b005b3480156102d757600080fd5b506102e061102b565b604051808060200180602001838103835285818151815260200191508051906020019060200280838360005b8381101561032757808201518184015260208101905061030c565b50505050905001838103825284818151815260200191508051906020019060200280838360005b8381101561036957808201518184015260208101905061034e565b5050505090500194505050505060405180910390f35b34801561038b57600080fd5b5061048b60048036038101908080359060200190820180359060200190808060200260200160405190810160405280939291908181526020018383602002808284378201915050505050509192919290803560001916906020019092919080359060200190820180359060200190808060200260200160405190810160405280939291908181526020018383602002808284378201915050505050509192919290803590602001908201803590602001908080602002602001604051908101604052809392919081815260200183836020028082843782019150505050505091929192908035906020019092919080359060200190929190505050611151565b005b34801561049957600080fd5b506104a261154f565b005b3480156104b057600080fd5b506104b9611586565b604051808273ffffffffffffffffffffffffffffffffffffffff1673ffffffffffffffffffffffffffffffffffffffff16815260200191505060405180910390f35b34801561050757600080fd5b5061052a60048036038101908080356000191690602001909291905050506115ac565b6040518083600019166000191681526020018281526020019250505060405180910390f35b34801561055b57600080fd5b50610564611639565b6040518082815260200191505060405180910390f35b34801561058657600080fd5b5061058f61163f565b6040518080602001828103825283818151815260200191508051906020019060200280838360005b838110156105d25780820151818401526020810190506105b7565b505050509050019250505060405180910390f35b3480156105f257600080fd5b506105fb6116ff565b6040518082815260200191505060405180910390f35b34801561061d57600080fd5b50610626611705565b604051808273ffffffffffffffffffffffffffffffffffffffff1673ffffffffffffffffffffffffffffffffffffffff16815260200191505060405180910390f35b34801561067457600080fd5b5061070f600480360381019080803590602001908201803590602001908080602002602001604051908101604052809392919081815260200183836020028082843782019150505050505091929192908035906020019082018035906020019080806020026020016040519081016040528093929190818152602001838360200280828437820191505050505050919291929050505061172a565b005b34801561071d57600080fd5b5061073c600480360381019080803590602001909291905050506117ed565b604051808273ffffffffffffffffffffffffffffffffffffffff1673ffffffffffffffffffffffffffffffffffffffff16815260200191505060405180910390f35b34801561078a57600080fd5b5061079361182b565b604051808215151515815260200191505060405180910390f35b3480156107b957600080fd5b506107d86004803603810190808035906020019092919050505061183e565b604051808773ffffffffffffffffffffffffffffffffffffffff1673ffffffffffffffffffffffffffffffffffffffff1681526020018660001916600019168152602001858152602001848152602001838152602001828152602001965050505050505060405180910390f35b34801561085157600080fd5b5061089a600480360381019080803573ffffffffffffffffffffffffffffffffffffffff16906020019092919080359060200190929190803590602001909291905050506118a9565b005b3480156108a857600080fd5b506108b1611af7565b6040518080602001828103825283818151815260200191508051906020019060200280838360005b838110156108f45780820151818401526020810190506108d9565b505050509050019250505060405180910390f35b34801561091457600080fd5b5061093360048036038101908080359060200190929190505050611baf565b6040518083600019166000191681526020018281526020019250505060405180910390f35b34801561096457600080fd5b5061098360048036038101908080359060200190929190505050611be2565b604051808273ffffffffffffffffffffffffffffffffffffffff1673ffffffffffffffffffffffffffffffffffffffff16815260200191505060405180910390f35b60085481565b6006818154811015156109da57fe5b906000526020600020016000915054906101000a900473ffffffffffffffffffffffffffffffffffffffff1681565b610a11611c20565b60006060600760009054906101000a900460ff1615610a2f57600080fd5b33836000019073ffffffffffffffffffffffffffffffffffffffff16908173ffffffffffffffffffffffffffffffffffffffff16815250508883602001906000191690816000191681525050610a85888861172a565b858360400181815250508483606001818152505042836080018181525050438360a00181815250506004839080600181540180825580915050906001820390600052602060002090600602016000909192909190915060008201518160000160006101000a81548173ffffffffffffffffffffffffffffffffffffffff021916908373ffffffffffffffffffffffffffffffffffffffff1602179055506020820151816001019060001916905560408201518160020155606082015181600301556080820151816004015560a082015181600501555050506000809054906101000a900473ffffffffffffffffffffffffffffffffffffffff1691506001604051908082528060200260200182016040528015610bb15781602001602082028038833980820191505090505b50905030816000815181101515610bc457fe5b9060200190602002019073ffffffffffffffffffffffffffffffffffffffff16908173ffffffffffffffffffffffffffffffffffffffff16815250508173ffffffffffffffffffffffffffffffffffffffff1663c3c856408b8a8a858b8b600160009054906101000a900473ffffffffffffffffffffffffffffffffffffffff166040518863ffffffff167c01000000000000000000000000000000000000000000000000000000000281526004018088600019166000191681526020018060200180602001806020018781526020018681526020018573ffffffffffffffffffffffffffffffffffffffff1673ffffffffffffffffffffffffffffffffffffffff16815260200184810384528a818151815260200191508051906020019060200280838360005b83811015610d07578082015181840152602081019050610cec565b50505050905001848103835289818151815260200191508051906020019060200280838360005b83811015610d49578082015181840152602081019050610d2e565b50505050905001848103825288818151815260200191508051906020019060200280838360005b83811015610d8b578082015181840152602081019050610d70565b505050509050019a5050505050505050505050602060405180830381600087803b158015610db857600080fd5b505af1158015610dcc573d6000803e3d6000fd5b505050506040513d6020811015610de257600080fd5b81019080805190602001909291905050505083600760006101000a81548160ff02191690831515021790555050505050505050505050565b7f789b5af2b10372d42e65feec7d7bf07403b6badd07163c2e51eb708a12d04fb4600854600b600c6005600954600a546000809054906101000a900473ffffffffffffffffffffffffffffffffffffffff16600160009054906101000a900473ffffffffffffffffffffffffffffffffffffffff166040518089600019166000191681526020018060200180602001806020018881526020018781526020018673ffffffffffffffffffffffffffffffffffffffff1673ffffffffffffffffffffffffffffffffffffffff1681526020018573ffffffffffffffffffffffffffffffffffffffff1673ffffffffffffffffffffffffffffffffffffffff16815260200184810384528b8181548152602001915080548015610f5e57602002820191906000526020600020905b81546000191681526020019060010190808311610f46575b505084810383528a8181548152602001915080548015610f9d57602002820191906000526020600020905b815481526020019060010190808311610f89575b5050848103825289818154815260200191508054801561101257602002820191906000526020600020905b8160009054906101000a900473ffffffffffffffffffffffffffffffffffffffff1673ffffffffffffffffffffffffffffffffffffffff1681526020019060010190808311610fc8575b50509b50505050505050505050505060405180910390a1565b60608060608060006002805490506040519080825280602002602001820160405280156110675781602001602082028038833980820191505090505b50925060028054905060405190808252806020026020018201604052801561109e5781602001602082028038833980820191505090505b509150600090505b600280549050811015611144576002818154811015156110c257fe5b90600052602060002090600202016000015483828151811015156110e257fe5b90602001906020020190600019169081600019168152505060028181548110151561110957fe5b906000526020600020906002020160010154828281518110151561112957fe5b906020019060200201818152505080806001019150506110a6565b8282945094505050509091565b600080600080600760009054906101000a900460ff161561117157600080fd5b6000809054906101000a900473ffffffffffffffffffffffffffffffffffffffff1693508373ffffffffffffffffffffffffffffffffffffffff1663c3c856408a8a8a8e8b8b600160009054906101000a900473ffffffffffffffffffffffffffffffffffffffff166040518863ffffffff167c01000000000000000000000000000000000000000000000000000000000281526004018088600019166000191681526020018060200180602001806020018781526020018681526020018573ffffffffffffffffffffffffffffffffffffffff1673ffffffffffffffffffffffffffffffffffffffff16815260200184810384528a818151815260200191508051906020019060200280838360005b8381101561129c578082015181840152602081019050611281565b50505050905001848103835289818151815260200191508051906020019060200280838360005b838110156112de5780820151818401526020810190506112c3565b50505050905001848103825288818151815260200191508051906020019060200280838360005b83811015611320578082015181840152602081019050611305565b505050509050019a5050505050505050505050602060405180830381600087803b15801561134d57600080fd5b505af1158015611361573d6000803e3d6000fd5b505050506040513d602081101561137757600080fd5b810190808051906020019092919050505092503073ffffffffffffffffffffffffffffffffffffffff1663c0a9ef468488886040518463ffffffff167c0100000000000000000000000000000000000000000000000000000000028152600401808473ffffffffffffffffffffffffffffffffffffffff1673ffffffffffffffffffffffffffffffffffffffff1681526020018381526020018281526020019350505050600060405180830381600087803b15801561143557600080fd5b505af1158015611449573d6000803e3d6000fd5b50505050600091505b895182101561154357898281518110151561146957fe5b9060200190602002015190508073ffffffffffffffffffffffffffffffffffffffff1663c0a9ef468488886040518463ffffffff167c0100000000000000000000000000000000000000000000000000000000028152600401808473ffffffffffffffffffffffffffffffffffffffff1673ffffffffffffffffffffffffffffffffffffffff1681526020018381526020018281526020019350505050600060405180830381600087803b15801561152057600080fd5b505af1158015611534573d6000803e3d6000fd5b50505050816001019150611452565b50505050505050505050565b600760009054906101000a900460ff161561156957600080fd5b6001600760006101000a81548160ff021916908315150217905550565b600160009054906101000a900473ffffffffffffffffffffffffffffffffffffffff1681565b60008060008060008090505b6002805490508110156116305785600019166002828154811015156115d957fe5b9060005260206000209060020201600001546000191614156116235760028181548110151561160457fe5b9060005260206000209060020201600101549150858294509450611631565b80806001019150506115b8565b5b505050915091565b60095481565b6060600080600090505b6002805490508110156116a45760028181548110151561166557fe5b906000526020600020906002020160000154828281548110151561168557fe5b9060005260206000200181600019169055508080600101915050611649565b818054806020026020016040519081016040528092919081815260200182805480156116f357602002820191906000526020600020905b815460001916815260200190600101908083116116db575b50505050509250505090565b600a5481565b6000809054906101000a900473ffffffffffffffffffffffffffffffffffffffff1681565b60008151835114151561173c57600080fd5b600090505b82518110156117e85760026040805190810160405280858481518110151561176557fe5b90602001906020020151600019168152602001848481518110151561178657fe5b906020019060200201518152509080600181540180825580915050906001820390600052602060002090600202016000909192909190915060008201518160000190600019169055602082015181600101555050508080600101915050611741565b505050565b6003818154811015156117fc57fe5b906000526020600020016000915054906101000a900473ffffffffffffffffffffffffffffffffffffffff1681565b600760009054906101000a900460ff1681565b60048181548110151561184d57fe5b90600052602060002090600602016000915090508060000160009054906101000a900473ffffffffffffffffffffffffffffffffffffffff16908060010154908060020154908060030154908060040154908060050154905086565b6118b1611c20565b600760009054906101000a900460ff16156118cb57600080fd5b60068490806001815401808255809150509060018203906000526020600020016000909192909190916101000a81548173ffffffffffffffffffffffffffffffffffffffff021916908373ffffffffffffffffffffffffffffffffffffffff1602179055505030816000019073ffffffffffffffffffffffffffffffffffffffff16908173ffffffffffffffffffffffffffffffffffffffff16815250507f436f6c6c61626f7261746520696e206d6572676500000000000000000000000081602001906000191690816000191681525050828160400181815250508181606001818152505042816080018181525050438160a00181815250506004819080600181540180825580915050906001820390600052602060002090600602016000909192909190915060008201518160000160006101000a81548173ffffffffffffffffffffffffffffffffffffffff021916908373ffffffffffffffffffffffffffffffffffffffff1602179055506020820151816001019060001916905560408201518160020155606082015181600301556080820151816004015560a082015181600501555050503073ffffffffffffffffffffffffffffffffffffffff16631dedc6f76040518163ffffffff167c0100000000000000000000000000000000000000000000000000000000028152600401600060405180830381600087803b158015611ad957600080fd5b505af1158015611aed573d6000803e3d6000fd5b5050505050505050565b6060600080600090505b600280549050811015611b5857600281815481101515611b1d57fe5b9060005260206000209060020201600101548282815481101515611b3d57fe5b90600052602060002001819055508080600101915050611b01565b81805480602002602001604051908101604052809291908181526020018280548015611ba357602002820191906000526020600020905b815481526020019060010190808311611b8f575b50505050509250505090565b600281815481101515611bbe57fe5b90600052602060002090600202016000915090508060000154908060010154905082565b600581815481101515611bf157fe5b906000526020600020016000915054906101000a900473ffffffffffffffffffffffffffffffffffffffff1681565b60c060405190810160405280600073ffffffffffffffffffffffffffffffffffffffff168152602001600080191681526020016000815260200160008152602001600081526020016000815250905600a165627a7a723058204c8534adf3452f9a020050872d49d6267bc02f13a024f8057c47dcb277109b210029",
  "source": "pragma solidity ^0.4.16;\nimport \"./Measurements.sol\";\nimport \"./authority/Owned.sol\";\nimport \"./Database.sol\";\n\ncontract Product {\n\n    address public PRODUCT_FACTORY;\n    address public DATABASE_CONTRACT;\n    struct Action {\n        address handler;\n        bytes32 description;\n        uint lon;\n        uint lat;\n        uint timestamp;\n        uint blockNumber;\n    }\n\n    struct Attribute {\n        bytes32 attributeName;\n        uint value;\n    }\n\n    Attribute [] public attributes;\n    Measurements [] public measurements;\n    Action[] public actions;\n\n    modifier notConsumed {\n        if (isConsumed)\n            throw;\n        _;\n    }\n\n    function setAttributes(bytes32 [] _attributeName, uint [] _values)   {\n        if (_attributeName.length != _values.length) throw;\n        for (uint i = 0; i < _attributeName.length; i++) {\n            attributes.push(Attribute(_attributeName[i], _values[i]));\n        }\n    }\n\n    function getAttributes() constant returns (bytes32 [], uint []) {\n        bytes32 [] memory attributeNames = new bytes32[](attributes.length);\n        uint [] memory values = new uint[](attributes.length);\n        for (uint i = 0; i < attributes.length; i++) {\n            attributeNames[i] = attributes[i].attributeName;\n            //productNamesList.push(attributeNames[i]);\n            values[i] = attributes[i].value;\n            //productValuesList.push(values[i]);\n        }\n        return (attributeNames,values);\n    }\n\n    function getAttributeByName(bytes32 _name) constant returns (bytes32 , uint ) {\n        bytes32 name;\n        uint value;\n        for (uint i = 0; i < attributes.length; i++) {\n            if(attributes[i].attributeName == _name){\n                value = attributes[i].value;\n                return (_name,value);\n            }\n        }\n    }\n\n    function getAttributeNames() constant returns (bytes32 [] ) {\n        bytes32[] names;\n        for (uint i = 0; i < attributes.length; i++) {\n            names[i]=attributes[i].attributeName;\n            \n        }\n        return names;\n    }\n    \n    function getAttributeValues() constant returns (uint [] ) {\n        uint[] values;\n        for (uint i = 0; i < attributes.length; i++) {\n            values[i]=attributes[i].value;\n        }\n        return values;\n    }\n\n    address[] public parentProducts;\n    address[] public childProducts;\n\n    bool public isConsumed;\n    bytes32 public name;\n    uint public lon;\n    uint public lat;\n    bytes32 [] attributeNames;\n    uint [] values;\n\n    \n    event ProductInfo(\n        bytes32 name, \n        bytes32[] attributeNames, \n        uint[] values, \n        address[] parentProducts,\n        uint lon,\n        uint lat,\n        address PRODUCT_FACTORY,\n        address DATABASE_CONTRACT\n        ) ;\n\n    function Product(bytes32 _name, bytes32[] _attributeName, uint[] _values, address[] _parentProducts, uint _lon, uint _lat ,address _DATABASE_CONTRACT,address _PRODUCT_FACTORY) {\n        name = _name;\n        isConsumed = false;\n        parentProducts = _parentProducts;\n        attributeNames = _attributeName;\n        values = _values;\n        //setAttributes(_attributeName,_values);\n        PRODUCT_FACTORY = _PRODUCT_FACTORY;\n        lon = _lon;\n        lat = _lat;\n        DATABASE_CONTRACT = _DATABASE_CONTRACT;\n        Action memory creation;\n        creation.handler = msg.sender;\n        creation.description = \"Product creation\";\n        creation.lon = _lon;\n        creation.lat = _lat;\n        creation.timestamp = now;\n        creation.blockNumber = block.number;\n        actions.push(creation);\n        Database database = Database(DATABASE_CONTRACT);\n        database.storeProductReference(this);\n    }\n   \n    function logProductInfo(){\n        ProductInfo( name,\n            attributeNames,\n            values,\n            parentProducts,\n            lon,\n            lat,\n            PRODUCT_FACTORY,\n            DATABASE_CONTRACT);\n        \n    }\n\n    function () {\n        // If anyone wants to send Ether to this contract, the transaction gets rejected\n        throw;\n    }\n\n    /* @notice Function to add an Action to the product.\n       @param _description The description of the Action.\n       @param _lon Longitude x10^10 where the Action is done.\n       @param _lat Latitude x10^10 where the Action is done.\n       @param _newProductNames In case that this Action creates more products from\n              this Product, the names of the new products should be provided here.\n       @param _newProductsAdditionalInformation In case that this Action creates more products from\n              this Product, the additional information of the new products should be provided here.\n       @param _consumed True if the product becomes consumed after the action. */\n    // bytes32 _name, bytes32[] _attributeName, uint[] _values, address[] _parentProducts, uint _lon, uint _lat, Measurements[] _measurements, address _PRODUCT_FACTORY) {\n\n\n    function addAction(bytes32 _newProductsNames, bytes32 description, bytes32 []_newAttributeNames,uint[] _newValues,uint lon,uint lat, bool _consumed) notConsumed {\n\n\n        Action memory action;\n        action.handler = msg.sender;\n        action.description = description;\n\n        setAttributes(_newAttributeNames,_newValues);\n\n\n        action.lon = lon;\n        action.lat = lat;\n        action.timestamp = now;\n        action.blockNumber = block.number;\n\n        actions.push(action);\n\n        ProductFactory productFactory = ProductFactory(PRODUCT_FACTORY);\n\n        address[] memory parentProducts = new address[](1);\n        parentProducts[0] = this;\n        productFactory.createProduct(_newProductsNames, _newAttributeNames,_newValues, parentProducts, lon, lat, DATABASE_CONTRACT);\n        isConsumed = _consumed;\n    }\n\n    /* @notice Function to merge some products to build a new one.\n       @param otherProducts addresses of the other products to be merged.\n       @param newProductsName Name of the new product resulting of the merge.\n       @param newProductAdditionalInformation Additional information of the new product resulting of the merge.\n       @param _lon Longitude x10^10 where the merge is done.\n       @param _lat Latitude x10^10 where the merge is done. */\n    function merge(address[] otherProducts, bytes32 newProductName, bytes32[] _newAttributeName, uint[] _newValues, uint lon, uint lat) notConsumed {\n        ProductFactory productFactory = ProductFactory(PRODUCT_FACTORY);\n        address newProduct = productFactory.createProduct(newProductName, _newAttributeName,  _newValues, otherProducts, lon, lat,DATABASE_CONTRACT);\n\n        this.collaborateInMerge(newProduct, lon, lat);\n        for (uint i = 0; i < otherProducts.length; ++i) {\n            Product prod = Product(otherProducts[i]);\n            prod.collaborateInMerge(newProduct, lon, lat);\n        }\n    }\n\n    /* @notice Function to collaborate in a merge with some products to build a new one.\n       @param newProductsAddress Address of the new product resulting of the merge. */\n    function collaborateInMerge(address newProductAddress, uint lon, uint lat) notConsumed {\n        childProducts.push(newProductAddress);\n\n        Action memory action;\n        action.handler = this;\n        action.description = \"Collaborate in merge\";\n        action.lon = lon;\n        action.lat = lat;\n        action.timestamp = now;\n        action.blockNumber = block.number;\n        actions.push(action);\n\n        this.consume();\n    }\n\n    /* @notice Function to consume the Product */\n    function consume() notConsumed {\n        isConsumed = true;\n    }\n}\n\n/* @title Product Factory Contract\n   @author Andreu Rodguez i Donaire\n   @dev This contract represents a product factory which represents products to be tracked in\n   the TODO put name of platform ** platform. This product lets the handlers to register actions\n   on it or even combine it with other products. */\ncontract ProductFactory {\n\n    /* @notice Constructor to create a Product Factory */\n    function ProductFactory() {}\n\n    function () {\n        // If anyone wants to send Ether to this contract, the transaction gets rejected\n        throw;\n    }\n    string testele;\n    function test1(string input)  public{\n        testele=input;\n    }\n    function gettest1()public constant returns (string){\n        return testele;\n    }\n\n    function createProduct(bytes32 _name, bytes32[] _newAttributeName, uint [] _newValues, address[] _parentProducts, uint _lon, uint _lat,address DATABASE_CONTRACT) returns(address) {\n        return new Product(_name, _newAttributeName,  _newValues, _parentProducts, _lon, _lat, DATABASE_CONTRACT, this);\n    }\n}\n",
  "sourcePath": "/Users/hao/onedrive/OneDrive - The University of Melbourne/project/Product_passport/contracts/Product.sol",
  "compiler": {
    "name": "solc",
    "version": "0.4.23+commit.124ca40d.Emscripten.clang"
  },
  "schemaVersion": "2.0.0",
  "updatedAt": "2018-05-28T22:44:17.738Z"
}