{
  "contractName": "Product",
  "abi": [
    {
      "constant": true,
      "inputs": [],
      "name": "name",
      "outputs": [
        {
          "name": "",
          "type": "bytes32"
        }
      ],
      "payable": false,
      "stateMutability": "view",
      "type": "function"
    },
    {
      "constant": true,
      "inputs": [
        {
          "name": "",
          "type": "uint256"
        }
      ],
      "name": "childProducts",
      "outputs": [
        {
          "name": "",
          "type": "address"
        }
      ],
      "payable": false,
      "stateMutability": "view",
      "type": "function"
    },
    {
      "constant": false,
      "inputs": [
        {
          "name": "owner_",
          "type": "address"
        }
      ],
      "name": "setOwner",
      "outputs": [],
      "payable": false,
      "stateMutability": "nonpayable",
      "type": "function"
    },
    {
      "constant": true,
      "inputs": [],
      "name": "PRODUCT_FACTORY",
      "outputs": [
        {
          "name": "",
          "type": "address"
        }
      ],
      "payable": false,
      "stateMutability": "view",
      "type": "function"
    },
    {
      "constant": true,
      "inputs": [
        {
          "name": "",
          "type": "uint256"
        }
      ],
      "name": "measurements",
      "outputs": [
        {
          "name": "",
          "type": "address"
        }
      ],
      "payable": false,
      "stateMutability": "view",
      "type": "function"
    },
    {
      "constant": true,
      "inputs": [],
      "name": "isConsumed",
      "outputs": [
        {
          "name": "",
          "type": "bool"
        }
      ],
      "payable": false,
      "stateMutability": "view",
      "type": "function"
    },
    {
      "constant": true,
      "inputs": [
        {
          "name": "",
          "type": "uint256"
        }
      ],
      "name": "actions",
      "outputs": [
        {
          "name": "handler",
          "type": "address"
        },
        {
          "name": "description",
          "type": "bytes32"
        },
        {
          "name": "lon",
          "type": "int256"
        },
        {
          "name": "lat",
          "type": "int256"
        },
        {
          "name": "timestamp",
          "type": "uint256"
        },
        {
          "name": "blockNumber",
          "type": "uint256"
        }
      ],
      "payable": false,
      "stateMutability": "view",
      "type": "function"
    },
    {
      "constant": true,
      "inputs": [],
      "name": "additionalInformation",
      "outputs": [
        {
          "name": "",
          "type": "bytes32"
        }
      ],
      "payable": false,
      "stateMutability": "view",
      "type": "function"
    },
    {
      "constant": false,
      "inputs": [
        {
          "name": "owner_",
          "type": "address"
        }
      ],
      "name": "transferOwnerShip",
      "outputs": [],
      "payable": false,
      "stateMutability": "nonpayable",
      "type": "function"
    },
    {
      "constant": true,
      "inputs": [],
      "name": "owner",
      "outputs": [
        {
          "name": "",
          "type": "address"
        }
      ],
      "payable": false,
      "stateMutability": "view",
      "type": "function"
    },
    {
      "constant": true,
      "inputs": [
        {
          "name": "",
          "type": "uint256"
        }
      ],
      "name": "attributes",
      "outputs": [
        {
          "name": "attributeName",
          "type": "bytes32"
        },
        {
          "name": "value",
          "type": "int256"
        }
      ],
      "payable": false,
      "stateMutability": "view",
      "type": "function"
    },
    {
      "constant": true,
      "inputs": [
        {
          "name": "",
          "type": "uint256"
        }
      ],
      "name": "parentProducts",
      "outputs": [
        {
          "name": "",
          "type": "address"
        }
      ],
      "payable": false,
      "stateMutability": "view",
      "type": "function"
    },
    {
      "inputs": [
        {
          "name": "_name",
          "type": "bytes32"
        },
        {
          "name": "_attributeName",
          "type": "bytes32[]"
        },
        {
          "name": "_values",
          "type": "int256[]"
        },
        {
          "name": "_parentProducts",
          "type": "address[]"
        },
        {
          "name": "_lon",
          "type": "int256"
        },
        {
          "name": "_lat",
          "type": "int256"
        },
        {
          "name": "_measurements",
          "type": "address[]"
        },
        {
          "name": "_PRODUCT_FACTORY",
          "type": "address"
        }
      ],
      "payable": false,
      "stateMutability": "nonpayable",
      "type": "constructor"
    },
    {
      "payable": false,
      "stateMutability": "nonpayable",
      "type": "fallback"
    },
    {
      "anonymous": false,
      "inputs": [
        {
          "indexed": false,
          "name": "newOwner",
          "type": "address"
        }
      ],
      "name": "SetTheOwner",
      "type": "event"
    },
    {
      "constant": false,
      "inputs": [
        {
          "name": "_attributeName",
          "type": "bytes32[]"
        },
        {
          "name": "_values",
          "type": "int256[]"
        }
      ],
      "name": "setAttributes",
      "outputs": [],
      "payable": false,
      "stateMutability": "nonpayable",
      "type": "function"
    },
    {
      "constant": true,
      "inputs": [],
      "name": "getAttributes",
      "outputs": [
        {
          "name": "",
          "type": "bytes32[]"
        },
        {
          "name": "",
          "type": "int256[]"
        }
      ],
      "payable": false,
      "stateMutability": "view",
      "type": "function"
    },
    {
      "constant": false,
      "inputs": [
        {
          "name": "_newProductsNames",
          "type": "bytes32"
        },
        {
          "name": "description",
          "type": "bytes32"
        },
        {
          "name": "_newAttributeNames",
          "type": "bytes32[]"
        },
        {
          "name": "_newValues",
          "type": "int256[]"
        },
        {
          "name": "lon",
          "type": "int256"
        },
        {
          "name": "lat",
          "type": "int256"
        },
        {
          "name": "_consumed",
          "type": "bool"
        }
      ],
      "name": "addAction",
      "outputs": [],
      "payable": false,
      "stateMutability": "nonpayable",
      "type": "function"
    },
    {
      "constant": false,
      "inputs": [
        {
          "name": "otherProducts",
          "type": "address[]"
        },
        {
          "name": "newProductName",
          "type": "bytes32"
        },
        {
          "name": "_newAttributeName",
          "type": "bytes32[]"
        },
        {
          "name": "_newValues",
          "type": "int256[]"
        },
        {
          "name": "lon",
          "type": "int256"
        },
        {
          "name": "lat",
          "type": "int256"
        }
      ],
      "name": "merge",
      "outputs": [],
      "payable": false,
      "stateMutability": "nonpayable",
      "type": "function"
    },
    {
      "constant": false,
      "inputs": [
        {
          "name": "newProductAddress",
          "type": "address"
        },
        {
          "name": "lon",
          "type": "int256"
        },
        {
          "name": "lat",
          "type": "int256"
        }
      ],
      "name": "collaborateInMerge",
      "outputs": [],
      "payable": false,
      "stateMutability": "nonpayable",
      "type": "function"
    },
    {
      "constant": false,
      "inputs": [],
      "name": "consume",
      "outputs": [],
      "payable": false,
      "stateMutability": "nonpayable",
      "type": "function"
    }
  ],
  "bytecode": "0x606060405234156200001057600080fd5b6040516200220138038062002201833981016040528080519060200190919080518201919060200180518201919060200180518201919060200180519060200190919080519060200190919080518201919060200180519060200190919050506200007a620003e6565b336000806101000a81548173ffffffffffffffffffffffffffffffffffffffff021916908373ffffffffffffffffffffffffffffffffffffffff16021790555088600681600019169055506000600560006101000a81548160ff0219169083151502179055508560039080519060200190620000f892919062000436565b50620001198888620002c46401000000000262001128176401000000009004565b826008908051906020019062000131929190620004c5565b5081600160006101000a81548173ffffffffffffffffffffffffffffffffffffffff021916908373ffffffffffffffffffffffffffffffffffffffff16021790555033816000019073ffffffffffffffffffffffffffffffffffffffff16908173ffffffffffffffffffffffffffffffffffffffff16815250507f50726f64756374206372656174696f6e0000000000000000000000000000000081602001906000191690816000191681525050848160400181815250508381606001818152505042816080018181525050438160a0018181525050600980548060010182816200021d919062000554565b9160005260206000209060060201600083909190915060008201518160000160006101000a81548173ffffffffffffffffffffffffffffffffffffffff021916908373ffffffffffffffffffffffffffffffffffffffff1602179055506020820151816001019060001916905560408201518160020155606082015181600301556080820151816004015560a08201518160050155505050505050505050505050620006ed565b60008060009054906101000a900473ffffffffffffffffffffffffffffffffffffffff1673ffffffffffffffffffffffffffffffffffffffff163373ffffffffffffffffffffffffffffffffffffffff161415156200032257600080fd5b815183511415156200033357600080fd5b600090505b8251811015620003e1576002805480600101828162000358919062000589565b91600052602060002090600202016000604080519081016040528087868151811015156200038257fe5b906020019060200201516000191681526020018686815181101515620003a457fe5b9060200190602002015181525090919091506000820151816000019060001916905560208201518160010155505050808060010191505062000338565b505050565b60c060405190810160405280600073ffffffffffffffffffffffffffffffffffffffff16815260200160008019168152602001600081526020016000815260200160008152602001600081525090565b828054828255906000526020600020908101928215620004b2579160200282015b82811115620004b15782518260006101000a81548173ffffffffffffffffffffffffffffffffffffffff021916908373ffffffffffffffffffffffffffffffffffffffff1602179055509160200191906001019062000457565b5b509050620004c19190620005be565b5090565b82805482825590600052602060002090810192821562000541579160200282015b82811115620005405782518260006101000a81548173ffffffffffffffffffffffffffffffffffffffff021916908373ffffffffffffffffffffffffffffffffffffffff16021790555091602001919060010190620004e6565b5b50905062000550919062000604565b5090565b81548183558181151162000584576006028160060283600052602060002091820191016200058391906200064a565b5b505050565b815481835581811511620005b957600202816002028360005260206000209182019101620005b89190620006bb565b5b505050565b6200060191905b80821115620005fd57600081816101000a81549073ffffffffffffffffffffffffffffffffffffffff021916905550600101620005c5565b5090565b90565b6200064791905b808211156200064357600081816101000a81549073ffffffffffffffffffffffffffffffffffffffff0219169055506001016200060b565b5090565b90565b620006b891905b80821115620006b457600080820160006101000a81549073ffffffffffffffffffffffffffffffffffffffff0219169055600182016000905560028201600090556003820160009055600482016000905560058201600090555060060162000651565b5090565b90565b620006ea91905b80821115620006e657600080820160009055600182016000905550600201620006c2565b5090565b90565b611b0480620006fd6000396000f3006060604052600436106100fc576000357c0100000000000000000000000000000000000000000000000000000000900463ffffffff16806306fdde031461010c5780630a430d891461013d57806313af4035146101a0578063152583de146101d95780631dedc6f71461028b578063493b20a9146102a057806363ca2ffe146103715780637791a772146103c65780637a0d00311461042957806383240f831461045657806387b3eaba146104e45780638863dd1a146105155780638da5cb5b1461054e57806396cc93ca146105a3578063b3e256651461063d578063d05dcc6a14610688578063d7050cb8146106ce578063f227867f146107c7575b341561010757600080fd5b600080fd5b341561011757600080fd5b61011f61082a565b60405180826000191660001916815260200191505060405180910390f35b341561014857600080fd5b61015e6004808035906020019091905050610830565b604051808273ffffffffffffffffffffffffffffffffffffffff1673ffffffffffffffffffffffffffffffffffffffff16815260200191505060405180910390f35b34156101ab57600080fd5b6101d7600480803573ffffffffffffffffffffffffffffffffffffffff1690602001909190505061086f565b005b34156101e457600080fd5b6101ec610991565b604051808060200180602001838103835285818151815260200191508051906020019060200280838360005b83811015610233578082015181840152602081019050610218565b50505050905001838103825284818151815260200191508051906020019060200280838360005b8381101561027557808201518184015260208101905061025a565b5050505090500194505050505060405180910390f35b341561029657600080fd5b61029e610aaf565b005b34156102ab57600080fd5b61036f6004808035600019169060200190919080356000191690602001909190803590602001908201803590602001908080602002602001604051908101604052809392919081815260200183836020028082843782019150505050505091908035906020019082018035906020019080806020026020016040519081016040528093929190818152602001838360200280828437820191505050505050919080359060200190919080359060200190919080351515906020019091905050610ae6565b005b341561037c57600080fd5b610384610ef8565b604051808273ffffffffffffffffffffffffffffffffffffffff1673ffffffffffffffffffffffffffffffffffffffff16815260200191505060405180910390f35b34156103d157600080fd5b6103e76004808035906020019091905050610f1e565b604051808273ffffffffffffffffffffffffffffffffffffffff1673ffffffffffffffffffffffffffffffffffffffff16815260200191505060405180910390f35b341561043457600080fd5b61043c610f5d565b604051808215151515815260200191505060405180910390f35b341561046157600080fd5b6104776004808035906020019091905050610f70565b604051808773ffffffffffffffffffffffffffffffffffffffff1673ffffffffffffffffffffffffffffffffffffffff1681526020018660001916600019168152602001858152602001848152602001838152602001828152602001965050505050505060405180910390f35b34156104ef57600080fd5b6104f7610fdb565b60405180826000191660001916815260200191505060405180910390f35b341561052057600080fd5b61054c600480803573ffffffffffffffffffffffffffffffffffffffff16906020019091905050610fe1565b005b341561055957600080fd5b610561611103565b604051808273ffffffffffffffffffffffffffffffffffffffff1673ffffffffffffffffffffffffffffffffffffffff16815260200191505060405180910390f35b34156105ae57600080fd5b61063b60048080359060200190820180359060200190808060200260200160405190810160405280939291908181526020018383602002808284378201915050505050509190803590602001908201803590602001908080602002602001604051908101604052809392919081815260200183836020028082843782019150505050505091905050611128565b005b341561064857600080fd5b610686600480803573ffffffffffffffffffffffffffffffffffffffff16906020019091908035906020019091908035906020019091905050611242565b005b341561069357600080fd5b6106a96004808035906020019091905050611484565b6040518083600019166000191681526020018281526020019250505060405180910390f35b34156106d957600080fd5b6107c56004808035906020019082018035906020019080806020026020016040519081016040528093929190818152602001838360200280828437820191505050505050919080356000191690602001909190803590602001908201803590602001908080602002602001604051908101604052809392919081815260200183836020028082843782019150505050505091908035906020019082018035906020019080806020026020016040519081016040528093929190818152602001838360200280828437820191505050505050919080359060200190919080359060200190919050506114b7565b005b34156107d257600080fd5b6107e860048080359060200190919050506118bb565b604051808273ffffffffffffffffffffffffffffffffffffffff1673ffffffffffffffffffffffffffffffffffffffff16815260200191505060405180910390f35b60065481565b60048181548110151561083f57fe5b90600052602060002090016000915054906101000a900473ffffffffffffffffffffffffffffffffffffffff1681565b6000809054906101000a900473ffffffffffffffffffffffffffffffffffffffff1673ffffffffffffffffffffffffffffffffffffffff163373ffffffffffffffffffffffffffffffffffffffff161415156108ca57600080fd5b806000806101000a81548173ffffffffffffffffffffffffffffffffffffffff021916908373ffffffffffffffffffffffffffffffffffffffff1602179055507fe68cf4546522887de125201a08bb28732b71c701ef98bdde59bcd7ee077a65da6000809054906101000a900473ffffffffffffffffffffffffffffffffffffffff16604051808273ffffffffffffffffffffffffffffffffffffffff1673ffffffffffffffffffffffffffffffffffffffff16815260200191505060405180910390a150565b6109996118fa565b6109a161190e565b6109a96118fa565b6109b161190e565b60006002805490506040518059106109c65750595b908082528060200260200182016040525092506002805490506040518059106109ec5750595b90808252806020026020018201604052509150600090505b600280549050811015610aa257600281815481101515610a2057fe5b9060005260206000209060020201600001548382815181101515610a4057fe5b906020019060200201906000191690816000191681525050600281815481101515610a6757fe5b9060005260206000209060020201600101548282815181101515610a8757fe5b90602001906020020181815250508080600101915050610a04565b8282945094505050509091565b600560009054906101000a900460ff1615610ac957600080fd5b6001600560006101000a81548160ff021916908315150217905550565b610aee611922565b6000610af8611972565b600560009054906101000a900460ff1615610b1257600080fd5b33836000019073ffffffffffffffffffffffffffffffffffffffff16908173ffffffffffffffffffffffffffffffffffffffff16815250508883602001906000191690816000191681525050610b688888611128565b858360400181815250508483606001818152505042836080018181525050438360a001818152505060098054806001018281610ba49190611986565b9160005260206000209060060201600085909190915060008201518160000160006101000a81548173ffffffffffffffffffffffffffffffffffffffff021916908373ffffffffffffffffffffffffffffffffffffffff1602179055506020820151816001019060001916905560408201518160020155606082015181600301556080820151816004015560a08201518160050155505050600160009054906101000a900473ffffffffffffffffffffffffffffffffffffffff1691506001604051805910610c705750595b9080825280602002602001820160405250905030816000815181101515610c9357fe5b9060200190602002019073ffffffffffffffffffffffffffffffffffffffff16908173ffffffffffffffffffffffffffffffffffffffff16815250508173ffffffffffffffffffffffffffffffffffffffff1663f44f89ac8b8a8a858b8b60086000604051602001526040518863ffffffff167c01000000000000000000000000000000000000000000000000000000000281526004018088600019166000191681526020018060200180602001806020018781526020018681526020018060200185810385528b818151815260200191508051906020019060200280838360005b83811015610d90578082015181840152602081019050610d75565b5050505090500185810384528a818151815260200191508051906020019060200280838360005b83811015610dd2578082015181840152602081019050610db7565b50505050905001858103835289818151815260200191508051906020019060200280838360005b83811015610e14578082015181840152602081019050610df9565b505050509050018581038252868181548152602001915080548015610e8e57602002820191906000526020600020905b8160009054906101000a900473ffffffffffffffffffffffffffffffffffffffff1673ffffffffffffffffffffffffffffffffffffffff1681526020019060010190808311610e44575b50509b505050505050505050505050602060405180830381600087803b1515610eb657600080fd5b6102c65a03f11515610ec757600080fd5b505050604051805190505083600560006101000a81548160ff02191690831515021790555050505050505050505050565b600160009054906101000a900473ffffffffffffffffffffffffffffffffffffffff1681565b600881815481101515610f2d57fe5b90600052602060002090016000915054906101000a900473ffffffffffffffffffffffffffffffffffffffff1681565b600560009054906101000a900460ff1681565b600981815481101515610f7f57fe5b90600052602060002090600602016000915090508060000160009054906101000a900473ffffffffffffffffffffffffffffffffffffffff16908060010154908060020154908060030154908060040154908060050154905086565b60075481565b6000809054906101000a900473ffffffffffffffffffffffffffffffffffffffff1673ffffffffffffffffffffffffffffffffffffffff163373ffffffffffffffffffffffffffffffffffffffff1614151561103c57600080fd5b806000806101000a81548173ffffffffffffffffffffffffffffffffffffffff021916908373ffffffffffffffffffffffffffffffffffffffff1602179055507fe68cf4546522887de125201a08bb28732b71c701ef98bdde59bcd7ee077a65da6000809054906101000a900473ffffffffffffffffffffffffffffffffffffffff16604051808273ffffffffffffffffffffffffffffffffffffffff1673ffffffffffffffffffffffffffffffffffffffff16815260200191505060405180910390a150565b6000809054906101000a900473ffffffffffffffffffffffffffffffffffffffff1681565b60008060009054906101000a900473ffffffffffffffffffffffffffffffffffffffff1673ffffffffffffffffffffffffffffffffffffffff163373ffffffffffffffffffffffffffffffffffffffff1614151561118557600080fd5b8151835114151561119557600080fd5b600090505b825181101561123d57600280548060010182816111b791906119b8565b91600052602060002090600202016000604080519081016040528087868151811015156111e057fe5b90602001906020020151600019168152602001868681518110151561120157fe5b9060200190602002015181525090919091506000820151816000019060001916905560208201518160010155505050808060010191505061119a565b505050565b61124a611922565b600560009054906101000a900460ff161561126457600080fd5b6004805480600101828161127891906119ea565b9160005260206000209001600086909190916101000a81548173ffffffffffffffffffffffffffffffffffffffff021916908373ffffffffffffffffffffffffffffffffffffffff1602179055505030816000019073ffffffffffffffffffffffffffffffffffffffff16908173ffffffffffffffffffffffffffffffffffffffff16815250507f436f6c6c61626f7261746520696e206d6572676500000000000000000000000081602001906000191690816000191681525050828160400181815250508181606001818152505042816080018181525050438160a00181815250506009805480600101828161136f9190611986565b9160005260206000209060060201600083909190915060008201518160000160006101000a81548173ffffffffffffffffffffffffffffffffffffffff021916908373ffffffffffffffffffffffffffffffffffffffff1602179055506020820151816001019060001916905560408201518160020155606082015181600301556080820151816004015560a082015181600501555050503073ffffffffffffffffffffffffffffffffffffffff16631dedc6f76040518163ffffffff167c0100000000000000000000000000000000000000000000000000000000028152600401600060405180830381600087803b151561146a57600080fd5b6102c65a03f1151561147b57600080fd5b50505050505050565b60028181548110151561149357fe5b90600052602060002090600202016000915090508060000154908060010154905082565b600080600080600560009054906101000a900460ff16156114d757600080fd5b600160009054906101000a900473ffffffffffffffffffffffffffffffffffffffff1693508373ffffffffffffffffffffffffffffffffffffffff1663f44f89ac8a8a8a8e8b8b60086000604051602001526040518863ffffffff167c01000000000000000000000000000000000000000000000000000000000281526004018088600019166000191681526020018060200180602001806020018781526020018681526020018060200185810385528b818151815260200191508051906020019060200280838360005b838110156115bd5780820151818401526020810190506115a2565b5050505090500185810384528a818151815260200191508051906020019060200280838360005b838110156115ff5780820151818401526020810190506115e4565b50505050905001858103835289818151815260200191508051906020019060200280838360005b83811015611641578082015181840152602081019050611626565b5050505090500185810382528681815481526020019150805480156116bb57602002820191906000526020600020905b8160009054906101000a900473ffffffffffffffffffffffffffffffffffffffff1673ffffffffffffffffffffffffffffffffffffffff1681526020019060010190808311611671575b50509b505050505050505050505050602060405180830381600087803b15156116e357600080fd5b6102c65a03f115156116f457600080fd5b5050506040518051905092503073ffffffffffffffffffffffffffffffffffffffff1663b3e256658488886040518463ffffffff167c0100000000000000000000000000000000000000000000000000000000028152600401808473ffffffffffffffffffffffffffffffffffffffff1673ffffffffffffffffffffffffffffffffffffffff1681526020018381526020018281526020019350505050600060405180830381600087803b15156117aa57600080fd5b6102c65a03f115156117bb57600080fd5b505050600091505b89518210156118af5789828151811015156117da57fe5b9060200190602002015190508073ffffffffffffffffffffffffffffffffffffffff1663b3e256658488886040518463ffffffff167c0100000000000000000000000000000000000000000000000000000000028152600401808473ffffffffffffffffffffffffffffffffffffffff1673ffffffffffffffffffffffffffffffffffffffff1681526020018381526020018281526020019350505050600060405180830381600087803b151561189057600080fd5b6102c65a03f115156118a157600080fd5b5050508160010191506117c3565b50505050505050505050565b6003818154811015156118ca57fe5b90600052602060002090016000915054906101000a900473ffffffffffffffffffffffffffffffffffffffff1681565b602060405190810160405280600081525090565b602060405190810160405280600081525090565b60c060405190810160405280600073ffffffffffffffffffffffffffffffffffffffff16815260200160008019168152602001600081526020016000815260200160008152602001600081525090565b602060405190810160405280600081525090565b8154818355818115116119b3576006028160060283600052602060002091820191016119b29190611a16565b5b505050565b8154818355818115116119e5576002028160020283600052602060002091820191016119e49190611a84565b5b505050565b815481835581811511611a1157818360005260206000209182019101611a109190611ab3565b5b505050565b611a8191905b80821115611a7d57600080820160006101000a81549073ffffffffffffffffffffffffffffffffffffffff02191690556001820160009055600282016000905560038201600090556004820160009055600582016000905550600601611a1c565b5090565b90565b611ab091905b80821115611aac57600080820160009055600182016000905550600201611a8a565b5090565b90565b611ad591905b80821115611ad1576000816000905550600101611ab9565b5090565b905600a165627a7a72305820d231a8f5cbea1d7844420082e765e0331d4e859936c41535ff6d604c0eda1aca0029",
  "source": "pragma solidity ^0.4.16;\nimport \"./Measurements.sol\";\nimport \"./authority/Owned.sol\";\n\ncontract Product is Owned{\n\n    address public PRODUCT_FACTORY;\n\n    struct Action {\n        address handler;\n        bytes32 description;\n        int lon;\n        int lat;\n        uint timestamp;\n        uint blockNumber;\n    }\n\n    struct Attribute {\n        bytes32 attributeName;\n        int value;\n    }\n\n    Attribute [] public attributes;\n\n\n    modifier notConsumed {\n        if (isConsumed)\n            throw;\n        _;\n    }\n\n    function setAttributes(bytes32 [] _attributeName, int [] _values) onlyOwner  {\n        if (_attributeName.length != _values.length) throw;\n        for (uint i = 0; i < _attributeName.length; i++) {\n            attributes.push(Attribute(_attributeName[i], _values[i]));\n        }\n    }\n\n    function getAttributes() constant returns (bytes32 [], int []) {\n        bytes32 [] memory attributeNames = new bytes32[](attributes.length);\n        int [] memory values = new int[](attributes.length);\n        for (uint i = 0; i < attributes.length; i++) {\n            attributeNames[i] = attributes[i].attributeName;\n            values[i] = attributes[i].value;\n        }\n        return (attributeNames,values);\n    }\n\n    address[] public parentProducts;\n    address[] public childProducts;\n\n    bool public isConsumed;\n    bytes32 public name;\n    bytes32 public additionalInformation;\n\n    Measurements [] public measurements;\n\n    Action[] public actions;\n\n    function Product(bytes32 _name, bytes32[] _attributeName, int[] _values, address[] _parentProducts, int _lon, int _lat, Measurements[] _measurements, address _PRODUCT_FACTORY) {\n        name = _name;\n        isConsumed = false;\n        parentProducts = _parentProducts;\n        setAttributes(_attributeName,_values);\n        measurements=_measurements;\n        PRODUCT_FACTORY = _PRODUCT_FACTORY;\n\n        Action memory creation;\n        creation.handler = msg.sender;\n        creation.description = \"Product creation\";\n\n        creation.lon = _lon;\n        creation.lat = _lat;\n        creation.timestamp = now;\n        creation.blockNumber = block.number;\n\n        actions.push(creation);\n    }\n\n    function () {\n        // If anyone wants to send Ether to this contract, the transaction gets rejected\n        throw;\n    }\n\n    /* @notice Function to add an Action to the product.\n       @param _description The description of the Action.\n       @param _lon Longitude x10^10 where the Action is done.\n       @param _lat Latitude x10^10 where the Action is done.\n       @param _newProductNames In case that this Action creates more products from\n              this Product, the names of the new products should be provided here.\n       @param _newProductsAdditionalInformation In case that this Action creates more products from\n              this Product, the additional information of the new products should be provided here.\n       @param _consumed True if the product becomes consumed after the action. */\n    // bytes32 _name, bytes32[] _attributeName, int[] _values, address[] _parentProducts, int _lon, int _lat, Measurements[] _measurements, address _PRODUCT_FACTORY) {\n\n\n    function addAction(bytes32 _newProductsNames, bytes32 description, bytes32 []_newAttributeNames,int[] _newValues,int lon,int lat, bool _consumed) notConsumed {\n\n\n        Action memory action;\n        action.handler = msg.sender;\n        action.description = description;\n\n        setAttributes(_newAttributeNames,_newValues);\n\n\n        action.lon = lon;\n        action.lat = lat;\n        action.timestamp = now;\n        action.blockNumber = block.number;\n\n        actions.push(action);\n\n        ProductFactory productFactory = ProductFactory(PRODUCT_FACTORY);\n\n        address[] memory parentProducts = new address[](1);\n        parentProducts[0] = this;\n        productFactory.createProduct(_newProductsNames, _newAttributeNames,_newValues, parentProducts, lon, lat, measurements);\n        isConsumed = _consumed;\n    }\n\n    /* @notice Function to merge some products to build a new one.\n       @param otherProducts addresses of the other products to be merged.\n       @param newProductsName Name of the new product resulting of the merge.\n       @param newProductAdditionalInformation Additional information of the new product resulting of the merge.\n       @param _lon Longitude x10^10 where the merge is done.\n       @param _lat Latitude x10^10 where the merge is done. */\n    function merge(address[] otherProducts, bytes32 newProductName, bytes32[] _newAttributeName, int[] _newValues, int lon, int lat) notConsumed {\n        ProductFactory productFactory = ProductFactory(PRODUCT_FACTORY);\n        address newProduct = productFactory.createProduct(newProductName, _newAttributeName,  _newValues, otherProducts, lon, lat,measurements);\n\n        this.collaborateInMerge(newProduct, lon, lat);\n        for (uint i = 0; i < otherProducts.length; ++i) {\n            Product prod = Product(otherProducts[i]);\n            prod.collaborateInMerge(newProduct, lon, lat);\n        }\n    }\n\n    /* @notice Function to collaborate in a merge with some products to build a new one.\n       @param newProductsAddress Address of the new product resulting of the merge. */\n    function collaborateInMerge(address newProductAddress, int lon, int lat) notConsumed {\n        childProducts.push(newProductAddress);\n\n        Action memory action;\n        action.handler = this;\n        action.description = \"Collaborate in merge\";\n        action.lon = lon;\n        action.lat = lat;\n        action.timestamp = now;\n        action.blockNumber = block.number;\n        actions.push(action);\n\n        this.consume();\n    }\n\n    /* @notice Function to consume the Product */\n    function consume() notConsumed {\n        isConsumed = true;\n    }\n}\n\n/* @title Product Factory Contract\n   @author Andreu Rodguez i Donaire\n   @dev This contract represents a product factory which represents products to be tracked in\n   the TODO put name of platform ** platform. This product lets the handlers to register actions\n   on it or even combine it with other products. */\ncontract ProductFactory {\n\n    /////////////////\n    // Constructor //\n    /////////////////\n\n    /* @notice Constructor to create a Product Factory */\n    function ProductFactory() {}\n\n    function () {\n        // If anyone wants to send Ether to this contract, the transaction gets rejected\n        throw;\n    }\n\n    function createProduct(bytes32 _name, bytes32[] _newAttributeName, int [] _newValues, address[] _parentProducts, int _lon, int _lat, Measurements [] _measurements) returns(address) {\n        return new Product(_name, _newAttributeName,  _newValues, _parentProducts, _lon, _lat, _measurements, this);\n    }\n}\n",
  "sourcePath": "/Users/hao/onedrive/OneDrive - The University of Melbourne/project/Product_passport/contracts/Product.sol",
  "compiler": {
    "name": "solc",
    "version": "0.4.19+commit.c4cbbb05.Emscripten.clang"
  },
  "schemaVersion": "2.0.0",
  "updatedAt": "2018-05-04T07:21:54.602Z"
}