{
  "contractName": "Product",
  "abi": [
    {
      "constant": true,
      "inputs": [],
      "name": "name",
      "outputs": [
        {
          "name": "",
          "type": "bytes32"
        }
      ],
      "payable": false,
      "stateMutability": "view",
      "type": "function"
    },
    {
      "constant": true,
      "inputs": [
        {
          "name": "",
          "type": "uint256"
        }
      ],
      "name": "childProducts",
      "outputs": [
        {
          "name": "",
          "type": "address"
        }
      ],
      "payable": false,
      "stateMutability": "view",
      "type": "function"
    },
    {
      "constant": true,
      "inputs": [],
      "name": "DATABASE_CONTRACT",
      "outputs": [
        {
          "name": "",
          "type": "address"
        }
      ],
      "payable": false,
      "stateMutability": "view",
      "type": "function"
    },
    {
      "constant": true,
      "inputs": [],
      "name": "lon",
      "outputs": [
        {
          "name": "",
          "type": "uint256"
        }
      ],
      "payable": false,
      "stateMutability": "view",
      "type": "function"
    },
    {
      "constant": true,
      "inputs": [],
      "name": "lat",
      "outputs": [
        {
          "name": "",
          "type": "uint256"
        }
      ],
      "payable": false,
      "stateMutability": "view",
      "type": "function"
    },
    {
      "constant": true,
      "inputs": [],
      "name": "PRODUCT_FACTORY",
      "outputs": [
        {
          "name": "",
          "type": "address"
        }
      ],
      "payable": false,
      "stateMutability": "view",
      "type": "function"
    },
    {
      "constant": true,
      "inputs": [
        {
          "name": "",
          "type": "uint256"
        }
      ],
      "name": "measurements",
      "outputs": [
        {
          "name": "",
          "type": "address"
        }
      ],
      "payable": false,
      "stateMutability": "view",
      "type": "function"
    },
    {
      "constant": true,
      "inputs": [],
      "name": "isConsumed",
      "outputs": [
        {
          "name": "",
          "type": "bool"
        }
      ],
      "payable": false,
      "stateMutability": "view",
      "type": "function"
    },
    {
      "constant": true,
      "inputs": [
        {
          "name": "",
          "type": "uint256"
        }
      ],
      "name": "actions",
      "outputs": [
        {
          "name": "handler",
          "type": "address"
        },
        {
          "name": "description",
          "type": "bytes32"
        },
        {
          "name": "lon",
          "type": "uint256"
        },
        {
          "name": "lat",
          "type": "uint256"
        },
        {
          "name": "timestamp",
          "type": "uint256"
        },
        {
          "name": "blockNumber",
          "type": "uint256"
        }
      ],
      "payable": false,
      "stateMutability": "view",
      "type": "function"
    },
    {
      "constant": true,
      "inputs": [],
      "name": "owner",
      "outputs": [
        {
          "name": "",
          "type": "address"
        }
      ],
      "payable": false,
      "stateMutability": "view",
      "type": "function"
    },
    {
      "constant": true,
      "inputs": [
        {
          "name": "",
          "type": "uint256"
        }
      ],
      "name": "attributes",
      "outputs": [
        {
          "name": "attributeName",
          "type": "bytes32"
        },
        {
          "name": "value",
          "type": "uint256"
        }
      ],
      "payable": false,
      "stateMutability": "view",
      "type": "function"
    },
    {
      "constant": true,
      "inputs": [
        {
          "name": "",
          "type": "uint256"
        }
      ],
      "name": "parentProducts",
      "outputs": [
        {
          "name": "",
          "type": "address"
        }
      ],
      "payable": false,
      "stateMutability": "view",
      "type": "function"
    },
    {
      "inputs": [
        {
          "name": "_owner",
          "type": "address"
        },
        {
          "name": "_name",
          "type": "bytes32"
        },
        {
          "name": "_attributeName",
          "type": "bytes32[]"
        },
        {
          "name": "_values",
          "type": "uint256[]"
        },
        {
          "name": "_parentProducts",
          "type": "address[]"
        },
        {
          "name": "_lon",
          "type": "uint256"
        },
        {
          "name": "_lat",
          "type": "uint256"
        },
        {
          "name": "_DATABASE_CONTRACT",
          "type": "address"
        },
        {
          "name": "_PRODUCT_FACTORY",
          "type": "address"
        }
      ],
      "payable": false,
      "stateMutability": "nonpayable",
      "type": "constructor"
    },
    {
      "payable": false,
      "stateMutability": "nonpayable",
      "type": "fallback"
    },
    {
      "anonymous": false,
      "inputs": [
        {
          "indexed": false,
          "name": "name",
          "type": "bytes32"
        },
        {
          "indexed": false,
          "name": "attributeNames",
          "type": "bytes32[]"
        },
        {
          "indexed": false,
          "name": "values",
          "type": "uint256[]"
        },
        {
          "indexed": false,
          "name": "parentProducts",
          "type": "address[]"
        },
        {
          "indexed": false,
          "name": "lon",
          "type": "uint256"
        },
        {
          "indexed": false,
          "name": "lat",
          "type": "uint256"
        },
        {
          "indexed": false,
          "name": "PRODUCT_FACTORY",
          "type": "address"
        },
        {
          "indexed": false,
          "name": "DATABASE_CONTRACT",
          "type": "address"
        }
      ],
      "name": "ProductInfo",
      "type": "event"
    },
    {
      "constant": false,
      "inputs": [
        {
          "name": "owner_",
          "type": "address"
        }
      ],
      "name": "transferOwner",
      "outputs": [],
      "payable": false,
      "stateMutability": "nonpayable",
      "type": "function"
    },
    {
      "constant": false,
      "inputs": [],
      "name": "getOwner",
      "outputs": [
        {
          "name": "",
          "type": "address"
        }
      ],
      "payable": false,
      "stateMutability": "nonpayable",
      "type": "function"
    },
    {
      "constant": false,
      "inputs": [
        {
          "name": "_attributeName",
          "type": "bytes32[]"
        },
        {
          "name": "_values",
          "type": "uint256[]"
        }
      ],
      "name": "setAttributes",
      "outputs": [],
      "payable": false,
      "stateMutability": "nonpayable",
      "type": "function"
    },
    {
      "constant": true,
      "inputs": [],
      "name": "getAttributes",
      "outputs": [
        {
          "name": "",
          "type": "bytes32[]"
        },
        {
          "name": "",
          "type": "uint256[]"
        }
      ],
      "payable": false,
      "stateMutability": "view",
      "type": "function"
    },
    {
      "constant": true,
      "inputs": [
        {
          "name": "_name",
          "type": "bytes32"
        }
      ],
      "name": "getAttributeByName",
      "outputs": [
        {
          "name": "",
          "type": "bytes32"
        },
        {
          "name": "",
          "type": "uint256"
        }
      ],
      "payable": false,
      "stateMutability": "view",
      "type": "function"
    },
    {
      "constant": true,
      "inputs": [],
      "name": "getAttributeNames",
      "outputs": [
        {
          "name": "",
          "type": "bytes32[]"
        }
      ],
      "payable": false,
      "stateMutability": "view",
      "type": "function"
    },
    {
      "constant": true,
      "inputs": [],
      "name": "getActionCount",
      "outputs": [
        {
          "name": "",
          "type": "uint256"
        }
      ],
      "payable": false,
      "stateMutability": "view",
      "type": "function"
    },
    {
      "constant": true,
      "inputs": [
        {
          "name": "index",
          "type": "uint256"
        }
      ],
      "name": "getActionByCount",
      "outputs": [
        {
          "name": "",
          "type": "address"
        },
        {
          "name": "",
          "type": "bytes32"
        },
        {
          "name": "",
          "type": "uint256"
        },
        {
          "name": "",
          "type": "uint256"
        },
        {
          "name": "",
          "type": "uint256"
        },
        {
          "name": "",
          "type": "uint256"
        }
      ],
      "payable": false,
      "stateMutability": "view",
      "type": "function"
    },
    {
      "constant": true,
      "inputs": [],
      "name": "getAttributeValues",
      "outputs": [
        {
          "name": "",
          "type": "uint256[]"
        }
      ],
      "payable": false,
      "stateMutability": "view",
      "type": "function"
    },
    {
      "constant": false,
      "inputs": [],
      "name": "logProductInfo",
      "outputs": [],
      "payable": false,
      "stateMutability": "nonpayable",
      "type": "function"
    },
    {
      "constant": false,
      "inputs": [
        {
          "name": "_newProductsNames",
          "type": "bytes32"
        },
        {
          "name": "description",
          "type": "bytes32"
        },
        {
          "name": "_newAttributeNames",
          "type": "bytes32[]"
        },
        {
          "name": "_newValues",
          "type": "uint256[]"
        },
        {
          "name": "lon",
          "type": "uint256"
        },
        {
          "name": "lat",
          "type": "uint256"
        },
        {
          "name": "_consumed",
          "type": "bool"
        }
      ],
      "name": "addAction",
      "outputs": [],
      "payable": false,
      "stateMutability": "nonpayable",
      "type": "function"
    },
    {
      "constant": false,
      "inputs": [
        {
          "name": "otherProducts",
          "type": "address[]"
        },
        {
          "name": "newProductName",
          "type": "bytes32"
        },
        {
          "name": "_newAttributeName",
          "type": "bytes32[]"
        },
        {
          "name": "_newValues",
          "type": "uint256[]"
        },
        {
          "name": "lon",
          "type": "uint256"
        },
        {
          "name": "lat",
          "type": "uint256"
        }
      ],
      "name": "merge",
      "outputs": [],
      "payable": false,
      "stateMutability": "nonpayable",
      "type": "function"
    },
    {
      "constant": false,
      "inputs": [
        {
          "name": "newProductAddress",
          "type": "address"
        },
        {
          "name": "lon",
          "type": "uint256"
        },
        {
          "name": "lat",
          "type": "uint256"
        }
      ],
      "name": "collaborateInMerge",
      "outputs": [],
      "payable": false,
      "stateMutability": "nonpayable",
      "type": "function"
    },
    {
      "constant": false,
      "inputs": [],
      "name": "consume",
      "outputs": [],
      "payable": false,
      "stateMutability": "nonpayable",
      "type": "function"
    }
  ],
  "bytecode": "0x60806040523480156200001157600080fd5b5060405162002661380380620026618339810180604052810190808051906020019092919080519060200190929190805182019291906020018051820192919060200180518201929190602001805190602001909291908051906020019092919080519060200190929190805190602001909291905050506200009362000405565b60008a6000806101000a81548173ffffffffffffffffffffffffffffffffffffffff021916908373ffffffffffffffffffffffffffffffffffffffff16021790555089600981600019169055506000600860006101000a81548160ff02191690831515021790555086600690805190602001906200011392919062000455565b5088600c90805190602001906200012c929190620004e4565b5087600d9080519060200190620001459291906200053c565b5082600160006101000a81548173ffffffffffffffffffffffffffffffffffffffff021916908373ffffffffffffffffffffffffffffffffffffffff16021790555085600a8190555084600b8190555083600260006101000a81548173ffffffffffffffffffffffffffffffffffffffff021916908373ffffffffffffffffffffffffffffffffffffffff16021790555033826000019073ffffffffffffffffffffffffffffffffffffffff16908173ffffffffffffffffffffffffffffffffffffffff16815250507f50726f64756374206372656174696f6e0000000000000000000000000000000082602001906000191690816000191681525050858260400181815250508482606001818152505042826080018181525050438260a00181815250506005829080600181540180825580915050906001820390600052602060002090600602016000909192909190915060008201518160000160006101000a81548173ffffffffffffffffffffffffffffffffffffffff021916908373ffffffffffffffffffffffffffffffffffffffff1602179055506020820151816001019060001916905560408201518160020155606082015181600301556080820151816004015560a08201518160050155505050600260009054906101000a900473ffffffffffffffffffffffffffffffffffffffff1690508073ffffffffffffffffffffffffffffffffffffffff1663805593db306040518263ffffffff167c0100000000000000000000000000000000000000000000000000000000028152600401808273ffffffffffffffffffffffffffffffffffffffff1673ffffffffffffffffffffffffffffffffffffffff168152602001915050600060405180830381600087803b158015620003db57600080fd5b505af1158015620003f0573d6000803e3d6000fd5b50505050505050505050505050505062000624565b60c060405190810160405280600073ffffffffffffffffffffffffffffffffffffffff16815260200160008019168152602001600081526020016000815260200160008152602001600081525090565b828054828255906000526020600020908101928215620004d1579160200282015b82811115620004d05782518260006101000a81548173ffffffffffffffffffffffffffffffffffffffff021916908373ffffffffffffffffffffffffffffffffffffffff1602179055509160200191906001019062000476565b5b509050620004e091906200058e565b5090565b82805482825590600052602060002090810192821562000529579160200282015b828111156200052857825182906000191690559160200191906001019062000505565b5b509050620005389190620005d4565b5090565b8280548282559060005260206000209081019282156200057b579160200282015b828111156200057a5782518255916020019190600101906200055d565b5b5090506200058a9190620005fc565b5090565b620005d191905b80821115620005cd57600081816101000a81549073ffffffffffffffffffffffffffffffffffffffff02191690555060010162000595565b5090565b90565b620005f991905b80821115620005f5576000816000905550600101620005db565b5090565b90565b6200062191905b808211156200061d57600081600090555060010162000603565b5090565b90565b61202d80620006346000396000f300608060405260043610610154576000357c0100000000000000000000000000000000000000000000000000000000900463ffffffff16806306fdde03146101665780630a430d89146101995780630c30b7e71461020657806313c90fb2146102eb578063152583de146103025780631b91770c146103b65780631dedc6f7146104c4578063301374c6146104db578063400566d7146105325780634dee73c8146105865780634e6762fa146105b15780634fb2e45d1461061d57806355d576cc146106605780635eecd2181461068b57806363ca2ffe146106b6578063743d3f441461070d5780637791a772146107b65780637a0d00311461082357806383240f8314610852578063893d20e8146108ea5780638da5cb5b146109415780638dfb254c14610998578063c0a9ef4614610a30578063cf6b90a114610a87578063d05dcc6a14610af3578063f227867f14610b43575b34801561016057600080fd5b50600080fd5b34801561017257600080fd5b5061017b610bb0565b60405180826000191660001916815260200191505060405180910390f35b3480156101a557600080fd5b506101c460048036038101908080359060200190929190505050610bb6565b604051808273ffffffffffffffffffffffffffffffffffffffff1673ffffffffffffffffffffffffffffffffffffffff16815260200191505060405180910390f35b34801561021257600080fd5b506102e96004803603810190808035600019169060200190929190803560001916906020019092919080359060200190820180359060200190808060200260200160405190810160405280939291908181526020018383602002808284378201915050505050509192919290803590602001908201803590602001908080602002602001604051908101604052809392919081815260200183836020028082843782019150505050505091929192908035906020019092919080359060200190929190803515159060200190929190505050610bf4565b005b3480156102f757600080fd5b50610300611006565b005b34801561030e57600080fd5b50610317611218565b604051808060200180602001838103835285818151815260200191508051906020019060200280838360005b8381101561035e578082015181840152602081019050610343565b50505050905001838103825284818151815260200191508051906020019060200280838360005b838110156103a0578082015181840152602081019050610385565b5050505090500194505050505060405180910390f35b3480156103c257600080fd5b506104c26004803603810190808035906020019082018035906020019080806020026020016040519081016040528093929190818152602001838360200280828437820191505050505050919291929080356000191690602001909291908035906020019082018035906020019080806020026020016040519081016040528093929190818152602001838360200280828437820191505050505050919291929080359060200190820180359060200190808060200260200160405190810160405280939291908181526020018383602002808284378201915050505050509192919290803590602001909291908035906020019092919050505061133e565b005b3480156104d057600080fd5b506104d961173d565b005b3480156104e757600080fd5b506104f0611774565b604051808273ffffffffffffffffffffffffffffffffffffffff1673ffffffffffffffffffffffffffffffffffffffff16815260200191505060405180910390f35b34801561053e57600080fd5b50610561600480360381019080803560001916906020019092919050505061179a565b6040518083600019166000191681526020018281526020019250505060405180910390f35b34801561059257600080fd5b5061059b611827565b6040518082815260200191505060405180910390f35b3480156105bd57600080fd5b506105c661182d565b6040518080602001828103825283818151815260200191508051906020019060200280838360005b838110156106095780820151818401526020810190506105ee565b505050509050019250505060405180910390f35b34801561062957600080fd5b5061065e600480360381019080803573ffffffffffffffffffffffffffffffffffffffff1690602001909291905050506118ed565b005b34801561066c57600080fd5b50610675611930565b6040518082815260200191505060405180910390f35b34801561069757600080fd5b506106a0611936565b6040518082815260200191505060405180910390f35b3480156106c257600080fd5b506106cb611943565b604051808273ffffffffffffffffffffffffffffffffffffffff1673ffffffffffffffffffffffffffffffffffffffff16815260200191505060405180910390f35b34801561071957600080fd5b506107b46004803603810190808035906020019082018035906020019080806020026020016040519081016040528093929190818152602001838360200280828437820191505050505050919291929080359060200190820180359060200190808060200260200160405190810160405280939291908181526020018383602002808284378201915050505050509192919290505050611969565b005b3480156107c257600080fd5b506107e160048036038101908080359060200190929190505050611a2c565b604051808273ffffffffffffffffffffffffffffffffffffffff1673ffffffffffffffffffffffffffffffffffffffff16815260200191505060405180910390f35b34801561082f57600080fd5b50610838611a6a565b604051808215151515815260200191505060405180910390f35b34801561085e57600080fd5b5061087d60048036038101908080359060200190929190505050611a7d565b604051808773ffffffffffffffffffffffffffffffffffffffff1673ffffffffffffffffffffffffffffffffffffffff1681526020018660001916600019168152602001858152602001848152602001838152602001828152602001965050505050505060405180910390f35b3480156108f657600080fd5b506108ff611ae8565b604051808273ffffffffffffffffffffffffffffffffffffffff1673ffffffffffffffffffffffffffffffffffffffff16815260200191505060405180910390f35b34801561094d57600080fd5b50610956611b11565b604051808273ffffffffffffffffffffffffffffffffffffffff1673ffffffffffffffffffffffffffffffffffffffff16815260200191505060405180910390f35b3480156109a457600080fd5b506109c360048036038101908080359060200190929190505050611b36565b604051808773ffffffffffffffffffffffffffffffffffffffff1673ffffffffffffffffffffffffffffffffffffffff1681526020018660001916600019168152602001858152602001848152602001838152602001828152602001965050505050505060405180910390f35b348015610a3c57600080fd5b50610a85600480360381019080803573ffffffffffffffffffffffffffffffffffffffff1690602001909291908035906020019092919080359060200190929190505050611c3a565b005b348015610a9357600080fd5b50610a9c611e88565b6040518080602001828103825283818151815260200191508051906020019060200280838360005b83811015610adf578082015181840152602081019050610ac4565b505050509050019250505060405180910390f35b348015610aff57600080fd5b50610b1e60048036038101908080359060200190929190505050611f40565b6040518083600019166000191681526020018281526020019250505060405180910390f35b348015610b4f57600080fd5b50610b6e60048036038101908080359060200190929190505050611f73565b604051808273ffffffffffffffffffffffffffffffffffffffff1673ffffffffffffffffffffffffffffffffffffffff16815260200191505060405180910390f35b60095481565b600781815481101515610bc557fe5b906000526020600020016000915054906101000a900473ffffffffffffffffffffffffffffffffffffffff1681565b610bfc611fb1565b60006060600860009054906101000a900460ff1615610c1a57600080fd5b33836000019073ffffffffffffffffffffffffffffffffffffffff16908173ffffffffffffffffffffffffffffffffffffffff16815250508883602001906000191690816000191681525050610c708888611969565b858360400181815250508483606001818152505042836080018181525050438360a00181815250506005839080600181540180825580915050906001820390600052602060002090600602016000909192909190915060008201518160000160006101000a81548173ffffffffffffffffffffffffffffffffffffffff021916908373ffffffffffffffffffffffffffffffffffffffff1602179055506020820151816001019060001916905560408201518160020155606082015181600301556080820151816004015560a08201518160050155505050600160009054906101000a900473ffffffffffffffffffffffffffffffffffffffff1691506001604051908082528060200260200182016040528015610d9d5781602001602082028038833980820191505090505b50905030816000815181101515610db057fe5b9060200190602002019073ffffffffffffffffffffffffffffffffffffffff16908173ffffffffffffffffffffffffffffffffffffffff16815250508173ffffffffffffffffffffffffffffffffffffffff1663c3c856408b8a8a858b8b600260009054906101000a900473ffffffffffffffffffffffffffffffffffffffff166040518863ffffffff167c01000000000000000000000000000000000000000000000000000000000281526004018088600019166000191681526020018060200180602001806020018781526020018681526020018573ffffffffffffffffffffffffffffffffffffffff1673ffffffffffffffffffffffffffffffffffffffff16815260200184810384528a818151815260200191508051906020019060200280838360005b83811015610ef3578082015181840152602081019050610ed8565b50505050905001848103835289818151815260200191508051906020019060200280838360005b83811015610f35578082015181840152602081019050610f1a565b50505050905001848103825288818151815260200191508051906020019060200280838360005b83811015610f77578082015181840152602081019050610f5c565b505050509050019a5050505050505050505050602060405180830381600087803b158015610fa457600080fd5b505af1158015610fb8573d6000803e3d6000fd5b505050506040513d6020811015610fce57600080fd5b81019080805190602001909291905050505083600860006101000a81548160ff02191690831515021790555050505050505050505050565b7f789b5af2b10372d42e65feec7d7bf07403b6badd07163c2e51eb708a12d04fb4600954600c600d6006600a54600b54600160009054906101000a900473ffffffffffffffffffffffffffffffffffffffff16600260009054906101000a900473ffffffffffffffffffffffffffffffffffffffff166040518089600019166000191681526020018060200180602001806020018881526020018781526020018673ffffffffffffffffffffffffffffffffffffffff1673ffffffffffffffffffffffffffffffffffffffff1681526020018573ffffffffffffffffffffffffffffffffffffffff1673ffffffffffffffffffffffffffffffffffffffff16815260200184810384528b818154815260200191508054801561114b57602002820191906000526020600020905b81546000191681526020019060010190808311611133575b505084810383528a818154815260200191508054801561118a57602002820191906000526020600020905b815481526020019060010190808311611176575b505084810382528981815481526020019150805480156111ff57602002820191906000526020600020905b8160009054906101000a900473ffffffffffffffffffffffffffffffffffffffff1673ffffffffffffffffffffffffffffffffffffffff16815260200190600101908083116111b5575b50509b50505050505050505050505060405180910390a1565b60608060608060006003805490506040519080825280602002602001820160405280156112545781602001602082028038833980820191505090505b50925060038054905060405190808252806020026020018201604052801561128b5781602001602082028038833980820191505090505b509150600090505b600380549050811015611331576003818154811015156112af57fe5b90600052602060002090600202016000015483828151811015156112cf57fe5b9060200190602002019060001916908160001916815250506003818154811015156112f657fe5b906000526020600020906002020160010154828281518110151561131657fe5b90602001906020020181815250508080600101915050611293565b8282945094505050509091565b600080600080600860009054906101000a900460ff161561135e57600080fd5b600160009054906101000a900473ffffffffffffffffffffffffffffffffffffffff1693508373ffffffffffffffffffffffffffffffffffffffff1663c3c856408a8a8a8e8b8b600260009054906101000a900473ffffffffffffffffffffffffffffffffffffffff166040518863ffffffff167c01000000000000000000000000000000000000000000000000000000000281526004018088600019166000191681526020018060200180602001806020018781526020018681526020018573ffffffffffffffffffffffffffffffffffffffff1673ffffffffffffffffffffffffffffffffffffffff16815260200184810384528a818151815260200191508051906020019060200280838360005b8381101561148a57808201518184015260208101905061146f565b50505050905001848103835289818151815260200191508051906020019060200280838360005b838110156114cc5780820151818401526020810190506114b1565b50505050905001848103825288818151815260200191508051906020019060200280838360005b8381101561150e5780820151818401526020810190506114f3565b505050509050019a5050505050505050505050602060405180830381600087803b15801561153b57600080fd5b505af115801561154f573d6000803e3d6000fd5b505050506040513d602081101561156557600080fd5b810190808051906020019092919050505092503073ffffffffffffffffffffffffffffffffffffffff1663c0a9ef468488886040518463ffffffff167c0100000000000000000000000000000000000000000000000000000000028152600401808473ffffffffffffffffffffffffffffffffffffffff1673ffffffffffffffffffffffffffffffffffffffff1681526020018381526020018281526020019350505050600060405180830381600087803b15801561162357600080fd5b505af1158015611637573d6000803e3d6000fd5b50505050600091505b895182101561173157898281518110151561165757fe5b9060200190602002015190508073ffffffffffffffffffffffffffffffffffffffff1663c0a9ef468488886040518463ffffffff167c0100000000000000000000000000000000000000000000000000000000028152600401808473ffffffffffffffffffffffffffffffffffffffff1673ffffffffffffffffffffffffffffffffffffffff1681526020018381526020018281526020019350505050600060405180830381600087803b15801561170e57600080fd5b505af1158015611722573d6000803e3d6000fd5b50505050816001019150611640565b50505050505050505050565b600860009054906101000a900460ff161561175757600080fd5b6001600860006101000a81548160ff021916908315150217905550565b600260009054906101000a900473ffffffffffffffffffffffffffffffffffffffff1681565b60008060008060008090505b60038054905081101561181e5785600019166003828154811015156117c757fe5b906000526020600020906002020160000154600019161415611811576003818154811015156117f257fe5b906000526020600020906002020160010154915085829450945061181f565b80806001019150506117a6565b5b505050915091565b600a5481565b6060600080600090505b6003805490508110156118925760038181548110151561185357fe5b906000526020600020906002020160000154828281548110151561187357fe5b9060005260206000200181600019169055508080600101915050611837565b818054806020026020016040519081016040528092919081815260200182805480156118e157602002820191906000526020600020905b815460001916815260200190600101908083116118c9575b50505050509250505090565b806000806101000a81548173ffffffffffffffffffffffffffffffffffffffff021916908373ffffffffffffffffffffffffffffffffffffffff16021790555050565b600b5481565b6000600580549050905090565b600160009054906101000a900473ffffffffffffffffffffffffffffffffffffffff1681565b60008151835114151561197b57600080fd5b600090505b8251811015611a27576003604080519081016040528085848151811015156119a457fe5b9060200190602002015160001916815260200184848151811015156119c557fe5b906020019060200201518152509080600181540180825580915050906001820390600052602060002090600202016000909192909190915060008201518160000190600019169055602082015181600101555050508080600101915050611980565b505050565b600481815481101515611a3b57fe5b906000526020600020016000915054906101000a900473ffffffffffffffffffffffffffffffffffffffff1681565b600860009054906101000a900460ff1681565b600581815481101515611a8c57fe5b90600052602060002090600602016000915090508060000160009054906101000a900473ffffffffffffffffffffffffffffffffffffffff16908060010154908060020154908060030154908060040154908060050154905086565b60008060009054906101000a900473ffffffffffffffffffffffffffffffffffffffff16905090565b6000809054906101000a900473ffffffffffffffffffffffffffffffffffffffff1681565b600080600080600080600587815481101515611b4e57fe5b906000526020600020906006020160000160009054906101000a900473ffffffffffffffffffffffffffffffffffffffff16600588815481101515611b8f57fe5b906000526020600020906006020160010154600589815481101515611bb057fe5b90600052602060002090600602016002015460058a815481101515611bd157fe5b90600052602060002090600602016003015460058b815481101515611bf257fe5b90600052602060002090600602016004015460058c815481101515611c1357fe5b90600052602060002090600602016005015495509550955095509550955091939550919395565b611c42611fb1565b600860009054906101000a900460ff1615611c5c57600080fd5b60078490806001815401808255809150509060018203906000526020600020016000909192909190916101000a81548173ffffffffffffffffffffffffffffffffffffffff021916908373ffffffffffffffffffffffffffffffffffffffff1602179055505030816000019073ffffffffffffffffffffffffffffffffffffffff16908173ffffffffffffffffffffffffffffffffffffffff16815250507f436f6c6c61626f7261746520696e206d6572676500000000000000000000000081602001906000191690816000191681525050828160400181815250508181606001818152505042816080018181525050438160a00181815250506005819080600181540180825580915050906001820390600052602060002090600602016000909192909190915060008201518160000160006101000a81548173ffffffffffffffffffffffffffffffffffffffff021916908373ffffffffffffffffffffffffffffffffffffffff1602179055506020820151816001019060001916905560408201518160020155606082015181600301556080820151816004015560a082015181600501555050503073ffffffffffffffffffffffffffffffffffffffff16631dedc6f76040518163ffffffff167c0100000000000000000000000000000000000000000000000000000000028152600401600060405180830381600087803b158015611e6a57600080fd5b505af1158015611e7e573d6000803e3d6000fd5b5050505050505050565b6060600080600090505b600380549050811015611ee957600381815481101515611eae57fe5b9060005260206000209060020201600101548282815481101515611ece57fe5b90600052602060002001819055508080600101915050611e92565b81805480602002602001604051908101604052809291908181526020018280548015611f3457602002820191906000526020600020905b815481526020019060010190808311611f20575b50505050509250505090565b600381815481101515611f4f57fe5b90600052602060002090600202016000915090508060000154908060010154905082565b600681815481101515611f8257fe5b906000526020600020016000915054906101000a900473ffffffffffffffffffffffffffffffffffffffff1681565b60c060405190810160405280600073ffffffffffffffffffffffffffffffffffffffff168152602001600080191681526020016000815260200160008152602001600081526020016000815250905600a165627a7a7230582022d62b35a505c96b6dc2c461f10318610957ae921c697ed241428964950c95510029",
  "source": "pragma solidity ^0.4.16;\nimport \"./Measurements.sol\";\nimport \"./authority/Owned.sol\";\nimport \"./Database.sol\";\n\ncontract Product {\n    address public owner;\n    address public PRODUCT_FACTORY;\n    address public DATABASE_CONTRACT;\n    struct Action {\n        address handler;\n        bytes32 description;\n        uint lon;\n        uint lat;\n        uint timestamp;\n        uint blockNumber;\n    }\n\n    struct Attribute {\n        bytes32 attributeName;\n        uint value;\n    }\n    function transferOwner(address owner_) public {\n        owner = owner_;\n    }\n    function getOwner() public returns (address){\n       return owner;\n    }\n\n    Attribute [] public attributes;\n    Measurements [] public measurements;\n    Action[] public actions;\n\n    modifier notConsumed {\n        if (isConsumed)\n            throw;\n        _;\n    }\n\n    function setAttributes(bytes32 [] _attributeName, uint [] _values)   {\n        if (_attributeName.length != _values.length) throw;\n        for (uint i = 0; i < _attributeName.length; i++) {\n            attributes.push(Attribute(_attributeName[i], _values[i]));\n        }\n    }\n\n    function getAttributes() constant returns (bytes32 [], uint []) {\n        bytes32 [] memory attributeNames = new bytes32[](attributes.length);\n        uint [] memory values = new uint[](attributes.length);\n        for (uint i = 0; i < attributes.length; i++) {\n            attributeNames[i] = attributes[i].attributeName;\n            //productNamesList.push(attributeNames[i]);\n            values[i] = attributes[i].value;\n            //productValuesList.push(values[i]);\n        }\n        return (attributeNames,values);\n    }\n\n    function getAttributeByName(bytes32 _name) constant returns (bytes32 , uint ) {\n        bytes32 name;\n        uint value;\n        for (uint i = 0; i < attributes.length; i++) {\n            if(attributes[i].attributeName == _name){\n                value = attributes[i].value;\n                return (_name,value);\n            }\n        }\n    }\n\n    function getAttributeNames() constant returns (bytes32 [] ) {\n        bytes32[] names;\n        for (uint i = 0; i < attributes.length; i++) {\n            names[i]=attributes[i].attributeName;\n            \n        }\n        return names;\n    }\n    function getActionCount() public constant returns(uint) {\n        return actions.length;\n    }\n    function getActionByCount(uint index) public constant returns(address, bytes32, uint,uint,uint,uint) {\n        return (actions[index].handler, actions[index].description, actions[index].lon, actions[index].lat, actions[index].timestamp,actions[index].blockNumber);\n    }\n    function getAttributeValues() constant returns (uint [] ) {\n        uint[] values;\n        for (uint i = 0; i < attributes.length; i++) {\n            values[i]=attributes[i].value;\n        }\n        return values;\n    }\n\n    address[] public parentProducts;\n    address[] public childProducts;\n\n    bool public isConsumed;\n    bytes32 public name;\n    uint public lon;\n    uint public lat;\n    bytes32 [] attributeNames;\n    uint [] values;\n\n    \n    event ProductInfo(\n        bytes32 name, \n        bytes32[] attributeNames, \n        uint[] values, \n        address[] parentProducts,\n        uint lon,\n        uint lat,\n        address PRODUCT_FACTORY,\n        address DATABASE_CONTRACT\n        ) ;\n\n    function Product(address _owner, bytes32 _name, bytes32[] _attributeName, uint[] _values, address[] _parentProducts, uint _lon, uint _lat ,address _DATABASE_CONTRACT,address _PRODUCT_FACTORY) {\n        owner = _owner;\n        name = _name;\n        isConsumed = false;\n        parentProducts = _parentProducts;\n        attributeNames = _attributeName;\n        values = _values;\n        //setAttributes(_attributeName,_values);\n        PRODUCT_FACTORY = _PRODUCT_FACTORY;\n        lon = _lon;\n        lat = _lat;\n        DATABASE_CONTRACT = _DATABASE_CONTRACT;\n        Action memory creation;\n        creation.handler = msg.sender;\n        creation.description = \"Product creation\";\n        creation.lon = _lon;\n        creation.lat = _lat;\n        creation.timestamp = now;\n        creation.blockNumber = block.number;\n        actions.push(creation);\n        Database database = Database(DATABASE_CONTRACT);\n        database.storeProductReference(this);\n    }\n   \n    function logProductInfo(){\n        ProductInfo( name,\n            attributeNames,\n            values,\n            parentProducts,\n            lon,\n            lat,\n            PRODUCT_FACTORY,\n            DATABASE_CONTRACT);\n        \n    }\n\n    function () {\n        // If anyone wants to send Ether to this contract, the transaction gets rejected\n        throw;\n    }\n\n    function addAction( bytes32 _newProductsNames, bytes32 description, bytes32 []_newAttributeNames,uint[] _newValues,uint lon, uint lat, bool _consumed) notConsumed {\n\n\n        Action memory action;\n        action.handler = msg.sender;\n        action.description = description;\n        setAttributes(_newAttributeNames,_newValues);\n        action.lon = lon;\n        action.lat = lat;\n        action.timestamp = now;\n        action.blockNumber = block.number;\n\n        actions.push(action);\n\n        ProductFactory productFactory = ProductFactory(PRODUCT_FACTORY);\n\n        address[] memory parentProducts = new address[](1);\n        parentProducts[0] = this;\n        productFactory.createProduct(_newProductsNames, _newAttributeNames,_newValues, parentProducts, lon, lat, DATABASE_CONTRACT);\n        isConsumed = _consumed;\n    }\n\n    \n\n\n    function merge(address[] otherProducts, bytes32 newProductName, bytes32[] _newAttributeName, uint[] _newValues, uint lon, uint lat) notConsumed {\n        ProductFactory productFactory = ProductFactory(PRODUCT_FACTORY);\n        address newProduct = productFactory.createProduct(newProductName, _newAttributeName,  _newValues, otherProducts, lon, lat,DATABASE_CONTRACT);\n\n        this.collaborateInMerge(newProduct, lon, lat);\n        for (uint i = 0; i < otherProducts.length; ++i) {\n            Product prod = Product(otherProducts[i]);\n            prod.collaborateInMerge(newProduct, lon, lat);\n        }\n    }\n\n    function collaborateInMerge(address newProductAddress, uint lon, uint lat) notConsumed {\n        childProducts.push(newProductAddress);\n\n        Action memory action;\n        action.handler = this;\n        action.description = \"Collaborate in merge\";\n        action.lon = lon;\n        action.lat = lat;\n        action.timestamp = now;\n        action.blockNumber = block.number;\n        actions.push(action);\n\n        this.consume();\n    }\n\n    /* @notice Function to consume the Product */\n    function consume() notConsumed {\n        isConsumed = true;\n    }\n}\n\ncontract ProductFactory{\n    address public owner;\n    \n    /* @notice Constructor to create a Product Factory */\n    function ProductFactory() {\n        owner=msg.sender;\n    }\n\n    function () {\n        // If anyone wants to send Ether to this contract, the transaction gets rejected\n        throw;\n    }\n  \n\n    function createProduct(bytes32 _name, bytes32[] _newAttributeName, uint [] _newValues, address[] _parentProducts, uint _lon, uint _lat, address DATABASE_CONTRACT) returns(address) {\n        return new Product(owner,_name, _newAttributeName,  _newValues, _parentProducts, _lon, _lat, DATABASE_CONTRACT, this);\n    }\n}\n",
  "sourcePath": "/Users/hao/onedrive/OneDrive - The University of Melbourne/project/Product_passport/contracts/Product.sol",
  "compiler": {
    "name": "solc",
    "version": "0.4.23+commit.124ca40d.Emscripten.clang"
  },
  "schemaVersion": "2.0.0",
  "updatedAt": "2018-05-31T23:59:05.072Z"
}