{
  "contractName": "Product",
  "abi": [
    {
      "constant": true,
      "inputs": [],
      "name": "name",
      "outputs": [
        {
          "name": "",
          "type": "bytes32"
        }
      ],
      "payable": false,
      "stateMutability": "view",
      "type": "function"
    },
    {
      "constant": true,
      "inputs": [
        {
          "name": "",
          "type": "uint256"
        }
      ],
      "name": "childProducts",
      "outputs": [
        {
          "name": "",
          "type": "address"
        }
      ],
      "payable": false,
      "stateMutability": "view",
      "type": "function"
    },
    {
      "constant": false,
      "inputs": [
        {
          "name": "owner_",
          "type": "address"
        }
      ],
      "name": "setOwner",
      "outputs": [],
      "payable": false,
      "stateMutability": "nonpayable",
      "type": "function"
    },
    {
      "constant": true,
      "inputs": [],
      "name": "PRODUCT_FACTORY",
      "outputs": [
        {
          "name": "",
          "type": "address"
        }
      ],
      "payable": false,
      "stateMutability": "view",
      "type": "function"
    },
    {
      "constant": true,
      "inputs": [
        {
          "name": "",
          "type": "uint256"
        }
      ],
      "name": "measurements",
      "outputs": [
        {
          "name": "",
          "type": "address"
        }
      ],
      "payable": false,
      "stateMutability": "view",
      "type": "function"
    },
    {
      "constant": true,
      "inputs": [],
      "name": "isConsumed",
      "outputs": [
        {
          "name": "",
          "type": "bool"
        }
      ],
      "payable": false,
      "stateMutability": "view",
      "type": "function"
    },
    {
      "constant": true,
      "inputs": [
        {
          "name": "",
          "type": "uint256"
        }
      ],
      "name": "actions",
      "outputs": [
        {
          "name": "handler",
          "type": "address"
        },
        {
          "name": "description",
          "type": "bytes32"
        },
        {
          "name": "lon",
          "type": "int256"
        },
        {
          "name": "lat",
          "type": "int256"
        },
        {
          "name": "timestamp",
          "type": "uint256"
        },
        {
          "name": "blockNumber",
          "type": "uint256"
        }
      ],
      "payable": false,
      "stateMutability": "view",
      "type": "function"
    },
    {
      "constant": true,
      "inputs": [],
      "name": "additionalInformation",
      "outputs": [
        {
          "name": "",
          "type": "bytes32"
        }
      ],
      "payable": false,
      "stateMutability": "view",
      "type": "function"
    },
    {
      "constant": false,
      "inputs": [
        {
          "name": "owner_",
          "type": "address"
        }
      ],
      "name": "transferOwnerShip",
      "outputs": [],
      "payable": false,
      "stateMutability": "nonpayable",
      "type": "function"
    },
    {
      "constant": true,
      "inputs": [],
      "name": "owner",
      "outputs": [
        {
          "name": "",
          "type": "address"
        }
      ],
      "payable": false,
      "stateMutability": "view",
      "type": "function"
    },
    {
      "constant": true,
      "inputs": [
        {
          "name": "",
          "type": "uint256"
        }
      ],
      "name": "attributes",
      "outputs": [
        {
          "name": "attributeName",
          "type": "bytes32"
        },
        {
          "name": "value",
          "type": "int256"
        }
      ],
      "payable": false,
      "stateMutability": "view",
      "type": "function"
    },
    {
      "constant": true,
      "inputs": [
        {
          "name": "",
          "type": "uint256"
        }
      ],
      "name": "parentProducts",
      "outputs": [
        {
          "name": "",
          "type": "address"
        }
      ],
      "payable": false,
      "stateMutability": "view",
      "type": "function"
    },
    {
      "inputs": [
        {
          "name": "_name",
          "type": "bytes32"
        },
        {
          "name": "_attributeName",
          "type": "bytes32[]"
        },
        {
          "name": "_values",
          "type": "int256[]"
        },
        {
          "name": "_parentProducts",
          "type": "address[]"
        },
        {
          "name": "_lon",
          "type": "int256"
        },
        {
          "name": "_lat",
          "type": "int256"
        },
        {
          "name": "_measurements",
          "type": "address[]"
        },
        {
          "name": "_PRODUCT_FACTORY",
          "type": "address"
        }
      ],
      "payable": false,
      "stateMutability": "nonpayable",
      "type": "constructor"
    },
    {
      "payable": false,
      "stateMutability": "nonpayable",
      "type": "fallback"
    },
    {
      "anonymous": false,
      "inputs": [
        {
          "indexed": false,
          "name": "newOwner",
          "type": "address"
        }
      ],
      "name": "SetTheOwner",
      "type": "event"
    },
    {
      "constant": false,
      "inputs": [
        {
          "name": "_attributeName",
          "type": "bytes32[]"
        },
        {
          "name": "_values",
          "type": "int256[]"
        }
      ],
      "name": "setAttributes",
      "outputs": [],
      "payable": false,
      "stateMutability": "nonpayable",
      "type": "function"
    },
    {
      "constant": true,
      "inputs": [],
      "name": "getAttributes",
      "outputs": [
        {
          "name": "",
          "type": "bytes32[]"
        },
        {
          "name": "",
          "type": "int256[]"
        }
      ],
      "payable": false,
      "stateMutability": "view",
      "type": "function"
    },
    {
      "constant": false,
      "inputs": [
        {
          "name": "_newProductsNames",
          "type": "bytes32"
        },
        {
          "name": "description",
          "type": "bytes32"
        },
        {
          "name": "_newAttributeNames",
          "type": "bytes32[]"
        },
        {
          "name": "_newValues",
          "type": "int256[]"
        },
        {
          "name": "lon",
          "type": "int256"
        },
        {
          "name": "lat",
          "type": "int256"
        },
        {
          "name": "_consumed",
          "type": "bool"
        }
      ],
      "name": "addAction",
      "outputs": [],
      "payable": false,
      "stateMutability": "nonpayable",
      "type": "function"
    },
    {
      "constant": false,
      "inputs": [
        {
          "name": "otherProducts",
          "type": "address[]"
        },
        {
          "name": "newProductName",
          "type": "bytes32"
        },
        {
          "name": "_newAttributeName",
          "type": "bytes32[]"
        },
        {
          "name": "_newValues",
          "type": "int256[]"
        },
        {
          "name": "lon",
          "type": "int256"
        },
        {
          "name": "lat",
          "type": "int256"
        }
      ],
      "name": "merge",
      "outputs": [],
      "payable": false,
      "stateMutability": "nonpayable",
      "type": "function"
    },
    {
      "constant": false,
      "inputs": [
        {
          "name": "newProductAddress",
          "type": "address"
        },
        {
          "name": "lon",
          "type": "int256"
        },
        {
          "name": "lat",
          "type": "int256"
        }
      ],
      "name": "collaborateInMerge",
      "outputs": [],
      "payable": false,
      "stateMutability": "nonpayable",
      "type": "function"
    },
    {
      "constant": false,
      "inputs": [],
      "name": "consume",
      "outputs": [],
      "payable": false,
      "stateMutability": "nonpayable",
      "type": "function"
    }
  ],
  "bytecode": "0x60806040523480156200001157600080fd5b506040516200206c3803806200206c833981018060405281019080805190602001909291908051820192919060200180518201929190602001805182019291906020018051906020019092919080519060200190929190805182019291906020018051906020019092919050505062000089620003f4565b336000806101000a81548173ffffffffffffffffffffffffffffffffffffffff021916908373ffffffffffffffffffffffffffffffffffffffff16021790555088600681600019169055506000600560006101000a81548160ff02191690831515021790555085600390805190602001906200010792919062000444565b50620001238888620002d0640100000000026401000000009004565b82600890805190602001906200013b929190620004d3565b5081600160006101000a81548173ffffffffffffffffffffffffffffffffffffffff021916908373ffffffffffffffffffffffffffffffffffffffff16021790555033816000019073ffffffffffffffffffffffffffffffffffffffff16908173ffffffffffffffffffffffffffffffffffffffff16815250507f50726f64756374206372656174696f6e0000000000000000000000000000000081602001906000191690816000191681525050848160400181815250508381606001818152505042816080018181525050438160a00181815250506009819080600181540180825580915050906001820390600052602060002090600602016000909192909190915060008201518160000160006101000a81548173ffffffffffffffffffffffffffffffffffffffff021916908373ffffffffffffffffffffffffffffffffffffffff1602179055506020820151816001019060001916905560408201518160020155606082015181600301556080820151816004015560a08201518160050155505050505050505050505050620005ee565b60008060009054906101000a900473ffffffffffffffffffffffffffffffffffffffff1673ffffffffffffffffffffffffffffffffffffffff163373ffffffffffffffffffffffffffffffffffffffff161415156200032e57600080fd5b815183511415156200033f57600080fd5b600090505b8251811015620003ef576002604080519081016040528085848151811015156200036a57fe5b9060200190602002015160001916815260200184848151811015156200038c57fe5b90602001906020020151815250908060018154018082558091505090600182039060005260206000209060020201600090919290919091506000820151816000019060001916905560208201518160010155505050808060010191505062000344565b505050565b60c060405190810160405280600073ffffffffffffffffffffffffffffffffffffffff16815260200160008019168152602001600081526020016000815260200160008152602001600081525090565b828054828255906000526020600020908101928215620004c0579160200282015b82811115620004bf5782518260006101000a81548173ffffffffffffffffffffffffffffffffffffffff021916908373ffffffffffffffffffffffffffffffffffffffff1602179055509160200191906001019062000465565b5b509050620004cf919062000562565b5090565b8280548282559060005260206000209081019282156200054f579160200282015b828111156200054e5782518260006101000a81548173ffffffffffffffffffffffffffffffffffffffff021916908373ffffffffffffffffffffffffffffffffffffffff16021790555091602001919060010190620004f4565b5b5090506200055e9190620005a8565b5090565b620005a591905b80821115620005a157600081816101000a81549073ffffffffffffffffffffffffffffffffffffffff02191690555060010162000569565b5090565b90565b620005eb91905b80821115620005e757600081816101000a81549073ffffffffffffffffffffffffffffffffffffffff021916905550600101620005af565b5090565b90565b611a6e80620005fe6000396000f3006080604052600436106100fc576000357c0100000000000000000000000000000000000000000000000000000000900463ffffffff16806306fdde031461010e5780630a430d891461014157806313af4035146101ae578063152583de146101f15780631dedc6f7146102a5578063493b20a9146102bc57806363ca2ffe146103a15780637791a772146103f85780637a0d00311461046557806383240f831461049457806387b3eaba1461052c5780638863dd1a1461055f5780638da5cb5b146105a257806396cc93ca146105f9578063b3e25665146106a2578063d05dcc6a146106f9578063d7050cb814610749578063f227867f14610857575b34801561010857600080fd5b50600080fd5b34801561011a57600080fd5b506101236108c4565b60405180826000191660001916815260200191505060405180910390f35b34801561014d57600080fd5b5061016c600480360381019080803590602001909291905050506108ca565b604051808273ffffffffffffffffffffffffffffffffffffffff1673ffffffffffffffffffffffffffffffffffffffff16815260200191505060405180910390f35b3480156101ba57600080fd5b506101ef600480360381019080803573ffffffffffffffffffffffffffffffffffffffff169060200190929190505050610908565b005b3480156101fd57600080fd5b50610206610a2a565b604051808060200180602001838103835285818151815260200191508051906020019060200280838360005b8381101561024d578082015181840152602081019050610232565b50505050905001838103825284818151815260200191508051906020019060200280838360005b8381101561028f578082015181840152602081019050610274565b5050505090500194505050505060405180910390f35b3480156102b157600080fd5b506102ba610b50565b005b3480156102c857600080fd5b5061039f6004803603810190808035600019169060200190929190803560001916906020019092919080359060200190820180359060200190808060200260200160405190810160405280939291908181526020018383602002808284378201915050505050509192919290803590602001908201803590602001908080602002602001604051908101604052809392919081815260200183836020028082843782019150505050505091929192908035906020019092919080359060200190929190803515159060200190929190505050610b87565b005b3480156103ad57600080fd5b506103b6610fc0565b604051808273ffffffffffffffffffffffffffffffffffffffff1673ffffffffffffffffffffffffffffffffffffffff16815260200191505060405180910390f35b34801561040457600080fd5b5061042360048036038101908080359060200190929190505050610fe6565b604051808273ffffffffffffffffffffffffffffffffffffffff1673ffffffffffffffffffffffffffffffffffffffff16815260200191505060405180910390f35b34801561047157600080fd5b5061047a611024565b604051808215151515815260200191505060405180910390f35b3480156104a057600080fd5b506104bf60048036038101908080359060200190929190505050611037565b604051808773ffffffffffffffffffffffffffffffffffffffff1673ffffffffffffffffffffffffffffffffffffffff1681526020018660001916600019168152602001858152602001848152602001838152602001828152602001965050505050505060405180910390f35b34801561053857600080fd5b506105416110a2565b60405180826000191660001916815260200191505060405180910390f35b34801561056b57600080fd5b506105a0600480360381019080803573ffffffffffffffffffffffffffffffffffffffff1690602001909291905050506110a8565b005b3480156105ae57600080fd5b506105b76111ca565b604051808273ffffffffffffffffffffffffffffffffffffffff1673ffffffffffffffffffffffffffffffffffffffff16815260200191505060405180910390f35b34801561060557600080fd5b506106a060048036038101908080359060200190820180359060200190808060200260200160405190810160405280939291908181526020018383602002808284378201915050505050509192919290803590602001908201803590602001908080602002602001604051908101604052809392919081815260200183836020028082843782019150505050505091929192905050506111ef565b005b3480156106ae57600080fd5b506106f7600480360381019080803573ffffffffffffffffffffffffffffffffffffffff169060200190929190803590602001909291908035906020019092919050505061130d565b005b34801561070557600080fd5b506107246004803603810190808035906020019092919050505061155b565b6040518083600019166000191681526020018281526020019250505060405180910390f35b34801561075557600080fd5b506108556004803603810190808035906020019082018035906020019080806020026020016040519081016040528093929190818152602001838360200280828437820191505050505050919291929080356000191690602001909291908035906020019082018035906020019080806020026020016040519081016040528093929190818152602001838360200280828437820191505050505050919291929080359060200190820180359060200190808060200260200160405190810160405280939291908181526020018383602002808284378201915050505050509192919290803590602001909291908035906020019092919050505061158e565b005b34801561086357600080fd5b50610882600480360381019080803590602001909291905050506119b4565b604051808273ffffffffffffffffffffffffffffffffffffffff1673ffffffffffffffffffffffffffffffffffffffff16815260200191505060405180910390f35b60065481565b6004818154811015156108d957fe5b906000526020600020016000915054906101000a900473ffffffffffffffffffffffffffffffffffffffff1681565b6000809054906101000a900473ffffffffffffffffffffffffffffffffffffffff1673ffffffffffffffffffffffffffffffffffffffff163373ffffffffffffffffffffffffffffffffffffffff1614151561096357600080fd5b806000806101000a81548173ffffffffffffffffffffffffffffffffffffffff021916908373ffffffffffffffffffffffffffffffffffffffff1602179055507fe68cf4546522887de125201a08bb28732b71c701ef98bdde59bcd7ee077a65da6000809054906101000a900473ffffffffffffffffffffffffffffffffffffffff16604051808273ffffffffffffffffffffffffffffffffffffffff1673ffffffffffffffffffffffffffffffffffffffff16815260200191505060405180910390a150565b6060806060806000600280549050604051908082528060200260200182016040528015610a665781602001602082028038833980820191505090505b509250600280549050604051908082528060200260200182016040528015610a9d5781602001602082028038833980820191505090505b509150600090505b600280549050811015610b4357600281815481101515610ac157fe5b9060005260206000209060020201600001548382815181101515610ae157fe5b906020019060200201906000191690816000191681525050600281815481101515610b0857fe5b9060005260206000209060020201600101548282815181101515610b2857fe5b90602001906020020181815250508080600101915050610aa5565b8282945094505050509091565b600560009054906101000a900460ff1615610b6a57600080fd5b6001600560006101000a81548160ff021916908315150217905550565b610b8f6119f2565b60006060600560009054906101000a900460ff1615610bad57600080fd5b33836000019073ffffffffffffffffffffffffffffffffffffffff16908173ffffffffffffffffffffffffffffffffffffffff16815250508883602001906000191690816000191681525050610c0388886111ef565b858360400181815250508483606001818152505042836080018181525050438360a00181815250506009839080600181540180825580915050906001820390600052602060002090600602016000909192909190915060008201518160000160006101000a81548173ffffffffffffffffffffffffffffffffffffffff021916908373ffffffffffffffffffffffffffffffffffffffff1602179055506020820151816001019060001916905560408201518160020155606082015181600301556080820151816004015560a08201518160050155505050600160009054906101000a900473ffffffffffffffffffffffffffffffffffffffff1691506001604051908082528060200260200182016040528015610d305781602001602082028038833980820191505090505b50905030816000815181101515610d4357fe5b9060200190602002019073ffffffffffffffffffffffffffffffffffffffff16908173ffffffffffffffffffffffffffffffffffffffff16815250508173ffffffffffffffffffffffffffffffffffffffff1663f44f89ac8b8a8a858b8b60086040518863ffffffff167c01000000000000000000000000000000000000000000000000000000000281526004018088600019166000191681526020018060200180602001806020018781526020018681526020018060200185810385528b818151815260200191508051906020019060200280838360005b83811015610e37578082015181840152602081019050610e1c565b5050505090500185810384528a818151815260200191508051906020019060200280838360005b83811015610e79578082015181840152602081019050610e5e565b50505050905001858103835289818151815260200191508051906020019060200280838360005b83811015610ebb578082015181840152602081019050610ea0565b505050509050018581038252868181548152602001915080548015610f3557602002820191906000526020600020905b8160009054906101000a900473ffffffffffffffffffffffffffffffffffffffff1673ffffffffffffffffffffffffffffffffffffffff1681526020019060010190808311610eeb575b50509b505050505050505050505050602060405180830381600087803b158015610f5e57600080fd5b505af1158015610f72573d6000803e3d6000fd5b505050506040513d6020811015610f8857600080fd5b81019080805190602001909291905050505083600560006101000a81548160ff02191690831515021790555050505050505050505050565b600160009054906101000a900473ffffffffffffffffffffffffffffffffffffffff1681565b600881815481101515610ff557fe5b906000526020600020016000915054906101000a900473ffffffffffffffffffffffffffffffffffffffff1681565b600560009054906101000a900460ff1681565b60098181548110151561104657fe5b90600052602060002090600602016000915090508060000160009054906101000a900473ffffffffffffffffffffffffffffffffffffffff16908060010154908060020154908060030154908060040154908060050154905086565b60075481565b6000809054906101000a900473ffffffffffffffffffffffffffffffffffffffff1673ffffffffffffffffffffffffffffffffffffffff163373ffffffffffffffffffffffffffffffffffffffff1614151561110357600080fd5b806000806101000a81548173ffffffffffffffffffffffffffffffffffffffff021916908373ffffffffffffffffffffffffffffffffffffffff1602179055507fe68cf4546522887de125201a08bb28732b71c701ef98bdde59bcd7ee077a65da6000809054906101000a900473ffffffffffffffffffffffffffffffffffffffff16604051808273ffffffffffffffffffffffffffffffffffffffff1673ffffffffffffffffffffffffffffffffffffffff16815260200191505060405180910390a150565b6000809054906101000a900473ffffffffffffffffffffffffffffffffffffffff1681565b60008060009054906101000a900473ffffffffffffffffffffffffffffffffffffffff1673ffffffffffffffffffffffffffffffffffffffff163373ffffffffffffffffffffffffffffffffffffffff1614151561124c57600080fd5b8151835114151561125c57600080fd5b600090505b82518110156113085760026040805190810160405280858481518110151561128557fe5b9060200190602002015160001916815260200184848151811015156112a657fe5b906020019060200201518152509080600181540180825580915050906001820390600052602060002090600202016000909192909190915060008201518160000190600019169055602082015181600101555050508080600101915050611261565b505050565b6113156119f2565b600560009054906101000a900460ff161561132f57600080fd5b60048490806001815401808255809150509060018203906000526020600020016000909192909190916101000a81548173ffffffffffffffffffffffffffffffffffffffff021916908373ffffffffffffffffffffffffffffffffffffffff1602179055505030816000019073ffffffffffffffffffffffffffffffffffffffff16908173ffffffffffffffffffffffffffffffffffffffff16815250507f436f6c6c61626f7261746520696e206d6572676500000000000000000000000081602001906000191690816000191681525050828160400181815250508181606001818152505042816080018181525050438160a00181815250506009819080600181540180825580915050906001820390600052602060002090600602016000909192909190915060008201518160000160006101000a81548173ffffffffffffffffffffffffffffffffffffffff021916908373ffffffffffffffffffffffffffffffffffffffff1602179055506020820151816001019060001916905560408201518160020155606082015181600301556080820151816004015560a082015181600501555050503073ffffffffffffffffffffffffffffffffffffffff16631dedc6f76040518163ffffffff167c0100000000000000000000000000000000000000000000000000000000028152600401600060405180830381600087803b15801561153d57600080fd5b505af1158015611551573d6000803e3d6000fd5b5050505050505050565b60028181548110151561156a57fe5b90600052602060002090600202016000915090508060000154908060010154905082565b600080600080600560009054906101000a900460ff16156115ae57600080fd5b600160009054906101000a900473ffffffffffffffffffffffffffffffffffffffff1693508373ffffffffffffffffffffffffffffffffffffffff1663f44f89ac8a8a8a8e8b8b60086040518863ffffffff167c01000000000000000000000000000000000000000000000000000000000281526004018088600019166000191681526020018060200180602001806020018781526020018681526020018060200185810385528b818151815260200191508051906020019060200280838360005b8381101561168b578082015181840152602081019050611670565b5050505090500185810384528a818151815260200191508051906020019060200280838360005b838110156116cd5780820151818401526020810190506116b2565b50505050905001858103835289818151815260200191508051906020019060200280838360005b8381101561170f5780820151818401526020810190506116f4565b50505050905001858103825286818154815260200191508054801561178957602002820191906000526020600020905b8160009054906101000a900473ffffffffffffffffffffffffffffffffffffffff1673ffffffffffffffffffffffffffffffffffffffff168152602001906001019080831161173f575b50509b505050505050505050505050602060405180830381600087803b1580156117b257600080fd5b505af11580156117c6573d6000803e3d6000fd5b505050506040513d60208110156117dc57600080fd5b810190808051906020019092919050505092503073ffffffffffffffffffffffffffffffffffffffff1663b3e256658488886040518463ffffffff167c0100000000000000000000000000000000000000000000000000000000028152600401808473ffffffffffffffffffffffffffffffffffffffff1673ffffffffffffffffffffffffffffffffffffffff1681526020018381526020018281526020019350505050600060405180830381600087803b15801561189a57600080fd5b505af11580156118ae573d6000803e3d6000fd5b50505050600091505b89518210156119a85789828151811015156118ce57fe5b9060200190602002015190508073ffffffffffffffffffffffffffffffffffffffff1663b3e256658488886040518463ffffffff167c0100000000000000000000000000000000000000000000000000000000028152600401808473ffffffffffffffffffffffffffffffffffffffff1673ffffffffffffffffffffffffffffffffffffffff1681526020018381526020018281526020019350505050600060405180830381600087803b15801561198557600080fd5b505af1158015611999573d6000803e3d6000fd5b505050508160010191506118b7565b50505050505050505050565b6003818154811015156119c357fe5b906000526020600020016000915054906101000a900473ffffffffffffffffffffffffffffffffffffffff1681565b60c060405190810160405280600073ffffffffffffffffffffffffffffffffffffffff168152602001600080191681526020016000815260200160008152602001600081526020016000815250905600a165627a7a72305820e2aa1f42c8ffe1feff88303142980be90a44267757db0fde5ecb3b4bb8f5ff390029",
  "source": "pragma solidity ^0.4.16;\nimport \"./Measurements.sol\";\nimport \"./authority/Owned.sol\";\n\ncontract Product is Owned{\n\n    address public PRODUCT_FACTORY;\n\n    struct Action {\n        address handler;\n        bytes32 description;\n        int lon;\n        int lat;\n        uint timestamp;\n        uint blockNumber;\n    }\n\n    struct Attribute {\n        bytes32 attributeName;\n        int value;\n    }\n\n    Attribute [] public attributes;\n\n\n    modifier notConsumed {\n        if (isConsumed)\n            throw;\n        _;\n    }\n\n    function setAttributes(bytes32 [] _attributeName, int [] _values) onlyOwner  {\n        if (_attributeName.length != _values.length) throw;\n        for (uint i = 0; i < _attributeName.length; i++) {\n            attributes.push(Attribute(_attributeName[i], _values[i]));\n        }\n    }\n\n    function getAttributes() constant returns (bytes32 [], int []) {\n        bytes32 [] memory attributeNames = new bytes32[](attributes.length);\n        int [] memory values = new int[](attributes.length);\n        for (uint i = 0; i < attributes.length; i++) {\n            attributeNames[i] = attributes[i].attributeName;\n            values[i] = attributes[i].value;\n        }\n        return (attributeNames,values);\n    }\n\n    address[] public parentProducts;\n    address[] public childProducts;\n\n    bool public isConsumed;\n    bytes32 public name;\n    bytes32 public additionalInformation;\n\n    Measurements [] public measurements;\n\n    Action[] public actions;\n\n    function Product(bytes32 _name, bytes32[] _attributeName, int[] _values, address[] _parentProducts, int _lon, int _lat, Measurements[] _measurements, address _PRODUCT_FACTORY) {\n        name = _name;\n        isConsumed = false;\n        parentProducts = _parentProducts;\n        setAttributes(_attributeName,_values);\n        measurements=_measurements;\n        PRODUCT_FACTORY = _PRODUCT_FACTORY;\n\n        Action memory creation;\n        creation.handler = msg.sender;\n        creation.description = \"Product creation\";\n\n        creation.lon = _lon;\n        creation.lat = _lat;\n        creation.timestamp = now;\n        creation.blockNumber = block.number;\n\n        actions.push(creation);\n    }\n\n    function () {\n        // If anyone wants to send Ether to this contract, the transaction gets rejected\n        throw;\n    }\n\n    /* @notice Function to add an Action to the product.\n       @param _description The description of the Action.\n       @param _lon Longitude x10^10 where the Action is done.\n       @param _lat Latitude x10^10 where the Action is done.\n       @param _newProductNames In case that this Action creates more products from\n              this Product, the names of the new products should be provided here.\n       @param _newProductsAdditionalInformation In case that this Action creates more products from\n              this Product, the additional information of the new products should be provided here.\n       @param _consumed True if the product becomes consumed after the action. */\n    // bytes32 _name, bytes32[] _attributeName, int[] _values, address[] _parentProducts, int _lon, int _lat, Measurements[] _measurements, address _PRODUCT_FACTORY) {\n\n\n    function addAction(bytes32 _newProductsNames, bytes32 description, bytes32 []_newAttributeNames,int[] _newValues,int lon,int lat, bool _consumed) notConsumed {\n\n\n        Action memory action;\n        action.handler = msg.sender;\n        action.description = description;\n\n        setAttributes(_newAttributeNames,_newValues);\n\n\n        action.lon = lon;\n        action.lat = lat;\n        action.timestamp = now;\n        action.blockNumber = block.number;\n\n        actions.push(action);\n\n        ProductFactory productFactory = ProductFactory(PRODUCT_FACTORY);\n\n        address[] memory parentProducts = new address[](1);\n        parentProducts[0] = this;\n        productFactory.createProduct(_newProductsNames, _newAttributeNames,_newValues, parentProducts, lon, lat, measurements);\n        isConsumed = _consumed;\n    }\n\n    /* @notice Function to merge some products to build a new one.\n       @param otherProducts addresses of the other products to be merged.\n       @param newProductsName Name of the new product resulting of the merge.\n       @param newProductAdditionalInformation Additional information of the new product resulting of the merge.\n       @param _lon Longitude x10^10 where the merge is done.\n       @param _lat Latitude x10^10 where the merge is done. */\n    function merge(address[] otherProducts, bytes32 newProductName, bytes32[] _newAttributeName, int[] _newValues, int lon, int lat) notConsumed {\n        ProductFactory productFactory = ProductFactory(PRODUCT_FACTORY);\n        address newProduct = productFactory.createProduct(newProductName, _newAttributeName,  _newValues, otherProducts, lon, lat,measurements);\n\n        this.collaborateInMerge(newProduct, lon, lat);\n        for (uint i = 0; i < otherProducts.length; ++i) {\n            Product prod = Product(otherProducts[i]);\n            prod.collaborateInMerge(newProduct, lon, lat);\n        }\n    }\n\n    /* @notice Function to collaborate in a merge with some products to build a new one.\n       @param newProductsAddress Address of the new product resulting of the merge. */\n    function collaborateInMerge(address newProductAddress, int lon, int lat) notConsumed {\n        childProducts.push(newProductAddress);\n\n        Action memory action;\n        action.handler = this;\n        action.description = \"Collaborate in merge\";\n        action.lon = lon;\n        action.lat = lat;\n        action.timestamp = now;\n        action.blockNumber = block.number;\n        actions.push(action);\n\n        this.consume();\n    }\n\n    /* @notice Function to consume the Product */\n    function consume() notConsumed {\n        isConsumed = true;\n    }\n}\n\n/* @title Product Factory Contract\n   @author Andreu Rodguez i Donaire\n   @dev This contract represents a product factory which represents products to be tracked in\n   the TODO put name of platform ** platform. This product lets the handlers to register actions\n   on it or even combine it with other products. */\ncontract ProductFactory {\n\n    /* @notice Constructor to create a Product Factory */\n    function ProductFactory() {}\n\n    function () {\n        // If anyone wants to send Ether to this contract, the transaction gets rejected\n        throw;\n    }\n\n    function createProduct(bytes32 _name, bytes32[] _newAttributeName, int [] _newValues, address[] _parentProducts, int _lon, int _lat, Measurements [] _measurements) returns(address) {\n        return new Product(_name, _newAttributeName,  _newValues, _parentProducts, _lon, _lat, _measurements, this);\n    }\n}\n",
  "sourcePath": "/Users/hao/onedrive/OneDrive - The University of Melbourne/project/Product_passport/contracts/Product.sol",
  "compiler": {
    "name": "solc",
    "version": "0.4.23+commit.124ca40d.Emscripten.clang"
  },
  "schemaVersion": "2.0.0",
  "updatedAt": "2018-05-09T14:48:41.099Z"
}