{
  "contractName": "Product",
  "abi": [
    {
      "constant": true,
      "inputs": [],
      "name": "name",
      "outputs": [
        {
          "name": "",
          "type": "bytes32"
        }
      ],
      "payable": false,
      "stateMutability": "view",
      "type": "function"
    },
    {
      "constant": true,
      "inputs": [
        {
          "name": "",
          "type": "uint256"
        }
      ],
      "name": "childProducts",
      "outputs": [
        {
          "name": "",
          "type": "address"
        }
      ],
      "payable": false,
      "stateMutability": "view",
      "type": "function"
    },
    {
      "constant": true,
      "inputs": [],
      "name": "DATABASE_CONTRACT",
      "outputs": [
        {
          "name": "",
          "type": "address"
        }
      ],
      "payable": false,
      "stateMutability": "view",
      "type": "function"
    },
    {
      "constant": true,
      "inputs": [],
      "name": "lon",
      "outputs": [
        {
          "name": "",
          "type": "uint256"
        }
      ],
      "payable": false,
      "stateMutability": "view",
      "type": "function"
    },
    {
      "constant": true,
      "inputs": [],
      "name": "lat",
      "outputs": [
        {
          "name": "",
          "type": "uint256"
        }
      ],
      "payable": false,
      "stateMutability": "view",
      "type": "function"
    },
    {
      "constant": true,
      "inputs": [],
      "name": "PRODUCT_FACTORY",
      "outputs": [
        {
          "name": "",
          "type": "address"
        }
      ],
      "payable": false,
      "stateMutability": "view",
      "type": "function"
    },
    {
      "constant": true,
      "inputs": [],
      "name": "isConsumed",
      "outputs": [
        {
          "name": "",
          "type": "bool"
        }
      ],
      "payable": false,
      "stateMutability": "view",
      "type": "function"
    },
    {
      "constant": true,
      "inputs": [
        {
          "name": "",
          "type": "uint256"
        }
      ],
      "name": "actions",
      "outputs": [
        {
          "name": "handler",
          "type": "address"
        },
        {
          "name": "description",
          "type": "bytes32"
        },
        {
          "name": "lon",
          "type": "uint256"
        },
        {
          "name": "lat",
          "type": "uint256"
        },
        {
          "name": "timestamp",
          "type": "uint256"
        },
        {
          "name": "blockNumber",
          "type": "uint256"
        }
      ],
      "payable": false,
      "stateMutability": "view",
      "type": "function"
    },
    {
      "constant": true,
      "inputs": [],
      "name": "owner",
      "outputs": [
        {
          "name": "",
          "type": "address"
        }
      ],
      "payable": false,
      "stateMutability": "view",
      "type": "function"
    },
    {
      "constant": true,
      "inputs": [
        {
          "name": "",
          "type": "uint256"
        }
      ],
      "name": "attributes",
      "outputs": [
        {
          "name": "attributeName",
          "type": "bytes32"
        },
        {
          "name": "value",
          "type": "uint256"
        }
      ],
      "payable": false,
      "stateMutability": "view",
      "type": "function"
    },
    {
      "constant": true,
      "inputs": [
        {
          "name": "",
          "type": "uint256"
        }
      ],
      "name": "parentProducts",
      "outputs": [
        {
          "name": "",
          "type": "address"
        }
      ],
      "payable": false,
      "stateMutability": "view",
      "type": "function"
    },
    {
      "inputs": [
        {
          "name": "_owner",
          "type": "address"
        },
        {
          "name": "_name",
          "type": "bytes32"
        },
        {
          "name": "_attributeName",
          "type": "bytes32[]"
        },
        {
          "name": "_values",
          "type": "uint256[]"
        },
        {
          "name": "_parentProducts",
          "type": "address[]"
        },
        {
          "name": "_lon",
          "type": "uint256"
        },
        {
          "name": "_lat",
          "type": "uint256"
        },
        {
          "name": "_DATABASE_CONTRACT",
          "type": "address"
        },
        {
          "name": "_PRODUCT_FACTORY",
          "type": "address"
        }
      ],
      "payable": false,
      "stateMutability": "nonpayable",
      "type": "constructor"
    },
    {
      "payable": false,
      "stateMutability": "nonpayable",
      "type": "fallback"
    },
    {
      "anonymous": false,
      "inputs": [
        {
          "indexed": false,
          "name": "name",
          "type": "bytes32"
        },
        {
          "indexed": false,
          "name": "owner",
          "type": "address"
        },
        {
          "indexed": false,
          "name": "attributeNames",
          "type": "bytes32[]"
        },
        {
          "indexed": false,
          "name": "values",
          "type": "uint256[]"
        },
        {
          "indexed": false,
          "name": "parentProducts",
          "type": "address[]"
        },
        {
          "indexed": false,
          "name": "lon",
          "type": "uint256"
        },
        {
          "indexed": false,
          "name": "lat",
          "type": "uint256"
        },
        {
          "indexed": false,
          "name": "PRODUCT_FACTORY",
          "type": "address"
        },
        {
          "indexed": false,
          "name": "DATABASE_CONTRACT",
          "type": "address"
        }
      ],
      "name": "ProductInfo",
      "type": "event"
    },
    {
      "constant": false,
      "inputs": [
        {
          "name": "_attributeName",
          "type": "bytes32[]"
        },
        {
          "name": "_values",
          "type": "uint256[]"
        }
      ],
      "name": "setAttributes",
      "outputs": [],
      "payable": false,
      "stateMutability": "nonpayable",
      "type": "function"
    },
    {
      "constant": true,
      "inputs": [],
      "name": "getAttributes",
      "outputs": [
        {
          "name": "",
          "type": "bytes32[]"
        },
        {
          "name": "",
          "type": "uint256[]"
        }
      ],
      "payable": false,
      "stateMutability": "view",
      "type": "function"
    },
    {
      "constant": true,
      "inputs": [
        {
          "name": "_name",
          "type": "bytes32"
        }
      ],
      "name": "getAttributeByName",
      "outputs": [
        {
          "name": "",
          "type": "bytes32"
        },
        {
          "name": "",
          "type": "uint256"
        }
      ],
      "payable": false,
      "stateMutability": "view",
      "type": "function"
    },
    {
      "constant": false,
      "inputs": [
        {
          "name": "_owner",
          "type": "address"
        }
      ],
      "name": "transferOwnership",
      "outputs": [],
      "payable": false,
      "stateMutability": "nonpayable",
      "type": "function"
    },
    {
      "constant": true,
      "inputs": [],
      "name": "getActionCount",
      "outputs": [
        {
          "name": "",
          "type": "uint256"
        }
      ],
      "payable": false,
      "stateMutability": "view",
      "type": "function"
    },
    {
      "constant": true,
      "inputs": [
        {
          "name": "index",
          "type": "uint256"
        }
      ],
      "name": "getActionByCount",
      "outputs": [
        {
          "name": "",
          "type": "address"
        },
        {
          "name": "",
          "type": "bytes32"
        },
        {
          "name": "",
          "type": "uint256"
        },
        {
          "name": "",
          "type": "uint256"
        },
        {
          "name": "",
          "type": "uint256"
        },
        {
          "name": "",
          "type": "uint256"
        }
      ],
      "payable": false,
      "stateMutability": "view",
      "type": "function"
    },
    {
      "constant": false,
      "inputs": [
        {
          "name": "_newProductsNames",
          "type": "bytes32"
        },
        {
          "name": "description",
          "type": "bytes32"
        },
        {
          "name": "_newAttributeNames",
          "type": "bytes32[]"
        },
        {
          "name": "_newValues",
          "type": "uint256[]"
        },
        {
          "name": "lon",
          "type": "uint256"
        },
        {
          "name": "lat",
          "type": "uint256"
        },
        {
          "name": "_consumed",
          "type": "bool"
        }
      ],
      "name": "addAction",
      "outputs": [],
      "payable": false,
      "stateMutability": "nonpayable",
      "type": "function"
    },
    {
      "constant": false,
      "inputs": [
        {
          "name": "_newProductsNames",
          "type": "bytes32[]"
        },
        {
          "name": "description",
          "type": "bytes32"
        },
        {
          "name": "_newAttributeNames",
          "type": "bytes32[]"
        },
        {
          "name": "_newValues",
          "type": "uint256[]"
        },
        {
          "name": "lon",
          "type": "uint256"
        },
        {
          "name": "lat",
          "type": "uint256"
        },
        {
          "name": "_consumed",
          "type": "bool"
        }
      ],
      "name": "splitProduct",
      "outputs": [],
      "payable": false,
      "stateMutability": "nonpayable",
      "type": "function"
    },
    {
      "constant": false,
      "inputs": [
        {
          "name": "_otherProducts",
          "type": "address[]"
        },
        {
          "name": "_newProductName",
          "type": "bytes32"
        },
        {
          "name": "_newAttributeName",
          "type": "bytes32[]"
        },
        {
          "name": "_newValues",
          "type": "uint256[]"
        },
        {
          "name": "_lon",
          "type": "uint256"
        },
        {
          "name": "_lat",
          "type": "uint256"
        }
      ],
      "name": "merge",
      "outputs": [],
      "payable": false,
      "stateMutability": "nonpayable",
      "type": "function"
    },
    {
      "constant": false,
      "inputs": [
        {
          "name": "_newProductAddress",
          "type": "address"
        },
        {
          "name": "_lon",
          "type": "uint256"
        },
        {
          "name": "_lat",
          "type": "uint256"
        }
      ],
      "name": "addMergeAction",
      "outputs": [],
      "payable": false,
      "stateMutability": "nonpayable",
      "type": "function"
    }
  ],
  "bytecode": "0x60806040523480156200001157600080fd5b5060405162002920380380620029208339810180604052810190808051906020019092919080519060200190929190805182019291906020018051820192919060200180518201929190602001805190602001909291908051906020019092919080519060200190929190805190602001909291905050506200009362000753565b60008a6000806101000a81548173ffffffffffffffffffffffffffffffffffffffff021916908373ffffffffffffffffffffffffffffffffffffffff16021790555089600681600019169055506000600560006101000a81548160ff021916908315150217905550866003908051906020019062000113929190620007a3565b5088600790805190602001906200012c92919062000832565b5087600a9080519060200190620001459291906200088a565b506200016189896200068b640100000000026401000000009004565b82600160006101000a81548173ffffffffffffffffffffffffffffffffffffffff021916908373ffffffffffffffffffffffffffffffffffffffff160217905550856008819055508460098190555083600260006101000a81548173ffffffffffffffffffffffffffffffffffffffff021916908373ffffffffffffffffffffffffffffffffffffffff16021790555033826000019073ffffffffffffffffffffffffffffffffffffffff16908173ffffffffffffffffffffffffffffffffffffffff16815250507f50726f64756374206372656174696f6e0000000000000000000000000000000082602001906000191690816000191681525050858260400181815250508482606001818152505042826080018181525050438260a0018181525050600c829080600181540180825580915050906001820390600052602060002090600602016000909192909190915060008201518160000160006101000a81548173ffffffffffffffffffffffffffffffffffffffff021916908373ffffffffffffffffffffffffffffffffffffffff1602179055506020820151816001019060001916905560408201518160020155606082015181600301556080820151816004015560a08201518160050155505050600260009054906101000a900473ffffffffffffffffffffffffffffffffffffffff1690508073ffffffffffffffffffffffffffffffffffffffff1663805593db306040518263ffffffff167c0100000000000000000000000000000000000000000000000000000000028152600401808273ffffffffffffffffffffffffffffffffffffffff1673ffffffffffffffffffffffffffffffffffffffff168152602001915050600060405180830381600087803b158015620003f657600080fd5b505af11580156200040b573d6000803e3d6000fd5b505050507f3e1affa5ee6c367ab0bc698a48e776e21f8335906e55934565f1504761f8e2026006546000809054906101000a900473ffffffffffffffffffffffffffffffffffffffff166007600a6003600854600954600160009054906101000a900473ffffffffffffffffffffffffffffffffffffffff16600260009054906101000a900473ffffffffffffffffffffffffffffffffffffffff16604051808a600019166000191681526020018973ffffffffffffffffffffffffffffffffffffffff1673ffffffffffffffffffffffffffffffffffffffff1681526020018060200180602001806020018881526020018781526020018673ffffffffffffffffffffffffffffffffffffffff1673ffffffffffffffffffffffffffffffffffffffff1681526020018573ffffffffffffffffffffffffffffffffffffffff1673ffffffffffffffffffffffffffffffffffffffff16815260200184810384528b8181548152602001915080548015620005aa57602002820191906000526020600020905b8154600019168152602001906001019080831162000591575b505084810383528a8181548152602001915080548015620005eb57602002820191906000526020600020905b815481526020019060010190808311620005d6575b505084810382528981815481526020019150805480156200066257602002820191906000526020600020905b8160009054906101000a900473ffffffffffffffffffffffffffffffffffffffff1673ffffffffffffffffffffffffffffffffffffffff168152602001906001019080831162000617575b50509c5050505050505050505050505060405180910390a1505050505050505050505062000972565b6000815183511415156200069e57600080fd5b600090505b82518110156200074e57600b60408051908101604052808584815181101515620006c957fe5b906020019060200201516000191681526020018484815181101515620006eb57fe5b906020019060200201518152509080600181540180825580915050906001820390600052602060002090600202016000909192909190915060008201518160000190600019169055602082015181600101555050508080600101915050620006a3565b505050565b60c060405190810160405280600073ffffffffffffffffffffffffffffffffffffffff16815260200160008019168152602001600081526020016000815260200160008152602001600081525090565b8280548282559060005260206000209081019282156200081f579160200282015b828111156200081e5782518260006101000a81548173ffffffffffffffffffffffffffffffffffffffff021916908373ffffffffffffffffffffffffffffffffffffffff16021790555091602001919060010190620007c4565b5b5090506200082e9190620008dc565b5090565b82805482825590600052602060002090810192821562000877579160200282015b828111156200087657825182906000191690559160200191906001019062000853565b5b50905062000886919062000922565b5090565b828054828255906000526020600020908101928215620008c9579160200282015b82811115620008c8578251825591602001919060010190620008ab565b5b509050620008d891906200094a565b5090565b6200091f91905b808211156200091b57600081816101000a81549073ffffffffffffffffffffffffffffffffffffffff021916905550600101620008e3565b5090565b90565b6200094791905b808211156200094357600081600090555060010162000929565b5090565b90565b6200096f91905b808211156200096b57600081600090555060010162000951565b5090565b90565b611f9e80620009826000396000f30060806040526004361061011d576000357c0100000000000000000000000000000000000000000000000000000000900463ffffffff16806306fdde031461012f5780630a430d89146101625780630c30b7e7146101cf578063152583de146102b45780631b91770c14610368578063301374c6146104765780633221be1e146104cd578063400566d7146105245780634dee73c81461057857806355d576cc146105a35780635eecd218146105ce57806363ca2ffe146105f9578063743d3f44146106505780637a0d0031146106f957806383240f83146107285780638da5cb5b146107c05780638dfb254c14610817578063d05dcc6a146108af578063e0249d68146108ff578063f227867f14610a19578063f2fde38b14610a86575b34801561012957600080fd5b50600080fd5b34801561013b57600080fd5b50610144610ac9565b60405180826000191660001916815260200191505060405180910390f35b34801561016e57600080fd5b5061018d60048036038101908080359060200190929190505050610acf565b604051808273ffffffffffffffffffffffffffffffffffffffff1673ffffffffffffffffffffffffffffffffffffffff16815260200191505060405180910390f35b3480156101db57600080fd5b506102b26004803603810190808035600019169060200190929190803560001916906020019092919080359060200190820180359060200190808060200260200160405190810160405280939291908181526020018383602002808284378201915050505050509192919290803590602001908201803590602001908080602002602001604051908101604052809392919081815260200183836020028082843782019150505050505091929192908035906020019092919080359060200190929190803515159060200190929190505050610b0d565b005b3480156102c057600080fd5b506102c9610f53565b604051808060200180602001838103835285818151815260200191508051906020019060200280838360005b838110156103105780820151818401526020810190506102f5565b50505050905001838103825284818151815260200191508051906020019060200280838360005b83811015610352578082015181840152602081019050610337565b5050505090500194505050505060405180910390f35b34801561037457600080fd5b5061047460048036038101908080359060200190820180359060200190808060200260200160405190810160405280939291908181526020018383602002808284378201915050505050509192919290803560001916906020019092919080359060200190820180359060200190808060200260200160405190810160405280939291908181526020018383602002808284378201915050505050509192919290803590602001908201803590602001908080602002602001604051908101604052809392919081815260200183836020028082843782019150505050505091929192908035906020019092919080359060200190929190505050611079565b005b34801561048257600080fd5b5061048b6114ac565b604051808273ffffffffffffffffffffffffffffffffffffffff1673ffffffffffffffffffffffffffffffffffffffff16815260200191505060405180910390f35b3480156104d957600080fd5b50610522600480360381019080803573ffffffffffffffffffffffffffffffffffffffff16906020019092919080359060200190929190803590602001909291905050506114d2565b005b34801561053057600080fd5b5061055360048036038101908080356000191690602001909291905050506116bf565b6040518083600019166000191681526020018281526020019250505060405180910390f35b34801561058457600080fd5b5061058d61174c565b6040518082815260200191505060405180910390f35b3480156105af57600080fd5b506105b8611752565b6040518082815260200191505060405180910390f35b3480156105da57600080fd5b506105e3611758565b6040518082815260200191505060405180910390f35b34801561060557600080fd5b5061060e611765565b604051808273ffffffffffffffffffffffffffffffffffffffff1673ffffffffffffffffffffffffffffffffffffffff16815260200191505060405180910390f35b34801561065c57600080fd5b506106f7600480360381019080803590602001908201803590602001908080602002602001604051908101604052809392919081815260200183836020028082843782019150505050505091929192908035906020019082018035906020019080806020026020016040519081016040528093929190818152602001838360200280828437820191505050505050919291929050505061178b565b005b34801561070557600080fd5b5061070e61184e565b604051808215151515815260200191505060405180910390f35b34801561073457600080fd5b5061075360048036038101908080359060200190929190505050611861565b604051808773ffffffffffffffffffffffffffffffffffffffff1673ffffffffffffffffffffffffffffffffffffffff1681526020018660001916600019168152602001858152602001848152602001838152602001828152602001965050505050505060405180910390f35b3480156107cc57600080fd5b506107d56118cc565b604051808273ffffffffffffffffffffffffffffffffffffffff1673ffffffffffffffffffffffffffffffffffffffff16815260200191505060405180910390f35b34801561082357600080fd5b50610842600480360381019080803590602001909291905050506118f1565b604051808773ffffffffffffffffffffffffffffffffffffffff1673ffffffffffffffffffffffffffffffffffffffff1681526020018660001916600019168152602001858152602001848152602001838152602001828152602001965050505050505060405180910390f35b3480156108bb57600080fd5b506108da600480360381019080803590602001909291905050506119f5565b6040518083600019166000191681526020018281526020019250505060405180910390f35b34801561090b57600080fd5b50610a1760048036038101908080359060200190820180359060200190808060200260200160405190810160405280939291908181526020018383602002808284378201915050505050509192919290803560001916906020019092919080359060200190820180359060200190808060200260200160405190810160405280939291908181526020018383602002808284378201915050505050509192919290803590602001908201803590602001908080602002602001604051908101604052809392919081815260200183836020028082843782019150505050505091929192908035906020019092919080359060200190929190803515159060200190929190505050611a28565b005b348015610a2557600080fd5b50610a4460048036038101908080359060200190929190505050611ea1565b604051808273ffffffffffffffffffffffffffffffffffffffff1673ffffffffffffffffffffffffffffffffffffffff16815260200191505060405180910390f35b348015610a9257600080fd5b50610ac7600480360381019080803573ffffffffffffffffffffffffffffffffffffffff169060200190929190505050611edf565b005b60065481565b600481815481101515610ade57fe5b906000526020600020016000915054906101000a900473ffffffffffffffffffffffffffffffffffffffff1681565b610b15611f22565b60006060600560009054906101000a900460ff1615610b3357600080fd5b610b3d888861178b565b33836000019073ffffffffffffffffffffffffffffffffffffffff16908173ffffffffffffffffffffffffffffffffffffffff16815250508883602001906000191690816000191681525050858360400181815250508483606001818152505042836080018181525050438360a0018181525050600c839080600181540180825580915050906001820390600052602060002090600602016000909192909190915060008201518160000160006101000a81548173ffffffffffffffffffffffffffffffffffffffff021916908373ffffffffffffffffffffffffffffffffffffffff1602179055506020820151816001019060001916905560408201518160020155606082015181600301556080820151816004015560a08201518160050155505050600160009054906101000a900473ffffffffffffffffffffffffffffffffffffffff1691506001604051908082528060200260200182016040528015610cb65781602001602082028038833980820191505090505b50905030816000815181101515610cc957fe5b9060200190602002019073ffffffffffffffffffffffffffffffffffffffff16908173ffffffffffffffffffffffffffffffffffffffff16815250508173ffffffffffffffffffffffffffffffffffffffff166370233fde338c8b8b868c8c600260009054906101000a900473ffffffffffffffffffffffffffffffffffffffff166040518963ffffffff167c0100000000000000000000000000000000000000000000000000000000028152600401808973ffffffffffffffffffffffffffffffffffffffff1673ffffffffffffffffffffffffffffffffffffffff16815260200188600019166000191681526020018060200180602001806020018781526020018681526020018573ffffffffffffffffffffffffffffffffffffffff1673ffffffffffffffffffffffffffffffffffffffff16815260200184810384528a818151815260200191508051906020019060200280838360005b83811015610e3f578082015181840152602081019050610e24565b50505050905001848103835289818151815260200191508051906020019060200280838360005b83811015610e81578082015181840152602081019050610e66565b50505050905001848103825288818151815260200191508051906020019060200280838360005b83811015610ec3578082015181840152602081019050610ea8565b505050509050019b505050505050505050505050602060405180830381600087803b158015610ef157600080fd5b505af1158015610f05573d6000803e3d6000fd5b505050506040513d6020811015610f1b57600080fd5b81019080805190602001909291905050505083600560006101000a81548160ff02191690831515021790555050505050505050505050565b6060806060806000600b80549050604051908082528060200260200182016040528015610f8f5781602001602082028038833980820191505090505b509250600b80549050604051908082528060200260200182016040528015610fc65781602001602082028038833980820191505090505b509150600090505b600b8054905081101561106c57600b81815481101515610fea57fe5b906000526020600020906002020160000154838281518110151561100a57fe5b906020019060200201906000191690816000191681525050600b8181548110151561103157fe5b906000526020600020906002020160010154828281518110151561105157fe5b90602001906020020181815250508080600101915050610fce565b8282945094505050509091565b600080600080600560009054906101000a900460ff161561109957600080fd5b600160009054906101000a900473ffffffffffffffffffffffffffffffffffffffff1693508373ffffffffffffffffffffffffffffffffffffffff166370233fde338b8b8b8f8c8c600260009054906101000a900473ffffffffffffffffffffffffffffffffffffffff166040518963ffffffff167c0100000000000000000000000000000000000000000000000000000000028152600401808973ffffffffffffffffffffffffffffffffffffffff1673ffffffffffffffffffffffffffffffffffffffff16815260200188600019166000191681526020018060200180602001806020018781526020018681526020018573ffffffffffffffffffffffffffffffffffffffff1673ffffffffffffffffffffffffffffffffffffffff16815260200184810384528a818151815260200191508051906020019060200280838360005b838110156111f85780820151818401526020810190506111dd565b50505050905001848103835289818151815260200191508051906020019060200280838360005b8381101561123a57808201518184015260208101905061121f565b50505050905001848103825288818151815260200191508051906020019060200280838360005b8381101561127c578082015181840152602081019050611261565b505050509050019b505050505050505050505050602060405180830381600087803b1580156112aa57600080fd5b505af11580156112be573d6000803e3d6000fd5b505050506040513d60208110156112d457600080fd5b810190808051906020019092919050505092503073ffffffffffffffffffffffffffffffffffffffff16633221be1e8488886040518463ffffffff167c0100000000000000000000000000000000000000000000000000000000028152600401808473ffffffffffffffffffffffffffffffffffffffff1673ffffffffffffffffffffffffffffffffffffffff1681526020018381526020018281526020019350505050600060405180830381600087803b15801561139257600080fd5b505af11580156113a6573d6000803e3d6000fd5b50505050600091505b89518210156114a05789828151811015156113c657fe5b9060200190602002015190508073ffffffffffffffffffffffffffffffffffffffff16633221be1e8488886040518463ffffffff167c0100000000000000000000000000000000000000000000000000000000028152600401808473ffffffffffffffffffffffffffffffffffffffff1673ffffffffffffffffffffffffffffffffffffffff1681526020018381526020018281526020019350505050600060405180830381600087803b15801561147d57600080fd5b505af1158015611491573d6000803e3d6000fd5b505050508160010191506113af565b50505050505050505050565b600260009054906101000a900473ffffffffffffffffffffffffffffffffffffffff1681565b6114da611f22565b600560009054906101000a900460ff16156114f457600080fd5b60048490806001815401808255809150509060018203906000526020600020016000909192909190916101000a81548173ffffffffffffffffffffffffffffffffffffffff021916908373ffffffffffffffffffffffffffffffffffffffff1602179055505030816000019073ffffffffffffffffffffffffffffffffffffffff16908173ffffffffffffffffffffffffffffffffffffffff16815250507f4d65726765207468652070726f6475637420616e6420637265617465206e657781602001906000191690816000191681525050828160400181815250508181606001818152505042816080018181525050438160a0018181525050600c819080600181540180825580915050906001820390600052602060002090600602016000909192909190915060008201518160000160006101000a81548173ffffffffffffffffffffffffffffffffffffffff021916908373ffffffffffffffffffffffffffffffffffffffff1602179055506020820151816001019060001916905560408201518160020155606082015181600301556080820151816004015560a082015181600501555050506001600560006101000a81548160ff02191690831515021790555050505050565b60008060008060008090505b600b80549050811015611743578560001916600b828154811015156116ec57fe5b90600052602060002090600202016000015460001916141561173657600b8181548110151561171757fe5b9060005260206000209060020201600101549150858294509450611744565b80806001019150506116cb565b5b505050915091565b60085481565b60095481565b6000600c80549050905090565b600160009054906101000a900473ffffffffffffffffffffffffffffffffffffffff1681565b60008151835114151561179d57600080fd5b600090505b825181101561184957600b604080519081016040528085848151811015156117c657fe5b9060200190602002015160001916815260200184848151811015156117e757fe5b9060200190602002015181525090806001815401808255809150509060018203906000526020600020906002020160009091929091909150600082015181600001906000191690556020820151816001015550505080806001019150506117a2565b505050565b600560009054906101000a900460ff1681565b600c8181548110151561187057fe5b90600052602060002090600602016000915090508060000160009054906101000a900473ffffffffffffffffffffffffffffffffffffffff16908060010154908060020154908060030154908060040154908060050154905086565b6000809054906101000a900473ffffffffffffffffffffffffffffffffffffffff1681565b600080600080600080600c8781548110151561190957fe5b906000526020600020906006020160000160009054906101000a900473ffffffffffffffffffffffffffffffffffffffff16600c8881548110151561194a57fe5b906000526020600020906006020160010154600c8981548110151561196b57fe5b906000526020600020906006020160020154600c8a81548110151561198c57fe5b906000526020600020906006020160030154600c8b8154811015156119ad57fe5b906000526020600020906006020160040154600c8c8154811015156119ce57fe5b90600052602060002090600602016005015495509550955095509550955091939550919395565b600b81815481101515611a0457fe5b90600052602060002090600202016000915090508060000154908060010154905082565b611a30611f22565b600060606000600560009054906101000a900460ff1615611a5057600080fd5b33846000019073ffffffffffffffffffffffffffffffffffffffff16908173ffffffffffffffffffffffffffffffffffffffff16815250508984602001906000191690816000191681525050611aa6898961178b565b868460400181815250508584606001818152505042846080018181525050438460a0018181525050600c849080600181540180825580915050906001820390600052602060002090600602016000909192909190915060008201518160000160006101000a81548173ffffffffffffffffffffffffffffffffffffffff021916908373ffffffffffffffffffffffffffffffffffffffff1602179055506020820151816001019060001916905560408201518160020155606082015181600301556080820151816004015560a08201518160050155505050600160009054906101000a900473ffffffffffffffffffffffffffffffffffffffff1692506001604051908082528060200260200182016040528015611bd35781602001602082028038833980820191505090505b50915030826000815181101515611be657fe5b9060200190602002019073ffffffffffffffffffffffffffffffffffffffff16908173ffffffffffffffffffffffffffffffffffffffff1681525050600090505b8a51811015611e7a578273ffffffffffffffffffffffffffffffffffffffff166370233fde338d84815181101515611c5b57fe5b906020019060200201518c8c878d8d600260009054906101000a900473ffffffffffffffffffffffffffffffffffffffff166040518963ffffffff167c0100000000000000000000000000000000000000000000000000000000028152600401808973ffffffffffffffffffffffffffffffffffffffff1673ffffffffffffffffffffffffffffffffffffffff16815260200188600019166000191681526020018060200180602001806020018781526020018681526020018573ffffffffffffffffffffffffffffffffffffffff1673ffffffffffffffffffffffffffffffffffffffff16815260200184810384528a818151815260200191508051906020019060200280838360005b83811015611d81578082015181840152602081019050611d66565b50505050905001848103835289818151815260200191508051906020019060200280838360005b83811015611dc3578082015181840152602081019050611da8565b50505050905001848103825288818151815260200191508051906020019060200280838360005b83811015611e05578082015181840152602081019050611dea565b505050509050019b505050505050505050505050602060405180830381600087803b158015611e3357600080fd5b505af1158015611e47573d6000803e3d6000fd5b505050506040513d6020811015611e5d57600080fd5b810190808051906020019092919050505050806001019050611c27565b84600560006101000a81548160ff0219169083151502179055505050505050505050505050565b600381815481101515611eb057fe5b906000526020600020016000915054906101000a900473ffffffffffffffffffffffffffffffffffffffff1681565b806000806101000a81548173ffffffffffffffffffffffffffffffffffffffff021916908373ffffffffffffffffffffffffffffffffffffffff16021790555050565b60c060405190810160405280600073ffffffffffffffffffffffffffffffffffffffff168152602001600080191681526020016000815260200160008152602001600081526020016000815250905600a165627a7a723058204d96a45964202dbc59588c201e6f5005c0d82841c2ec24a4bf753ce317d92f7f0029",
  "source": "pragma solidity ^0.4.16;\n\nimport \"./authority/Owned.sol\";\nimport \"./Database.sol\";\nimport \"./authority/Roles.sol\";\n\ncontract Product {\n    \n    address public owner;\n    address public PRODUCT_FACTORY;\n    address public DATABASE_CONTRACT;\n    address[] public parentProducts;\n    address[] public childProducts;\n    \n    bool public isConsumed;\n    bytes32 public name;\n    bytes32 [] attributeNames;\n    uint public lon;\n    uint public lat;\n    uint [] values;\n    \n    \n    Attribute [] public attributes;\n    Action[] public actions;\n    \n    \n    \n    struct Action {\n        address handler;\n        bytes32 description;\n        uint lon;\n        uint lat;\n        uint timestamp;\n        uint blockNumber;\n    }\n\n    struct Attribute {\n        bytes32 attributeName;\n        uint value;\n    }\n    \n\n    event ProductInfo(\n        bytes32 name, \n        address owner,\n        bytes32[] attributeNames, \n        uint[] values, \n        address[] parentProducts,\n        uint lon,\n        uint lat,\n        address PRODUCT_FACTORY,\n        address DATABASE_CONTRACT\n        ) ;\n    \n\n    modifier notConsumed {\n        if (isConsumed)\n            throw;\n        _;\n    }\n    function () {\n            // If anyone wants to send Ether to this contract, the transaction gets rejected\n            throw;\n        }\n\n    \n    function Product(address _owner, bytes32 _name, bytes32[] _attributeName, uint[] _values, address[] _parentProducts, uint _lon, uint _lat ,address _DATABASE_CONTRACT,address _PRODUCT_FACTORY) {\n        owner = _owner;\n        name = _name;\n        isConsumed = false;\n        parentProducts = _parentProducts;\n        attributeNames = _attributeName;\n        values = _values;\n        setAttributes(_attributeName,_values);\n        PRODUCT_FACTORY = _PRODUCT_FACTORY;\n        lon = _lon;\n        lat = _lat;\n        DATABASE_CONTRACT = _DATABASE_CONTRACT;\n      \n        Action memory firstCreate;\n        firstCreate.handler = msg.sender;\n        firstCreate.description = \"Product creation\";\n        firstCreate.lon = _lon;\n        firstCreate.lat = _lat;\n        firstCreate.timestamp = now;\n        firstCreate.blockNumber = block.number;\n        actions.push(firstCreate);\n     \n        Database database = Database(DATABASE_CONTRACT);\n        database.storeProductReference(this);\n        \n        \n        ProductInfo( name,\n            owner,\n            attributeNames,\n            values,\n            parentProducts,\n            lon,\n            lat,\n            PRODUCT_FACTORY,\n            DATABASE_CONTRACT);\n    }\n     \n \n    \n    function setAttributes(bytes32 [] _attributeName, uint [] _values)   {\n        if (_attributeName.length != _values.length) throw;\n        for (uint i = 0; i < _attributeName.length; i++) {\n            attributes.push(Attribute(_attributeName[i], _values[i]));\n        }\n    }\n\n    function getAttributes() constant returns (bytes32 [], uint []) {\n        bytes32 [] memory attributeNames = new bytes32[](attributes.length);\n        uint [] memory values = new uint[](attributes.length);\n        for (uint i = 0; i < attributes.length; i++) {\n            attributeNames[i] = attributes[i].attributeName;\n            values[i] = attributes[i].value;\n        }\n        return (attributeNames,values);\n    }\n\n    function getAttributeByName(bytes32 _name) constant returns (bytes32 , uint ) {\n        bytes32 name;\n        uint value;\n        for (uint i = 0; i < attributes.length; i++) {\n            if(attributes[i].attributeName == _name){\n                value = attributes[i].value;\n                return (_name,value);\n            }\n        }\n    }\n    \n    \n    function transferOwnership (address _owner) public  {\n        owner = _owner;\n    }\n    \n     \n  \n    \n    function getActionCount() public constant returns(uint) {\n        return actions.length;\n    }\n    \n    \n    \n    function getActionByCount(uint index) public constant returns(address, bytes32, uint,uint,uint,uint) {\n        return (actions[index].handler, actions[index].description, actions[index].lon, actions[index].lat, actions[index].timestamp,actions[index].blockNumber);\n    }\n  \n\n    function addAction( bytes32 _newProductsNames, bytes32 description, bytes32 []_newAttributeNames,uint[] _newValues,uint lon, uint lat, bool _consumed) notConsumed {\n\n        setAttributes(_newAttributeNames,_newValues);\n    \n        \n        Action memory anyAction;\n        anyAction.handler = msg.sender;\n        anyAction.description = description;\n        anyAction.lon = lon;\n        anyAction.lat = lat;\n        anyAction.timestamp = now;\n        anyAction.blockNumber = block.number;\n\n        actions.push(anyAction);\n\n\n        ProductFactory productFactory = ProductFactory(PRODUCT_FACTORY);\n\n        address[] memory parentProducts = new address[](1);\n        parentProducts[0] = this;\n        productFactory.createProduct(msg.sender,_newProductsNames, _newAttributeNames,_newValues, parentProducts, lon, lat, DATABASE_CONTRACT);\n        isConsumed = _consumed;\n    }\n    \n    function splitProduct( bytes32[] _newProductsNames, bytes32 description, bytes32 []_newAttributeNames,uint[] _newValues,uint lon, uint lat, bool _consumed) notConsumed {\n\n\n        Action memory split;\n        split.handler = msg.sender;\n        split.description = description;\n        setAttributes(_newAttributeNames,_newValues);\n        split.lon = lon;\n        split.lat = lat;\n        split.timestamp = now;\n        split.blockNumber = block.number;\n\n        actions.push(split);\n\n        ProductFactory productFactory = ProductFactory(PRODUCT_FACTORY);\n        address[] memory parentProducts = new address[](1);\n        parentProducts[0] = this;\n        for (uint i = 0; i < _newProductsNames.length; ++i) {\n            productFactory.createProduct( msg.sender, _newProductsNames[i], _newAttributeNames,_newValues, parentProducts, lon, lat, DATABASE_CONTRACT);\n        }\n\n\n        isConsumed = _consumed;\n    }\n    \n\n    function merge(address[] _otherProducts, bytes32 _newProductName, bytes32[] _newAttributeName, uint[] _newValues, uint _lon, uint _lat) notConsumed {\n        ProductFactory productFactory = ProductFactory(PRODUCT_FACTORY);\n        \n        \n        address _newProduct = productFactory.createProduct(msg.sender,_newProductName, _newAttributeName,  _newValues, _otherProducts, _lon, _lat,DATABASE_CONTRACT);\n\n        this.addMergeAction(_newProduct, _lon, _lat);\n        for (uint i = 0; i < _otherProducts.length; ++i) {\n            Product prod = Product(_otherProducts[i]);\n            prod.addMergeAction(_newProduct, _lon, _lat);\n        }   \n        \n    }\n\n    function addMergeAction(address _newProductAddress, uint _lon, uint _lat) notConsumed {\n        childProducts.push(_newProductAddress);\n\n        Action memory merge;\n        merge.handler = this;\n        merge.description = \"Merge the product and create new\";\n        merge.lon = _lon;\n        merge.lat = _lat;\n        merge.timestamp = now;\n        merge.blockNumber = block.number;\n        actions.push(merge);\n\n       isConsumed = true;\n    }\n\n  \n}\n\ncontract ProductFactory is Roles{\n    address public owner;\n    \n\n    function ProductFactory() {\n        owner=msg.sender;\n    }\n\n    function () {\n        // If anyone wants to send Ether to this contract, the transaction gets rejected\n        throw;\n    }\n  \n\n    function createProduct(address _owner, bytes32 _name, bytes32[] _newAttributeName, uint [] _newValues, address[] _parentProducts, uint _lon, uint _lat, address DATABASE_CONTRACT)  returns(address) {\n        return new Product(owner,_name, _newAttributeName,  _newValues, _parentProducts, _lon, _lat, DATABASE_CONTRACT, this);\n    }\n}\n",
  "sourcePath": "/Users/hao/onedrive/OneDrive - The University of Melbourne/project/Product_passport/contracts/Product.sol",
  "compiler": {
    "name": "solc",
    "version": "0.4.23+commit.124ca40d.Emscripten.clang"
  },
  "schemaVersion": "2.0.0",
  "updatedAt": "2018-06-04T13:11:44.347Z"
}