{
  "contractName": "RangeValidator",
  "abi": [
    {
      "inputs": [],
      "payable": false,
      "stateMutability": "nonpayable",
      "type": "constructor"
    },
    {
      "constant": true,
      "inputs": [
        {
          "name": "i",
          "type": "uint256"
        }
      ],
      "name": "isMeasurementValid",
      "outputs": [
        {
          "name": "",
          "type": "bool"
        }
      ],
      "payable": false,
      "stateMutability": "view",
      "type": "function"
    },
    {
      "constant": true,
      "inputs": [],
      "name": "isValid",
      "outputs": [
        {
          "name": "",
          "type": "bool"
        }
      ],
      "payable": false,
      "stateMutability": "view",
      "type": "function"
    }
  ],
  "bytecode": "0x608060405234801561001057600080fd5b50610402806100206000396000f30060806040526004361061004c576000357c0100000000000000000000000000000000000000000000000000000000900463ffffffff16806304133a1214610051578063bb5d40eb14610096575b600080fd5b34801561005d57600080fd5b5061007c600480360381019080803590602001909291905050506100c5565b604051808215151515815260200191505060405180910390f35b3480156100a257600080fd5b506100ab6102d9565b604051808215151515815260200191505060405180910390f35b600080600080600080600160009054906101000a900473ffffffffffffffffffffffffffffffffffffffff1673ffffffffffffffffffffffffffffffffffffffff166303dc761e886040518263ffffffff167c0100000000000000000000000000000000000000000000000000000000028152600401808281526020019150506040805180830381600087803b15801561015e57600080fd5b505af1158015610172573d6000803e3d6000fd5b505050506040513d604081101561018857600080fd5b81019080805190602001909291908051906020019092919050505080965081955050506000809054906101000a900473ffffffffffffffffffffffffffffffffffffffff1673ffffffffffffffffffffffffffffffffffffffff1663400566d7856040518263ffffffff167c0100000000000000000000000000000000000000000000000000000000028152600401808260001916600019168152602001915050608060405180830381600087803b15801561024357600080fd5b505af1158015610257573d6000803e3d6000fd5b505050506040513d608081101561026d57600080fd5b8101908080519060200190929190805190602001909291908051906020019092919080519060200190929190505050809450819550829650839750505050508185121580156102bc5750808513155b156102ca57600195506102cf565b600095505b5050505050919050565b600080600090505b6000809054906101000a900473ffffffffffffffffffffffffffffffffffffffff1673ffffffffffffffffffffffffffffffffffffffff1663be1c766b6040518163ffffffff167c0100000000000000000000000000000000000000000000000000000000028152600401602060405180830381600087803b15801561036657600080fd5b505af115801561037a573d6000803e3d6000fd5b505050506040513d602081101561039057600080fd5b81019080805190602001909291905050508110156103cd576103b1816100c5565b15156103c057600091506103d2565b80806001019150506102e1565b600191505b50905600a165627a7a72305820e20b2346d3f53a27af9a98d9125e2325a81be533ed6e995d64c860d1400f29680029",
  "source": "pragma solidity ^0.4.16;\nimport \"./Measurements.sol\";\nimport \"./RangeRequirements.sol\";\n\ncontract RangeValidator {\n    function RangeValidator(){\n    }\n    RangeRequirements requirements;\n    Measurements measurements;\n\n    function isMeasurementValid(uint i) constant returns (bool){\n        int value;\n\t\tbytes32 attributeName;\n        uint decimals;\n        int min;\n        int max;\n        // value=measurements.getNameAndValeOfMeasurement(i).value;\n        (attributeName,value)=measurements.getNameAndValeOfMeasurement(i);\n        (attributeName,decimals,min,max)=requirements.getAttributeByName(attributeName);\n        if(value>=min && value<=max){\n            return true;\n        }else return false;\n    }\n\n\n    function isValid() constant returns (bool){\n      \n        for(uint i=0;i<requirements.getLength();i++){\n            if(!isMeasurementValid(i)){\n                return false;\n            }\n        }\n        return true;  \n    }\n}\n",
  "sourcePath": "/Users/hao/onedrive/OneDrive - The University of Melbourne/project/Product_passport/contracts/RangeValidator.sol",
  "compiler": {
    "name": "solc",
    "version": "0.4.23+commit.124ca40d.Emscripten.clang"
  },
  "schemaVersion": "2.0.0",
  "updatedAt": "2018-05-28T22:44:17.764Z"
}