{
  "contractName": "rolesTest",
  "abi": [
    {
      "constant": false,
      "inputs": [
        {
          "name": "owner_",
          "type": "address"
        }
      ],
      "name": "setOwner",
      "outputs": [],
      "payable": false,
      "stateMutability": "nonpayable",
      "type": "function"
    },
    {
      "constant": true,
      "inputs": [],
      "name": "roles",
      "outputs": [
        {
          "name": "",
          "type": "address"
        }
      ],
      "payable": false,
      "stateMutability": "view",
      "type": "function"
    },
    {
      "constant": false,
      "inputs": [
        {
          "name": "owner_",
          "type": "address"
        }
      ],
      "name": "transferOwnerShip",
      "outputs": [],
      "payable": false,
      "stateMutability": "nonpayable",
      "type": "function"
    },
    {
      "constant": true,
      "inputs": [],
      "name": "owner",
      "outputs": [
        {
          "name": "",
          "type": "address"
        }
      ],
      "payable": false,
      "stateMutability": "view",
      "type": "function"
    },
    {
      "inputs": [
        {
          "name": "_contractName",
          "type": "string"
        },
        {
          "name": "_roles",
          "type": "address"
        }
      ],
      "payable": false,
      "stateMutability": "nonpayable",
      "type": "constructor"
    },
    {
      "anonymous": false,
      "inputs": [
        {
          "indexed": false,
          "name": "newOwner",
          "type": "address"
        }
      ],
      "name": "SetTheOwner",
      "type": "event"
    },
    {
      "constant": true,
      "inputs": [],
      "name": "contractHash",
      "outputs": [
        {
          "name": "",
          "type": "bytes32"
        }
      ],
      "payable": false,
      "stateMutability": "view",
      "type": "function"
    },
    {
      "constant": true,
      "inputs": [
        {
          "name": "roleName",
          "type": "string"
        }
      ],
      "name": "hasRole",
      "outputs": [
        {
          "name": "",
          "type": "bool"
        }
      ],
      "payable": false,
      "stateMutability": "view",
      "type": "function"
    },
    {
      "constant": true,
      "inputs": [
        {
          "name": "roleName",
          "type": "string"
        }
      ],
      "name": "senderHasRole",
      "outputs": [
        {
          "name": "",
          "type": "bool"
        }
      ],
      "payable": false,
      "stateMutability": "view",
      "type": "function"
    },
    {
      "constant": false,
      "inputs": [
        {
          "name": "roles_",
          "type": "address"
        }
      ],
      "name": "setRolesContract",
      "outputs": [],
      "payable": false,
      "stateMutability": "nonpayable",
      "type": "function"
    }
  ],
  "bytecode": "0x6060604052341561000f57600080fd5b604051610aed380380610aed83398101604052808051820191906020018051906020019091905050336000806101000a81548173ffffffffffffffffffffffffffffffffffffffff021916908373ffffffffffffffffffffffffffffffffffffffff160217905550600073ffffffffffffffffffffffffffffffffffffffff168173ffffffffffffffffffffffffffffffffffffffff16141515156100b357600080fd5b816040518082805190602001908083835b6020831015156100e957805182526020820191506020810190506020830392506100c4565b6001836020036101000a03801982511681845116808217855250505050505090500191505060405180910390206002816000191690555080600160006101000a81548173ffffffffffffffffffffffffffffffffffffffff021916908373ffffffffffffffffffffffffffffffffffffffff160217905550505061097b806101726000396000f30060606040526004361061008e576000357c0100000000000000000000000000000000000000000000000000000000900463ffffffff16806313af4035146100935780631ca03b8e146100cc578063392f5f64146101415780638863dd1a146101965780638da5cb5b146101cf578063904c609414610224578063afa202ac14610255578063e3c33a9b1461028e575b600080fd5b341561009e57600080fd5b6100ca600480803573ffffffffffffffffffffffffffffffffffffffff16906020019091905050610303565b005b34156100d757600080fd5b610127600480803590602001908201803590602001908080601f01602080910402602001604051908101604052809392919081815260200183838082843782019150505050505091905050610425565b604051808215151515815260200191505060405180910390f35b341561014c57600080fd5b6101546105a3565b604051808273ffffffffffffffffffffffffffffffffffffffff1673ffffffffffffffffffffffffffffffffffffffff16815260200191505060405180910390f35b34156101a157600080fd5b6101cd600480803573ffffffffffffffffffffffffffffffffffffffff169060200190919050506105c9565b005b34156101da57600080fd5b6101e26106eb565b604051808273ffffffffffffffffffffffffffffffffffffffff1673ffffffffffffffffffffffffffffffffffffffff16815260200191505060405180910390f35b341561022f57600080fd5b610237610710565b60405180826000191660001916815260200191505060405180910390f35b341561026057600080fd5b61028c600480803573ffffffffffffffffffffffffffffffffffffffff1690602001909190505061071a565b005b341561029957600080fd5b6102e9600480803590602001908201803590602001908080601f01602080910402602001604051908101604052809392919081815260200183838082843782019150505050505091905050610816565b604051808215151515815260200191505060405180910390f35b6000809054906101000a900473ffffffffffffffffffffffffffffffffffffffff1673ffffffffffffffffffffffffffffffffffffffff163373ffffffffffffffffffffffffffffffffffffffff1614151561035e57600080fd5b806000806101000a81548173ffffffffffffffffffffffffffffffffffffffff021916908373ffffffffffffffffffffffffffffffffffffffff1602179055507fe68cf4546522887de125201a08bb28732b71c701ef98bdde59bcd7ee077a65da6000809054906101000a900473ffffffffffffffffffffffffffffffffffffffff16604051808273ffffffffffffffffffffffffffffffffffffffff1673ffffffffffffffffffffffffffffffffffffffff16815260200191505060405180910390a150565b600061043082610816565b801561059c5750600160009054906101000a900473ffffffffffffffffffffffffffffffffffffffff1673ffffffffffffffffffffffffffffffffffffffff16638b51ca42600254846040518082805190602001908083835b6020831015156104ae5780518252602082019150602081019050602083039250610489565b6001836020036101000a0380198251168184511680821785525050505050509050019150506040518091039020336000604051602001526040518463ffffffff167c010000000000000000000000000000000000000000000000000000000002815260040180846000191660001916815260200183600019166000191681526020018273ffffffffffffffffffffffffffffffffffffffff1673ffffffffffffffffffffffffffffffffffffffff1681526020019350505050602060405180830381600087803b151561058057600080fd5b6102c65a03f1151561059157600080fd5b505050604051805190505b9050919050565b600160009054906101000a900473ffffffffffffffffffffffffffffffffffffffff1681565b6000809054906101000a900473ffffffffffffffffffffffffffffffffffffffff1673ffffffffffffffffffffffffffffffffffffffff163373ffffffffffffffffffffffffffffffffffffffff1614151561062457600080fd5b806000806101000a81548173ffffffffffffffffffffffffffffffffffffffff021916908373ffffffffffffffffffffffffffffffffffffffff1602179055507fe68cf4546522887de125201a08bb28732b71c701ef98bdde59bcd7ee077a65da6000809054906101000a900473ffffffffffffffffffffffffffffffffffffffff16604051808273ffffffffffffffffffffffffffffffffffffffff1673ffffffffffffffffffffffffffffffffffffffff16815260200191505060405180910390a150565b6000809054906101000a900473ffffffffffffffffffffffffffffffffffffffff1681565b6000600254905090565b6000809054906101000a900473ffffffffffffffffffffffffffffffffffffffff1673ffffffffffffffffffffffffffffffffffffffff163373ffffffffffffffffffffffffffffffffffffffff1614151561077557600080fd5b600160009054906101000a900473ffffffffffffffffffffffffffffffffffffffff1673ffffffffffffffffffffffffffffffffffffffff163073ffffffffffffffffffffffffffffffffffffffff16141515156107d257600080fd5b80600160006101000a81548173ffffffffffffffffffffffffffffffffffffffff021916908373ffffffffffffffffffffffffffffffffffffffff16021790555050565b6000600160009054906101000a900473ffffffffffffffffffffffffffffffffffffffff1673ffffffffffffffffffffffffffffffffffffffff16633037cea3600254846040518082805190602001908083835b60208310151561088f578051825260208201915060208101905060208303925061086a565b6001836020036101000a03801982511681845116808217855250505050505090500191505060405180910390206000604051602001526040518363ffffffff167c0100000000000000000000000000000000000000000000000000000000028152600401808360001916600019168152602001826000191660001916815260200192505050602060405180830381600087803b151561092d57600080fd5b6102c65a03f1151561093e57600080fd5b5050506040518051905090509190505600a165627a7a7230582072299aee1d2783e79888c9e35576298d295b9255eb914edee1be57bcbbd70f0c0029",
  "source": "pragma solidity ^0.4.16;\n\nimport \"./Owned.sol\";\n\n\ncontract RolesEvents {\n    event LogRoleAdded(bytes32 hashOfContract, string roleName);\n    event LogRoleRemoved(bytes32 hashOfContract, string roleName);\n    event LogRoleGranted(bytes32 hashOfContract, string roleName, address user);\n    event LogRoleRevoked(bytes32 hashOfContract, string roleName, address user);\n}\n\n\ninterface RolesFunction {\n    function knownRoleNames(bytes32 contractHash, bytes32 nameHash) public view returns (bool);\n    function roleList(bytes32 contractHash, bytes32 nameHash, address member) public view returns (bool);\n    function addContractRole(bytes32 ctrct, string roleName) public;\n    function removeContractRole(bytes32 ctrct, string roleName) public;\n    function grantUserRole(bytes32 ctrct, string roleName, address user) public;\n    function revokeUserRole(bytes32 ctrct, string roleName, address user) public;\n}\n\ncontract rolesTest is Owned{\n    RolesFunction public roles;\n    bytes32 public contractHash;\n\n    function rolesTest(string _contractName, address _roles) public{\n\n        require(_roles!=address(0x0));\n        contractHash = keccak256(_contractName);\n        roles = RolesFunction(_roles);\n    }\n\n    modifier onlyRole(string role) {\n        require(senderHasRole(role));\n        _;\n    }\n\n\n\n    modifier roleOrOwner(string role) {\n        require(msg.sender == owner || senderHasRole(role));\n        _;\n    }\n\n    function contractHash() public view returns (bytes32){\n        return contractHash;\n    }\n\n\n    function hasRole(string roleName) public view returns (bool){\n        return roles.knownRoleNames(contractHash, keccak256(roleName));\n    }\n\n\n    function senderHasRole(string roleName) public view returns (bool){\n        return hasRole(roleName)&& roles.roleList(contractHash, keccak256(roleName),msg.sender);\n    }\n\n    function setRolesContract (address roles_) public onlyOwner {\n        require(this !=address(roles));\n        roles =RolesFunction(roles_);\n    }\n}\n\ncontract Roles is RolesEvents,rolesTest {\n    // mapping is contract -> role -> sender_address -> boolean\n    mapping(bytes32 => mapping (bytes32 => mapping (address => bool))) public roleList;\n    // the intention is\n    mapping (bytes32 => mapping (bytes32 => bool)) public knownRoleNames;\n\n    //add roles user pair\n\n    function Roles() rolesTest(\"RolesDatabase\",this) public {\n\n    }\n\n\n    function addContractRole(bytes32 hashOfContract, string roleName) public roleOrOwner(\"admin\") {\n        require(!knownRoleNames[hashOfContract][keccak256(roleName)]);\n        knownRoleNames[hashOfContract][keccak256(roleName)] = true;\n        LogRoleAdded(hashOfContract, roleName);\n    }\n\n    function removeContractRole(bytes32 hashOfContract, string roleName) public roleOrOwner(\"admin\") {\n        require(knownRoleNames[hashOfContract][keccak256(roleName)]);\n        delete knownRoleNames[hashOfContract][keccak256(roleName)];\n        LogRoleRemoved(hashOfContract, roleName);\n    }\n\n    function grantUserRole(bytes32 hashOfContract, string roleName, address user) public roleOrOwner(\"admin\") {\n        require(knownRoleNames[hashOfContract][keccak256(roleName)]);\n        roleList[hashOfContract][keccak256(roleName)][user] = true;\n        LogRoleGranted(hashOfContract, roleName, user);\n    }\n\n    function revokeUserRole(bytes32 hashOfContract, string roleName, address user) public roleOrOwner(\"admin\") {\n        delete roleList[hashOfContract][keccak256(roleName)][user];\n        LogRoleRevoked(hashOfContract, roleName, user);\n    }\n\n}\n\n\n\n",
  "sourcePath": "/Users/hao/onedrive/OneDrive - The University of Melbourne/project/Product_passport/contracts/authority/Roles.sol",
  "compiler": {
    "name": "solc",
    "version": "0.4.19+commit.c4cbbb05.Emscripten.clang"
  },
  "schemaVersion": "2.0.0",
  "updatedAt": "2018-05-06T04:52:36.824Z"
}