{
  "contractName": "rolesTest",
  "abi": [
    {
      "constant": false,
      "inputs": [
        {
          "name": "owner_",
          "type": "address"
        }
      ],
      "name": "setOwner",
      "outputs": [],
      "payable": false,
      "stateMutability": "nonpayable",
      "type": "function"
    },
    {
      "constant": true,
      "inputs": [],
      "name": "roles",
      "outputs": [
        {
          "name": "",
          "type": "address"
        }
      ],
      "payable": false,
      "stateMutability": "view",
      "type": "function"
    },
    {
      "constant": false,
      "inputs": [
        {
          "name": "owner_",
          "type": "address"
        }
      ],
      "name": "transferOwnerShip",
      "outputs": [],
      "payable": false,
      "stateMutability": "nonpayable",
      "type": "function"
    },
    {
      "constant": true,
      "inputs": [],
      "name": "owner",
      "outputs": [
        {
          "name": "",
          "type": "address"
        }
      ],
      "payable": false,
      "stateMutability": "view",
      "type": "function"
    },
    {
      "inputs": [
        {
          "name": "_contractName",
          "type": "string"
        },
        {
          "name": "_roles",
          "type": "address"
        }
      ],
      "payable": false,
      "stateMutability": "nonpayable",
      "type": "constructor"
    },
    {
      "anonymous": false,
      "inputs": [
        {
          "indexed": false,
          "name": "newOwner",
          "type": "address"
        }
      ],
      "name": "SetTheOwner",
      "type": "event"
    },
    {
      "constant": true,
      "inputs": [],
      "name": "contractHash",
      "outputs": [
        {
          "name": "",
          "type": "bytes32"
        }
      ],
      "payable": false,
      "stateMutability": "view",
      "type": "function"
    },
    {
      "constant": true,
      "inputs": [
        {
          "name": "roleName",
          "type": "string"
        }
      ],
      "name": "hasRole",
      "outputs": [
        {
          "name": "",
          "type": "bool"
        }
      ],
      "payable": false,
      "stateMutability": "view",
      "type": "function"
    },
    {
      "constant": true,
      "inputs": [
        {
          "name": "roleName",
          "type": "string"
        }
      ],
      "name": "senderHasRole",
      "outputs": [
        {
          "name": "",
          "type": "bool"
        }
      ],
      "payable": false,
      "stateMutability": "view",
      "type": "function"
    },
    {
      "constant": false,
      "inputs": [
        {
          "name": "roles_",
          "type": "address"
        }
      ],
      "name": "setRolesContract",
      "outputs": [],
      "payable": false,
      "stateMutability": "nonpayable",
      "type": "function"
    }
  ],
  "bytecode": "0x608060405234801561001057600080fd5b50604051610b62380380610b628339810180604052810190808051820192919060200180519060200190929190505050336000806101000a81548173ffffffffffffffffffffffffffffffffffffffff021916908373ffffffffffffffffffffffffffffffffffffffff160217905550600073ffffffffffffffffffffffffffffffffffffffff168173ffffffffffffffffffffffffffffffffffffffff16141515156100bc57600080fd5b816040518082805190602001908083835b6020831015156100f257805182526020820191506020810190506020830392506100cd565b6001836020036101000a03801982511681845116808217855250505050505090500191505060405180910390206002816000191690555080600160006101000a81548173ffffffffffffffffffffffffffffffffffffffff021916908373ffffffffffffffffffffffffffffffffffffffff16021790555050506109e78061017b6000396000f30060806040526004361061008e576000357c0100000000000000000000000000000000000000000000000000000000900463ffffffff16806313af4035146100935780631ca03b8e146100d6578063392f5f64146101575780638863dd1a146101ae5780638da5cb5b146101f1578063904c609414610248578063afa202ac1461027b578063e3c33a9b146102be575b600080fd5b34801561009f57600080fd5b506100d4600480360381019080803573ffffffffffffffffffffffffffffffffffffffff16906020019092919050505061033f565b005b3480156100e257600080fd5b5061013d600480360381019080803590602001908201803590602001908080601f0160208091040260200160405190810160405280939291908181526020018383808284378201915050505050509192919290505050610461565b604051808215151515815260200191505060405180910390f35b34801561016357600080fd5b5061016c6105f7565b604051808273ffffffffffffffffffffffffffffffffffffffff1673ffffffffffffffffffffffffffffffffffffffff16815260200191505060405180910390f35b3480156101ba57600080fd5b506101ef600480360381019080803573ffffffffffffffffffffffffffffffffffffffff16906020019092919050505061061d565b005b3480156101fd57600080fd5b5061020661073f565b604051808273ffffffffffffffffffffffffffffffffffffffff1673ffffffffffffffffffffffffffffffffffffffff16815260200191505060405180910390f35b34801561025457600080fd5b5061025d610764565b60405180826000191660001916815260200191505060405180910390f35b34801561028757600080fd5b506102bc600480360381019080803573ffffffffffffffffffffffffffffffffffffffff16906020019092919050505061076e565b005b3480156102ca57600080fd5b50610325600480360381019080803590602001908201803590602001908080601f016020809104026020016040519081016040528093929190818152602001838380828437820191505050505050919291929050505061086a565b604051808215151515815260200191505060405180910390f35b6000809054906101000a900473ffffffffffffffffffffffffffffffffffffffff1673ffffffffffffffffffffffffffffffffffffffff163373ffffffffffffffffffffffffffffffffffffffff1614151561039a57600080fd5b806000806101000a81548173ffffffffffffffffffffffffffffffffffffffff021916908373ffffffffffffffffffffffffffffffffffffffff1602179055507fe68cf4546522887de125201a08bb28732b71c701ef98bdde59bcd7ee077a65da6000809054906101000a900473ffffffffffffffffffffffffffffffffffffffff16604051808273ffffffffffffffffffffffffffffffffffffffff1673ffffffffffffffffffffffffffffffffffffffff16815260200191505060405180910390a150565b600061046c8261086a565b80156105f05750600160009054906101000a900473ffffffffffffffffffffffffffffffffffffffff1673ffffffffffffffffffffffffffffffffffffffff16638b51ca42600254846040518082805190602001908083835b6020831015156104ea57805182526020820191506020810190506020830392506104c5565b6001836020036101000a0380198251168184511680821785525050505050509050019150506040518091039020336040518463ffffffff167c010000000000000000000000000000000000000000000000000000000002815260040180846000191660001916815260200183600019166000191681526020018273ffffffffffffffffffffffffffffffffffffffff1673ffffffffffffffffffffffffffffffffffffffff1681526020019350505050602060405180830381600087803b1580156105b457600080fd5b505af11580156105c8573d6000803e3d6000fd5b505050506040513d60208110156105de57600080fd5b81019080805190602001909291905050505b9050919050565b600160009054906101000a900473ffffffffffffffffffffffffffffffffffffffff1681565b6000809054906101000a900473ffffffffffffffffffffffffffffffffffffffff1673ffffffffffffffffffffffffffffffffffffffff163373ffffffffffffffffffffffffffffffffffffffff1614151561067857600080fd5b806000806101000a81548173ffffffffffffffffffffffffffffffffffffffff021916908373ffffffffffffffffffffffffffffffffffffffff1602179055507fe68cf4546522887de125201a08bb28732b71c701ef98bdde59bcd7ee077a65da6000809054906101000a900473ffffffffffffffffffffffffffffffffffffffff16604051808273ffffffffffffffffffffffffffffffffffffffff1673ffffffffffffffffffffffffffffffffffffffff16815260200191505060405180910390a150565b6000809054906101000a900473ffffffffffffffffffffffffffffffffffffffff1681565b6000600254905090565b6000809054906101000a900473ffffffffffffffffffffffffffffffffffffffff1673ffffffffffffffffffffffffffffffffffffffff163373ffffffffffffffffffffffffffffffffffffffff161415156107c957600080fd5b600160009054906101000a900473ffffffffffffffffffffffffffffffffffffffff1673ffffffffffffffffffffffffffffffffffffffff163073ffffffffffffffffffffffffffffffffffffffff161415151561082657600080fd5b80600160006101000a81548173ffffffffffffffffffffffffffffffffffffffff021916908373ffffffffffffffffffffffffffffffffffffffff16021790555050565b6000600160009054906101000a900473ffffffffffffffffffffffffffffffffffffffff1673ffffffffffffffffffffffffffffffffffffffff16633037cea3600254846040518082805190602001908083835b6020831015156108e357805182526020820191506020810190506020830392506108be565b6001836020036101000a03801982511681845116808217855250505050505090500191505060405180910390206040518363ffffffff167c0100000000000000000000000000000000000000000000000000000000028152600401808360001916600019168152602001826000191660001916815260200192505050602060405180830381600087803b15801561097957600080fd5b505af115801561098d573d6000803e3d6000fd5b505050506040513d60208110156109a357600080fd5b810190808051906020019092919050505090509190505600a165627a7a723058203271fa5e001e13f06b1143412dc91776b07bc0accb32b3405226615831db38f70029",
  "source": "pragma solidity ^0.4.16;\n\nimport \"./Owned.sol\";\n\n\ncontract RolesEvents {\n    event LogRoleAdded(bytes32 hashOfContract, string roleName);\n    event LogRoleRemoved(bytes32 hashOfContract, string roleName);\n    event LogRoleGranted(bytes32 hashOfContract, string roleName, address user);\n    event LogRoleRevoked(bytes32 hashOfContract, string roleName, address user);\n}\n\n\ninterface RolesFunction {\n    function knownRoleNames(bytes32 contractHash, bytes32 nameHash) public view returns (bool);\n    function roleList(bytes32 contractHash, bytes32 nameHash, address member) public view returns (bool);\n    function addContractRole(bytes32 ctrct, string roleName) public;\n    function removeContractRole(bytes32 ctrct, string roleName) public;\n    function grantUserRole(bytes32 ctrct, string roleName, address user) public;\n    function revokeUserRole(bytes32 ctrct, string roleName, address user) public;\n}\n\ncontract rolesTest is Owned{\n    RolesFunction public roles;\n    bytes32 public contractHash;\n\n    function rolesTest(string _contractName, address _roles) public{\n\n        require(_roles!=address(0x0));\n        contractHash = keccak256(_contractName);\n        roles = RolesFunction(_roles);\n    }\n\n    modifier onlyRole(string role) {\n        require(senderHasRole(role));\n        _;\n    }\n\n\n\n    modifier roleOrOwner(string role) {\n        require(msg.sender == owner || senderHasRole(role));\n        _;\n    }\n\n    function contractHash() public view returns (bytes32){\n        return contractHash;\n    }\n\n\n    function hasRole(string roleName) public view returns (bool){\n        return roles.knownRoleNames(contractHash, keccak256(roleName));\n    }\n\n\n    function senderHasRole(string roleName) public view returns (bool){\n        return hasRole(roleName)&& roles.roleList(contractHash, keccak256(roleName),msg.sender);\n    }\n\n    function setRolesContract (address roles_) public onlyOwner {\n        require(this !=address(roles));\n        roles =RolesFunction(roles_);\n    }\n}\n\ncontract Roles is RolesEvents,rolesTest {\n    // mapping is contract -> role -> sender_address -> boolean\n    mapping(bytes32 => mapping (bytes32 => mapping (address => bool))) public roleList;\n    // the intention is\n    mapping (bytes32 => mapping (bytes32 => bool)) public knownRoleNames;\n\n    //add roles user pair\n\n    function Roles() rolesTest(\"RolesDatabase\",this) public {\n\n    }\n\n\n    function addContractRole(bytes32 hashOfContract, string roleName) public roleOrOwner(\"admin\") {\n        require(!knownRoleNames[hashOfContract][keccak256(roleName)]);\n        knownRoleNames[hashOfContract][keccak256(roleName)] = true;\n        LogRoleAdded(hashOfContract, roleName);\n    }\n\n    function removeContractRole(bytes32 hashOfContract, string roleName) public roleOrOwner(\"admin\") {\n        require(knownRoleNames[hashOfContract][keccak256(roleName)]);\n        delete knownRoleNames[hashOfContract][keccak256(roleName)];\n        LogRoleRemoved(hashOfContract, roleName);\n    }\n\n    function grantUserRole(bytes32 hashOfContract, string roleName, address user) public roleOrOwner(\"admin\") {\n        require(knownRoleNames[hashOfContract][keccak256(roleName)]);\n        roleList[hashOfContract][keccak256(roleName)][user] = true;\n        LogRoleGranted(hashOfContract, roleName, user);\n    }\n\n    function revokeUserRole(bytes32 hashOfContract, string roleName, address user) public roleOrOwner(\"admin\") {\n        delete roleList[hashOfContract][keccak256(roleName)][user];\n        LogRoleRevoked(hashOfContract, roleName, user);\n    }\n\n}\n\n\n\n",
  "sourcePath": "/Users/hao/onedrive/OneDrive - The University of Melbourne/project/Product_passport/contracts/authority/Roles.sol",
  "compiler": {
    "name": "solc",
    "version": "0.4.23+commit.124ca40d.Emscripten.clang"
  },
  "schemaVersion": "2.0.0",
  "updatedAt": "2018-05-07T18:03:16.879Z"
}