{
  "contractName": "Roles",
  "abi": [
    {
      "constant": false,
      "inputs": [
        {
          "name": "owner_",
          "type": "address"
        }
      ],
      "name": "setOwner",
      "outputs": [],
      "payable": false,
      "stateMutability": "nonpayable",
      "type": "function"
    },
    {
      "constant": true,
      "inputs": [
        {
          "name": "roleName",
          "type": "string"
        }
      ],
      "name": "senderHasRole",
      "outputs": [
        {
          "name": "",
          "type": "bool"
        }
      ],
      "payable": false,
      "stateMutability": "view",
      "type": "function"
    },
    {
      "constant": true,
      "inputs": [
        {
          "name": "",
          "type": "bytes32"
        },
        {
          "name": "",
          "type": "bytes32"
        }
      ],
      "name": "knownRoleNames",
      "outputs": [
        {
          "name": "",
          "type": "bool"
        }
      ],
      "payable": false,
      "stateMutability": "view",
      "type": "function"
    },
    {
      "constant": true,
      "inputs": [],
      "name": "roles",
      "outputs": [
        {
          "name": "",
          "type": "address"
        }
      ],
      "payable": false,
      "stateMutability": "view",
      "type": "function"
    },
    {
      "constant": false,
      "inputs": [
        {
          "name": "owner_",
          "type": "address"
        }
      ],
      "name": "transferOwnerShip",
      "outputs": [],
      "payable": false,
      "stateMutability": "nonpayable",
      "type": "function"
    },
    {
      "constant": true,
      "inputs": [
        {
          "name": "",
          "type": "bytes32"
        },
        {
          "name": "",
          "type": "bytes32"
        },
        {
          "name": "",
          "type": "address"
        }
      ],
      "name": "roleList",
      "outputs": [
        {
          "name": "",
          "type": "bool"
        }
      ],
      "payable": false,
      "stateMutability": "view",
      "type": "function"
    },
    {
      "constant": true,
      "inputs": [],
      "name": "owner",
      "outputs": [
        {
          "name": "",
          "type": "address"
        }
      ],
      "payable": false,
      "stateMutability": "view",
      "type": "function"
    },
    {
      "constant": true,
      "inputs": [],
      "name": "contractHash",
      "outputs": [
        {
          "name": "",
          "type": "bytes32"
        }
      ],
      "payable": false,
      "stateMutability": "view",
      "type": "function"
    },
    {
      "constant": false,
      "inputs": [
        {
          "name": "roles_",
          "type": "address"
        }
      ],
      "name": "setRolesContract",
      "outputs": [],
      "payable": false,
      "stateMutability": "nonpayable",
      "type": "function"
    },
    {
      "constant": true,
      "inputs": [
        {
          "name": "roleName",
          "type": "string"
        }
      ],
      "name": "hasRole",
      "outputs": [
        {
          "name": "",
          "type": "bool"
        }
      ],
      "payable": false,
      "stateMutability": "view",
      "type": "function"
    },
    {
      "inputs": [],
      "payable": false,
      "stateMutability": "nonpayable",
      "type": "constructor"
    },
    {
      "anonymous": false,
      "inputs": [
        {
          "indexed": false,
          "name": "newOwner",
          "type": "address"
        }
      ],
      "name": "SetTheOwner",
      "type": "event"
    },
    {
      "anonymous": false,
      "inputs": [
        {
          "indexed": false,
          "name": "hashOfContract",
          "type": "bytes32"
        },
        {
          "indexed": false,
          "name": "roleName",
          "type": "string"
        }
      ],
      "name": "LogRoleAdded",
      "type": "event"
    },
    {
      "anonymous": false,
      "inputs": [
        {
          "indexed": false,
          "name": "hashOfContract",
          "type": "bytes32"
        },
        {
          "indexed": false,
          "name": "roleName",
          "type": "string"
        }
      ],
      "name": "LogRoleRemoved",
      "type": "event"
    },
    {
      "anonymous": false,
      "inputs": [
        {
          "indexed": false,
          "name": "hashOfContract",
          "type": "bytes32"
        },
        {
          "indexed": false,
          "name": "roleName",
          "type": "string"
        },
        {
          "indexed": false,
          "name": "user",
          "type": "address"
        }
      ],
      "name": "LogRoleGranted",
      "type": "event"
    },
    {
      "anonymous": false,
      "inputs": [
        {
          "indexed": false,
          "name": "hashOfContract",
          "type": "bytes32"
        },
        {
          "indexed": false,
          "name": "roleName",
          "type": "string"
        },
        {
          "indexed": false,
          "name": "user",
          "type": "address"
        }
      ],
      "name": "LogRoleRevoked",
      "type": "event"
    },
    {
      "constant": false,
      "inputs": [
        {
          "name": "hashOfContract",
          "type": "bytes32"
        },
        {
          "name": "roleName",
          "type": "string"
        }
      ],
      "name": "addContractRole",
      "outputs": [],
      "payable": false,
      "stateMutability": "nonpayable",
      "type": "function"
    },
    {
      "constant": false,
      "inputs": [
        {
          "name": "hashOfContract",
          "type": "bytes32"
        },
        {
          "name": "roleName",
          "type": "string"
        }
      ],
      "name": "removeContractRole",
      "outputs": [],
      "payable": false,
      "stateMutability": "nonpayable",
      "type": "function"
    },
    {
      "constant": false,
      "inputs": [
        {
          "name": "hashOfContract",
          "type": "bytes32"
        },
        {
          "name": "roleName",
          "type": "string"
        },
        {
          "name": "user",
          "type": "address"
        }
      ],
      "name": "grantUserRole",
      "outputs": [],
      "payable": false,
      "stateMutability": "nonpayable",
      "type": "function"
    },
    {
      "constant": false,
      "inputs": [
        {
          "name": "hashOfContract",
          "type": "bytes32"
        },
        {
          "name": "roleName",
          "type": "string"
        },
        {
          "name": "user",
          "type": "address"
        }
      ],
      "name": "revokeUserRole",
      "outputs": [],
      "payable": false,
      "stateMutability": "nonpayable",
      "type": "function"
    }
  ],
  "bytecode": "0x608060405234801561001057600080fd5b506040805190810160405280600d81526020017f526f6c657344617461626173650000000000000000000000000000000000000081525030336000806101000a81548173ffffffffffffffffffffffffffffffffffffffff021916908373ffffffffffffffffffffffffffffffffffffffff160217905550600073ffffffffffffffffffffffffffffffffffffffff168173ffffffffffffffffffffffffffffffffffffffff16141515156100c457600080fd5b816040518082805190602001908083835b6020831015156100fa57805182526020820191506020810190506020830392506100d5565b6001836020036101000a03801982511681845116808217855250505050505090500191505060405180910390206002816000191690555080600160006101000a81548173ffffffffffffffffffffffffffffffffffffffff021916908373ffffffffffffffffffffffffffffffffffffffff1602179055505050611862806101836000396000f3006080604052600436106100d0576000357c0100000000000000000000000000000000000000000000000000000000900463ffffffff16806313af4035146100d55780631ca03b8e146101185780632f677038146101995780633037cea314610230578063392f5f6414610287578063644443ed146102de5780638863dd1a146103555780638b51ca42146103985780638da5cb5b1461040f578063904c609414610466578063afa202ac14610499578063c2a48c70146104dc578063e3c33a9b14610573578063edd70a75146105f4575b600080fd5b3480156100e157600080fd5b50610116600480360381019080803573ffffffffffffffffffffffffffffffffffffffff16906020019092919050505061066b565b005b34801561012457600080fd5b5061017f600480360381019080803590602001908201803590602001908080601f016020809104026020016040519081016040528093929190818152602001838380828437820191505050505050919291929050505061078d565b604051808215151515815260200191505060405180910390f35b3480156101a557600080fd5b5061022e6004803603810190808035600019169060200190929190803590602001908201803590602001908080601f0160208091040260200160405190810160405280939291908181526020018383808284378201915050505050509192919290803573ffffffffffffffffffffffffffffffffffffffff169060200190929190505050610923565b005b34801561023c57600080fd5b5061026d60048036038101908080356000191690602001909291908035600019169060200190929190505050610c45565b604051808215151515815260200191505060405180910390f35b34801561029357600080fd5b5061029c610c74565b604051808273ffffffffffffffffffffffffffffffffffffffff1673ffffffffffffffffffffffffffffffffffffffff16815260200191505060405180910390f35b3480156102ea57600080fd5b506103536004803603810190808035600019169060200190929190803590602001908201803590602001908080601f0160208091040260200160405190810160405280939291908181526020018383808284378201915050505050509192919290505050610c9a565b005b34801561036157600080fd5b50610396600480360381019080803573ffffffffffffffffffffffffffffffffffffffff169060200190929190505050610f4b565b005b3480156103a457600080fd5b506103f560048036038101908080356000191690602001909291908035600019169060200190929190803573ffffffffffffffffffffffffffffffffffffffff16906020019092919050505061106d565b604051808215151515815260200191505060405180910390f35b34801561041b57600080fd5b506104246110a9565b604051808273ffffffffffffffffffffffffffffffffffffffff1673ffffffffffffffffffffffffffffffffffffffff16815260200191505060405180910390f35b34801561047257600080fd5b5061047b6110ce565b60405180826000191660001916815260200191505060405180910390f35b3480156104a557600080fd5b506104da600480360381019080803573ffffffffffffffffffffffffffffffffffffffff1690602001909291905050506110d8565b005b3480156104e857600080fd5b506105716004803603810190808035600019169060200190929190803590602001908201803590602001908080601f0160208091040260200160405190810160405280939291908181526020018383808284378201915050505050509192919290803573ffffffffffffffffffffffffffffffffffffffff1690602001909291905050506111d4565b005b34801561057f57600080fd5b506105da600480360381019080803590602001908201803590602001908080601f016020809104026020016040519081016040528093929190818152602001838380828437820191505050505050919291929050505061143e565b604051808215151515815260200191505060405180910390f35b34801561060057600080fd5b506106696004803603810190808035600019169060200190929190803590602001908201803590602001908080601f016020809104026020016040519081016040528093929190818152602001838380828437820191505050505050919291929050505061158f565b005b6000809054906101000a900473ffffffffffffffffffffffffffffffffffffffff1673ffffffffffffffffffffffffffffffffffffffff163373ffffffffffffffffffffffffffffffffffffffff161415156106c657600080fd5b806000806101000a81548173ffffffffffffffffffffffffffffffffffffffff021916908373ffffffffffffffffffffffffffffffffffffffff1602179055507fe68cf4546522887de125201a08bb28732b71c701ef98bdde59bcd7ee077a65da6000809054906101000a900473ffffffffffffffffffffffffffffffffffffffff16604051808273ffffffffffffffffffffffffffffffffffffffff1673ffffffffffffffffffffffffffffffffffffffff16815260200191505060405180910390a150565b60006107988261143e565b801561091c5750600160009054906101000a900473ffffffffffffffffffffffffffffffffffffffff1673ffffffffffffffffffffffffffffffffffffffff16638b51ca42600254846040518082805190602001908083835b60208310151561081657805182526020820191506020810190506020830392506107f1565b6001836020036101000a0380198251168184511680821785525050505050509050019150506040518091039020336040518463ffffffff167c010000000000000000000000000000000000000000000000000000000002815260040180846000191660001916815260200183600019166000191681526020018273ffffffffffffffffffffffffffffffffffffffff1673ffffffffffffffffffffffffffffffffffffffff1681526020019350505050602060405180830381600087803b1580156108e057600080fd5b505af11580156108f4573d6000803e3d6000fd5b505050506040513d602081101561090a57600080fd5b81019080805190602001909291905050505b9050919050565b6040805190810160405280600581526020017f61646d696e0000000000000000000000000000000000000000000000000000008152506000809054906101000a900473ffffffffffffffffffffffffffffffffffffffff1673ffffffffffffffffffffffffffffffffffffffff163373ffffffffffffffffffffffffffffffffffffffff1614806109b957506109b88161078d565b5b15156109c457600080fd5b6004600085600019166000191681526020019081526020016000206000846040518082805190602001908083835b602083101515610a1757805182526020820191506020810190506020830392506109f2565b6001836020036101000a03801982511681845116808217855250505050505090500191505060405180910390206000191660001916815260200190815260200160002060009054906101000a900460ff161515610a7357600080fd5b60016003600086600019166000191681526020019081526020016000206000856040518082805190602001908083835b602083101515610ac85780518252602082019150602081019050602083039250610aa3565b6001836020036101000a03801982511681845116808217855250505050505090500191505060405180910390206000191660001916815260200190815260200160002060008473ffffffffffffffffffffffffffffffffffffffff1673ffffffffffffffffffffffffffffffffffffffff16815260200190815260200160002060006101000a81548160ff0219169083151502179055507f407d91ed2028325ba84bcf37bade3cde79c3dec599612fa155b042eba4786ddc848484604051808460001916600019168152602001806020018373ffffffffffffffffffffffffffffffffffffffff1673ffffffffffffffffffffffffffffffffffffffff168152602001828103825284818151815260200191508051906020019080838360005b83811015610c03578082015181840152602081019050610be8565b50505050905090810190601f168015610c305780820380516001836020036101000a031916815260200191505b5094505050505060405180910390a150505050565b60046020528160005260406000206020528060005260406000206000915091509054906101000a900460ff1681565b600160009054906101000a900473ffffffffffffffffffffffffffffffffffffffff1681565b6040805190810160405280600581526020017f61646d696e0000000000000000000000000000000000000000000000000000008152506000809054906101000a900473ffffffffffffffffffffffffffffffffffffffff1673ffffffffffffffffffffffffffffffffffffffff163373ffffffffffffffffffffffffffffffffffffffff161480610d305750610d2f8161078d565b5b1515610d3b57600080fd5b6004600084600019166000191681526020019081526020016000206000836040518082805190602001908083835b602083101515610d8e5780518252602082019150602081019050602083039250610d69565b6001836020036101000a03801982511681845116808217855250505050505090500191505060405180910390206000191660001916815260200190815260200160002060009054906101000a900460ff16151515610deb57600080fd5b60016004600085600019166000191681526020019081526020016000206000846040518082805190602001908083835b602083101515610e405780518252602082019150602081019050602083039250610e1b565b6001836020036101000a03801982511681845116808217855250505050505090500191505060405180910390206000191660001916815260200190815260200160002060006101000a81548160ff0219169083151502179055507f9e854cfefd293f12a3d57e50652dd623ba2880249fd212fa50f89c32a468c26d838360405180836000191660001916815260200180602001828103825283818151815260200191508051906020019080838360005b83811015610f0b578082015181840152602081019050610ef0565b50505050905090810190601f168015610f385780820380516001836020036101000a031916815260200191505b50935050505060405180910390a1505050565b6000809054906101000a900473ffffffffffffffffffffffffffffffffffffffff1673ffffffffffffffffffffffffffffffffffffffff163373ffffffffffffffffffffffffffffffffffffffff16141515610fa657600080fd5b806000806101000a81548173ffffffffffffffffffffffffffffffffffffffff021916908373ffffffffffffffffffffffffffffffffffffffff1602179055507fe68cf4546522887de125201a08bb28732b71c701ef98bdde59bcd7ee077a65da6000809054906101000a900473ffffffffffffffffffffffffffffffffffffffff16604051808273ffffffffffffffffffffffffffffffffffffffff1673ffffffffffffffffffffffffffffffffffffffff16815260200191505060405180910390a150565b6003602052826000526040600020602052816000526040600020602052806000526040600020600092509250509054906101000a900460ff1681565b6000809054906101000a900473ffffffffffffffffffffffffffffffffffffffff1681565b6000600254905090565b6000809054906101000a900473ffffffffffffffffffffffffffffffffffffffff1673ffffffffffffffffffffffffffffffffffffffff163373ffffffffffffffffffffffffffffffffffffffff1614151561113357600080fd5b600160009054906101000a900473ffffffffffffffffffffffffffffffffffffffff1673ffffffffffffffffffffffffffffffffffffffff163073ffffffffffffffffffffffffffffffffffffffff161415151561119057600080fd5b80600160006101000a81548173ffffffffffffffffffffffffffffffffffffffff021916908373ffffffffffffffffffffffffffffffffffffffff16021790555050565b6040805190810160405280600581526020017f61646d696e0000000000000000000000000000000000000000000000000000008152506000809054906101000a900473ffffffffffffffffffffffffffffffffffffffff1673ffffffffffffffffffffffffffffffffffffffff163373ffffffffffffffffffffffffffffffffffffffff16148061126a57506112698161078d565b5b151561127557600080fd5b6003600085600019166000191681526020019081526020016000206000846040518082805190602001908083835b6020831015156112c857805182526020820191506020810190506020830392506112a3565b6001836020036101000a03801982511681845116808217855250505050505090500191505060405180910390206000191660001916815260200190815260200160002060008373ffffffffffffffffffffffffffffffffffffffff1673ffffffffffffffffffffffffffffffffffffffff16815260200190815260200160002060006101000a81549060ff02191690557f4fbccdb14b9a6cf4300c7a6ec5bf09d09677d23ac78f755e9249094d80cd6e27848484604051808460001916600019168152602001806020018373ffffffffffffffffffffffffffffffffffffffff1673ffffffffffffffffffffffffffffffffffffffff168152602001828103825284818151815260200191508051906020019080838360005b838110156113fc5780820151818401526020810190506113e1565b50505050905090810190601f1680156114295780820380516001836020036101000a031916815260200191505b5094505050505060405180910390a150505050565b6000600160009054906101000a900473ffffffffffffffffffffffffffffffffffffffff1673ffffffffffffffffffffffffffffffffffffffff16633037cea3600254846040518082805190602001908083835b6020831015156114b75780518252602082019150602081019050602083039250611492565b6001836020036101000a03801982511681845116808217855250505050505090500191505060405180910390206040518363ffffffff167c0100000000000000000000000000000000000000000000000000000000028152600401808360001916600019168152602001826000191660001916815260200192505050602060405180830381600087803b15801561154d57600080fd5b505af1158015611561573d6000803e3d6000fd5b505050506040513d602081101561157757600080fd5b81019080805190602001909291905050509050919050565b6040805190810160405280600581526020017f61646d696e0000000000000000000000000000000000000000000000000000008152506000809054906101000a900473ffffffffffffffffffffffffffffffffffffffff1673ffffffffffffffffffffffffffffffffffffffff163373ffffffffffffffffffffffffffffffffffffffff16148061162557506116248161078d565b5b151561163057600080fd5b6004600084600019166000191681526020019081526020016000206000836040518082805190602001908083835b602083101515611683578051825260208201915060208101905060208303925061165e565b6001836020036101000a03801982511681845116808217855250505050505090500191505060405180910390206000191660001916815260200190815260200160002060009054906101000a900460ff1615156116df57600080fd5b6004600084600019166000191681526020019081526020016000206000836040518082805190602001908083835b602083101515611732578051825260208201915060208101905060208303925061170d565b6001836020036101000a03801982511681845116808217855250505050505090500191505060405180910390206000191660001916815260200190815260200160002060006101000a81549060ff02191690557f5c012fe87ecf5fc2e083217e8ce9c77a88d3dd15c311bd6725ebbb9421147902838360405180836000191660001916815260200180602001828103825283818151815260200191508051906020019080838360005b838110156117f65780820151818401526020810190506117db565b50505050905090810190601f1680156118235780820380516001836020036101000a031916815260200191505b50935050505060405180910390a15050505600a165627a7a7230582063c1caa5ffdc8047f848b58c6c3ecc8c2960b6fc4a09137be22de634a4d26bb80029",
  "source": "pragma solidity ^0.4.16;\n\nimport \"./Owned.sol\";\n\n\ncontract RolesEvents {\n    event LogRoleAdded(bytes32 hashOfContract, string roleName);\n    event LogRoleRemoved(bytes32 hashOfContract, string roleName);\n    event LogRoleGranted(bytes32 hashOfContract, string roleName, address user);\n    event LogRoleRevoked(bytes32 hashOfContract, string roleName, address user);\n}\n\n\ninterface RolesFunction {\n    function knownRoleNames(bytes32 contractHash, bytes32 nameHash) public view returns (bool);\n    function roleList(bytes32 contractHash, bytes32 nameHash, address member) public view returns (bool);\n    function addContractRole(bytes32 ctrct, string roleName) public;\n    function removeContractRole(bytes32 ctrct, string roleName) public;\n    function grantUserRole(bytes32 ctrct, string roleName, address user) public;\n    function revokeUserRole(bytes32 ctrct, string roleName, address user) public;\n}\n\ncontract rolesTest is Owned{\n    RolesFunction public roles;\n    bytes32 public contractHash;\n\n    function rolesTest(string _contractName, address _roles) public{\n\n        require(_roles!=address(0x0));\n        contractHash = keccak256(_contractName);\n        roles = RolesFunction(_roles);\n    }\n\n    modifier onlyRole(string role) {\n        require(senderHasRole(role));\n        _;\n    }\n\n\n\n    modifier roleOrOwner(string role) {\n        require(msg.sender == owner || senderHasRole(role));\n        _;\n    }\n\n    function contractHash() public view returns (bytes32){\n        return contractHash;\n    }\n\n\n    function hasRole(string roleName) public view returns (bool){\n        return roles.knownRoleNames(contractHash, keccak256(roleName));\n    }\n\n\n    function senderHasRole(string roleName) public view returns (bool){\n        return hasRole(roleName)&& roles.roleList(contractHash, keccak256(roleName),msg.sender);\n    }\n\n    function setRolesContract (address roles_) public onlyOwner {\n        require(this !=address(roles));\n        roles =RolesFunction(roles_);\n    }\n}\n\ncontract Roles is RolesEvents,rolesTest {\n    // mapping is contract -> role -> sender_address -> boolean\n    mapping(bytes32 => mapping (bytes32 => mapping (address => bool))) public roleList;\n    // the intention is\n    mapping (bytes32 => mapping (bytes32 => bool)) public knownRoleNames;\n\n    //add roles user pair\n\n    function Roles() rolesTest(\"RolesDatabase\",this) public {\n\n    }\n\n\n    function addContractRole(bytes32 hashOfContract, string roleName) public roleOrOwner(\"admin\") {\n        require(!knownRoleNames[hashOfContract][keccak256(roleName)]);\n        knownRoleNames[hashOfContract][keccak256(roleName)] = true;\n        LogRoleAdded(hashOfContract, roleName);\n    }\n\n    function removeContractRole(bytes32 hashOfContract, string roleName) public roleOrOwner(\"admin\") {\n        require(knownRoleNames[hashOfContract][keccak256(roleName)]);\n        delete knownRoleNames[hashOfContract][keccak256(roleName)];\n        LogRoleRemoved(hashOfContract, roleName);\n    }\n\n    function grantUserRole(bytes32 hashOfContract, string roleName, address user) public roleOrOwner(\"admin\") {\n        require(knownRoleNames[hashOfContract][keccak256(roleName)]);\n        roleList[hashOfContract][keccak256(roleName)][user] = true;\n        LogRoleGranted(hashOfContract, roleName, user);\n    }\n\n    function revokeUserRole(bytes32 hashOfContract, string roleName, address user) public roleOrOwner(\"admin\") {\n        delete roleList[hashOfContract][keccak256(roleName)][user];\n        LogRoleRevoked(hashOfContract, roleName, user);\n    }\n\n}\n\n\n\n",
  "sourcePath": "/Users/hao/onedrive/OneDrive - The University of Melbourne/project/Product_passport/contracts/authority/Roles.sol",
  "compiler": {
    "name": "solc",
    "version": "0.4.23+commit.124ca40d.Emscripten.clang"
  },
  "schemaVersion": "2.0.0",
  "updatedAt": "2018-05-28T22:44:20.569Z"
}