{
  "contractName": "Users",
  "abi": [
    {
      "constant": true,
      "inputs": [
        {
          "name": "",
          "type": "uint256"
        }
      ],
      "name": "userAccts",
      "outputs": [
        {
          "name": "",
          "type": "address"
        }
      ],
      "payable": false,
      "stateMutability": "view",
      "type": "function"
    },
    {
      "constant": false,
      "inputs": [
        {
          "name": "owner_",
          "type": "address"
        }
      ],
      "name": "setOwner",
      "outputs": [],
      "payable": false,
      "stateMutability": "nonpayable",
      "type": "function"
    },
    {
      "constant": false,
      "inputs": [
        {
          "name": "owner_",
          "type": "address"
        }
      ],
      "name": "transferOwnerShip",
      "outputs": [],
      "payable": false,
      "stateMutability": "nonpayable",
      "type": "function"
    },
    {
      "constant": true,
      "inputs": [],
      "name": "owner",
      "outputs": [
        {
          "name": "",
          "type": "address"
        }
      ],
      "payable": false,
      "stateMutability": "view",
      "type": "function"
    },
    {
      "anonymous": false,
      "inputs": [
        {
          "indexed": false,
          "name": "fName",
          "type": "bytes16"
        },
        {
          "indexed": false,
          "name": "lName",
          "type": "bytes16"
        },
        {
          "indexed": false,
          "name": "age",
          "type": "uint256"
        }
      ],
      "name": "userInfo",
      "type": "event"
    },
    {
      "anonymous": false,
      "inputs": [
        {
          "indexed": false,
          "name": "newOwner",
          "type": "address"
        }
      ],
      "name": "SetTheOwner",
      "type": "event"
    },
    {
      "constant": false,
      "inputs": [
        {
          "name": "_address",
          "type": "address"
        },
        {
          "name": "_age",
          "type": "uint256"
        },
        {
          "name": "_fName",
          "type": "bytes16"
        },
        {
          "name": "_lName",
          "type": "bytes16"
        }
      ],
      "name": "setUser",
      "outputs": [],
      "payable": false,
      "stateMutability": "nonpayable",
      "type": "function"
    },
    {
      "constant": true,
      "inputs": [],
      "name": "getUsers",
      "outputs": [
        {
          "name": "",
          "type": "address[]"
        }
      ],
      "payable": false,
      "stateMutability": "view",
      "type": "function"
    },
    {
      "constant": true,
      "inputs": [
        {
          "name": "_address",
          "type": "address"
        }
      ],
      "name": "getUser",
      "outputs": [
        {
          "name": "",
          "type": "uint256"
        },
        {
          "name": "",
          "type": "bytes16"
        },
        {
          "name": "",
          "type": "bytes16"
        }
      ],
      "payable": false,
      "stateMutability": "view",
      "type": "function"
    },
    {
      "constant": true,
      "inputs": [],
      "name": "countUsers",
      "outputs": [
        {
          "name": "",
          "type": "uint256"
        }
      ],
      "payable": false,
      "stateMutability": "view",
      "type": "function"
    }
  ],
  "bytecode": "0x6080604052336000806101000a81548173ffffffffffffffffffffffffffffffffffffffff021916908373ffffffffffffffffffffffffffffffffffffffff160217905550610a52806100536000396000f30060806040526004361061008d576000357c0100000000000000000000000000000000000000000000000000000000900463ffffffff168062ce8e3e146100925780630ab2bb13146100fe57806313af40351461016b5780636f77926b146101ae5780638863dd1a1461025f5780638da5cb5b146102a2578063f114005a146102f9578063f8fb1d0f14610380575b600080fd5b34801561009e57600080fd5b506100a76103ab565b6040518080602001828103825283818151815260200191508051906020019060200280838360005b838110156100ea5780820151818401526020810190506100cf565b505050509050019250505060405180910390f35b34801561010a57600080fd5b5061012960048036038101908080359060200190929190505050610439565b604051808273ffffffffffffffffffffffffffffffffffffffff1673ffffffffffffffffffffffffffffffffffffffff16815260200191505060405180910390f35b34801561017757600080fd5b506101ac600480360381019080803573ffffffffffffffffffffffffffffffffffffffff169060200190929190505050610477565b005b3480156101ba57600080fd5b506101ef600480360381019080803573ffffffffffffffffffffffffffffffffffffffff169060200190929190505050610599565b60405180848152602001836fffffffffffffffffffffffffffffffff19166fffffffffffffffffffffffffffffffff19168152602001826fffffffffffffffffffffffffffffffff19166fffffffffffffffffffffffffffffffff19168152602001935050505060405180910390f35b34801561026b57600080fd5b506102a0600480360381019080803573ffffffffffffffffffffffffffffffffffffffff1690602001909291905050506106ae565b005b3480156102ae57600080fd5b506102b76107d0565b604051808273ffffffffffffffffffffffffffffffffffffffff1673ffffffffffffffffffffffffffffffffffffffff16815260200191505060405180910390f35b34801561030557600080fd5b5061037e600480360381019080803573ffffffffffffffffffffffffffffffffffffffff1690602001909291908035906020019092919080356fffffffffffffffffffffffffffffffff1916906020019092919080356fffffffffffffffffffffffffffffffff191690602001909291905050506107f5565b005b34801561038c57600080fd5b50610395610a19565b6040518082815260200191505060405180910390f35b6060600280548060200260200160405190810160405280929190818152602001828054801561042f57602002820191906000526020600020905b8160009054906101000a900473ffffffffffffffffffffffffffffffffffffffff1673ffffffffffffffffffffffffffffffffffffffff16815260200190600101908083116103e5575b5050505050905090565b60028181548110151561044857fe5b906000526020600020016000915054906101000a900473ffffffffffffffffffffffffffffffffffffffff1681565b6000809054906101000a900473ffffffffffffffffffffffffffffffffffffffff1673ffffffffffffffffffffffffffffffffffffffff163373ffffffffffffffffffffffffffffffffffffffff161415156104d257600080fd5b806000806101000a81548173ffffffffffffffffffffffffffffffffffffffff021916908373ffffffffffffffffffffffffffffffffffffffff1602179055507fe68cf4546522887de125201a08bb28732b71c701ef98bdde59bcd7ee077a65da6000809054906101000a900473ffffffffffffffffffffffffffffffffffffffff16604051808273ffffffffffffffffffffffffffffffffffffffff1673ffffffffffffffffffffffffffffffffffffffff16815260200191505060405180910390a150565b6000806000600160008573ffffffffffffffffffffffffffffffffffffffff1673ffffffffffffffffffffffffffffffffffffffff16815260200190815260200160002060000154600160008673ffffffffffffffffffffffffffffffffffffffff1673ffffffffffffffffffffffffffffffffffffffff16815260200190815260200160002060010160009054906101000a900470010000000000000000000000000000000002600160008773ffffffffffffffffffffffffffffffffffffffff1673ffffffffffffffffffffffffffffffffffffffff16815260200190815260200160002060010160109054906101000a9004700100000000000000000000000000000000029250925092509193909250565b6000809054906101000a900473ffffffffffffffffffffffffffffffffffffffff1673ffffffffffffffffffffffffffffffffffffffff163373ffffffffffffffffffffffffffffffffffffffff1614151561070957600080fd5b806000806101000a81548173ffffffffffffffffffffffffffffffffffffffff021916908373ffffffffffffffffffffffffffffffffffffffff1602179055507fe68cf4546522887de125201a08bb28732b71c701ef98bdde59bcd7ee077a65da6000809054906101000a900473ffffffffffffffffffffffffffffffffffffffff16604051808273ffffffffffffffffffffffffffffffffffffffff1673ffffffffffffffffffffffffffffffffffffffff16815260200191505060405180910390a150565b6000809054906101000a900473ffffffffffffffffffffffffffffffffffffffff1681565b60008060009054906101000a900473ffffffffffffffffffffffffffffffffffffffff1673ffffffffffffffffffffffffffffffffffffffff163373ffffffffffffffffffffffffffffffffffffffff1614151561085257600080fd5b600160008673ffffffffffffffffffffffffffffffffffffffff1673ffffffffffffffffffffffffffffffffffffffff1681526020019081526020016000209050838160000181905550828160010160006101000a8154816fffffffffffffffffffffffffffffffff021916908370010000000000000000000000000000000090040217905550818160010160106101000a8154816fffffffffffffffffffffffffffffffff021916908370010000000000000000000000000000000090040217905550600160028690806001815401808255809150509060018203906000526020600020016000909192909190916101000a81548173ffffffffffffffffffffffffffffffffffffffff021916908373ffffffffffffffffffffffffffffffffffffffff16021790555050507fc0c3f3bec8418c4e7381366acb606d8d0927960e64c16758e3b12ee8f8a4a4a483838660405180846fffffffffffffffffffffffffffffffff19166fffffffffffffffffffffffffffffffff19168152602001836fffffffffffffffffffffffffffffffff19166fffffffffffffffffffffffffffffffff19168152602001828152602001935050505060405180910390a15050505050565b60006002805490509050905600a165627a7a7230582065ae1a6559770f44b426d44348f678fd93ac7ca76f42b57d1155840907891ae90029",
  "source": "pragma solidity ^0.4.21;\nimport \"../authority/Owned.sol\";\nimport \"../authority/Roles.sol\";\n\ncontract Users is Owned {\n    struct User {\n        uint age;\n        bytes16 fName;\n        bytes16 lName;\n    }\n\n    mapping (address => User) users;\n    address[] public userAccts;\n\n    event userInfo(\n        bytes16 fName,\n        bytes16 lName,\n        uint age\n    );\n\n    function setUser(address _address, uint _age, bytes16 _fName, bytes16 _lName ) onlyOwner public {\n        var user = users[_address];\n        user.age = _age;\n        user.fName = _fName;\n        user.lName = _lName;\n        userAccts.push(_address)-1 ;\n        userInfo(_fName, _lName, _age);\n    }\n\n    function getUsers() view public returns(address[]) {\n        return userAccts;\n    }\n\n    function getUser(address _address) view public returns (uint, bytes16, bytes16) {\n        return (users[_address].age, users[_address].fName, users[_address].lName);\n    }\n    //cannot use this function in test\n    function countUsers() view public returns (uint) {\n        return userAccts.length;\n    }\n\n}",
  "sourcePath": "/Users/hao/onedrive/OneDrive - The University of Melbourne/project/Product_passport/contracts/authority/Users.sol",
  "compiler": {
    "name": "solc",
    "version": "0.4.23+commit.124ca40d.Emscripten.clang"
  },
  "schemaVersion": "2.0.0",
  "updatedAt": "2018-05-28T22:44:18.742Z"
}