{
  "contractName": "Users",
  "abi": [
    {
      "constant": true,
      "inputs": [
        {
          "name": "",
          "type": "uint256"
        }
      ],
      "name": "userAccts",
      "outputs": [
        {
          "name": "",
          "type": "address"
        }
      ],
      "payable": false,
      "stateMutability": "view",
      "type": "function"
    },
    {
      "constant": true,
      "inputs": [
        {
          "name": "",
          "type": "bytes32"
        },
        {
          "name": "",
          "type": "address"
        }
      ],
      "name": "roleList",
      "outputs": [
        {
          "name": "",
          "type": "bool"
        }
      ],
      "payable": false,
      "stateMutability": "view",
      "type": "function"
    },
    {
      "constant": false,
      "inputs": [
        {
          "name": "owner_",
          "type": "address"
        }
      ],
      "name": "setOwner",
      "outputs": [],
      "payable": false,
      "stateMutability": "nonpayable",
      "type": "function"
    },
    {
      "constant": true,
      "inputs": [
        {
          "name": "roleName",
          "type": "string"
        },
        {
          "name": "user",
          "type": "address"
        }
      ],
      "name": "revokeUserRole",
      "outputs": [],
      "payable": false,
      "stateMutability": "view",
      "type": "function"
    },
    {
      "constant": true,
      "inputs": [
        {
          "name": "roleName",
          "type": "string"
        },
        {
          "name": "user",
          "type": "address"
        }
      ],
      "name": "checkUserRole",
      "outputs": [
        {
          "name": "",
          "type": "bool"
        }
      ],
      "payable": false,
      "stateMutability": "view",
      "type": "function"
    },
    {
      "constant": true,
      "inputs": [
        {
          "name": "roleName",
          "type": "string"
        }
      ],
      "name": "senderHasRole",
      "outputs": [
        {
          "name": "",
          "type": "bool"
        }
      ],
      "payable": false,
      "stateMutability": "view",
      "type": "function"
    },
    {
      "constant": false,
      "inputs": [
        {
          "name": "owner_",
          "type": "address"
        }
      ],
      "name": "transferOwnerShip",
      "outputs": [],
      "payable": false,
      "stateMutability": "nonpayable",
      "type": "function"
    },
    {
      "constant": true,
      "inputs": [],
      "name": "getOwner",
      "outputs": [
        {
          "name": "",
          "type": "address"
        }
      ],
      "payable": false,
      "stateMutability": "view",
      "type": "function"
    },
    {
      "constant": true,
      "inputs": [],
      "name": "owner",
      "outputs": [
        {
          "name": "",
          "type": "address"
        }
      ],
      "payable": false,
      "stateMutability": "view",
      "type": "function"
    },
    {
      "constant": false,
      "inputs": [
        {
          "name": "roleName",
          "type": "string"
        },
        {
          "name": "user",
          "type": "address"
        }
      ],
      "name": "grantUserRole",
      "outputs": [],
      "payable": false,
      "stateMutability": "nonpayable",
      "type": "function"
    },
    {
      "anonymous": false,
      "inputs": [
        {
          "indexed": false,
          "name": "fName",
          "type": "bytes16"
        },
        {
          "indexed": false,
          "name": "lName",
          "type": "bytes16"
        },
        {
          "indexed": false,
          "name": "age",
          "type": "uint256"
        }
      ],
      "name": "userInfo",
      "type": "event"
    },
    {
      "anonymous": false,
      "inputs": [
        {
          "indexed": false,
          "name": "newOwner",
          "type": "address"
        }
      ],
      "name": "SetTheOwner",
      "type": "event"
    },
    {
      "constant": false,
      "inputs": [
        {
          "name": "_address",
          "type": "address"
        },
        {
          "name": "_age",
          "type": "uint256"
        },
        {
          "name": "_fName",
          "type": "bytes16"
        },
        {
          "name": "_lName",
          "type": "bytes16"
        }
      ],
      "name": "setUser",
      "outputs": [],
      "payable": false,
      "stateMutability": "nonpayable",
      "type": "function"
    },
    {
      "constant": true,
      "inputs": [],
      "name": "getUsers",
      "outputs": [
        {
          "name": "",
          "type": "address[]"
        }
      ],
      "payable": false,
      "stateMutability": "view",
      "type": "function"
    },
    {
      "constant": true,
      "inputs": [
        {
          "name": "_address",
          "type": "address"
        }
      ],
      "name": "getUser",
      "outputs": [
        {
          "name": "",
          "type": "uint256"
        },
        {
          "name": "",
          "type": "bytes16"
        },
        {
          "name": "",
          "type": "bytes16"
        }
      ],
      "payable": false,
      "stateMutability": "view",
      "type": "function"
    },
    {
      "constant": true,
      "inputs": [],
      "name": "countUsers",
      "outputs": [
        {
          "name": "",
          "type": "uint256"
        }
      ],
      "payable": false,
      "stateMutability": "view",
      "type": "function"
    }
  ],
  "bytecode": "0x6080604052336000806101000a81548173ffffffffffffffffffffffffffffffffffffffff021916908373ffffffffffffffffffffffffffffffffffffffff160217905550611274806100536000396000f3006080604052600436106100cf576000357c0100000000000000000000000000000000000000000000000000000000900463ffffffff168062ce8e3e146100d45780630ab2bb13146101405780630b036816146101ad57806313af4035146102165780631b2c0f6a146102595780631c432c60146102e25780631ca03b8e146103835780636f77926b146104045780638863dd1a146104b5578063893d20e8146104f85780638da5cb5b1461054f578063d50ea76a146105a6578063f114005a1461062f578063f8fb1d0f146106b6575b600080fd5b3480156100e057600080fd5b506100e96106e1565b6040518080602001828103825283818151815260200191508051906020019060200280838360005b8381101561012c578082015181840152602081019050610111565b505050509050019250505060405180910390f35b34801561014c57600080fd5b5061016b6004803603810190808035906020019092919050505061076f565b604051808273ffffffffffffffffffffffffffffffffffffffff1673ffffffffffffffffffffffffffffffffffffffff16815260200191505060405180910390f35b3480156101b957600080fd5b506101fc6004803603810190808035600019169060200190929190803573ffffffffffffffffffffffffffffffffffffffff1690602001909291905050506107ad565b604051808215151515815260200191505060405180910390f35b34801561022257600080fd5b50610257600480360381019080803573ffffffffffffffffffffffffffffffffffffffff1690602001909291905050506107dc565b005b34801561026557600080fd5b506102e0600480360381019080803590602001908201803590602001908080601f0160208091040260200160405190810160405280939291908181526020018383808284378201915050505050509192919290803573ffffffffffffffffffffffffffffffffffffffff1690602001909291905050506108fe565b005b3480156102ee57600080fd5b50610369600480360381019080803590602001908201803590602001908080601f0160208091040260200160405190810160405280939291908181526020018383808284378201915050505050509192919290803573ffffffffffffffffffffffffffffffffffffffff169060200190929190505050610a77565b604051808215151515815260200191505060405180910390f35b34801561038f57600080fd5b506103ea600480360381019080803590602001908201803590602001908080601f0160208091040260200160405190810160405280939291908181526020018383808284378201915050505050509192919290505050610b49565b604051808215151515815260200191505060405180910390f35b34801561041057600080fd5b50610445600480360381019080803573ffffffffffffffffffffffffffffffffffffffff169060200190929190505050610c1a565b60405180848152602001836fffffffffffffffffffffffffffffffff19166fffffffffffffffffffffffffffffffff19168152602001826fffffffffffffffffffffffffffffffff19166fffffffffffffffffffffffffffffffff19168152602001935050505060405180910390f35b3480156104c157600080fd5b506104f6600480360381019080803573ffffffffffffffffffffffffffffffffffffffff169060200190929190505050610d2f565b005b34801561050457600080fd5b5061050d610e51565b604051808273ffffffffffffffffffffffffffffffffffffffff1673ffffffffffffffffffffffffffffffffffffffff16815260200191505060405180910390f35b34801561055b57600080fd5b50610564610e7a565b604051808273ffffffffffffffffffffffffffffffffffffffff1673ffffffffffffffffffffffffffffffffffffffff16815260200191505060405180910390f35b3480156105b257600080fd5b5061062d600480360381019080803590602001908201803590602001908080601f0160208091040260200160405190810160405280939291908181526020018383808284378201915050505050509192919290803573ffffffffffffffffffffffffffffffffffffffff169060200190929190505050610e9f565b005b34801561063b57600080fd5b506106b4600480360381019080803573ffffffffffffffffffffffffffffffffffffffff1690602001909291908035906020019092919080356fffffffffffffffffffffffffffffffff1916906020019092919080356fffffffffffffffffffffffffffffffff19169060200190929190505050611017565b005b3480156106c257600080fd5b506106cb61123b565b6040518082815260200191505060405180910390f35b6060600380548060200260200160405190810160405280929190818152602001828054801561076557602002820191906000526020600020905b8160009054906101000a900473ffffffffffffffffffffffffffffffffffffffff1673ffffffffffffffffffffffffffffffffffffffff168152602001906001019080831161071b575b5050505050905090565b60038181548110151561077e57fe5b906000526020600020016000915054906101000a900473ffffffffffffffffffffffffffffffffffffffff1681565b60016020528160005260406000206020528060005260406000206000915091509054906101000a900460ff1681565b6000809054906101000a900473ffffffffffffffffffffffffffffffffffffffff1673ffffffffffffffffffffffffffffffffffffffff163373ffffffffffffffffffffffffffffffffffffffff1614151561083757600080fd5b806000806101000a81548173ffffffffffffffffffffffffffffffffffffffff021916908373ffffffffffffffffffffffffffffffffffffffff1602179055507fe68cf4546522887de125201a08bb28732b71c701ef98bdde59bcd7ee077a65da6000809054906101000a900473ffffffffffffffffffffffffffffffffffffffff16604051808273ffffffffffffffffffffffffffffffffffffffff1673ffffffffffffffffffffffffffffffffffffffff16815260200191505060405180910390a150565b6040805190810160405280600581526020017f61646d696e0000000000000000000000000000000000000000000000000000008152506000809054906101000a900473ffffffffffffffffffffffffffffffffffffffff1673ffffffffffffffffffffffffffffffffffffffff163373ffffffffffffffffffffffffffffffffffffffff161480610994575061099381610b49565b5b151561099f57600080fd5b600060016000856040518082805190602001908083835b6020831015156109db57805182526020820191506020810190506020830392506109b6565b6001836020036101000a03801982511681845116808217855250505050505090500191505060405180910390206000191660001916815260200190815260200160002060008473ffffffffffffffffffffffffffffffffffffffff1673ffffffffffffffffffffffffffffffffffffffff16815260200190815260200160002060006101000a81548160ff021916908315150217905550505050565b600060016000846040518082805190602001908083835b602083101515610ab35780518252602082019150602081019050602083039250610a8e565b6001836020036101000a03801982511681845116808217855250505050505090500191505060405180910390206000191660001916815260200190815260200160002060008373ffffffffffffffffffffffffffffffffffffffff1673ffffffffffffffffffffffffffffffffffffffff16815260200190815260200160002060009054906101000a900460ff16905092915050565b600060016000836040518082805190602001908083835b602083101515610b855780518252602082019150602081019050602083039250610b60565b6001836020036101000a03801982511681845116808217855250505050505090500191505060405180910390206000191660001916815260200190815260200160002060003373ffffffffffffffffffffffffffffffffffffffff1673ffffffffffffffffffffffffffffffffffffffff16815260200190815260200160002060009054906101000a900460ff169050919050565b6000806000600260008573ffffffffffffffffffffffffffffffffffffffff1673ffffffffffffffffffffffffffffffffffffffff16815260200190815260200160002060000154600260008673ffffffffffffffffffffffffffffffffffffffff1673ffffffffffffffffffffffffffffffffffffffff16815260200190815260200160002060010160009054906101000a900470010000000000000000000000000000000002600260008773ffffffffffffffffffffffffffffffffffffffff1673ffffffffffffffffffffffffffffffffffffffff16815260200190815260200160002060010160109054906101000a9004700100000000000000000000000000000000029250925092509193909250565b6000809054906101000a900473ffffffffffffffffffffffffffffffffffffffff1673ffffffffffffffffffffffffffffffffffffffff163373ffffffffffffffffffffffffffffffffffffffff16141515610d8a57600080fd5b806000806101000a81548173ffffffffffffffffffffffffffffffffffffffff021916908373ffffffffffffffffffffffffffffffffffffffff1602179055507fe68cf4546522887de125201a08bb28732b71c701ef98bdde59bcd7ee077a65da6000809054906101000a900473ffffffffffffffffffffffffffffffffffffffff16604051808273ffffffffffffffffffffffffffffffffffffffff1673ffffffffffffffffffffffffffffffffffffffff16815260200191505060405180910390a150565b60008060009054906101000a900473ffffffffffffffffffffffffffffffffffffffff16905090565b6000809054906101000a900473ffffffffffffffffffffffffffffffffffffffff1681565b6040805190810160405280600581526020017f61646d696e0000000000000000000000000000000000000000000000000000008152506000809054906101000a900473ffffffffffffffffffffffffffffffffffffffff1673ffffffffffffffffffffffffffffffffffffffff163373ffffffffffffffffffffffffffffffffffffffff161480610f355750610f3481610b49565b5b1515610f4057600080fd5b6001806000856040518082805190602001908083835b602083101515610f7b5780518252602082019150602081019050602083039250610f56565b6001836020036101000a03801982511681845116808217855250505050505090500191505060405180910390206000191660001916815260200190815260200160002060008473ffffffffffffffffffffffffffffffffffffffff1673ffffffffffffffffffffffffffffffffffffffff16815260200190815260200160002060006101000a81548160ff021916908315150217905550505050565b60008060009054906101000a900473ffffffffffffffffffffffffffffffffffffffff1673ffffffffffffffffffffffffffffffffffffffff163373ffffffffffffffffffffffffffffffffffffffff1614151561107457600080fd5b600260008673ffffffffffffffffffffffffffffffffffffffff1673ffffffffffffffffffffffffffffffffffffffff1681526020019081526020016000209050838160000181905550828160010160006101000a8154816fffffffffffffffffffffffffffffffff021916908370010000000000000000000000000000000090040217905550818160010160106101000a8154816fffffffffffffffffffffffffffffffff021916908370010000000000000000000000000000000090040217905550600160038690806001815401808255809150509060018203906000526020600020016000909192909190916101000a81548173ffffffffffffffffffffffffffffffffffffffff021916908373ffffffffffffffffffffffffffffffffffffffff16021790555050507fc0c3f3bec8418c4e7381366acb606d8d0927960e64c16758e3b12ee8f8a4a4a483838660405180846fffffffffffffffffffffffffffffffff19166fffffffffffffffffffffffffffffffff19168152602001836fffffffffffffffffffffffffffffffff19166fffffffffffffffffffffffffffffffff19168152602001828152602001935050505060405180910390a15050505050565b60006003805490509050905600a165627a7a7230582075e46aa70f9a72856a9eb60cfb3a782814a29199cebd686943bfd18c7f83952b0029",
  "source": "pragma solidity ^0.4.21;\nimport \"../authority/Owned.sol\";\nimport \"../authority/Roles.sol\";\n\ncontract Users is Owned,Roles {\n    struct User {\n        uint age;\n        bytes16 fName;\n        bytes16 lName;\n    }\n\n    mapping (address => User) users;\n    address[] public userAccts;\n\n    event userInfo(\n        bytes16 fName,\n        bytes16 lName,\n        uint age\n    );\n\n    function setUser(address _address, uint _age, bytes16 _fName, bytes16 _lName ) onlyOwner public {\n        var user = users[_address];\n        user.age = _age;\n        user.fName = _fName;\n        user.lName = _lName;\n        userAccts.push(_address)-1 ;\n        userInfo(_fName, _lName, _age);\n    }\n\n    function getUsers() view public returns(address[]) {\n        return userAccts;\n    }\n\n    function getUser(address _address) view public returns (uint, bytes16, bytes16) {\n        return (users[_address].age, users[_address].fName, users[_address].lName);\n    }\n    //cannot use this function in test\n    function countUsers() view public returns (uint) {\n        return userAccts.length;\n    }\n\n}",
  "sourcePath": "/Users/hao/onedrive/OneDrive - The University of Melbourne/project/Product_passport/contracts/authority/Users.sol",
  "compiler": {
    "name": "solc",
    "version": "0.4.23+commit.124ca40d.Emscripten.clang"
  },
  "schemaVersion": "2.0.0",
  "updatedAt": "2018-06-03T21:24:09.429Z"
}