{
  "contractName": "Users",
  "abi": [
    {
      "constant": true,
      "inputs": [
        {
          "name": "",
          "type": "uint256"
        }
      ],
      "name": "userAccts",
      "outputs": [
        {
          "name": "",
          "type": "address"
        }
      ],
      "payable": false,
      "stateMutability": "view",
      "type": "function"
    },
    {
      "constant": false,
      "inputs": [
        {
          "name": "owner_",
          "type": "address"
        }
      ],
      "name": "setOwner",
      "outputs": [],
      "payable": false,
      "stateMutability": "nonpayable",
      "type": "function"
    },
    {
      "constant": false,
      "inputs": [
        {
          "name": "owner_",
          "type": "address"
        }
      ],
      "name": "transferOwnerShip",
      "outputs": [],
      "payable": false,
      "stateMutability": "nonpayable",
      "type": "function"
    },
    {
      "constant": true,
      "inputs": [],
      "name": "owner",
      "outputs": [
        {
          "name": "",
          "type": "address"
        }
      ],
      "payable": false,
      "stateMutability": "view",
      "type": "function"
    },
    {
      "anonymous": false,
      "inputs": [
        {
          "indexed": false,
          "name": "fName",
          "type": "bytes16"
        },
        {
          "indexed": false,
          "name": "lName",
          "type": "bytes16"
        },
        {
          "indexed": false,
          "name": "age",
          "type": "uint256"
        }
      ],
      "name": "userInfo",
      "type": "event"
    },
    {
      "anonymous": false,
      "inputs": [
        {
          "indexed": false,
          "name": "newOwner",
          "type": "address"
        }
      ],
      "name": "SetTheOwner",
      "type": "event"
    },
    {
      "constant": false,
      "inputs": [
        {
          "name": "_address",
          "type": "address"
        },
        {
          "name": "_age",
          "type": "uint256"
        },
        {
          "name": "_fName",
          "type": "bytes16"
        },
        {
          "name": "_lName",
          "type": "bytes16"
        }
      ],
      "name": "setUser",
      "outputs": [],
      "payable": false,
      "stateMutability": "nonpayable",
      "type": "function"
    },
    {
      "constant": true,
      "inputs": [],
      "name": "getUsers",
      "outputs": [
        {
          "name": "",
          "type": "address[]"
        }
      ],
      "payable": false,
      "stateMutability": "view",
      "type": "function"
    },
    {
      "constant": true,
      "inputs": [
        {
          "name": "_address",
          "type": "address"
        }
      ],
      "name": "getUser",
      "outputs": [
        {
          "name": "",
          "type": "uint256"
        },
        {
          "name": "",
          "type": "bytes16"
        },
        {
          "name": "",
          "type": "bytes16"
        }
      ],
      "payable": false,
      "stateMutability": "view",
      "type": "function"
    },
    {
      "constant": true,
      "inputs": [],
      "name": "countUsers",
      "outputs": [
        {
          "name": "",
          "type": "uint256"
        }
      ],
      "payable": false,
      "stateMutability": "view",
      "type": "function"
    }
  ],
  "bytecode": "0x6060604052336000806101000a81548173ffffffffffffffffffffffffffffffffffffffff021916908373ffffffffffffffffffffffffffffffffffffffff160217905550610a80806100536000396000f30060606040526004361061008d576000357c0100000000000000000000000000000000000000000000000000000000900463ffffffff168062ce8e3e146100925780630ab2bb13146100fc57806313af40351461015f5780636f77926b146101985780638863dd1a1461023f5780638da5cb5b14610278578063f114005a146102cd578063f8fb1d0f14610347575b600080fd5b341561009d57600080fd5b6100a5610370565b6040518080602001828103825283818151815260200191508051906020019060200280838360005b838110156100e85780820151818401526020810190506100cd565b505050509050019250505060405180910390f35b341561010757600080fd5b61011d6004808035906020019091905050610404565b604051808273ffffffffffffffffffffffffffffffffffffffff1673ffffffffffffffffffffffffffffffffffffffff16815260200191505060405180910390f35b341561016a57600080fd5b610196600480803573ffffffffffffffffffffffffffffffffffffffff16906020019091905050610443565b005b34156101a357600080fd5b6101cf600480803573ffffffffffffffffffffffffffffffffffffffff16906020019091905050610565565b60405180848152602001836fffffffffffffffffffffffffffffffff19166fffffffffffffffffffffffffffffffff19168152602001826fffffffffffffffffffffffffffffffff19166fffffffffffffffffffffffffffffffff19168152602001935050505060405180910390f35b341561024a57600080fd5b610276600480803573ffffffffffffffffffffffffffffffffffffffff1690602001909190505061067a565b005b341561028357600080fd5b61028b61079c565b604051808273ffffffffffffffffffffffffffffffffffffffff1673ffffffffffffffffffffffffffffffffffffffff16815260200191505060405180910390f35b34156102d857600080fd5b610345600480803573ffffffffffffffffffffffffffffffffffffffff169060200190919080359060200190919080356fffffffffffffffffffffffffffffffff19169060200190919080356fffffffffffffffffffffffffffffffff19169060200190919050506107c1565b005b341561035257600080fd5b61035a6109e2565b6040518082815260200191505060405180910390f35b6103786109ef565b60028054806020026020016040519081016040528092919081815260200182805480156103fa57602002820191906000526020600020905b8160009054906101000a900473ffffffffffffffffffffffffffffffffffffffff1673ffffffffffffffffffffffffffffffffffffffff16815260200190600101908083116103b0575b5050505050905090565b60028181548110151561041357fe5b90600052602060002090016000915054906101000a900473ffffffffffffffffffffffffffffffffffffffff1681565b6000809054906101000a900473ffffffffffffffffffffffffffffffffffffffff1673ffffffffffffffffffffffffffffffffffffffff163373ffffffffffffffffffffffffffffffffffffffff1614151561049e57600080fd5b806000806101000a81548173ffffffffffffffffffffffffffffffffffffffff021916908373ffffffffffffffffffffffffffffffffffffffff1602179055507fe68cf4546522887de125201a08bb28732b71c701ef98bdde59bcd7ee077a65da6000809054906101000a900473ffffffffffffffffffffffffffffffffffffffff16604051808273ffffffffffffffffffffffffffffffffffffffff1673ffffffffffffffffffffffffffffffffffffffff16815260200191505060405180910390a150565b6000806000600160008573ffffffffffffffffffffffffffffffffffffffff1673ffffffffffffffffffffffffffffffffffffffff16815260200190815260200160002060000154600160008673ffffffffffffffffffffffffffffffffffffffff1673ffffffffffffffffffffffffffffffffffffffff16815260200190815260200160002060010160009054906101000a900470010000000000000000000000000000000002600160008773ffffffffffffffffffffffffffffffffffffffff1673ffffffffffffffffffffffffffffffffffffffff16815260200190815260200160002060010160109054906101000a9004700100000000000000000000000000000000029250925092509193909250565b6000809054906101000a900473ffffffffffffffffffffffffffffffffffffffff1673ffffffffffffffffffffffffffffffffffffffff163373ffffffffffffffffffffffffffffffffffffffff161415156106d557600080fd5b806000806101000a81548173ffffffffffffffffffffffffffffffffffffffff021916908373ffffffffffffffffffffffffffffffffffffffff1602179055507fe68cf4546522887de125201a08bb28732b71c701ef98bdde59bcd7ee077a65da6000809054906101000a900473ffffffffffffffffffffffffffffffffffffffff16604051808273ffffffffffffffffffffffffffffffffffffffff1673ffffffffffffffffffffffffffffffffffffffff16815260200191505060405180910390a150565b6000809054906101000a900473ffffffffffffffffffffffffffffffffffffffff1681565b60008060009054906101000a900473ffffffffffffffffffffffffffffffffffffffff1673ffffffffffffffffffffffffffffffffffffffff163373ffffffffffffffffffffffffffffffffffffffff1614151561081e57600080fd5b600160008673ffffffffffffffffffffffffffffffffffffffff1673ffffffffffffffffffffffffffffffffffffffff1681526020019081526020016000209050838160000181905550828160010160006101000a8154816fffffffffffffffffffffffffffffffff021916908370010000000000000000000000000000000090040217905550818160010160106101000a8154816fffffffffffffffffffffffffffffffff0219169083700100000000000000000000000000000000900402179055506001600280548060010182816108f89190610a03565b9160005260206000209001600088909190916101000a81548173ffffffffffffffffffffffffffffffffffffffff021916908373ffffffffffffffffffffffffffffffffffffffff16021790555050507fc0c3f3bec8418c4e7381366acb606d8d0927960e64c16758e3b12ee8f8a4a4a483838660405180846fffffffffffffffffffffffffffffffff19166fffffffffffffffffffffffffffffffff19168152602001836fffffffffffffffffffffffffffffffff19166fffffffffffffffffffffffffffffffff19168152602001828152602001935050505060405180910390a15050505050565b6000600280549050905090565b602060405190810160405280600081525090565b815481835581811511610a2a57818360005260206000209182019101610a299190610a2f565b5b505050565b610a5191905b80821115610a4d576000816000905550600101610a35565b5090565b905600a165627a7a72305820b9d4863c54f1de99a50ad219d35dd14f0d3886a8d91e8dde5fe4368699b786c90029",
  "source": "pragma solidity ^0.4.16;\nimport \"../authority/Owned.sol\";\nimport \"../authority/Roles.sol\";\n\ncontract Users is Owned {\n    struct User {\n        uint age;\n        bytes16 fName;\n        bytes16 lName;\n    }\n\n    mapping (address => User) users;\n    address[] public userAccts;\n\n    event userInfo(\n        bytes16 fName,\n        bytes16 lName,\n        uint age\n    );\n\n    function setUser(address _address, uint _age, bytes16 _fName, bytes16 _lName ) onlyOwner public {\n        var user = users[_address];\n        user.age = _age;\n        user.fName = _fName;\n        user.lName = _lName;\n        userAccts.push(_address) -1;\n        userInfo(_fName, _lName, _age);\n    }\n\n    function getUsers() view public returns(address[]) {\n        return userAccts;\n    }\n\n    function getUser(address _address) view public returns (uint, bytes16, bytes16) {\n        return (users[_address].age, users[_address].fName, users[_address].lName);\n    }\n\n    function countUsers() view public returns (uint) {\n        return userAccts.length;\n    }\n\n}",
  "sourcePath": "/Users/hao/onedrive/OneDrive - The University of Melbourne/project/Product_passport/contracts/authority/Users.sol",
  "compiler": {
    "name": "solc",
    "version": "0.4.19+commit.c4cbbb05.Emscripten.clang"
  },
  "schemaVersion": "2.0.0",
  "updatedAt": "2018-05-04T07:21:54.998Z"
}