{
  "contractName": "Verifier",
  "abi": [
    {
      "constant": false,
      "inputs": [
        {
          "name": "msgHash",
          "type": "bytes32"
        },
        {
          "name": "v",
          "type": "uint8"
        },
        {
          "name": "r",
          "type": "bytes32"
        },
        {
          "name": "s",
          "type": "bytes32"
        }
      ],
      "name": "recoverAddr",
      "outputs": [
        {
          "name": "",
          "type": "address"
        }
      ],
      "payable": false,
      "stateMutability": "nonpayable",
      "type": "function"
    },
    {
      "constant": false,
      "inputs": [
        {
          "name": "_addr",
          "type": "address"
        },
        {
          "name": "msgHash",
          "type": "bytes32"
        },
        {
          "name": "v",
          "type": "uint8"
        },
        {
          "name": "r",
          "type": "bytes32"
        },
        {
          "name": "s",
          "type": "bytes32"
        }
      ],
      "name": "isFromAddr",
      "outputs": [
        {
          "name": "",
          "type": "bool"
        }
      ],
      "payable": false,
      "stateMutability": "nonpayable",
      "type": "function"
    }
  ],
  "bytecode": "0x6060604052341561000f57600080fd5b6102e38061001e6000396000f30060606040526004361061004c576000357c0100000000000000000000000000000000000000000000000000000000900463ffffffff168063e12dad1414610051578063e5df669f146100d5575b600080fd5b341561005c57600080fd5b6100bb600480803573ffffffffffffffffffffffffffffffffffffffff169060200190919080356000191690602001909190803560ff169060200190919080356000191690602001909190803560001916906020019091905050610162565b604051808215151515815260200191505060405180910390f35b34156100e057600080fd5b61012060048080356000191690602001909190803560ff169060200190919080356000191690602001909190803560001916906020019091905050610224565b604051808273ffffffffffffffffffffffffffffffffffffffff1673ffffffffffffffffffffffffffffffffffffffff16815260200191505060405180910390f35b60008573ffffffffffffffffffffffffffffffffffffffff16600186868686604051600081526020016040526000604051602001526040518085600019166000191681526020018460ff1660ff16815260200183600019166000191681526020018260001916600019168152602001945050505050602060405160208103908084039060008661646e5a03f115156101f957600080fd5b50506020604051035173ffffffffffffffffffffffffffffffffffffffff1614905095945050505050565b6000600185858585604051600081526020016040526000604051602001526040518085600019166000191681526020018460ff1660ff16815260200183600019166000191681526020018260001916600019168152602001945050505050602060405160208103908084039060008661646e5a03f115156102a457600080fd5b50506020604051035190509493505050505600a165627a7a72305820b50b743aacb5c4eafc98d54df66f95ad77aaee328cf004172acf3d372e531d230029",
  "source": "pragma solidity ^0.4.16;\n//https://medium.com/@angellopozo/ethereum-signing-and-validating-13a2d7cb0ee3\n//Solidity validator function\n//Client code to sign a message\n//Client code to call Solidity validator\n\ncontract Verifier {\n\n    function recoverAddr(bytes32 msgHash, uint8 v, bytes32 r, bytes32 s) returns (address) {\n        return ecrecover(msgHash, v, r, s);\n    }\n\n    function isFromAddr(address _addr, bytes32 msgHash, uint8 v, bytes32 r, bytes32 s) returns (bool) {\n        return ecrecover(msgHash, v, r, s) == _addr;\n    }\n\n}",
  "sourcePath": "/Users/hao/onedrive/OneDrive - The University of Melbourne/project/Product_passport/contracts/Verify.sol",
  "compiler": {
    "name": "solc",
    "version": "0.4.19+commit.c4cbbb05.Emscripten.clang"
  },
  "schemaVersion": "2.0.0",
  "updatedAt": "2018-05-03T05:52:33.508Z"
}